:020000021000EC
:1000000000000420D94E0200114F0200650C0200CE
:10001000154F0200710C0200770C02000000000076
:1000200000000000000000000000000005250200A4
:100030001D4F0200000000009D250200AD250200BA
:10004000B591020049000200234F0200234F020035
:10005000234F0200234F0200234F0200234F0200D0
:10006000234F0200234F0200234F0200234F0200C0
:10007000234F020049930200234F02006100020057
:10008000234F0200234F0200234F0200234F0200A0
:10009000234F0200234F0200234F0200234F020090
:1000A000234F0200234F0200234F0200234F020080
:1000B000234F02003DAA01000000000000000000E4
:1000C000234F0200234F0200234F0200234F020060
:1000D000234F0200234F0200234F0200234F020050
:1000E000234F0200234F0200234F020000000000B4
:1000F00000000000234F020000000000234F020018
:1001000010B5054C237833B9044B13B10448AFF351
:1001100000800123237010BD70100020000000003B
:1001200094A3030008B5034B1BB103490348AFF385
:10013000008008BD000000007410002094A303009C
:10014000154B002B08BF134B9D46A3F5803A0021A9
:100150008B460F461348144A121A1CF0F9FF0F4B36
:10016000002B00D098470E4B002B00D09847002062
:10017000002104000D000D48002802D00C4811F0A9
:100180005DFB1CF0EFFA2000290012F013F811F0CB
:1001900052FB00BF00000800000004200000000027
:1001A0001121020070100020F0CD00203D18020047
:1001B00000000000BFF34F8F0549064BCA6802F4E8
:1001C000E0621343CB60BFF34F8F00BFFDE700BF7A
:1001D00000ED00E00400FA0570470020704770470A
:1001E000014B01221A707047B4130020D0E900308F
:1001F000184708B50446204609F04AFFFBE70B689C
:1002000003604B6843608B688360704738B5054C6A
:10021000A4F1540520460C3C0CF0A4FAAC42F9D1F0
:1002200038BD00BFCC110020094B1B681A785AB1A9
:100230005A784AB1DA783AB11A792AB101220549D5
:100240009A7005480CF03CB900229A700349F8E70F
:100250001002002063100300683300206F100300B9
:1002600010B5044600681CF02DFB204610BD10B5EB
:10027000044600681CF026FB204610BD10B5084C53
:100280000CF0CEFB236803F59673984207D90CF067
:10029000C7FB044A2060137883F00103137010BD7C
:1002A000701200207014002038B50A480A4C0AF079
:1002B000BAFA054630B9094909480CF001F9236832
:1002C0001D7138BD074906480CF0FAF82368012271
:1002D0001A71F6E7E42A00201002002048160300F5
:1002E000683300205916030010B508F0FBF8012808
:1002F000044619D1144808F0CDFBA8B1134B14499A
:100300001B6814485C700CF0DBF808F0EBF802286E
:1003100005D008F0E7F8012801D008F0E3F80A4812
:10032000BDE8104008F0B6BB08F0DCF8022804D1A4
:10033000064B1B6800225A70E7E7034808F0AAFB47
:100340000028F5D010BD00BFA81300201002002027
:10035000811003006833002038B51A4C1A4825680C
:1003600006F04AFA28601848256806F067FB6860BE
:10037000154806F073FA9FED157A2368144A07EEC4
:10038000900AC7EE877AC3ED027AD3ED007AF5EED4
:10039000C07AF1EE10FA0FDDD3ED017AF5EEC07AF6
:1003A000F1EE10FA08DD13680A4901221A700A48B2
:1003B000BDE838400CF084B81368084900221A7070
:1003C000F5E700BF30020020241100200000C842E1
:1003D00010020020A40F030068330020B20F0300B6
:1003E00038B550210A480B4C09F008FD054630B9D4
:1003F00009490A480CF064F82368DD7038BD0849E3
:1004000006480CF05DF823680122DA70F6E700BFB9
:10041000180200201002002092140300683300200C
:10042000B7140300F0B590F8B46000234FF0140C3B
:10043000DCB2A6420BD90CFB03F41D4607598F42D0
:1004400003D104446468944203D00133F0E74FF0D1
:10045000FF352846F0BD002910B5044615DB90F89D
:10046000B430994211DA142202FB01F05B1A013B0D
:10047000811821445A4320441CF006FE94F8B430FD
:10048000013B84F8B430012010BD0020FCE72DE9C9
:10049000F84306460CF0C4FA0024142796F8B4304A
:1004A000A3422DD907FB0463D3E90212851A8D42BA
:1004B00018D304EB840006EB80050A44D5F80490B9
:1004C0001D6956F82080DA607DB90125B9F1000F69
:1004D00014DB4846C04796F8B5308BB90CF0A0FA4B
:1004E000002DDBD00134E4B2D8E7013D1D61002DC1
:1004F000EBD121463046FFF7AEFFE7E7C047EAE71A
:10050000BDE8F8832DE9F843089F16463A460546AC
:1005100089469846FFF786FF041E2FDA95F8B44007
:100520009DF824309C4228BF1C4695F8B430082B17
:100530002AD85EB3A3420AD9142204FB0220A0F1F8
:1005400014011B1B5A43294428441CF09DFD04EB55
:1005500084039B00EA1845F80390142303FB04541A
:10056000A66057600CF05CFAC4E9030895F8B43053
:10057000013385F8B4300120BDE8F88321462846D0
:10058000FFF769FFE4B2D0E70020F5E73046F3E774
:1005900013B59DF8104001944FF0FF340094FFF71D
:1005A000B1FF02B010BD07B500930023FFF7F0FFC5
:1005B00003B05DF804FB00007FB50023144E8DF8F6
:1005C00007200D468DF80F30322401230DF107026C
:1005D0002946304609F09BFC05200CF035FA012332
:1005E0000DF10F022946304609F02EFC9DF80F2030
:1005F0009DF807309A4209D00520013C0CF024FAFE
:1006000014F0FF04E1D1204604B070BD0120FBE7E7
:10061000180200207FB50023144EADF806200D46C9
:10062000ADF80E30322402230DF106022946304681
:1006300009F06DFC05200CF007FA02230DF10E0203
:100640002946304609F000FCBDF80E20BDF8063002
:100650009A4209D00520013C0CF0F6F914F0FF0491
:10066000E1D1204604B070BD0120FBE71802002054
:1006700008B50548054A1A2309F049FC0520BDE8DC
:1006800008400CF0E1B900BF18020020261200203B
:1006900030B5174D85B00A2428460AF0C4F860B971
:1006A0000A20013C0CF0D0F914F0FF04F4D105202D
:1006B0000CF0C8F9204605B030BD0E4C204609F0BC
:1006C000A3FC0D4B03930D4B6946CDE9003404F5B3
:1006D000A8700023029314F031F8039B13B19B68B8
:1006E00068469847064B074A1B6801241A60DEE7F4
:1006F000E42A0020E81A0020780E0300F30101002C
:1007000014020020E0FFEDFFF0B587B01E469DF813
:1007100034309DF83070134C09B215B203B30DF1AB
:100720001603039305AB02930DF11203019304AB7F
:100730000A46009356F827102B46204607F0ACFCDB
:10074000BDF814300222C3F1800393FBF2F323823D
:1007500056F82710034865820BF09EFE07B0F0BDE7
:100760002182F5E7D811002008B5AE21034806F034
:1007700019FB034B00221A7008BD00BFD8110020DE
:100780007013002008B5AF21034806F00BFB034BA4
:1007900001221A7008BD00BFD8110020701300207C
:1007A00010B50A4904460BF08BFE094920460BF0B0
:1007B00087FE084920460BF083FE20460BF07AFEA8
:1007C00005490648BDE810400BF07ABED80F03007B
:1007D000E80F03000010030012100300683300202C
:1007E0002DE9F74F0446DB49DFF86C84DFF86CA491
:1007F000D94DDA4FDFF86894DFF868B4D84E0BF0C3
:100800005FFED84920460BF05BFED74920460BF02F
:1008100057FED64920460BF053FED54920460BF033
:100820004FFED44920460BF04BFED34920460BF037
:1008300047FED24920460BF043FE414620460BF0CE
:100840003FFECF4920460BF03BFECE4920460BF041
:1008500037FECD4920460BF033FE514620460BF0C3
:100860002FFECA4920460BF02BFE294620460BF0EE
:1008700027FEC74920460BF023FE394620460BF0E1
:100880001FFEC44920460BF01BFEC34920460BF057
:1008900017FE294620460BF013FEC04920460BF0F8
:1008A0000FFE494620460BF00BFEBD4B0093194648
:1008B00020460BF005FE294620460BF001FEB94903
:1008C00020460BF0FDFD414620460BF0F9FDB649F0
:1008D00020460BF0F5FDB54920460BF0F1FDB4497B
:1008E00020460BF0EDFD594620460BF0E9FD294668
:1008F00020460BF0E5FDAF4920460BF0E1FD4146F7
:1009000020460BF0DDFDAC4920460BF0D9FDAB498C
:1009100020460BF0D5FDAA4920460BF0D1FD31460B
:1009200020460BF0CDFDA74920460BF0C9FD294616
:1009300020460BF0C5FDA44920460BF0C1FD5946E9
:1009400020460BF0BDFD009B204619460BF0B8FD7C
:10095000514620460BF0B4FD294620460BF0B0FD71
:100960009A4920460BF0ACFD494620460BF0A8FD05
:100970009749DFF8F49220460BF0A2FD95492046F6
:100980000BF09EFD944920460BF09AFD4946204607
:100990000BF096FD914920460BF092FD3146204622
:1009A0000BF08EFD8E4920460BF08AFD294620462D
:1009B0000BF086FD8B4920460BF082FD5946204600
:1009C0000BF07EFD8849DFF8A4B220460BF078FDDD
:1009D000864920460BF074FD854920460BF070FDDA
:1009E000294620460BF06CFD824920460BF068FD3D
:1009F000814920460BF064FD804920460BF060FDE4
:100A00007F4920460BF05CFD294620460BF058FD3F
:100A10007C4920460BF054FD314620460BF050FD3A
:100A2000794920460BF04CFD414620460BF048FD2D
:100A3000764920460BF044FD294620460BF040FD48
:100A4000734920460BF03CFD314620460BF038FD43
:100A5000514620460BF034FD6E49DFF814A22046C3
:100A60000BF02EFD6C4920460BF02AFD294620464E
:100A70000BF026FD694920460BF022FD684920460F
:100A80000BF01EFD674920460BF01AFD2946204653
:100A90000BF016FD644920460BF012FD6349204619
:100AA0000BF00EFD294620460BF00AFD604920465A
:100AB0000BF006FD394620460BF002FD5D4920464D
:100AC0000BF0FEFC5C4920460BF0FAFC5B4920462B
:100AD0000BF0F6FC294620460BF0F2FC5849204664
:100AE0000BF0EEFC314620460BF0EAFC294620468E
:100AF0000BF0E6FC534920460BF0E2FC3946204659
:100B00000BF0DEFC514620460BF0DAFC294620466D
:100B10000BF0D6FC4C4920460BF0D2FC3146204667
:100B20000BF0CEFC294620460BF0CAFC4749204674
:100B30000BF0C6FC394620460BF0C2FC4449204667
:100B40000BF0BEFC434A0192114620460BF0B8FC64
:100B500090E000BF601603005C1703006B170300F2
:100B60007A18030070160300801603009116030024
:100B700098160300C1160300D4160300DC16030008
:100B8000EE160300FA1603002D17030041170300A9
:100B90005E1703007A1703009D170300C3170300B5
:100BA000E6170300FB170300091803001C180300D5
:100BB0002A180300451803005218030066180300A2
:100BC000711803008E180300A3180300AA1803006D
:100BD000B4180300C5180300D0180300EA18030076
:100BE000FF1803000F1903001A1903002C19030042
:100BF0003F19030053190300601903006E19030025
:100C00008819030097190300A0190300B7190300FE
:100C1000C8190300D3190300EA190300FC190300E3
:100C20000D1A0300281A0300381A0300431A0300A0
:100C3000551A0300721A03008F1A0300B41A030036
:100C4000C31A0300E31A03000C1B03001E1B03005E
:100C5000371B03005F1B0300E3160300181A030091
:100C6000CD17030038180300DD180300A31B030091
:100C7000F31A0300DB4B0093194620460BF020FCCF
:100C8000594620460BF01CFC294620460BF018FC68
:100C9000D54920460BF014FCD44920460BF010FC3B
:100CA000D34920460BF00CFC314620460BF008FCE3
:100CB000294620460BF004FCCE4920460BF000FCF0
:100CC000394620460BF0FCFBCB4920460BF0F8FBE5
:100CD000019A204611460BF0F3FB009B2046194673
:100CE0000BF0EEFB594620460BF0EAFB2946204666
:100CF0000BF0E6FBC149DFF8ECB320460BF0E0FB5C
:100D0000394620460BF0DCFB514620460BF0D8FB61
:100D1000294620460BF0D4FBB949DFF8CCA3B94FE4
:100D200020460BF0CDFBB84B0093194620460BF044
:100D3000C7FB594620460BF0C3FBB44920460BF0D5
:100D4000BFFB514620460BF0BBFB394620460BF05B
:100D5000B7FB294620460BF0B3FBAD4920460BF00C
:100D6000AFFB009B204619460BF0AAFB59462046D4
:100D70000BF0A6FBA749DFF874B320460BF0A0FBED
:100D8000514620460BF09CFB394620460BF098FB61
:100D9000294620460BF094FB9F49A04FDFF850A353
:100DA00020460BF08DFB9E4920460BF089FB9D49A8
:100DB00020460BF085FB9C4920460BF081FB494601
:100DC00020460BF07DFB994920460BF079FB294624
:100DD00020460BF075FB964920460BF071FB9549B8
:100DE00020460BF06DFB314620460BF069FB924923
:100DF000924E20460BF064FB414620460BF060FB10
:100E00008F49DFF8F08220460BF05AFB8D492046CF
:100E10000BF056FB294620460BF052FB8A49204630
:100E20000BF04EFB894920460BF04AFB88492046CF
:100E30000BF046FB294620460BF042FB8549204635
:100E40000BF03EFB844920460BF03AFB83492046D9
:100E50000BF036FB294620460BF032FB804920463A
:100E60000BF02EFB7F4920460BF02AFB294620463B
:100E70000BF026FB7C4920460BF022FB7B492046E9
:100E80000BF01EFB7A4920460BF01AFB79492046ED
:100E90000BF016FB784920460BF012FB2946204642
:100EA0000BF00EFB754920460BF00AFB74492046F7
:100EB0000BF006FB734920460BF002FB2946204647
:100EC0000BF0FEFA704920460BF0FAFA6F49204603
:100ED0000BF0F6FA6E4920460BF0F2FA294620464E
:100EE0000BF0EEFA6B4920460BF0EAFA6A4920460D
:100EF0000BF0E6FA694920460BF0E2FA6849204611
:100F00000BF0DEFA294620460BF0DAFA6549204656
:100F10000BF0D6FA644920460BF0D2FA634920461A
:100F20000BF0CEFA624920460BF0CAFA2946204659
:100F30000BF0C6FA5F4920460BF0C2FA3146204654
:100F40000BF0BEFA294620460BF0BAFA5A49204661
:100F50000BF0B6FA594920460BF0B2FA2946204662
:100F60000BF0AEFA564920460BF0AAFA5549204636
:100F70000BF0A6FA294620460BF0A2FA5249204669
:100F80000BF09EFA314620460BF09AFA294620468D
:100F90000BF096FA4D4920460BF092FA4C49204648
:100FA0000BF08EFA294620460BF08AFA4949204672
:100FB0000BF086FA314620460BF082FA294620468D
:100FC0000BF07EFA444920460BF07AFA434920465A
:100FD0000BF076FA424920460BF072FA3146204671
:100FE0008AE000BF841B0300B21B0300CF1B030079
:100FF000E21B0300F41B03000E1C0300361C03005D
:10100000471C03009C1C0300541C03006F1C0300BE
:10101000B31C0300BE1C0300D51C0300B52C030049
:10102000E61C0300FB1C03000D1D0300281D03002C
:101030003D1D0300CE1D0300501D0300FF1F0300D4
:101040006B1D03007B1D0300901D0300A41D030006
:10105000281A0300BF1D0300D31D0300E91D030070
:10106000021E0300111E0300231E0300431E030083
:10107000541E0300761E0300801E03008D1E030015
:10108000991E0300C11E0300D61E0300E31E0300C9
:101090000B1F03001F1F0300351F0300631F030006
:1010A000781F03009D1F0300B61F0300C91F030024
:1010B000DE1F0300F41F03000C20030017200300B1
:1010C00024200300302003003E2003004A200300B8
:1010D00057200300642003006F20030077200300E3
:1010E00080200300621C0300881C03006B3903008E
:1010F000D13A0300472C03000BF0E2F929462046C1
:101100000BF0DEF9D449D54E20460BF0D9F9D4497D
:1011100020460BF0D5F9294620460BF0D1F9D149EC
:1011200020460BF0CDF9D04920460BF0C9F9CF4944
:1011300020460BF0C5F9CE4920460BF0C1F9CD4948
:1011400020460BF0BDF9494620460BF0B9F9CA49D3
:10115000DFF84C9420460BF0B3F9294620460BF0FB
:10116000AFF9C64920460BF0ABF9C54920460BF054
:10117000A7F9C44920460BF0A3F9C34920460BF058
:101180009FF9C24920460BF09BF9C14920460BF05C
:1011900097F9C04920460BF093F9BF4920460BF060
:1011A0008FF9BE4920460BF08BF9BD4920460BF064
:1011B00087F9BC4920460BF083F9BB4920460BF068
:1011C0007FF9BA4920460BF07BF9B94920460BF06C
:1011D00077F9B84920460BF073F9B74920460BF070
:1011E0006FF9B64920460BF06BF9B54920460BF074
:1011F00067F9B44920460BF063F9B34920460BF078
:101200005FF9B24920460BF05BF9B14920460BF07B
:1012100057F9B04920460BF053F9AF4920460BF07F
:101220004FF9AE4920460BF04BF9AD4920460BF083
:1012300047F9294620460BF043F9AA4920460BF00E
:101240003FF9A94920460BF03BF9A84920460BF08D
:1012500037F9A74920460BF033F9A64920460BF091
:101260002FF9A54920460BF02BF9A44920460BF095
:1012700027F9A34920460BF023F9494620460BF0F5
:101280001FF9A04920460BF01BF99F4920460BF09F
:1012900017F99E4920460BF013F99D4920460BF0A3
:1012A0000FF99C4920460BF00BF99B4920460BF0A7
:1012B00007F99A4920460BF003F9994920460BF0AB
:1012C000FFF8984920460BF0FBF8974920460BF0B1
:1012D000F7F8964920460BF0F3F8954920460BF0B5
:1012E000EFF8944920460BF0EBF8934920460BF0B9
:1012F000E7F8924920460BF0E3F8314620460BF020
:10130000DFF88F4920460BF0DBF88E4920460BF0C2
:10131000D7F88D4920460BF0D3F88C4920460BF0C6
:10132000CFF88B4920460BF0CBF8294620460BF02E
:10133000C7F8414620460BF0C3F8294620460BF07B
:10134000BFF8294620460BF0BBF8294620460BF093
:10135000B7F8294620460BF0B3F87E4920460BF03B
:10136000AFF8394620460BF0ABF8294620460BF083
:10137000A7F8794920460BF0A3F8784B009319465B
:1013800020460BF09DF8764920460BF099F8294647
:1013900020460BF095F8734920460BF091F87249FE
:1013A00020460BF08DF8714920460BF089F8704902
:1013B00020460BF085F8464920460BF081F8494657
:1013C00020460BF07DF8314620460BF079F829468F
:1013D00020460BF075F86749674EDFF8D490204639
:1013E0000BF06EF8654920460BF06AF86449204618
:1013F0000BF066F8634920460BF062F8624920461C
:101400000BF05EF8314620460BF05AF85F49204653
:101410000BF056F8314620460BF052F85C49204656
:101420000BF04EF8314620460BF04AF85949204659
:101430000BF046F8314620460BF042F8564920465C
:101440000BF03EF8314620460BF03AF8534920465F
:101450000BF036F8A6E000BF8A200300D72A03006D
:1014600095200300A3200300B9200300C22003003D
:10147000D5200300ED2003000A2103001E210300F4
:1014800027210300472103007A2103008321030061
:1014900095210300AB210300CD210300FB210300B4
:1014A000322203004122030054220300DA22030007
:1014B000FC22030020230300442303006F230300C6
:1014C0008B230300A5230300C6230300F32303009B
:1014D000AF210300D1210300272403005C24030073
:1014E0007A240300B7240300ED2403002A25030017
:1014F00068250300AD250300EB250300302603001B
:101500006E260300F126030036270300762703002A
:10151000BD270300FD27030044280300842803009F
:10152000CB2803000B290300522903009229030052
:10153000D9290300192A0300602A0300982A03000E
:10154000112B0300522B0300822B0300AC2B030052
:10155000F62B0300882C0300C92C0300DF2C0300AA
:10156000F72C0300582D0300732D0300B32D030047
:10157000CB2D0300E92D0300A72E0300402E03000E
:10158000562E03006B2E0300782E0300E22E03007C
:10159000162F03004A2F03007E2F0300B22F0300F3
:1015A000B3260300314620460AF08AFFD34920467D
:1015B0000AF086FF314620460AF082FFD0492046D5
:1015C0000AF07EFF314620460AF07AFFCD4ECE4922
:1015D00020460AF075FFCD4920460AF071FF3146DA
:1015E00020460AF06DFFCA4920460AF069FF3146DD
:1015F00020460AF065FF294620460AF061FFC549EA
:10160000C54E20460AF05CFFC44920460AF058FF48
:10161000C34920460AF054FFC24920460AF050FF51
:10162000C14920460AF04CFFC04920460AF048FF55
:10163000BF4920460AF044FFBE4920460AF040FF59
:10164000BD4920460AF03CFFBC4920460AF038FF5D
:10165000BB4920460AF034FFBA4920460AF030FF61
:10166000B94920460AF02CFFB84920460AF028FF65
:10167000B74920460AF024FFB64920460AF020FF69
:10168000B54920460AF01CFFB44920460AF018FF6D
:10169000B34920460AF014FFB24920460AF010FF71
:1016A000B14920460AF00CFF414620460AF008FFE7
:1016B000AE49DFF8948320460AF002FF294620460F
:1016C0000AF0FEFEAA4920460AF0FAFEA949204681
:1016D0000AF0F6FEA84920460AF0F2FEA749204685
:1016E0000AF0EEFEA64920460AF0EAFEA549204689
:1016F0000AF0E6FEA44920460AF0E2FEA34920468D
:101700000AF0DEFEA24920460AF0DAFEA149204690
:101710000AF0D6FE294620460AF0D2FE9E4920460F
:101720000AF0CEFE9D4920460AF0CAFE9C4920469A
:101730000AF0C6FE9B4920460AF0C2FE9A4920469E
:101740000AF0BEFE994920460AF0BAFE314620460C
:101750000AF0B6FE294620460AF0B2FE5946204657
:101760000AF0AEFE294620460AF0AAFE904920461D
:101770000AF0A6FE8F4920460AF0A2FE8E492046B6
:101780000AF09EFE8D4920460AF09AFE8C492046BA
:101790000AF096FE294620460AF092FE8949204624
:1017A0000AF08EFE884920460AF08AFE51462046FD
:1017B0000AF086FE494620460AF082FE834920460A
:1017C0000AF07EFE414620460AF07AFE8049204615
:1017D0000AF076FE7F4920460AF072FE7E492046D6
:1017E0000AF06EFE7D4920460AF06AFE7C492046DA
:1017F0000AF066FE7B4920460AF062FE7A492046DE
:101800000AF05EFE794920460AF05AFE78492046E1
:101810000AF056FE774920460AF052FE76492046E5
:101820000AF04EFE754920460AF04AFE74492046E9
:101830000AF046FE734920460AF042FE72492046ED
:101840000AF03EFE714920460AF03AFE70492046F1
:101850000AF036FE6F4920460AF032FE6E492046F5
:101860000AF02EFE6D4920460AF02AFE6C492046F9
:101870000AF026FE6B4920460AF022FE2946204641
:101880000AF01EFE684920460AF01AFE6749204603
:101890000AF016FE294620460AF012FE2946204686
:1018A0000AF00EFE294620460AF00AFE604920464C
:1018B0000AF006FE394620460AF002FE5D4920463F
:1018C0000AF0FEFD5C4920460AF0FAFD5B4920461D
:1018D0000AF0F6FD009B204619460AF0F1FD584932
:1018E00020460AF0EDFD594620460AF0E9FD29465A
:1018F00020460AF0E5FD5349A8E000BFE62F0300AB
:101900001A300300363103004A3003005930030017
:101910004A310300513103005C390300DE3103001A
:10192000FB3103001D3203003F320300533203003A
:101930006332030088320300CC3203001A33030001
:1019400068330300B6330300043403005234030049
:10195000A0340300E6340300ED340300FD3403003B
:10196000263503005435030096350300C5350300C2
:10197000053603003236030072360300A136030039
:10198000E5360300153703005B3703008937030092
:10199000CB370300F93703003B3803005B38030003
:1019A000D8380300FA380300333903003F39030005
:1019B00079390300AE390300C7390300E039030069
:1019C0004B3A0300553A0300B03A0300FD3A0300D6
:1019D0002A3B0300463B0300A92303005C3B0300B2
:1019E000883B0300BE3B03006C3C03009D3C0300AE
:1019F0002D3D0300BD3D03004B3E0300D93E0300D7
:101A0000693F0300F93F03005A400300B740030059
:101A10000F41030067410300C7410300094203006F
:101A20003F420300EE42030068420300A24203006B
:101A3000FD420300344303003D430300A843030079
:101A4000C84303002344030044230300DFF894B495
:101A500020460AF035FDD74920460AF031FDD64927
:101A600020460AF02DFDD54920460AF029FDD4492B
:101A700020460AF025FD294620460AF021FDD149DD
:101A800020460AF01DFDD04920460AF019FDCF4935
:101A900020460AF015FDCE4920460AF011FD5146B8
:101AA00020460AF00DFD494620460AF009FD414650
:101AB00020460AF005FDC749DFF82C84DFF82C9496
:101AC000DFF82CA420460AF0FBFCC34920460AF0AC
:101AD000F7FCC24920460AF0F3FC314620460AF0E2
:101AE000EFFC294620460AF0EBFC294620460AF086
:101AF000E7FC294620460AF0E3FC294620460AF086
:101B0000DFFCB749B74E20460AF0DAFC39462046DA
:101B10000AF0D6FC294620460AF0D2FC2946204687
:101B20000AF0CEFCB049B14DB14F20460AF0C8FCD6
:101B3000B04920460AF0C4FCAF4920460AF0C0FC78
:101B4000AE4920460AF0BCFCAD4920460AF0B8FC7C
:101B5000AC4920460AF0B4FCAB4920460AF0B0FC80
:101B6000414620460AF0ACFCA84920460AF0A8FCF1
:101B7000A74920460AF0A4FCA64920460AF0A0FC8A
:101B8000A54920460AF09CFCA44920460AF098FC8E
:101B9000A34920460AF094FC294620460AF090FC0E
:101BA000A04920460AF08CFC9F4920460AF088FC98
:101BB0009E4920460AF084FC9D4920460AF080FC9C
:101BC000414620460AF07CFC9A4920460AF078FCFF
:101BD000394620460AF074FC974920460AF070FC0A
:101BE000964920460AF06CFC954920460AF068FCAC
:101BF000314620460AF064FC394620460AF060FC73
:101C0000904920460AF05CFC8F4920460AF058FCB7
:101C1000314620460AF054FC394620460AF050FC72
:101C20008A4920460AF04CFC894920460AF048FCC3
:101C3000314620460AF044FC394620460AF040FC72
:101C4000844920460AF03CFC834920460AF038FCCF
:101C5000314620460AF034FC394620460AF030FC72
:101C60007E497F4F20460AF02BFC7E4920460AF031
:101C700027FC314620460AF023FC7B497B4E204658
:101C80000AF01EFC294620460AF01AFC7849204634
:101C90000AF016FC774920460AF012FC76492046E5
:101CA0000AF00EFC414620460AF00AFC7349DFF8B0
:101CB000448220460AF004FC294620460AF000FC33
:101CC000294620460AF0FCFB6D4920460AF0F8FB45
:101CD000294620460AF0F4FB6A4920460AF0F0FB48
:101CE000694920460AF0ECFB684920460AF0E8FB07
:101CF000674920460AF0E4FB664920460AF0E0FB0B
:101D0000294620460AF0DCFB634920460AF0D8FB4E
:101D1000624920460AF0D4FB614920460AF0D0FB14
:101D2000604920460AF0CCFB5F4920460AF0C8FB18
:101D3000294620460AF0C4FB5C4920460AF0C0FB55
:101D40005B4920460AF0BCFB5A4920460AF0B8FB22
:101D5000594920460AF0B4FB584920460AF0B0FB26
:101D6000574920460AF0ACFB564920460AF0A8FB2A
:101D7000554920460AF0A4FB544920460AF0A0FB2E
:101D8000534920460AF09CFB524920460AF098FB32
:101D9000514920460AF094FB504920460AF090FB36
:101DA0004F4920460AF08CFB294620460AF088FB62
:101DB000A2E000BF7F4403009F440300E34403000C
:101DC0002945030097450300004603001B46030016
:101DD000554603006F2303008B230300A523030054
:101DE000754603000A490300A7460300374C030069
:101DF0007D6B0300B5460300BF460300C7460300E2
:101E0000D5460300F04603000547030032470300B0
:101E10003E4703009E470300444B0300D5470300A1
:101E2000F34703000E48030018480300324803003C
:101E30004F4803005E480300884803008D480300B4
:101E4000D1480300104903005B490300994903008E
:101E5000E3490300214A0300794A0300B94A030019
:101E600074520300094B0300494B0300B4510300B3
:101E70004F4B0300564B03006C4B0300804B030099
:101E8000914B0300994B0300C84B0300ED4B03003B
:101E9000054C03001B4C03003E4C0300604C030048
:101EA000994C0300C44C0300EB4C0300174D030096
:101EB000384D0300684D03007F4D0300974D03002C
:101EC000B44D0300CC4D0300E34D0300004E03006E
:101ED000364E03006C4E0300A14E0300D64E0300A5
:101EE0000C4F0300D05C03001A4703002753030084
:101EF000765E03000D550300D94920460AF0E0FA4A
:101F0000D84920460AF0DCFA294620460AF0D8FAD9
:101F1000294620460AF0D4FA294620460AF0D0FA8B
:101F2000D14920460AF0CCFAD04920460AF0C8FA36
:101F3000CF4920460AF0C4FACE4920460AF0C0FA3A
:101F4000CD4920460AF0BCFACC4920460AF0B8FA3E
:101F5000CB4B0193194620460AF0B2FAC94A0092C7
:101F6000114620460AF0ACFAC74920460AF0A8FA02
:101F7000C64920460AF0A4FAC54920460AF0A0FA4C
:101F8000C44920460AF09CFAC34920460AF098FA50
:101F9000C24920460AF094FAC14920460AF090FA54
:101FA000314620460AF08CFABE4920460AF088FAEB
:101FB000BD4920460AF084FABC4920460AF080FA5E
:101FC000BB4920460AF07CFABA4920460AF078FA62
:101FD000B94920460AF074FAB84920460AF070FA66
:101FE000394620460AF06CFA314620460AF068FA73
:101FF000B34920460AF064FAB24920460AF060FA72
:10200000B14920460AF05CFAB04920460AF058FA75
:10201000494620460AF054FAAD4920460AF050FAE3
:10202000AC4920460AF04CFAAB4920460AF048FA7F
:10203000AA4920460AF044FAA94920460AF040FA83
:10204000A84920460AF03CFA394620460AF038FAF8
:10205000314620460AF034FAA34920460AF030FA05
:10206000A24920460AF02CFAA14920460AF028FA93
:10207000A04920460AF024FA414620460AF020FAF8
:10208000414620460AF01CFA9B49DFF8F0822046C0
:102090000AF016FA994920460AF012FA98492046A1
:1020A0000AF00EFA314620460AF00AFA954920460F
:1020B0000AF006FA944920460AF002FA3946204608
:1020C0000AF0FEF9314620460AF0FAF98F49204617
:1020D0000AF0F6F98E4920460AF0F2F93946204610
:1020E0000AF0EEF9314620460AF0EAF9894920461D
:1020F0000AF0E6F9884920460AF0E2F93946204616
:102100000AF0DEF9314620460AF0DAF98349204622
:102110000AF0D6F9824920460AF0D2F981492046D0
:102120000AF0CEF9804920460AF0CAF97F492046D4
:102130000AF0C6F97E4920460AF0C2F97D492046D8
:102140000AF0BEF97C4920460AF0BAF97B492046DC
:102150000AF0B6F97A4920460AF0B2F93946204623
:102160000AF0AEF9314620460AF0AAF97549204630
:102170000AF0A6F9414620460AF0A2F97249204623
:102180000AF09EF9394620460AF09AF9314620466F
:102190000AF096F96D4920460AF092F94146204628
:1021A0000AF08EF96A4920460AF08AF93946204633
:1021B0000AF086F9314620460AF082F96549204640
:1021C0000AF07EF9414620460AF07AF96249204633
:1021D0000AF076F9394620460AF072F9314620466F
:1021E0000AF06EF95D4920460AF06AF94146204638
:1021F0000AF066F95A4920460AF062F93946204643
:102200000AF05EF9314620460AF05AF9554920464F
:102210000AF056F9414620460AF052F95249DFF8D1
:10222000608120460AF04CF9394620460AF048F908
:10223000314620460AF044F94C4920460AF040F95C
:102240004B4920460AF03CF94A4920460AF038F941
:10225000494620460AF034F94749204692E000BF3B
:10226000424F0300774F0300BE4F0300F64F0300B9
:102270001B5003004B50030084500300E050030048
:102280000651030011510300275103003D51030083
:1022900054510300685103007D5103009251030023
:1022A000A8510300B9510300D3510300ED510300BD
:1022B00008520300215203003A5203005352030014
:1022C0007A52030093520300C3520300B35C03002D
:1022D000335303003E5303004B530300B353030037
:1022E000CD5303002E5403004B54030067540300E6
:1022F000A1540300F6540300235503008B5503003B
:10230000A1550300E1550300FD550300525603009B
:102310006E560300C3560300DF5603003457030014
:10232000505703008B570300E15703003A5803004E
:10233000525803006A58030082580300DD58030016
:102340003E59030078590300EB590300445A030037
:10235000605A0300B95A0300D55A03002E5B0300EC
:102360004A5B0300A35B0300BF5B0300185C030030
:10237000315C0300635C0300C25C030094590300FA
:10238000DA5D03000AF09CF8594620460AF098F8F6
:10239000D84920460AF094F8394620460AF090F8C9
:1023A000314620460AF08CF8D34920460AF088F8D6
:1023B000D24920460AF084F8D14920460AF080F834
:1023C000D04920460AF07CF8414620460AF078F8C9
:1023D000414620460AF074F8CB49DFF830842046A5
:1023E0000AF06EF8C94920460AF06AF839462046D4
:1023F0000AF066F8C64920460AF062F851462046BF
:102400000AF05EF8C34920460AF05AF8C24920464D
:102410000AF056F8C14920460AF052F829462046EB
:102420000AF04EF8414620460AF04AF8294620466E
:102430000AF046F8BA4920460AF042F8B94920465F
:102440000AF03EF8B84920460AF03AF8B749204663
:102450000AF036F8B64920460AF032F8019B2046C9
:1024600019460AF02DF8009A204611460AF028F87D
:10247000B04920460AF024F8AF4920460AF020F877
:10248000AE4920460AF01CF8AD4920460AF018F87B
:10249000AC4920460AF014F8AB4920460AF010F87F
:1024A000AA4920460AF00CF8A94920460AF008F883
:1024B000314620460AF004F8A64920460AF000F802
:1024C000A549204609F0FCFFA449204609F0F8FF81
:1024D000A349204609F0F4FFA249204609F0F0FF85
:1024E000A149204609F0ECFFA049204609F0E8FF89
:1024F0009F49204609F0E4FF3946204609F0E0FFF5
:102500003146204609F0DCFF9A49204609F0D8FF01
:102510009949204609F0D4FF9849204609F0D0FF98
:102520009749204609F0CCFF4946204609F0C8FFEC
:102530009449204609F0C4FF9349204609F0C0FFA2
:102540009249204609F0BCFF9149204609F0B8FFA6
:102550003946204609F0B4FF3146204609F0B0FF65
:102560008C49204609F0ACFF8B49204609F0A8FFB2
:102570008A49204609F0A4FF8949204609F0A0FFB6
:102580004946204609F09CFF8649204609F098FFFD
:102590008549204609F094FF8449204609F090FFC0
:1025A0003946204609F08CFF3146204609F088FF65
:1025B0007F49204609F084FF7E49204609F080FFCC
:1025C0007D49204609F07CFF7C49204609F078FFD0
:1025D0004946204609F074FF7949204609F070FF0A
:1025E0005946204609F06CFF7649DFF824B22046B0
:1025F00009F066FF3946204609F062FF3146204661
:1026000009F05EFF7049204609F05AFF6F492046E5
:1026100009F056FF6E49204609F052FF6D4A0192BB
:102620001146204609F04CFF4946204609F048FF74
:102630006949204609F044FF684B0093194620463B
:1026400009F03EFF5946204609F03AFF644920460A
:1026500009F036FF3946204609F032FF3146204660
:1026600009F02EFF5F49204609F02AFF5E49204607
:1026700009F026FF5D49204609F022FF019A204615
:10268000114609F01DFF4946204609F019FF584937
:10269000204609F015FF009B2046194609F010FF5F
:1026A0005946204609F00CFF5249204609F008FF20
:1026B0003946204609F004FF3146204609F000FF64
:1026C0004D49204609F0FCFE4C49204609F0F8FE31
:1026D0004B49204609F0F4FE4A49204609F0F0FE35
:1026E0004946204609F0ECFE4749204609F0E8FE3D
:1026F00090E000BFDE5C0300385D0300515D030025
:10270000845D0300CF5D0300E45D0300465E0300CB
:102710006D5E0300875E03009D5E0300CC5E0300D8
:102720001E5F0300435F0300735F0300AC5F0300A1
:10273000086003002E600300456003005D60030035
:1027400054510300685103007D510300925103006E
:10275000A8510300B9510300D3510300ED51030008
:102760007360030008520300215203003A52030031
:10277000535203008D600300A6600300DC60030079
:102780002961030035610300416103004D610300CD
:10279000BF610300D0610300E96103002062030010
:1027A0006B62030077620300836203008F620300A1
:1027B000FB62030014630300496303009863030092
:1027C000A5630300B36303000D64030026640300E4
:1027D0005E640300AC640300BD640300C8640300CE
:1027E0003B6503007D65030096650300CF6503002C
:1027F0001F6603002A660300696603008266030001
:10280000B56603000567030011670300165F030048
:10281000D46403007549204609F052FE74492046ED
:1028200009F04EFE7349204609F04AFE394620461B
:1028300009F046FE3146204609F042FE6E496F4ED1
:10284000204609F03DFE6E49204609F039FE6D49EB
:10285000204609F035FE6C49204609F031FE6B49EF
:10286000204609F02DFE6A49204609F029FE6949F3
:10287000204609F025FE4946204609F021FE66491A
:10288000204609F01DFE6549204609F019FE6449FD
:10289000204609F015FE3946204609F011FE61492F
:1028A000204609F00DFE5146204609F009FE5E491A
:1028B000204609F005FE5D49204609F001FE5C490D
:1028C000204609F0FDFD2946204609F0F9FD29467C
:1028D000204609F0F5FD4146204609F0F1FD294664
:1028E000204609F0EDFD5349204609F0E9FD524923
:1028F000204609F0E5FD5149204609F0E1FD504927
:10290000204609F0DDFD3146204609F0D9FD4D494C
:10291000204609F0D5FD4C49204609F0D1FD294655
:10292000204609F0CDFD4949204609F0C9FD314650
:10293000204609F0C5FD4649204609F0C1FD45493C
:10294000204609F0BDFD2946204609F0B9FD42495F
:10295000204609F0B5FD3146204609F0B1FD3F495A
:10296000204609F0ADFD3E49204609F0A9FD294663
:10297000204609F0A5FD4146204609F0A1FD294663
:10298000204609F09DFD4146204609F099FD294663
:10299000204609F095FD3349204609F091FD324962
:1029A000204609F08DFD3149204609F089FD304966
:1029B000204609F085FD2F49204609F081FD2E496A
:1029C000204609F07DFD2D49204609F079FD294674
:1029D000204609F075FD2A49204609F071FD294974
:1029E000204603B0BDE8F04F09F06ABD1E67030042
:1029F0002C670300926703009F670300E0690300F0
:102A0000B8670300EF670300266803004E68030001
:102A10007668030085680300916803009F680300DF
:102A2000AD6803006D5E0300875E03000469030068
:102A3000336903006469030094690300C2690300F9
:102A4000C9690300E6690300166A0300726A03009D
:102A50008D6A0300C26A0300206B03003C6B030015
:102A6000826B0300BF6B0300096C0300386C03002A
:102A7000426C0300746C03008F6C0300A96C0300AC
:102A8000B16C0300B96C0300392884BF0738C0B2A9
:102A9000392984BF0739C9B201F00F0100F00F00D6
:102AA00041EA0010704700002DE9F0410C4618493A
:102AB000184DDFF86480064609F09AFE002721468B
:102AC000284609F065FF0378262B1DD021462846AD
:102AD00009F05EFF0378202B16D05FB1214628460F
:102AE00009F056FF0178304609F024FF3146404690
:102AF00009F0F0FC2146284609F04AFF03783D2BF7
:102B000008BF01270134DAE73046BDE8F08100BF95
:102B10009092030074140020683300202DE9F047E0
:102B200086B0BD49684609F063FEBC4903A809F0B8
:102B30005FFE03A9BA4809F048FF044603A809F05C
:102B400011FE002C80F2CA820024B64903A809F0C5
:102B50004FFE03A9B24809F038FF054603A809F063
:102B600001FE002D47DB294603A8FFF79DFF03A9BF
:102B7000684609F0B6FE03A809F0F4FD0021684696
:102B800009F006FF01210578684609F001FF017888
:102B90002846A54DFFF778FF2B685B7883422AD043
:102BA0000021684609F0F4FE01210478684609F026
:102BB000EFFE01782B682046FFF766FF9B495870AF
:102BC0009B4809F060FC2B68994859780A2209F063
:102BD000F9FC2B6897485A780121FDF7EDFC044673
:102BE000052009F031FF002C40F0B1829249904855
:102BF00009F066FC0124914903A809F0F9FD03A935
:102C0000874809F0E2FE054603A809F0ABFD002D58
:102C100047DB294603A8FFF747FF03A9684609F0E9
:102C200060FE03A809F09EFD0021684609F0B0FE91
:102C300001210578684609F0ABFE017828467A4DF7
:102C4000FFF722FF2B689B7883422AD00021684639
:102C500009F09EFE01210478684609F099FE01788A
:102C60002B682046FFF710FF75499870704809F0EF
:102C70000AFC2B686E4899780A2209F0A3FC2B689D
:102C80006C489A780221FDF797FC0446052009F06C
:102C9000DBFE002C40F060826A49654809F010FCB8
:102CA0000124694903A809F0A3FD03A95C4809F0C0
:102CB0008CFE054603A809F055FD002D47DB29468B
:102CC00003A8FFF7F1FE03A9684609F00AFE03A86E
:102CD00009F048FD0021684609F05AFE01210578F7
:102CE000684609F055FE017828464F4DFFF7CCFEA7
:102CF0002B68DB7883422AD00021684609F048FE21
:102D000001210478684609F043FE01782B682046CB
:102D1000FFF7BAFE4D49D870454809F0B4FB2B685F
:102D20004348D9780A2209F04DFC2B684148DA78EB
:102D30000321FDF741FC0446052009F085FE002C27
:102D400040F00F8242493A4809F0BAFB0124414958
:102D500003A809F04DFD03A9314809F036FE0546E8
:102D600003A809F0FFFC002D47DB294603A8FFF765
:102D70009BFE03A9684609F0B4FD03A809F0F2FC24
:102D80000021684609F004FE01210578684609F033
:102D9000FFFD01782846244DFFF776FE2B681B794E
:102DA00083422AD00021684609F0F2FD012104780F
:102DB000684609F0EDFD01782B682046FFF764FEB8
:102DC000254918711A4809F05EFB2B6818481979D3
:102DD0000A2209F0F7FB2B6816481A790421FDF73F
:102DE000EBFB0446052009F02FFE002C40F0BE81CD
:102DF0001A490F4809F064FB0124194903A809F096
:102E0000F7FC03A9064809F0E0FD054603A809F010
:102E1000A9FC002D6EDB25E0909203008D100300CD
:102E200074140020D51003000C020020EB100300E6
:102E300068330020D0120020041103002C1103007D
:102E4000421103005B110300831103009911030079
:102E5000B2110300DA110300F0110300091203009C
:102E600031120300294603A8FFF71EFE03A9684696
:102E700009F037FD03A809F075FC0021684609F048
:102E800087FD01210578684609F082FD0178284612
:102E9000B94DFFF7F9FD2B685B7983422AD00021F9
:102EA000684609F075FD01210478684609F070FD57
:102EB00001782B682046FFF7E7FDB0495871B0480C
:102EC00009F0E1FA2B68AE4859790A2209F07AFB39
:102ED0002B68AC485A790521FDF76EFB04460520A6
:102EE00009F0B2FD002C40F07581A749A44809F013
:102EF000E7FA0124A54903A809F07AFC03A9A4482C
:102F000009F063FD054603A809F02CFC002D47DB02
:102F1000294603A8FFF7C8FD03A9684609F0E1FCAC
:102F200003A809F01FFC0021684609F031FD0121CA
:102F30000578684609F02CFD017828468E4DFFF78C
:102F4000A3FD2B689B7983422AD00021684609F0B3
:102F50001FFD01210478684609F01AFD01782B68ED
:102F60002046FFF791FD8B499871854809F08BFA4F
:102F70002B68834899790A2209F024FB2B68814841
:102F80009A790621FDF718FB0446052009F05CFD3F
:102F9000002C40F024818049794809F091FA0124FD
:102FA0007E4903A809F024FC03A9794809F00DFD26
:102FB000054603A809F0D6FB002D33DB294603A8FC
:102FC000FFF772FD03A9684609F08BFC6A4D03A860
:102FD00009F0C8FB684609F0FBFC2B681B89984286
:102FE00020D0684609F0F4FC2B686D4918816448CC
:102FF00009F049FA2B68624819890A2209F0C9FACE
:103000002B6860481A890821FDF704FB0446052057
:1030100009F01AFD002C40F0E7806249584809F099
:103020004FFA01240025DFF8A891DFF864A1DFF84A
:1030300048812F460C2606FB05963146504609F07E
:10304000C4FC011EC0F2DB8003A8FFF72DFD03A91D
:10305000684609F046FC03A809F084FB684609F0BD
:10306000B7FC2F1DD8F800307F003B449B88984266
:1030700032D0684609F0ACFCD8F800304A493B44ED
:1030800098803F4809F0FFF931463D4809F0FFF9C3
:1030900046493B4809F0F7F9D8F8003038483B4436
:1030A0000A22998809F075FAD8F8003035481F448B
:1030B000691DBA884900FDF7ADFA0746052009F0F9
:1030C000C3FC31462E48002F40F0938009F0DFF911
:1030D00037492B4809F0F4F9012790E0214603A86D
:1030E000FFF7E2FC03A9684609F0FBFB224C03A8AA
:1030F00009F038FB684609F06BFC23681B7898429E
:103100003FF422AD684609F063FC23682949187032
:103110001B4809F0B8F92368194819780A2209F000
:1031200051FA236817481A780021FDF745FA04463A
:10313000052009F089FC2CB91F49114809F0C0F994
:10314000012402E51D490E4809F0BAF9FDE41C49C5
:103150000B4809F0B5F94EE51A49094809F0B0F9EC
:103160009FE51949064809F0ABF9F0E5174904480D
:1031700009F0A6F941E600BF0C0200204712030047
:1031800068330020D0120020601203008812030070
:10319000741400209E120300B7120300DF12030014
:1031A000E9120300FD1203002B130300A310030018
:1031B0000A11030096100300A9100300BC100300BD
:1031C000151103006C110300C31103001A12030050
:1031D000841100201549164809F072F98AE615494C
:1031E000134809F06DF9DBE61349114809F068F955
:1031F00018E709F04CF911490D4809F061F901355A
:10320000072D7FF417AF44EA47040D49084809F039
:103210003AF90A222146064809F0BBF9684609F046
:10322000A1FA204606B0BDE8F08700BF7112030086
:1032300068330020C8120300111303001B110300A0
:10324000301303002DE9F8432C4E2D492D4F044631
:1032500009F019F933680A221978204609F0B0F903
:103260002949204609F00FF92849204609F00BF9B1
:1032700033680A221989204609F089F92249204633
:1032800009F001F92249204609F0FDF800253368CC
:103290002B4410225978204609F092F9052D03D0CD
:1032A0003946204609F0EFF80135062DEFD11649D1
:1032B000184FDFF86480DFF85090204609F0E3F8FB
:1032C00000250C2101FB0571204609F0E0F841467C
:1032D000204609F0D8F8336803EB45030A229989A0
:1032E000204609F054F9062D03D04946204609F03E
:1032F000CAF80135072DE4D1BDE8F8830C0200209F
:10330000FD130300613203005A3B03000214030063
:103310000A14030084110020001403004A6842606C
:103320008A688260CA68C260034A02600A7C0274CA
:103330004A8A4282704700BF1C82030013B502AA6A
:103340000024214642F8044D04230E4806F07CFD7B
:10335000019959B90C48FDF78BF9052009F074FB68
:103360000A490B4809F0ACF802B010BD21461A23F7
:10337000084A044806F068FD052009F065FB064987
:10338000EFE700BF18020020D0120020C414030091
:103390006833002026120020DD1403002DE9F347D6
:1033A0000121092009F096FB0121092009F0CEFB3B
:1033B0000121082009F08EFB0121082009F0C6FB3D
:1033C00001210A2009F086FB01210A2009F0BEFB39
:1033D000C82009F037FB0A2005F07EF8414B424D2A
:1033E0001868424B0093424B424E5B68019369461A
:1033F000013005F009F901210A2009F0A7FB3E4937
:103400003C4809F05DF8002405F076F860B92946DB
:103410003046013409F054F80A20E4B209F012FBF6
:103420000A2CF1D1002708E005F066F80328F7D14F
:103430003249304809F044F80127314E2D4D0A2415
:1034400005F050F8022833D13146284609F038F803
:10345000013C0A2009F0F6FA14F0FF04F0D1DFF87D
:10346000B880DFF8B8A0DFF88C900A26404605F057
:10347000F9FA404605F00EFB0546F8B951464846B4
:1034800009F01EF8013E0A2009F0DCFA16F0FF06EA
:10349000ECD11C4EF4B1EFB1E5B11B49154809F070
:1034A0000FF8336801225A70284602B0BDE8F08751
:1034B0001649104809F004F80124D0E714490D48D2
:1034C00008F0E1FF684605F0B5F86946094809F0DB
:1034D00015F8DEE70F49074808F0F2FF33680025CA
:1034E0005D70E1E70C020020D10E0300FC860300B2
:1034F0006812002068330020BD0E0300EF0E0300A9
:10350000120F0300100200206D0F0300320F0300A2
:103510005E0F0300840F0300A81300204B0F03006D
:103520002DE9F0411C4FDFF888801C4D0A243A46F3
:103530007621404603F05CF9064670B918491948EF
:1035400008F0BEFF2B6864201E70013C09F07AFA77
:1035500014F0FF04EBD1BDE8F08113491148134C7E
:1035600008F0AEFF2B681248256801221A7003F09C
:1035700043F928600E48256803F060FA68600C483B
:1035800003F06CF99FED0B7A236807EE900AC7EE03
:10359000877AC3ED027ADEE79C1400201002002037
:1035A0003476030068330020537603003002002095
:1035B000241100200000C8420148FCF768BF00BF8A
:1035C000B813002070B58C00002605460161C66066
:1035D000204619F06FF900232860AE606B60044448
:1035E000A04202D040F8043BFAE7284670BD06EE40
:1035F000901A10B5D0E9031483680268A14202EB67
:10360000830223BFD2ED007A90ED017A37EE677A1C
:1036100001312CBF80ED017AC160C2ED006AD0EDAE
:10362000017A013377EEA67A9C4298BF0023C0ED61
:10363000017A836010BD00002DE9F04F2DED028B63
:10364000934F944C83B028253E460DF0DBFD0DF0E2
:10365000D9FDD7F84021D7F844319A4240F0F280A2
:1036600097F84831002B40F0ED800DF0E1FDDFF8D8
:1036700044820DF0DDFD21684046FFF7B8FF616828
:103680008548FFF7B4FF013DA1688448FFF7AFFF0D
:1036900015F0FF05D9D1D8F80C30002B00F0E980E7
:1036A00007EE903AD8ED016AF8EE677A86EEA77ACF
:1036B000794AD368002B00F0DF8007EE903AD2ED14
:1036C000016AF8EE677A86EEA78A744AD368002BFF
:1036D00000F0D58007EE903AD2ED016AF8EE677AF5
:1036E000C6EEA78ADFF8D0A1DAF8008017EE100A3C
:1036F00017F0A8F80646B8F900000F4617F090F842
:10370000002204460D46664B3046394616F03CFF13
:1037100002460B462046294617F0ECF817F09AFBB4
:1037200000B217F07DF800225E4B16F02DFF18F066
:103730009FF817F08FFB00B217F072F800225A4B77
:1037400016F022FF17F086FBA8F8040018EE900A86
:1037500017F078F80446B8F902000D4617F060F843
:103760000022CDE900014E4B2046294616F00CFF01
:1037700002460B46DDE9000117F0BCF817F06AFBC2
:1037800000B217F04DF80022464B16F0FDFE18F07F
:103790006FF817F05FFB00B217F042F80022434BBE
:1037A00016F0F2FE17F056FBA8F8060018EE100A05
:1037B00017F048F802460B4617F09CF82246804660
:1037C00089462B462046294617F094F842464B4638
:1037D00016F0DAFE18F0CCF802460B4630463946B1
:1037E00017F0B2F917F0ACFE27A3D3E9002317F0C6
:1037F00081F817F077FBDAF800B03246CBF8080012
:103800003B463046394617F075F842464B4616F0AF
:10381000BBFE18F0ADF802460B462046294617F0CD
:1038200093F917F08DFE18A3D3E9002317F062F87F
:1038300017F058FBDAF80040206103B0BDEC028BB2
:10384000BDE8F08F0DF0F4FCD6F8443103F1010C23
:1038500006EB03130FCBBCF1140F84E80F004FF0FD
:103860000003C6F844C186F8483108BFC6F84431A1
:10387000FDE69FED0F7A1BE79FED0D8A25E7DFED53
:103880000C8A2FE7AFF30080F8C1631ADCA54C4027
:10389000E81A002014110020881200209C12002039
:1038A0000000F03F0000E03F0000604000804B401F
:1038B0000000000074120020140200202DE9F743DC
:1038C000644A65491368654F654D664E0133044689
:1038D000136008F0D8FD022009F068F90A220146B9
:1038E000204608F054FE6049204608F0CCFD5F49B0
:1038F000204608F0C8FD0A223978204608F060FE0C
:103900005B49204608F0BFFD0A222968204608F0DE
:103910003EFE5849204608F0B6FD3368186816F098
:1039200091FF4FF00A0802460B46CDF80080204672
:1039300008F016FF5049204608F0A5FD3368586886
:1039400016F080FFCDF8008002460B46204608F0B6
:1039500007FF4A4B1B78042BB946A84602D04848BB
:10396000FFF76AFE474F4849204608F08CFD3B6848
:10397000986816F067FF0A2502460B460095204618
:1039800008F0EEFE3849204608F07DFD3F4920460C
:1039900008F079FD3B68D86816F054FF00950246A0
:1039A0000B46204608F0DCFE3949204608F06BFD46
:1039B0003368986816F046FF00950B46024620468D
:1039C00008F0CEFE2449334808F05DFD022009F0DE
:1039D000EDF82A4601462F4808F0D9FD22492D4826
:1039E00008F051FD21492B4808F04DFD2A4699F871
:1039F0000010284808F0E4FD1D49264808F043FD62
:103A00002A46D8F80010234808F0C1FD164921487D
:103A100008F039FD20491F4808F035FD3368186863
:103A200016F010FF009502460B461A4808F098FE63
:103A30001149184808F027FD3368586816F002FF4E
:103A4000009502460B46134808F08AFE03B0BDE815
:103A5000F08300BF7C110020141403000802002032
:103A600004020020300200205A3B0300241403000B
:103A70002E140300401403004714030024120020F6
:103A8000D0120020140200204E140300581403002A
:103A900061140300683300204114030070B58AB03C
:103AA0006749684605F016F89DF81030072B43D992
:103AB000002420460AB070BD0124684604F008FEC8
:103AC000002800F0BB80684604F092FE0028F4D085
:103AD000684604F09EFEB368B3F5967FC5B203D284
:103AE0002946304608F026FF0A2D40F0A380002C1E
:103AF000E2D0694605A8FFF711FC05A8FCF750FEC7
:103B0000504905A808F074FE05A94F4808F05DFF6C
:103B1000044605A808F026FE002C10DB4B494C4853
:103B200008F0CEFC694605A8FFF7F8FB05A8FFF7EB
:103B300089FB0024254634E00124434EBDE7454976
:103B400005A808F055FE05A93F4808F03EFF0446C9
:103B500005A808F007FE002C0BDB3F493C4808F0A5
:103B6000AFFC694605A8FFF7D9FB05A8FFF7A6FE3D
:103B7000DFE73A4905A808F03BFE05A9324808F0FE
:103B800024FF044605A808F0EDFD002C32DB344983
:103B90002F4808F095FC3349684608F074FC00246F
:103BA0000125012008F04EFF684604F053FE2E491F
:103BB000254808F09EFE2D49254808F081FC02208A
:103BC00008F040FF002D3FF474AF2949204808F069
:103BD00077FC00210E2008F0B9FF4FF4FA7008F0CE
:103BE00033FF01210E2008F0B1FF012008F02AFF69
:103BF000FCF7E0FA1F49164808F062FCFEF78EFF5A
:103C00001D490446124808F05BFC1C49104808F0A6
:103C10003AFC2A4621460E4808F0BBFC694605A836
:103C2000FFF77CFB05A804F00105C4F34004FCF792
:103C3000D7FDB6E70D2D18BF00243EE7044679E70F
:103C4000A8130020FB140300741400200A150300BD
:103C5000683300201D1503002C15030045150300D3
:103C60004F1503006615030090920300BE15030074
:103C7000DD150300691503007A150300A215030082
:103C800008B5FFF70BFF024B00B91878187008BD94
:103C90002C020020F0B56F496F48704E85B008F0D7
:103CA000A7FD6F4A6F496C480DF0C3FD6E496F4820
:103CB00008F09EFD6E496F4808F09AFD6E496F4806
:103CC00008F096FD6E496F4808F092FD6E496F4806
:103CD00008F08EFD6E496F4808F08AFD6E496F4806
:103CE00008F086FD5E4A6E4900200DF0A2FD6D4B86
:103CF0006D480022002700240025C3E904451A600E
:103D00005A609A60C3E9064583F82070674B4FF408
:103D10007D421A8044F61F525A804FF61A429A800A
:103D2000DA229A7140F6B8321A815A8119229A81A0
:103D30002A22DA8140F2D6721A820A225A829A82A2
:103D40004FF4C872DA8206221A83594A012382F894
:103D5000B53082F8B47001934FF4FA4300932E22E9
:103D60004FF0FF332F2102F0CFF93D4A51494E4821
:103D70000DF05FFD1423A020C6E9057318F09AFD2D
:103D8000C6E902453060376100F1A003E0E8024572
:103D90009842FBD1324A48493048484C0DF049FD21
:103DA000474802F03BFA2E4A464945480DF041FD8E
:103DB00014230093A8220123C021434808F012FBDA
:103DC0000A230093A8220123C021404808F00AFBDF
:103DD0003F4B404A1A60002550225D601A813E4BDD
:103DE0003E48CDE901330E23009340223C4B802115
:103DF00002F0CAFE1A4A3B4938480DF01AFD204627
:103E00004FF47A73A360384B656040F8143B08F0B8
:103E1000E1FA08232821354884F82030FFF7D2FB47
:103E20000F4A334931480DF004FD28213148FFF78E
:103E3000C9FB0B4A2E492F480DF0FBFC28212E48C8
:103E4000FFF7C0FB064A2A492B4805B0BDE8F04001
:103E50000DF0EFBC9092030074140020B01200200B
:103E60000002002065C70100840E030084110020B9
:103E70008C0E030090110020930E03009C11002073
:103E80009A0E0300A8110020A30E0300B411002015
:103E9000AD0E0300C0110020B50E0300CC110020B0
:103EA0000D02010080130020D412002026120020F1
:103EB000B8130020A95A01006F020100F010002081
:103EC000241100202F6201006812002074130020CA
:103ED000A813002078820300801A0600D811002061
:103EE0009C140020E96B01009882030074120020EA
:103EF00061020100881200209C1200202DE9F04F81
:103F00001646514A136885B00133834650200D464A
:103F1000136008F099FD4D4B0293002401238DF8A6
:103F20000D308DF80C40019304AB13E906004848AE
:103F300001F00EFEF2B210462146009208F006FE95
:103F4000142008F081FDAA21414801F0BBFD814603
:103F5000142008F079FD59463D4801F0B3FD4FEAC1
:103F6000152A8046142008F06FFD5146384801F0AC
:103F7000A9FDEDB20746142008F066FD2946344835
:103F800001F0A0FD0646142008F05EFD019B009A9A
:103F90001946104608F0DAFD2D4801F0D1FD5020F9
:103FA00008F052FDB8F1190F03D1A9F118035C42D2
:103FB0005C411A2F46D11B2E44D1002C3ED02549FE
:103FC000254808F060FA0A225946234808F0F8FA12
:103FD0002249214808F057FA0A2251461E4808F0A3
:103FE000EFFA1E491C4808F04EFA0A2229461A48E0
:103FF00008F0E8FA1A49184808F045FA0A22494632
:10400000154808F0DDFA1549134808F03CFA0A2271
:104010004146114808F0D4FA10490F4808F033FA25
:104020000A2239460C4808F0CBFA0C490A4808F035
:104030002AFA0A223146084808F0C4FA204605B098
:10404000BDE8F08F0024F9E78011002080841E0075
:10405000801400206A140300683300207F140300DA
:1040600083140300F8B504460E46174697253A46D2
:1040700031462046FFF742FF18B9013DF7D104F160
:10408000FA00F8BD2DE9F74F0646502015460F46B9
:1040900008F0DAFC704B0093002401238DF8053002
:1040A0008DF8044002AB13E906006C48EDB201F054
:1040B0004FFD2146284608F049FD142008F0C4FCB5
:1040C0000F21664801F0FEFC8346142008F0BCFC7A
:1040D0003146624801F0F6FC8246142008F0B4FC38
:1040E00021465E4801F0EEFC8146142008F0ACFC4D
:1040F00021465A4801F0E6FC8046142008F0A4FC52
:10410000BAF1190F03D1ABF118035C425C41B9F16C
:104110001A0F40F09880B8F11B0F40F0948084F0A3
:1041200001044F494F4808F0B7F90A2231464D487B
:1041300008F046FA4C494B4808F0D6F94B49494833
:1041400008F0AAF90A225946464808F039FA4849BF
:10415000444808F0A1F90A225146424808F030FAD2
:104160004349404808F098F90A2249463D4808F07A
:1041700027FA3F493B4808F08FF90A22414639485F
:1041800008F020FA502008F05FFC1821334801F0B5
:1041900099FC8346142008F057FC19212F4801F0A0
:1041A00091FC8246142008F04FFC1A212B4801F0A4
:1041B00089FC8146142008F047FC1B21274801F0A8
:1041C00081FC8046142008F03FFC0121284608F0BD
:1041D000BDFC224801F0B4FC502008F035FC254914
:1041E000204808F081F924491E4808F055F90A22B0
:1041F00059461C4808F0E4F91D491A4808F04CF9E2
:104200000A225146174808F0DBF91949154808F009
:1042100043F90A224946134808F0D2F914491148D3
:1042200008F03AF90A2241460E4808F0CBF9BBF1F2
:10423000F00F03D1B24501D1012C06D10020388006
:1042400003B0BDE8F08F01246BE748EA0928A7F81E
:1042500000800120F4E700BF80841E00801400204D
:10426000A413030068330020B9130300C013030034
:104270007F140300D0130300ED130300F8B50446C8
:104280000E46174697253A4631462046FFF7FAFE76
:1042900018B9013DF7D104F5AF70F8BD2DE9F3472A
:1042A0000024DFF8DC80DFF8DC90304DADF806400C
:1042B0002646271D7F00D8F800303B445FFA84FA79
:1042C000092299885046FFF7CDFEC8B349462846D3
:1042D00008F0E2F80A222146284608F058F9244955
:1042E000284608F0D9F8D8F800303B440A229988CB
:1042F000284608F04EF909220DF106015046FFF755
:10430000BDFFE8B11B49284608F0C6F80A2221463D
:10431000284608F03CF91649284608F0BDF80A225C
:10432000BDF80610284608F032F9D8F800303B44B2
:104330009A88BDF806309A4209D00136952EBADD2A
:104340000134072CB5D1304602B0BDE8F0870A49E8
:10435000284608F0A1F80A222146284608F017F955
:104360000649284608F0C0F80026E9E7683300202F
:10437000651303006E1303007F13030095130300FE
:104380000C0200204D13030073B51E4C237883B13B
:104390001D491E481E4D08F093F8FFF77FFF1D4989
:1043A00028601A4808F06FF80A222968174808F0B0
:1043B000F0F8194E327802B32378F3B90220ADF841
:1043C000063008F0F3FBB0B9962509220DF106017D
:1043D0000B20FFF757FE28B9013DF6D14FF45F439C
:1043E000ADF80630BDF806100C4B0848090A0A2241
:1043F000197008F0E7F8002333700023237002B02F
:1044000070BD00BF2C020020271603006833002077
:10441000040200203A160300B41300200802002012
:104420002DE9F04F85B09A469DF8383002939DF8FB
:10443000403003930125102390460022CDE900353A
:10444000064680231E48DDF83C909DF844B01C4C85
:104450000F46114603F0DDF82F23009301958023CA
:1044600011220021164803F0D4F8BBF1000F0DD043
:104470002823112240212046009502F014FF0095C8
:10448000802337220021204602F0E6FE51460C48E8
:1044900003F03CFD029B7BB14FF480336361012349
:1044A0000F93039B0E9342464B463946304605B068
:1044B000BDE8F04FFCF728B94FF00113EEE700BF5D
:1044C000D81100202DE9F0438046A1B08548854DE4
:1044D00002F099FC844B1F78844B1D9345F64F13D3
:1044E000ADF8783000241DAEE3B29F424FF00103D7
:1044F000315D00934FF03B024FF00203284640F03D
:10450000D08003F0A4FA0134062CEDD1DFF8189224
:10451000744C00230A27CDE90273CDE90039052246
:10452000012316214046FFF77BFF714B1B685B7828
:10453000002B00F0B9806F4B6F4D23616F4920460F
:1045400007F0AAFF6E4B23612B683A461978204684
:1045500008F036F86B4B23616B49204607F09CFF4F
:104560006A4B23616A49304608F042F92B68197892
:104570003A4614311AA808F06BF91AA9304608F027
:10458000E6F9014605A808F0A2F91AA808F0EAF829
:10459000304608F0E7F805A9204607F078FF5D4BA4
:1045A00023615D49204607F077FF5C4B23612B6850
:1045B000102259780BA808F03AF90BA90EA808F0B8
:1045C00086F957490EA808F0CEF92B681022997881
:1045D000074611A808F02BF911A9384608F0B7F9D9
:1045E0004F4908F0C0F92B681022D978074614A863
:1045F00008F01DF914A9384608F0A9F9484908F04F
:10460000B2F92B6810221979074617A808F00FF99C
:1046100017A9384608F09BF9414908F0A4F92B681E
:104620001022597907461AA808F001F91AA9384644
:1046300008F08DF93A4908F096F92B68102299791B
:104640000746304608F0F3F83146384608F07FF95F
:10465000014608A808F03BF9304608F083F81AA88C
:1046600008F080F817A808F07DF814A808F07AF888
:1046700011A808F077F80EA808F074F80BA808F055
:1046800071F808A9204607F002FF08A808F06AF8A8
:1046900005A808F067F8134802F02CFE21B0BDE829
:1046A000F08303F061F82EE701251323CDE90135EE
:1046B0001223009316221B4B2046372103F0F4F9F6
:1046C0002946204603F022FC4FF0011363611A23B0
:1046D000009301954B462B2211214046FCF714F81C
:1046E000D9E700BFD81100202412002027313B4514
:1046F00010020020050014000C020020A573030026
:104700003200140005001E00AE73030032001E00CC
:10471000E275030005002700B773030005003000B1
:1047200061320300986D0300C07403002DE9F0436B
:10473000054687B05D485D4F02F065FB5C4B93F822
:1047400000805C4B049345F64F13ADF81430002401
:104750000DF110090126E3B2984519F804100096EE
:104760004FF002034FF03B02384640F0868003F0E2
:104770006EF90134062CEED100230B22CDE9022381
:104780004D4A2846CDE90032192101230522FFF7C1
:1047900047FE032008F00AFA002871D1072008F02C
:1047A00005FA00286CD1414C444B454D23614549E5
:1047B000204607F071FE444B23612B680A22998939
:1047C000204607F0E4FE414B23614149204607F0B3
:1047D00063FE404B23612B680A22D989204607F0EB
:1047E000D6FE3D4B23613D49204607F055FE3C4B2C
:1047F00023612B680A22198B204607F0C8FE394B2B
:1048000023613949204607F047FE384B23612B6866
:104810000A22D98A204607F0BAFE354B2361354972
:10482000204607F039FE344B23612B680A22998A0F
:10483000204607F0ACFE314B23613149204607F09A
:104840002BFE304B23612B680A22598A204607F041
:104850009EFE2D4B23612D49204607F01DFE2C4B5B
:1048600023612B680A22198A204607F090FE0F4820
:1048700007B0BDE8F04302F03DBD02F075FF78E7F8
:1048800001241323CDE90134122300931622214B76
:104890000648372103F008F9042300930194064BDE
:1048A0002B2219212846FBF72FFFE0E7D811002023
:1048B0002412002027313B45C0740300030013007D
:1048C0000C020020087403002D00130040001300A8
:1048D000107403006C00130003001D003674030005
:1048E0002D001D0040001D002F74030066001D00F8
:1048F00003002700277403002D0027004000270035
:10490000207403006C0027000300310018740300BA
:104910002D003100986D03002DE9F04F064689B057
:104920007748774F02F06FFA764B93F80080764B1A
:10493000069345F64F13ADF81C3000240DF118090D
:104940000125E3B2984519F8041000954FF00203D1
:104950004FF03B02384640F0A98003F078F801346C
:10496000062CEED1694F00252B24012305221921A5
:104970003046CDE90245CDE90057FFF751FD022051
:1049800008F014F9012840F0A4805D4E029017232E
:104990001522CDE9003203215D4BDFF8ACB1DFF821
:1049A000AC911422304603F07FF80221304603F028
:1049B000ADFA584B3361584C08F032F82368CBF805
:1049C0000000C01A132836D908F02AF8206053488E
:1049D000534C01F07DFB534B80461860D9F8000022
:1049E000514BA8EB000043F8250015F009FFD4E96E
:1049F000053A5345CDE904015BD201336361276970
:104A000023689DED047B03EBC70383ED007B53EC30
:104A1000172BD4E9020115F0B7FD0137BA45C4E9F7
:104A2000020198BF002305F101058CBF27612361B6
:104A3000C9F80080EDB2132DBDD9394B5C69002C4B
:104A400044D0D3E9020116F04DFA07EE904A07EE82
:104A5000100AF8EE677A87EE277A344B1C6817EE57
:104A6000100A15F0EFFE0022C4E90401304B16F0E5
:104A70006BF800222F4B15F03DFF0B460246C4E9B0
:104A80000623022400941E4807F06AFE21461C48B3
:104A900003F03CFA284B33612849194807F0FCFC25
:104AA000174809B0BDE8F04F02F024BC02F05CFEEC
:104AB00055E72269236803EBC203D3E90023D4E955
:104AC000020115F05FFDC4E9020198E79FED1C7A31
:104AD000C3E701251323CDE90135122300931622E4
:104AE000184B0748372102F0DFFF2D230093019573
:104AF0003B46224619213046FBF706FED0E700BFB1
:104B0000D81100202412002027313B45C074030037
:104B1000447203001E002200E4100020D412002082
:104B2000B0120020DC1000208C1000203002002089
:104B3000000034400000D03F500022002A760300DD
:104B400000000000986D0300E0100020E810002035
:104B50002DE9FF412A4C2B4F01254023CDE901359A
:104B6000802306460522002100932046264B02F0B2
:104B70009BFF204602F0BEFB40F2DC5007F062FFD4
:104B8000204602F040F94FF000080623CDE9023834
:104B900005222B463046CDE900871721FFF740FC60
:104BA0002946204603F0B2F94FF001136361CDE9C5
:104BB00000853B4630461E222321FBF7A5FD3B46E0
:104BC0002822CDE900552A213046104DFBF79CFDE7
:104BD000204602F08FFB0E49284607F071FC0D4974
:104BE000284607F06DFC40F2DC5007F02BFF204612
:104BF00002F009F9204604B0BDE8F04102F07ABBAA
:104C0000D8110020C0740300D16D03006833002068
:104C100017760300227603002DE9F043484EDFF8B3
:104C20003881DFF82C91474C85B000230622CDE96E
:104C30000223CDE900360522012317210746FFF79D
:104C4000EFFB03230122CDE9003211213346242258
:104C50003846FBF759FD3B4802F04CFB40F2DC5074
:104C600007F0F0FE072007F0A1FF58B34146484681
:104C700007F026FC204602F0C6F801251323CDE9F3
:104C800001351223009320462F4B1622372102F0C4
:104C90000BFF00230622CDE90223CDE9003638467A
:104CA0002B4605221721FFF7BBFB04230093384650
:104CB0000195234B2B221921FBF726FD204602F0FC
:104CC00019FBCFE7032007F071FF05460028CDD17F
:104CD0001E491F4807F0F4FB1A4802F094F801241B
:104CE0001123CDE90134122300931722194B1548E3
:104CF000372102F0D9FE0623CDE901633846234669
:104D00000395009505221721FFF78AFB05232B2227
:104D10001421009338460A4B0194FBF7F5FC09482F
:104D200002F0E8FA40F2DC5007F08CFE054802F091
:104D30006AF8044805B0BDE8F04302F0DBBA00BFF2
:104D4000C0740300D8110020986D030001760300A1
:104D500068330020656D0300ED7503002DE9F04F09
:104D60004D4F4E4DDFF84C9185B04FF000084FF09D
:104D7000060A012305221721CDE902A8CDE9008703
:104D800004460126FFF74CFB132324221121CDE911
:104D9000003620463B46FBF7B7FC284602F0AAFA4D
:104DA00040F2DC5007F04EFE2046FEF7B9FB2046ED
:104DB000D9F800B0FBF76CFC8BF80400284602F031
:104DC00022F833460522CDE902A8CDE90087172154
:104DD0002046FFF725FBD9F800301A78A946002AAB
:104DE00035D093F80480B8F1000F30D02C492D480D
:104DF00007F066FB4FF0110912231722CDE90039A5
:104E00003721294B0296284602F04EFE31462846AD
:104E100003F07CF84FF001136B61142300930196AB
:104E20003B462B2249462046FBF76EFC1B4802F00E
:104E300061FA40F2DC5007F005FE184801F0E3FF8C
:104E4000164802F057FA404605B0BDE8F08F174902
:104E5000144807F035FB01251323CDE90135122352
:104E6000162200933721124B0C4802F01DFE2946F2
:104E70000A4803F04BF84FF00113C9F8143015231A
:104E800000930195044B2B2211212046FBF73CFC9B
:104E90004FF00008CAE700BFC0740300D81100201B
:104EA0008075030068330020656D0300937503006F
:104EB000986D0300100200202DE9F043394E3A4D61
:104EC00085B04FF000084FF00609CDE90298CDE912
:104ED000008601230522172107460124FFF7A0FAC7
:104EE0001B2324221121CDE9003438463346FBF739
:104EF0000BFC284602F0FEF940F2DC5007F0A2FD60
:104F0000284601F080FFCDE90298CDE900862346CE
:104F1000052217213846FFF783FAFEF73FFA80464D
:104F200030B32249224807F0CBFA4FF0110912237F
:104F3000CDE9003917221F4B02943721284602F091
:104F4000B3FD2146284602F0E1FF4FF001136B61EB
:104F500001941C2300932B22334611213846FBF782
:104F6000D3FB114802F0C6F9404605B0BDE8F08316
:104F700011490F4807F0A4FA12231322CDE9003299
:104F800037210E4B02941622284602F08DFD214651
:104F9000284602F0BBFF4FF001136B6101941D2303
:104FA000D8E700BFC0740300D8110020B475030017
:104FB00068330020656D0300CC750300986D030015
:104FC0002DE9F043074687B05548554E01F01BFFC9
:104FD000544B93F80080544B049345F64F13ADF8AF
:104FE000143000240DF110090125E3B2984519F899
:104FF000041000954FF002034FF03B02304671D190
:1050000002F025FD0134062CEFD100230722CDE963
:105010000223464A464D424CCDE900321721012376
:1050200005223846FFF7FCF92B689B787BB90123F2
:105030002377404B23612821204602F0DDFE212109
:10504000204602F0D9FE2921204602F0D5FE3A4B37
:1050500023613A4932483A4E07F01EFA394B236130
:1050600039492F4807F018FA384B236138492C4842
:1050700007F012FA2B682A485B790121002B34D003
:1050800002F044FF4FF480333249266163612448C3
:1050900007F002FA2B6822489B792F4D012163B358
:1050A00002F034FF4FF480332A49256163611C48C4
:1050B0002A4D07F0F1F9022007F078FD012801469A
:1050C00023D1174802F022FF4FF480332449256191
:1050D0006361134807F0E0F9114807B0BDE8F043F9
:1050E00002F008B902F040FB8CE702F00FFF4FF42A
:1050F0008033266163611B49C9E702F007FF4FF463
:105100008033256163611749D1E70121044802F02A
:10511000FDFE4FF48033256163611349D9E700BF79
:10512000D81100202412002027313B45C074030011
:10513000100200206C000500050014003673030007
:1051400050001400050021004373030005002E00E9
:10515000507303005F7303005000210050002E00C5
:10516000657303005C730300687303002DE9F0436B
:10517000064687B05448544F01F045FE534B93F810
:105180000080534B049345F64F13ADF814300024C0
:105190000DF110090125E3B2984519F804100095A6
:1051A0004FF002034FF03B0238466FD102F04FFC44
:1051B0000134062CEFD100230822464F424CCDE9A2
:1051C00002230522CDE90037114601233046FFF7BF
:1051D00027F9414B1B681B7801250295002B58D0FD
:1051E0001026CDE900663D4BDFF8108116220A211A
:1051F000204602F059FC2722394B0096CDE9016583
:105200000A21204602F050FC0221204602F07EFED8
:10521000344B4FF00116C4E90436D8F80030186852
:1052200015F010FB022702460B460097204607F0B8
:1052300097FA2D4B2361D8F80030586815F002FB1F
:10524000009702460B46204607F08AFA2946204678
:10525000257702F05BFE254BA721C4E904362046E2
:1052600002F0CAFD2249204607F016F943212046E4
:1052700002F0C2FD1F4B23612521204602F0BCFD38
:10528000114807B0BDE8F04302F034B802F06CFA00
:105290008EE712231322CDE900322046164B162248
:1052A000372102F001FC2946204602F02FFE4FF084
:1052B000011363611623009301953B462B221121B4
:1052C0003046FBF721FADBE7D8110020241200203A
:1052D00027313B45C074030010020020D171030048
:1052E000F17103002300160023002700610016005F
:1052F0009092030061002700986D030030020020A7
:105300002DE9F043074687B04D484D4D01F07BFD38
:105310004C4B93F800804C4B049345F64F13ADF87B
:10532000143000260DF110090124F3B2984519F844
:10533000061000944FF002034FF03B0228467BD149
:1053400002F085FB0136062EEFD101250923CDE9B8
:1053500002353E4B01930023394C009338462B46CF
:1053600005222321FFF75CF8112325771322CDE9CD
:1053700000331821364B0295204602F095FB384643
:10538000FEF75AF93346334E009520462422602119
:1053900002F0EAF93368B3F90620B3F90410009576
:1053A000322AA8BF32227A29A8BF7A21162AB8BF8A
:1053B00016224529B8BF45212046042302F047FBA9
:1053C000254B2361E921204602F016FD23492046A2
:1053D00007F062F8224B23613368986815F032FABF
:1053E000009502460B46204607F0BAF91D4B236193
:1053F000A721204602F000FD1B4B2361E921204636
:1054000002F0FAFC1949204607F046F8336818699B
:1054100015F018FA009502460B46204607F0A0F951
:10542000134B2361A721204602F0E6FC204607B07B
:10543000BDE8F04301F05EBF02F096F982E700BFDD
:10544000D81100202412002027313B45C0740300EE
:105450001172030014020020040024002E760300C1
:10546000160024003700240004002E0031760300CB
:1054700037002E0038B5354A354B11781878354C41
:10548000884211D13448007870B1344D2B7803BB79
:1054900007F0C6FA324B1B6803F5922303F57873C5
:1054A00098421AD9012317E01878814202D12A487C
:1054B000007890B1187881420FD01B781370264B7A
:1054C0001B789BB12378042B94BF013300232370F6
:1054D00003E00623237000232B702378072B30D89A
:1054E000DFE803F0060B10151A1F242A0723EEE746
:1054F0001C48BDE83840FFF763BD1A48BDE8384096
:10550000FFF714B91748BDE83840FFF705BA15484A
:10551000BDE83840FEF7D6BF1248BDE83840FFF777
:10552000EFBE1048BDE83840FFF720BE0D48FBF73E
:105530001BF90823237038BD0A48FBF723F9002321
:10554000F8E70120BDE8384007F07EBA711300206B
:10555000701400202412002070130020EC10002092
:1055600070120020D01200202DE9F0412148214F77
:10557000DFF89880204D00F0BDFB20491D4800F069
:1055800018FC32243A465021404604F048FC0646B6
:1055900070B91B491B4806F093FF2B680520DE708D
:1055A000013C07F04FFA14F0FF04EBD1BDE8F081A5
:1055B0001549144806F084FF2B6814480122DA705C
:1055C0004FF4FA3104F03AFC8021104804F038FC22
:1055D00003210E4804F036FC0D490A4806F053FF3B
:1055E0000A4804F009FC0A220146BDE8F0410548DA
:1055F00006F0F2BF9C14002010020020801A060062
:105600001F10030068330020401003001802002020
:105610004F1003002DE9FF415049514806F050FF5B
:10562000FFF7A2FF4F4B1B68DB78002B00F08C804C
:105630004D4C4E4E4A4FDFF84C81FDF77FFE2268FD
:105640001378118919441433DBB2518102A8A822BE
:105650000093C021012306F0C5FE039B4449404846
:10566000736006F02DFF43493D4806F029FF42498B
:105670003B4806F011FF2368394819780A2206F0E2
:10568000A1FF3E49364806F0FEFE002573190A22A6
:105690001979384606F094FF032D03D04146384669
:1056A00006F0F1FE0135042DF0D135492C482C4E81
:1056B000344F06F019FF3449294806F0EDFE002565
:1056C00023682B4410225978304606F079FF052DC7
:1056D00003D03946304606F0DFFE0135062DEFD106
:1056E00027491F48DFF8B4801D4E284F06F0FCFE06
:1056F00027491B4806F0D0FE2368194819890A2259
:1057000006F047FF2349164806F0C6FE23681448F2
:1057100059890A2206F03DFF00250C2101FB058175
:10572000304606F0B4FE3946304606F0B5FE236832
:1057300003EB45030A2299893046013506F029FF1B
:10574000072DEAD1002005E01349054806F0B8FE10
:105750004FF0FF3004B0BDE8F08100BFC16C030022
:1057600068330020100200200C0200206812002084
:10577000E06C0300F06C0300006D03000B6D030090
:105780009092030061320300166D0300A310030022
:10579000246D0300306D03003D6D03008411002073
:1057A0002DE9F0433B4F3C4E85B000254FF00609F4
:1057B000012305221721CDE90295CDE90057804646
:1057C0000124FEF72DFE252324221121CDE90034EA
:1057D00040463B46FAF798FF304601F08BFD40F219
:1057E000DC5007F02FF9304601F00DFB234605226F
:1057F00017214046CDE90295CDE90057FEF710FE8E
:10580000FFF708FF1223029448BB11251722CDE9A8
:1058100000353721214B304602F046F9214630460B
:1058200002F074FB4FF0011373612723009301947E
:105830003B462B2229464046FAF766FF164801F000
:1058400059FD40F2DC5007F0FDF8134801F0DBFA97
:10585000114801F04FFD204605B0BDE8F08313224A
:10586000CDE9003237210E4B1622304602F01CF9EA
:105870002146304602F04AFB4FF0011373612823A2
:10588000019400932B223B4611214046FAF73CFF3E
:105890002C46D3E7C0740300D8110020656D0300C7
:1058A000986D0300F7B54FF4E1316448644F654DDE
:1058B000654E06F00FFC6549654806F001FE4FF4A1
:1058C000FA7007F0BFF80221052007F003F9012163
:1058D0000E2007F0FFF80221072007F0FBF8C82090
:1058E00007F0B0F801210E2007F030F95949584867
:1058F00006F0E6FD4FF4FA7007F0A4F801240094D6
:1059000023463D220221384601F08AFA28B9314661
:105910004F4806F0D5FD2C70F0E700232B704E4B5E
:105920004E494B481C7006F0CBFD4FF47A7007F0DF
:1059300089F8434801F067FA414801F0DBFC484828
:10594000FFF706F94648FFF767F94548FFF728FFD4
:1059500004464348FFF702FA05464148FFF7ACFA10
:10596000002D68D0002808BF00243E4B1B684FF470
:10597000FA709C7007F066F83B49354806F0A0FDC8
:105980004FF4FA7007F05EF803223849052005F05D
:1059900099FA37492E4806F093FD4FF4FA7007F054
:1059A00051F800230A2233493348FAF7FCFD01235A
:1059B000142232493048FAF7F6FD02234FF4FA6216
:1059C0002F492D48FAF7EFFD03232E4A2E492A4886
:1059D000FAF7E9FD012332222C492748FAF7E3FDC3
:1059E000032341F288322A492348FAF7DCFD0323D6
:1059F0004EF6602227492048FAF7D5FD0323214AB5
:105A000025491D48FAF7CFFD03231E4A23491A48AA
:105A1000FAF7C9FD0A4801F0F6F9094801F06AFCF5
:105A200006F0FEFF1E4B1F491860094803B0BDE891
:105A3000F04006F045BD2C4697E700BF303200200D
:105A4000D811002040120020817603005F76030009
:105A5000683300206D760300701300209B760300EE
:105A6000D012002010020020AA7603007D0201005F
:105A7000C376030089430100B8130020813C010074
:105A8000E101010080EE3600E902010075540100D9
:105A90005903010029020100E1030100A9020100EC
:105AA00070120020DC76030010B504465C3007F06D
:105AB00023FE04F1300007F01FFE201D07F01CFE3E
:105AC000204610BD10B586B0C0688DF80F10036871
:105AD00001220092DC680DF10F010DF11703A047C0
