:020000021000EC
:1000000000000420894E0200C14E0200150C0200BF
:10001000C54E0200210C0200270C02000000000067
:10002000000000000000000000000000B5240200F5
:10003000CD4E0200000000004D2502005D250200AB
:1000400065910200F9FF0100D34E0200D34E020079
:10005000D34E0200D34E0200D34E0200D34E020014
:10006000D34E0200D34E0200D34E0200D34E020004
:10007000D34E0200F9920200D34E0200110002009A
:10008000D34E0200D34E0200D34E0200D34E0200E4
:10009000D34E0200D34E0200D34E0200D34E0200D4
:1000A000D34E0200D34E0200D34E0200D34E0200C4
:1000B000D34E0200EDA90100000000000000000086
:1000C000D34E0200D34E0200D34E0200D34E0200A4
:1000D000D34E0200D34E0200D34E0200D34E020094
:1000E000D34E0200D34E0200D34E020000000000A7
:1000F00000000000D34E020000000000D34E0200BA
:1001000010B5054C237833B9044B13B10448AFF351
:1001100000800123237010BD70100020000000003B
:1001200054A3030008B5034B1BB103490348AFF3C5
:10013000008008BD000000007410002054A30300DC
:10014000154B002B08BF134B9D46A3F5803A0021A9
:100150008B460F461348144A121A1CF0D1FF0F4B5E
:10016000002B00D098470E4B002B00D09847002062
:10017000002104000D000D48002802D00C4811F0A9
:1001800035FB1CF0C7FA2000290011F0EBFF11F03D
:100190002AFB00BF0000080000000420000000004F
:1001A000C120020070100020E8CD0020ED170200F1
:1001B00000000000BFF34F8F0549064BCA6802F4E8
:1001C000E0621343CB60BFF34F8F00BFFDE700BF7A
:1001D00000ED00E00400FA0570470020704770470A
:1001E000014B01221A707047AC130020D0E9003097
:1001F000184708B50446204609F020FEFBE70B68C7
:1002000003604B6843608B688360704738B5054C6A
:10021000A4F1540520460C3C0CF07CFAAC42F9D118
:1002200038BD00BFCC110020094B1B681A785AB1A9
:100230005A784AB1DA783AB11A792AB101220549D5
:100240009A7005480CF014B900229A700349F8E737
:100250001002002023100300603300202F10030041
:1002600010B5044600681CF005FB204610BD10B513
:10027000044600681CF0FEFA204610BD10B5084C7C
:100280000CF0A6FB236803F59673984207D90CF08F
:100290009FFB044A2060137883F00103137010BDA4
:1002A000701200206814002038B50A480A4C0AF081
:1002B00090F9054630B9094909480CF0D9F8236886
:1002C0001D7138BD074906480CF0D2F82368012299
:1002D0001A71F6E7DC2A002010020020081603003D
:1002E000603300201916030010B507F0D1FF012874
:1002F000044619D1144808F0A3FAA8B1134B1449C5
:100300001B6814485C700CF0B3F807F0C1FF0228BA
:1003100005D007F0BDFF012801D007F0B9FF0A485A
:10032000BDE8104008F08CBA07F0B2FF022804D1F3
:10033000064B1B6800225A70E7E7034808F080FA72
:100340000028F5D010BD00BFA0130020100200202F
:10035000411003006033002038B51A4C1A48256854
:1003600005F076FE28601848256805F093FF686060
:10037000154805F09FFE9FED157A2368144A07EE95
:10038000900AC7EE877AC3ED027AD3ED007AF5EED4
:10039000C07AF1EE10FA0FDDD3ED017AF5EEC07AF6
:1003A000F1EE10FA08DD13680A4901221A700A48B2
:1003B000BDE838400CF05CB81368084900221A7098
:1003C000F5E700BF30020020241100200000C842E1
:1003D00010020020640F030060330020720F03003E
:1003E00038B550210A480B4C09F0DEFB054630B900
:1003F00009490A480CF03CF82368DD7038BD08490B
:1004000006480CF035F823680122DA70F6E700BFE1
:100410001802002010020020521403006033002054
:1004200077140300F0B590F8B46000234FF0140C7B
:10043000DCB2A6420BD90CFB03F41D4607598F42D0
:1004400003D104446468944203D00133F0E74FF0D1
:10045000FF352846F0BD002910B5044615DB90F89D
:10046000B430994211DA142202FB01F05B1A013B0D
:10047000811821445A4320441CF0DEFD94F8B43026
:10048000013B84F8B430012010BD0020FCE72DE9C9
:10049000F84306460CF09CFA0024142796F8B43072
:1004A000A3422DD907FB0463D3E90212851A8D42BA
:1004B00018D304EB840006EB80050A44D5F80490B9
:1004C0001D6956F82080DA607DB90125B9F1000F69
:1004D00014DB4846C04796F8B5308BB90CF078FA73
:1004E000002DDBD00134E4B2D8E7013D1D61002DC1
:1004F000EBD121463046FFF7AEFFE7E7C047EAE71A
:10050000BDE8F8832DE9F843089F16463A460546AC
:1005100089469846FFF786FF041E2FDA95F8B44007
:100520009DF824309C4228BF1C4695F8B430082B17
:100530002AD85EB3A3420AD9142204FB0220A0F1F8
:1005400014011B1B5A43294428441CF075FD04EB7D
:1005500084039B00EA1845F80390142303FB04541A
:10056000A66057600CF034FAC4E9030895F8B4307B
:10057000013385F8B4300120BDE8F88321462846D0
:10058000FFF769FFE4B2D0E70020F5E73046F3E774
:1005900013B59DF8104001944FF0FF340094FFF71D
:1005A000B1FF02B010BD07B500930023FFF7F0FFC5
:1005B00003B05DF804FB00007FB50023144E8DF8F6
:1005C00007200D468DF80F30322401230DF107026C
:1005D0002946304609F071FB05200CF00DFA012385
:1005E0000DF10F022946304609F004FB9DF80F205B
:1005F0009DF807309A4209D00520013C0CF0FCF927
:1006000014F0FF04E1D1204604B070BD0120FBE7E7
:10061000180200207FB50023144EADF806200D46C9
:10062000ADF80E30322402230DF106022946304681
:1006300009F043FB05200CF0DFF902230DF10E0257
:100640002946304609F0D6FABDF80E20BDF806302E
:100650009A4209D00520013C0CF0CEF914F0FF04B9
:10066000E1D1204604B070BD0120FBE71802002054
:1006700008B50548054A1A2309F01FFB0520BDE807
:1006800008400CF0B9B900BF180200202612002063
:1006900030B5174D85B00A24284609F09AFF60B995
:1006A0000A20013C0CF0A8F914F0FF04F4D1052055
:1006B0000CF0A0F9204605B030BD0E4C204609F0E4
:1006C00079FB0D4B03930D4B6946CDE9003404F5DE
:1006D000A8700023029314F009F8039B13B19B68E0
:1006E00068469847064B074A1B6801241A60DEE7F4
:1006F000DC2A0020E01A0020380E0300F30101007C
:100700001402002020001300F0B587B01E469DF8AB
:1007100034309DF83070134C09B215B203B30DF1AB
:100720001603039305AB02930DF11203019304AB7F
:100730000A46009356F827102B46204607F082FB06
:10074000BDF814300222C3F1800393FBF2F323823D
:1007500056F82710034865820BF076FE07B0F0BD0F
:100760002182F5E7D811002008B5AE21034806F034
:10077000EFF9034B00221A7008BD00BFD81100200A
:100780007013002008B5AF21034806F0E1F9034BD0
:1007900001221A7008BD00BFD8110020701300207C
:1007A00010B50A4904460BF063FE094920460BF0D8
:1007B0005FFE084920460BF05BFE20460BF052FE20
:1007C00005490648BDE810400BF052BE980F0300E3
:1007D000A80F0300C00F0300D20F030060330020F6
:1007E0002DE9F74F0446DB49DFF86C84DFF86CA491
:1007F000D94DDA4FDFF86894DFF868B4D84E0BF0C3
:1008000037FED84920460BF033FED74920460BF07F
:100810002FFED64920460BF02BFED54920460BF083
:1008200027FED44920460BF023FED34920460BF087
:100830001FFED24920460BF01BFE414620460BF01E
:1008400017FECF4920460BF013FECE4920460BF091
:100850000FFECD4920460BF00BFE514620460BF013
:1008600007FECA4920460BF003FE294620460BF03E
:10087000FFFDC74920460BF0FBFD394620460BF033
:10088000F7FDC44920460BF0F3FDC34920460BF0A9
:10089000EFFD294620460BF0EBFDC04920460BF04A
:1008A000E7FD494620460BF0E3FDBD4B009319469A
:1008B00020460BF0DDFD294620460BF0D9FDB94955
:1008C00020460BF0D5FD414620460BF0D1FDB64940
:1008D00020460BF0CDFDB54920460BF0C9FDB449CB
:1008E00020460BF0C5FD594620460BF0C1FD2946B8
:1008F00020460BF0BDFDAF4920460BF0B9FD414647
:1009000020460BF0B5FDAC4920460BF0B1FDAB49DC
:1009100020460BF0ADFDAA4920460BF0A9FD31465B
:1009200020460BF0A5FDA74920460BF0A1FD294666
:1009300020460BF09DFDA44920460BF099FD594639
:1009400020460BF095FD009B204619460BF090FDCC
:10095000514620460BF08CFD294620460BF088FDC1
:100960009A4920460BF084FD494620460BF080FD55
:100970009749DFF8F49220460BF07AFD954920461E
:100980000BF076FD944920460BF072FD4946204657
:100990000BF06EFD914920460BF06AFD3146204672
:1009A0000BF066FD8E4920460BF062FD294620467D
:1009B0000BF05EFD8B4920460BF05AFD5946204650
:1009C0000BF056FD8849DFF8A4B220460BF050FD2D
:1009D000864920460BF04CFD854920460BF048FD2A
:1009E000294620460BF044FD824920460BF040FD8D
:1009F000814920460BF03CFD804920460BF038FD34
:100A00007F4920460BF034FD294620460BF030FD8F
:100A10007C4920460BF02CFD314620460BF028FD8A
:100A2000794920460BF024FD414620460BF020FD7D
:100A3000764920460BF01CFD294620460BF018FD98
:100A4000734920460BF014FD314620460BF010FD93
:100A5000514620460BF00CFD6E49DFF814A22046EB
:100A60000BF006FD6C4920460BF002FD294620469E
:100A70000BF0FEFC694920460BF0FAFC6849204661
:100A80000BF0F6FC674920460BF0F2FC29462046A5
:100A90000BF0EEFC644920460BF0EAFC634920466B
:100AA0000BF0E6FC294620460BF0E2FC60492046AC
:100AB0000BF0DEFC394620460BF0DAFC5D4920469F
:100AC0000BF0D6FC5C4920460BF0D2FC5B4920467B
:100AD0000BF0CEFC294620460BF0CAFC58492046B4
:100AE0000BF0C6FC314620460BF0C2FC29462046DE
:100AF0000BF0BEFC534920460BF0BAFC39462046A9
:100B00000BF0B6FC514620460BF0B2FC29462046BD
:100B10000BF0AEFC4C4920460BF0AAFC31462046B7
:100B20000BF0A6FC294620460BF0A2FC47492046C4
:100B30000BF09EFC394620460BF09AFC44492046B7
:100B40000BF096FC434A0192114620460BF090FCB4
:100B500090E000BF201603001C1703002B170300B2
:100B60003A18030030160300401603005116030024
:100B70005816030081160300941603009C16030008
:100B8000AE160300BA160300ED16030001170300AA
:100B90001E1703003A1703005D17030083170300B5
:100BA000A6170300BB170300C9170300DC170300D7
:100BB000EA170300051803001218030026180300A3
:100BC000311803004E180300631803006A1803006D
:100BD000741803008518030090180300AA18030076
:100BE000BF180300CF180300DA180300EC18030045
:100BF000FF18030013190300201903002E19030026
:100C000048190300571903006019030077190300FE
:100C10008819030093190300AA190300BC190300E3
:100C2000CD190300E8190300F8190300031A0300A3
:100C3000151A0300321A03004F1A0300741A030036
:100C4000831A0300A31A0300CC1A0300DE1A030060
:100C5000F71A03001F1B0300A3160300D819030093
:100C60008D170300F81703009D180300631B030092
:100C7000B31A0300DB4B0093194620460BF0F8FB38
:100C8000594620460BF0F4FB294620460BF0F0FBBA
:100C9000D54920460BF0ECFBD44920460BF0E8FB8D
:100CA000D34920460BF0E4FB314620460BF0E0FB35
:100CB000294620460BF0DCFBCE4920460BF0D8FB42
:100CC000394620460BF0D4FBCB4920460BF0D0FB35
:100CD000019A204611460BF0CBFB009B204619469B
:100CE0000BF0C6FB594620460BF0C2FB29462046B6
:100CF0000BF0BEFBC149DFF8ECB320460BF0B8FBAC
:100D0000394620460BF0B4FB514620460BF0B0FBB1
:100D1000294620460BF0ACFBB949DFF8CCA3B94F0C
:100D200020460BF0A5FBB84B0093194620460BF06C
:100D30009FFB594620460BF09BFBB44920460BF025
:100D400097FB514620460BF093FB394620460BF0AB
:100D50008FFB294620460BF08BFBAD4920460BF05C
:100D600087FB009B204619460BF082FB5946204624
:100D70000BF07EFBA749DFF874B320460BF078FB3D
:100D8000514620460BF074FB394620460BF070FBB1
:100D9000294620460BF06CFB9F49A04FDFF850A37B
:100DA00020460BF065FB9E4920460BF061FB9D49F8
:100DB00020460BF05DFB9C4920460BF059FB494651
:100DC00020460BF055FB994920460BF051FB294674
:100DD00020460BF04DFB964920460BF049FB954908
:100DE00020460BF045FB314620460BF041FB924973
:100DF000924E20460BF03CFB414620460BF038FB60
:100E00008F49DFF8F08220460BF032FB8D492046F7
:100E10000BF02EFB294620460BF02AFB8A49204680
:100E20000BF026FB894920460BF022FB884920461F
:100E30000BF01EFB294620460BF01AFB8549204685
:100E40000BF016FB844920460BF012FB8349204629
:100E50000BF00EFB294620460BF00AFB804920468A
:100E60000BF006FB7F4920460BF002FB294620468B
:100E70000BF0FEFA7C4920460BF0FAFA7B4920463B
:100E80000BF0F6FA7A4920460BF0F2FA794920463F
:100E90000BF0EEFA784920460BF0EAFA2946204694
:100EA0000BF0E6FA754920460BF0E2FA7449204649
:100EB0000BF0DEFA734920460BF0DAFA2946204699
:100EC0000BF0D6FA704920460BF0D2FA6F49204653
:100ED0000BF0CEFA6E4920460BF0CAFA294620469E
:100EE0000BF0C6FA6B4920460BF0C2FA6A4920465D
:100EF0000BF0BEFA694920460BF0BAFA6849204661
:100F00000BF0B6FA294620460BF0B2FA65492046A6
:100F10000BF0AEFA644920460BF0AAFA634920466A
:100F20000BF0A6FA624920460BF0A2FA29462046A9
:100F30000BF09EFA5F4920460BF09AFA31462046A4
:100F40000BF096FA294620460BF092FA5A492046B1
:100F50000BF08EFA594920460BF08AFA29462046B2
:100F60000BF086FA564920460BF082FA5549204686
:100F70000BF07EFA294620460BF07AFA52492046B9
:100F80000BF076FA314620460BF072FA29462046DD
:100F90000BF06EFA4D4920460BF06AFA4C49204698
:100FA0000BF066FA294620460BF062FA49492046C2
:100FB0000BF05EFA314620460BF05AFA29462046DD
:100FC0000BF056FA444920460BF052FA43492046AA
:100FD0000BF04EFA424920460BF04AFA31462046C1
:100FE0008AE000BF441B0300721B03008F1B030039
:100FF000A21B0300B41B0300CE1B0300F61B03005F
:10100000071C03005C1C0300141C03002F1C0300BE
:10101000731C03007E1C0300951C0300752C030049
:10102000A61C0300BB1C0300CD1C0300E81C03002E
:10103000FD1C03008E1D0300101D0300BF1F0300D5
:101040002B1D03003B1D0300501D0300641D030006
:10105000E81903007F1D0300931D0300A91D030071
:10106000C21D0300D11D0300E31D0300031E030086
:10107000141E0300361E0300401E03004D1E030015
:10108000591E0300811E0300961E0300A31E0300C9
:10109000CB1E0300DF1E0300F51E0300231F030009
:1010A000381F03005D1F0300761F0300891F030024
:1010B0009E1F0300B41F0300CC1F0300D71F0300B3
:1010C000E41F0300F01F0300FE1F03000A200300BB
:1010D00017200300242003002F20030037200300E3
:1010E00040200300221C0300481C03002B3903008E
:1010F000913A0300072C03000BF0BAF92946204669
:101100000BF0B6F9D449D54E20460BF0B1F9D449CD
:1011100020460BF0ADF9294620460BF0A9F9D1493C
:1011200020460BF0A5F9D04920460BF0A1F9CF4994
:1011300020460BF09DF9CE4920460BF099F9CD4998
:1011400020460BF095F9494620460BF091F9CA4923
:10115000DFF84C9420460BF08BF9294620460BF023
:1011600087F9C64920460BF083F9C54920460BF0A4
:101170007FF9C44920460BF07BF9C34920460BF0A8
:1011800077F9C24920460BF073F9C14920460BF0AC
:101190006FF9C04920460BF06BF9BF4920460BF0B0
:1011A00067F9BE4920460BF063F9BD4920460BF0B4
:1011B0005FF9BC4920460BF05BF9BB4920460BF0B8
:1011C00057F9BA4920460BF053F9B94920460BF0BC
:1011D0004FF9B84920460BF04BF9B74920460BF0C0
:1011E00047F9B64920460BF043F9B54920460BF0C4
:1011F0003FF9B44920460BF03BF9B34920460BF0C8
:1012000037F9B24920460BF033F9B14920460BF0CB
:101210002FF9B04920460BF02BF9AF4920460BF0CF
:1012200027F9AE4920460BF023F9AD4920460BF0D3
:101230001FF9294620460BF01BF9AA4920460BF05E
:1012400017F9A94920460BF013F9A84920460BF0DD
:101250000FF9A74920460BF00BF9A64920460BF0E1
:1012600007F9A54920460BF003F9A44920460BF0E5
:10127000FFF8A34920460BF0FBF8494620460BF047
:10128000F7F8A04920460BF0F3F89F4920460BF0F1
:10129000EFF89E4920460BF0EBF89D4920460BF0F5
:1012A000E7F89C4920460BF0E3F89B4920460BF0F9
:1012B000DFF89A4920460BF0DBF8994920460BF0FD
:1012C000D7F8984920460BF0D3F8974920460BF001
:1012D000CFF8964920460BF0CBF8954920460BF005
:1012E000C7F8944920460BF0C3F8934920460BF009
:1012F000BFF8924920460BF0BBF8314620460BF070
:10130000B7F88F4920460BF0B3F88E4920460BF012
:10131000AFF88D4920460BF0ABF88C4920460BF016
:10132000A7F88B4920460BF0A3F8294620460BF07E
:101330009FF8414620460BF09BF8294620460BF0CB
:1013400097F8294620460BF093F8294620460BF0E3
:101350008FF8294620460BF08BF87E4920460BF08B
:1013600087F8394620460BF083F8294620460BF0D3
:101370007FF8794920460BF07BF8784B00931946AB
:1013800020460BF075F8764920460BF071F8294697
:1013900020460BF06DF8734920460BF069F872494E
:1013A00020460BF065F8714920460BF061F8704952
:1013B00020460BF05DF8464920460BF059F84946A7
:1013C00020460BF055F8314620460BF051F82946DF
:1013D00020460BF04DF86749674EDFF8D490204661
:1013E0000BF046F8654920460BF042F86449204668
:1013F0000BF03EF8634920460BF03AF8624920466C
:101400000BF036F8314620460BF032F85F492046A3
:101410000BF02EF8314620460BF02AF85C492046A6
:101420000BF026F8314620460BF022F859492046A9
:101430000BF01EF8314620460BF01AF856492046AC
:101440000BF016F8314620460BF012F853492046AF
:101450000BF00EF8A6E000BF4A200300972A030015
:10146000552003006320030079200300822003003D
:1014700095200300AD200300CA200300DE200300F6
:10148000E7200300072103003A2103004321030062
:10149000552103006B2103008D210300BB210300B4
:1014A000F221030001220300142203009A22030008
:1014B000BC220300E0220300042303002F230300C7
:1014C0004B2303006523030086230300B32303009B
:1014D0006F21030091210300E72303001C24030074
:1014E0003A24030077240300AD240300EA24030018
:1014F000282503006D250300AB250300F02503001C
:101500002E260300B1260300F6260300362703002B
:101510007D270300BD27030004280300442803009F
:101520008B280300CB280300122903005229030053
:1015300099290300D9290300202A0300582A03000F
:10154000D12A0300122B0300422B03006C2B030053
:10155000B62B0300482C0300892C03009F2C0300AA
:10156000B72C0300182D0300332D0300732D030047
:101570008B2D0300A92D0300672E0300002E03000E
:10158000162E03002B2E0300382E0300A22E03007C
:10159000D62E03000A2F03003E2F0300722F0300F4
:1015A00073260300314620460AF062FFD3492046E5
:1015B0000AF05EFF314620460AF05AFFD049204625
:1015C0000AF056FF314620460AF052FFCD4ECE4972
:1015D00020460AF04DFFCD4920460AF049FF31462A
:1015E00020460AF045FFCA4920460AF041FF31462D
:1015F00020460AF03DFF294620460AF039FFC5493A
:10160000C54E20460AF034FFC44920460AF030FF98
:10161000C34920460AF02CFFC24920460AF028FFA1
:10162000C14920460AF024FFC04920460AF020FFA5
:10163000BF4920460AF01CFFBE4920460AF018FFA9
:10164000BD4920460AF014FFBC4920460AF010FFAD
:10165000BB4920460AF00CFFBA4920460AF008FFB1
:10166000B94920460AF004FFB84920460AF000FFB5
:10167000B74920460AF0FCFEB64920460AF0F8FEBB
:10168000B54920460AF0F4FEB44920460AF0F0FEBF
:10169000B34920460AF0ECFEB24920460AF0E8FEC3
:1016A000B14920460AF0E4FE414620460AF0E0FE39
:1016B000AE49DFF8948320460AF0DAFE2946204638
:1016C0000AF0D6FEAA4920460AF0D2FEA9492046D1
:1016D0000AF0CEFEA84920460AF0CAFEA7492046D5
:1016E0000AF0C6FEA64920460AF0C2FEA5492046D9
:1016F0000AF0BEFEA44920460AF0BAFEA3492046DD
:101700000AF0B6FEA24920460AF0B2FEA1492046E0
:101710000AF0AEFE294620460AF0AAFE9E4920465F
:101720000AF0A6FE9D4920460AF0A2FE9C492046EA
:101730000AF09EFE9B4920460AF09AFE9A492046EE
:101740000AF096FE994920460AF092FE314620465C
:101750000AF08EFE294620460AF08AFE59462046A7
:101760000AF086FE294620460AF082FE904920466D
:101770000AF07EFE8F4920460AF07AFE8E49204606
:101780000AF076FE8D4920460AF072FE8C4920460A
:101790000AF06EFE294620460AF06AFE8949204674
:1017A0000AF066FE884920460AF062FE514620464D
:1017B0000AF05EFE494620460AF05AFE834920465A
:1017C0000AF056FE414620460AF052FE8049204665
:1017D0000AF04EFE7F4920460AF04AFE7E49204626
:1017E0000AF046FE7D4920460AF042FE7C4920462A
:1017F0000AF03EFE7B4920460AF03AFE7A4920462E
:101800000AF036FE794920460AF032FE7849204631
:101810000AF02EFE774920460AF02AFE7649204635
:101820000AF026FE754920460AF022FE7449204639
:101830000AF01EFE734920460AF01AFE724920463D
:101840000AF016FE714920460AF012FE7049204641
:101850000AF00EFE6F4920460AF00AFE6E49204645
:101860000AF006FE6D4920460AF002FE6C49204649
:101870000AF0FEFD6B4920460AF0FAFD2946204693
:101880000AF0F6FD684920460AF0F2FD6749204655
:101890000AF0EEFD294620460AF0EAFD29462046D8
:1018A0000AF0E6FD294620460AF0E2FD604920469E
:1018B0000AF0DEFD394620460AF0DAFD5D49204691
:1018C0000AF0D6FD5C4920460AF0D2FD5B4920466D
:1018D0000AF0CEFD009B204619460AF0C9FD584982
:1018E00020460AF0C5FD594620460AF0C1FD2946AA
:1018F00020460AF0BDFD5349A8E000BFA62F030013
:10190000DA2F0300F63003000A3003001930030019
:101910000A310300113103001C3903009E3103001A
:10192000BB310300DD310300FF310300133203003C
:1019300023320300483203008C320300DA32030002
:101940002833030076330300C4330300123403004A
:1019500060340300A6340300AD340300BD3403003B
:10196000E6340300143503005635030085350300C3
:10197000C5350300F235030032360300613603003B
:10198000A5360300D53603001B3703004937030093
:101990008B370300B9370300FB3703001B38030004
:1019A00098380300BA380300F3380300FF38030007
:1019B000393903006E39030087390300A039030069
:1019C0000B3A0300153A0300703A0300BD3A0300D6
:1019D000EA3A0300063B0300692303001C3B0300B3
:1019E000483B03007E3B03002C3C03005D3C0300AE
:1019F000ED3C03007D3D03000B3E0300993E0300D8
:101A0000293F0300B93F03001A4003007740030059
:101A1000CF4003002741030087410300C941030071
:101A2000FF410300AE42030028420300624203006C
:101A3000BD420300F4420300FD420300684303007B
:101A400088430300E343030004230300DFF894B456
:101A500020460AF00DFDD74920460AF009FDD64977
:101A600020460AF005FDD54920460AF001FDD4497B
:101A700020460AF0FDFC294620460AF0F9FCD1492F
:101A800020460AF0F5FCD04920460AF0F1FCCF4987
:101A900020460AF0EDFCCE4920460AF0E9FC51460A
:101AA00020460AF0E5FC494620460AF0E1FC4146A2
:101AB00020460AF0DDFCC749DFF82C84DFF82C94BF
:101AC000DFF82CA420460AF0D3FCC34920460AF0D4
:101AD000CFFCC24920460AF0CBFC314620460AF032
:101AE000C7FC294620460AF0C3FC294620460AF0D6
:101AF000BFFC294620460AF0BBFC294620460AF0D6
:101B0000B7FCB749B74E20460AF0B2FC394620462A
:101B10000AF0AEFC294620460AF0AAFC29462046D7
:101B20000AF0A6FCB049B14DB14F20460AF0A0FC26
:101B3000B04920460AF09CFCAF4920460AF098FCC8
:101B4000AE4920460AF094FCAD4920460AF090FCCC
:101B5000AC4920460AF08CFCAB4920460AF088FCD0
:101B6000414620460AF084FCA84920460AF080FC41
:101B7000A74920460AF07CFCA64920460AF078FCDA
:101B8000A54920460AF074FCA44920460AF070FCDE
:101B9000A34920460AF06CFC294620460AF068FC5E
:101BA000A04920460AF064FC9F4920460AF060FCE8
:101BB0009E4920460AF05CFC9D4920460AF058FCEC
:101BC000414620460AF054FC9A4920460AF050FC4F
:101BD000394620460AF04CFC974920460AF048FC5A
:101BE000964920460AF044FC954920460AF040FCFC
:101BF000314620460AF03CFC394620460AF038FCC3
:101C0000904920460AF034FC8F4920460AF030FC07
:101C1000314620460AF02CFC394620460AF028FCC2
:101C20008A4920460AF024FC894920460AF020FC13
:101C3000314620460AF01CFC394620460AF018FCC2
:101C4000844920460AF014FC834920460AF010FC1F
:101C5000314620460AF00CFC394620460AF008FCC2
:101C60007E497F4F20460AF003FC7E4920460AF059
:101C7000FFFB314620460AF0FBFB7B497B4E2046AA
:101C80000AF0F6FB294620460AF0F2FB7849204686
:101C90000AF0EEFB774920460AF0EAFB7649204637
:101CA0000AF0E6FB414620460AF0E2FB7349DFF802
:101CB000448220460AF0DCFB294620460AF0D8FB85
:101CC000294620460AF0D4FB6D4920460AF0D0FB95
:101CD000294620460AF0CCFB6A4920460AF0C8FB98
:101CE000694920460AF0C4FB684920460AF0C0FB57
:101CF000674920460AF0BCFB664920460AF0B8FB5B
:101D0000294620460AF0B4FB634920460AF0B0FB9E
:101D1000624920460AF0ACFB614920460AF0A8FB64
:101D2000604920460AF0A4FB5F4920460AF0A0FB68
:101D3000294620460AF09CFB5C4920460AF098FBA5
:101D40005B4920460AF094FB5A4920460AF090FB72
:101D5000594920460AF08CFB584920460AF088FB76
:101D6000574920460AF084FB564920460AF080FB7A
:101D7000554920460AF07CFB544920460AF078FB7E
:101D8000534920460AF074FB524920460AF070FB82
:101D9000514920460AF06CFB504920460AF068FB86
:101DA0004F4920460AF064FB294620460AF060FBB2
:101DB000A2E000BF3F4403005F440300A3440300CC
:101DC000E944030057450300C0450300DB45030019
:101DD000154603002F2303004B2303006523030054
:101DE00035460300CA48030067460300F74B03006B
:101DF0003D6B0300754603007F46030087460300E2
:101E000095460300B0460300C5460300F2460300B2
:101E1000FE4603005E470300044B030095470300A2
:101E2000B3470300CE470300D8470300F24703003F
:101E30000F4803001E480300484803004D480300B4
:101E400091480300D04803001B490300594903008F
:101E5000A3490300E1490300394A0300794A03001A
:101E600034520300C94A0300094B030074510300B4
:101E70000F4B0300164B03002C4B0300404B030099
:101E8000514B0300594B0300884B0300AD4B03003B
:101E9000C54B0300DB4B0300FE4B0300204C03004B
:101EA000594C0300844C0300AB4C0300D74C030097
:101EB000F84C0300284D03003F4D0300574D03002D
:101EC000744D03008C4D0300A34D0300C04D03006F
:101ED000F64D03002C4E0300614E0300964E0300A6
:101EE000CC4E0300905C0300DA460300E752030087
:101EF000365E0300CD540300D94920460AF0B8FAF3
:101F0000D84920460AF0B4FA294620460AF0B0FA29
:101F1000294620460AF0ACFA294620460AF0A8FADB
:101F2000D14920460AF0A4FAD04920460AF0A0FA86
:101F3000CF4920460AF09CFACE4920460AF098FA8A
:101F4000CD4920460AF094FACC4920460AF090FA8E
:101F5000CB4B0193194620460AF08AFAC94A0092EF
:101F6000114620460AF084FAC74920460AF080FA52
:101F7000C64920460AF07CFAC54920460AF078FA9C
:101F8000C44920460AF074FAC34920460AF070FAA0
:101F9000C24920460AF06CFAC14920460AF068FAA4
:101FA000314620460AF064FABE4920460AF060FA3B
:101FB000BD4920460AF05CFABC4920460AF058FAAE
:101FC000BB4920460AF054FABA4920460AF050FAB2
:101FD000B94920460AF04CFAB84920460AF048FAB6
:101FE000394620460AF044FA314620460AF040FAC3
:101FF000B34920460AF03CFAB24920460AF038FAC2
:10200000B14920460AF034FAB04920460AF030FAC5
:10201000494620460AF02CFAAD4920460AF028FA33
:10202000AC4920460AF024FAAB4920460AF020FACF
:10203000AA4920460AF01CFAA94920460AF018FAD3
:10204000A84920460AF014FA394620460AF010FA48
:10205000314620460AF00CFAA34920460AF008FA55
:10206000A24920460AF004FAA14920460AF000FAE3
:10207000A04920460AF0FCF9414620460AF0F8F94A
:10208000414620460AF0F4F99B49DFF8F0822046E9
:102090000AF0EEF9994920460AF0EAF998492046F3
:1020A0000AF0E6F9314620460AF0E2F99549204661
:1020B0000AF0DEF9944920460AF0DAF9394620465A
:1020C0000AF0D6F9314620460AF0D2F98F49204667
:1020D0000AF0CEF98E4920460AF0CAF93946204660
:1020E0000AF0C6F9314620460AF0C2F9894920466D
:1020F0000AF0BEF9884920460AF0BAF93946204666
:102100000AF0B6F9314620460AF0B2F98349204672
:102110000AF0AEF9824920460AF0AAF98149204620
:102120000AF0A6F9804920460AF0A2F97F49204624
:102130000AF09EF97E4920460AF09AF97D49204628
:102140000AF096F97C4920460AF092F97B4920462C
:102150000AF08EF97A4920460AF08AF93946204673
:102160000AF086F9314620460AF082F97549204680
:102170000AF07EF9414620460AF07AF97249204673
:102180000AF076F9394620460AF072F931462046BF
:102190000AF06EF96D4920460AF06AF94146204678
:1021A0000AF066F96A4920460AF062F93946204683
:1021B0000AF05EF9314620460AF05AF96549204690
:1021C0000AF056F9414620460AF052F96249204683
:1021D0000AF04EF9394620460AF04AF931462046BF
:1021E0000AF046F95D4920460AF042F94146204688
:1021F0000AF03EF95A4920460AF03AF93946204693
:102200000AF036F9314620460AF032F9554920469F
:102210000AF02EF9414620460AF02AF95249DFF821
:10222000608120460AF024F9394620460AF020F958
:10223000314620460AF01CF94C4920460AF018F9AC
:102240004B4920460AF014F94A4920460AF010F991
:10225000494620460AF00CF94749204692E000BF63
:10226000024F0300374F03007E4F0300B64F0300B9
:10227000DB4F03000B50030044500300A050030049
:10228000C6500300D1500300E7500300FD50030087
:1022900014510300285103003D5103005251030023
:1022A000685103007951030093510300AD510300BD
:1022B000C8510300E1510300FA5103001352030017
:1022C0003A5203005352030083520300735C03002D
:1022D000F3520300FE5203000B5303007353030039
:1022E0008D530300EE5303000B54030027540300E7
:1022F00061540300B6540300E35403004B5503003C
:1023000061550300A1550300BD550300125603009B
:102310002E560300835603009F560300F456030015
:10232000105703004B570300A1570300FA5703004F
:10233000125803002A580300425803009D58030016
:10234000FE58030038590300AB590300045A030038
:10235000205A0300795A0300955A0300EE5A0300ED
:102360000A5B0300635B03007F5B0300D85B030031
:10237000F15B0300235C0300825C030054590300FB
:102380009A5D03000AF074F8594620460AF070F886
:10239000D84920460AF06CF8394620460AF068F819
:1023A000314620460AF064F8D34920460AF060F826
:1023B000D24920460AF05CF8D14920460AF058F884
:1023C000D04920460AF054F8414620460AF050F819
:1023D000414620460AF04CF8CB49DFF830842046CD
:1023E0000AF046F8C94920460AF042F83946204624
:1023F0000AF03EF8C64920460AF03AF8514620460F
:102400000AF036F8C34920460AF032F8C24920469D
:102410000AF02EF8C14920460AF02AF8294620463B
:102420000AF026F8414620460AF022F829462046BE
:102430000AF01EF8BA4920460AF01AF8B9492046AF
:102440000AF016F8B84920460AF012F8B7492046B3
:102450000AF00EF8B64920460AF00AF8019B204619
:1024600019460AF005F8009A204611460AF000F8CD
:10247000B049204609F0FCFFAF49204609F0F8FFBB
:10248000AE49204609F0F4FFAD49204609F0F0FFBF
:10249000AC49204609F0ECFFAB49204609F0E8FFC3
:1024A000AA49204609F0E4FFA949204609F0E0FFC7
:1024B0003146204609F0DCFFA649204609F0D8FF46
:1024C000A549204609F0D4FFA449204609F0D0FFD1
:1024D000A349204609F0CCFFA249204609F0C8FFD5
:1024E000A149204609F0C4FFA049204609F0C0FFD9
:1024F0009F49204609F0BCFF3946204609F0B8FF45
:102500003146204609F0B4FF9A49204609F0B0FF51
:102510009949204609F0ACFF9849204609F0A8FFE8
:102520009749204609F0A4FF4946204609F0A0FF3C
:102530009449204609F09CFF9349204609F098FFF2
:102540009249204609F094FF9149204609F090FFF6
:102550003946204609F08CFF3146204609F088FFB5
:102560008C49204609F084FF8B49204609F080FF02
:102570008A49204609F07CFF8949204609F078FF06
:102580004946204609F074FF8649204609F070FF4D
:102590008549204609F06CFF8449204609F068FF10
:1025A0003946204609F064FF3146204609F060FFB5
:1025B0007F49204609F05CFF7E49204609F058FF1C
:1025C0007D49204609F054FF7C49204609F050FF20
:1025D0004946204609F04CFF7949204609F048FF5A
:1025E0005946204609F044FF7649DFF824B22046D8
:1025F00009F03EFF3946204609F03AFF31462046B1
:1026000009F036FF7049204609F032FF6F49204635
:1026100009F02EFF6E49204609F02AFF6D4A01920B
:102620001146204609F024FF4946204609F020FFC4
:102630006949204609F01CFF684B00931946204663
:1026400009F016FF5946204609F012FF644920465A
:1026500009F00EFF3946204609F00AFF31462046B0
:1026600009F006FF5F49204609F002FF5E49204657
:1026700009F0FEFE5D49204609F0FAFE019A204667
:10268000114609F0F5FE4946204609F0F1FE584989
:10269000204609F0EDFE009B2046194609F0E8FEB1
:1026A0005946204609F0E4FE5249204609F0E0FE72
:1026B0003946204609F0DCFE3146204609F0D8FEB6
:1026C0004D49204609F0D4FE4C49204609F0D0FE81
:1026D0004B49204609F0CCFE4A49204609F0C8FE85
:1026E0004946204609F0C4FE4749204609F0C0FE8D
:1026F00090E000BF9E5C0300F85C0300115D0300E6
:10270000445D03008F5D0300A45D0300065E0300CB
:102710002D5E0300475E03005D5E03008C5E0300D8
:10272000DE5E0300035F0300335F03006C5F0300A2
:10273000C85F0300EE5F0300056003001D60030037
:1027400014510300285103003D510300525103006E
:10275000685103007951030093510300AD51030008
:1027600033600300C8510300E1510300FA51030034
:10277000135203004D600300666003009C60030079
:10278000E9600300F5600300016103000D610300CF
:102790007F61030090610300A9610300E061030011
:1027A0002B62030037620300436203004F620300A1
:1027B000BB620300D4620300096303005863030093
:1027C0006563030073630300CD630300E6630300E6
:1027D0001E6403006C6403007D64030088640300CE
:1027E000FB6403003D650300566503008F6503002D
:1027F000DF650300EA650300296603004266030003
:1028000075660300C5660300D1660300D65E03004B
:10281000946403007549204609F02AFE7449204655
:1028200009F026FE7349204609F022FE394620466B
:1028300009F01EFE3146204609F01AFE6E496F4E21
:10284000204609F015FE6E49204609F011FE6D493B
:10285000204609F00DFE6C49204609F009FE6B493F
:10286000204609F005FE6A49204609F001FE694943
:10287000204609F0FDFD4946204609F0F9FD66496C
:10288000204609F0F5FD6549204609F0F1FD64494F
:10289000204609F0EDFD3946204609F0E9FD614981
:1028A000204609F0E5FD5146204609F0E1FD5E496C
:1028B000204609F0DDFD5D49204609F0D9FD5C495F
:1028C000204609F0D5FD2946204609F0D1FD2946CC
:1028D000204609F0CDFD4146204609F0C9FD2946B4
:1028E000204609F0C5FD5349204609F0C1FD524973
:1028F000204609F0BDFD5149204609F0B9FD504977
:10290000204609F0B5FD3146204609F0B1FD4D499C
:10291000204609F0ADFD4C49204609F0A9FD2946A5
:10292000204609F0A5FD4949204609F0A1FD3146A0
:10293000204609F09DFD4649204609F099FD45498C
:10294000204609F095FD2946204609F091FD4249AF
:10295000204609F08DFD3146204609F089FD3F49AA
:10296000204609F085FD3E49204609F081FD2946B3
:10297000204609F07DFD4146204609F079FD2946B3
:10298000204609F075FD4146204609F071FD2946B3
:10299000204609F06DFD3349204609F069FD3249B2
:1029A000204609F065FD3149204609F061FD3049B6
:1029B000204609F05DFD2F49204609F059FD2E49BA
:1029C000204609F055FD2D49204609F051FD2946C4
:1029D000204609F04DFD2A49204609F049FD2949C4
:1029E000204603B0BDE8F04F09F042BDDE660300AB
:1029F000EC660300526703005F670300A0690300F1
:102A000078670300AF670300E66703000E68030002
:102A10003668030045680300516803005F680300DF
:102A20006D6803002D5E0300475E0300C468030069
:102A3000F3680300246903005469030082690300FA
:102A400089690300A6690300D6690300326A03009E
:102A50004D6A0300826A0300E06A0300FC6A030017
:102A6000426B03007F6B0300C96B0300F86B03002C
:102A7000026C0300346C03004F6C0300696C0300AC
:102A8000716C0300796C0300392884BF0738C0B229
:102A9000392984BF0739C9B201F00F0100F00F00D6
:102AA00041EA0010704700002DE9F0410C4618493A
:102AB000184DDFF86480064609F072FE00272146B3
:102AC000284609F03DFF0378262B1DD021462846D5
:102AD00009F036FF0378202B16D05FB12146284637
:102AE00009F02EFF0178304609F0FCFE31464046E1
:102AF00009F0C8FC2146284609F022FF03783D2B47
:102B000008BF01270134DAE73046BDE8F08100BF95
:102B1000509203006C140020603300202DE9F04730
:102B200086B0BD49684609F03BFEBC4903A809F0E0
:102B300037FE03A9BA4809F020FF044603A809F0AC
:102B4000E9FD002C80F2CA820024B64903A809F0EE
:102B500027FE03A9B24809F010FF054603A809F0B3
:102B6000D9FD002D47DB294603A8FFF79DFF03A9E8
:102B7000684609F08EFE03A809F0CCFD00216846E6
:102B800009F0DEFE01210578684609F0D9FE0178DA
:102B90002846A54DFFF778FF2B685B7883422AD043
:102BA0000021684609F0CCFE01210478684609F04E
:102BB000C7FE01782B682046FFF766FF9B495870D7
:102BC0009B4809F038FC2B68994859780A2209F08B
:102BD000D1FC2B6897485A780121FDF7EDFC04469B
:102BE000052009F009FF002C40F0B182924990487D
:102BF00009F03EFC0124914903A809F0D1FD03A985
:102C0000874809F0BAFE054603A809F083FD002DA8
:102C100047DB294603A8FFF747FF03A9684609F0E9
:102C200038FE03A809F076FD0021684609F088FE09
:102C300001210578684609F083FE017828467A4D1F
:102C4000FFF722FF2B689B7883422AD00021684639
:102C500009F076FE01210478684609F071FE0178DA
:102C60002B682046FFF710FF75499870704809F0EF
:102C7000E2FB2B686E4899780A2209F07BFC2B68EE
:102C80006C489A780221FDF797FC0446052009F06C
:102C9000B3FE002C40F060826A49654809F0E8FB09
:102CA0000124694903A809F07BFD03A95C4809F0E8
:102CB00064FE054603A809F02DFD002D47DB2946DB
:102CC00003A8FFF7F1FE03A9684609F0E2FD03A897
:102CD00009F020FD0021684609F032FE0121057847
:102CE000684609F02DFE017828464F4DFFF7CCFECF
:102CF0002B68DB7883422AD00021684609F020FE49
:102D000001210478684609F01BFE01782B682046F3
:102D1000FFF7BAFE4D49D870454809F08CFB2B6887
:102D20004348D9780A2209F025FC2B684148DA7813
:102D30000321FDF741FC0446052009F05DFE002C4F
:102D400040F00F8242493A4809F092FB0124414980
:102D500003A809F025FD03A9314809F00EFE054638
:102D600003A809F0D7FC002D47DB294603A8FFF78D
:102D70009BFE03A9684609F08CFD03A809F0CAFC74
:102D80000021684609F0DCFD01210578684609F05C
:102D9000D7FD01782846244DFFF776FE2B681B7976
:102DA00083422AD00021684609F0CAFD0121047837
:102DB000684609F0C5FD01782B682046FFF764FEE0
:102DC000254918711A4809F036FB2B6818481979FB
:102DD0000A2209F0CFFB2B6816481A790421FDF767
:102DE000EBFB0446052009F007FE002C40F0BE81F5
:102DF0001A490F4809F03CFB0124194903A809F0BE
:102E0000CFFC03A9064809F0B8FD054603A809F060
:102E100081FC002D6EDB25E0509203004D10030075
:102E20006C140020951003000C020020AB1003006E
:102E300060330020D0120020C4100300EC10030007
:102E4000021103001B110300431103005911030079
:102E5000721103009A110300B0110300C91103009D
:102E6000F1110300294603A8FFF71EFE03A96846D7
:102E700009F00FFD03A809F04DFC0021684609F098
:102E80005FFD01210578684609F05AFD0178284662
:102E9000B94DFFF7F9FD2B685B7983422AD00021F9
:102EA000684609F04DFD01210478684609F048FDA7
:102EB00001782B682046FFF7E7FDB0495871B0480C
:102EC00009F0B9FA2B68AE4859790A2209F052FB89
:102ED0002B68AC485A790521FDF76EFB04460520A6
:102EE00009F08AFD002C40F07581A749A44809F03B
:102EF000BFFA0124A54903A809F052FC03A9A4487C
:102F000009F03BFD054603A809F004FC002D47DB52
:102F1000294603A8FFF7C8FD03A9684609F0B9FCD4
:102F200003A809F0F7FB0021684609F009FD01211B
:102F30000578684609F004FD017828468E4DFFF7B4
:102F4000A3FD2B689B7983422AD00021684609F0B3
:102F5000F7FC01210478684609F0F2FC01782B683F
:102F60002046FFF791FD8B499871854809F063FA77
:102F70002B68834899790A2209F0FCFA2B6881486A
:102F80009A790621FDF718FB0446052009F034FD67
:102F9000002C40F024818049794809F069FA012425
:102FA0007E4903A809F0FCFB03A9794809F0E5FC78
:102FB000054603A809F0AEFB002D33DB294603A824
:102FC000FFF772FD03A9684609F063FC6A4D03A888
:102FD00009F0A0FB684609F0D3FC2B681B899842D6
:102FE00020D0684609F0CCFC2B686D4918816448F4
:102FF00009F021FA2B68624819890A2209F0A1FA1E
:103000002B6860481A890821FDF704FB0446052057
:1030100009F0F2FC002C40F0E7806249584809F0C2
:1030200027FA01240025DFF8A891DFF864A1DFF872
:1030300048812F460C2606FB05963146504609F07E
:103040009CFC011EC0F2DB8003A8FFF72DFD03A945
:10305000684609F01EFC03A809F05CFB684609F00D
:103060008FFC2F1DD8F800307F003B449B8898428E
:1030700032D0684609F084FCD8F800304A493B4415
:1030800098803F4809F0D7F931463D4809F0D7F913
:1030900046493B4809F0CFF9D8F8003038483B445E
:1030A0000A22998809F04DFAD8F8003035481F44B3
:1030B000691DBA884900FDF7ADFA0746052009F0F9
:1030C0009BFC31462E48002F40F0938009F0B7F961
:1030D00037492B4809F0CCF9012790E0214603A895
:1030E000FFF7E2FC03A9684609F0D3FB224C03A8D2
:1030F00009F010FB684609F043FC23681B789842EE
:103100003FF422AD684609F03BFC2368294918705A
:103110001B4809F090F92368194819780A2209F028
:1031200029FA236817481A780021FDF745FA044662
:10313000052009F061FC2CB91F49114809F098F9E4
:10314000012402E51D490E4809F092F9FDE41C49ED
:103150000B4809F08DF94EE51A49094809F088F93C
:103160009FE51949064809F083F9F0E51749044835
:1031700009F07EF941E600BF0C02002007120300AF
:1031800060330020D01200202012030048120300F8
:103190006C1400205E120300771203009F120300DC
:1031A000A9120300BD120300EB1203006310030019
:1031B000CA10030056100300691003007C100300BE
:1031C000D51003002C11030083110300DA11030052
:1031D000841100201549164809F04AF98AE6154974
:1031E000134809F045F9DBE61349114809F040F9A5
:1031F00018E709F024F911490D4809F039F90135AA
:10320000072D7FF417AF44EA47040D49084809F039
:1032100012F90A222146064809F093F9684609F096
:1032200079FA204606B0BDE8F08700BF31120300EE
:103230006033002088120300D1120300DB1003006A
:10324000F01203002DE9F8432C4E2D492D4F044672
:1032500009F0F1F833680A221978204609F088F954
:103260002949204609F0E7F82849204609F0E3F803
:1032700033680A221989204609F061F9224920465B
:1032800009F0D9F82249204609F0D5F8002533681D
:103290002B4410225978204609F06AF9052D03D0F5
:1032A0003946204609F0C7F80135062DEFD11649F9
:1032B000184FDFF86480DFF85090204609F0BBF823
:1032C00000250C2101FB0571204609F0B8F84146A4
:1032D000204609F0B0F8336803EB45030A229989C8
:1032E000204609F02CF9062D03D04946204609F066
:1032F000A2F80135072DE4D1BDE8F8830C020020C7
:10330000BD130300213203001A3B0300C213030064
:10331000CA13030084110020C01303004A684260EE
:103320008A688260CA68C260034A02600A7C0274CA
:103330004A8A4282704700BFD081030013B502AAB7
:103340000024214642F8044D04230E4806F052FCA6
:10335000019959B90C48FDF78BF9052009F04CFB90
:103360000A490B4809F084F802B010BD21461A231F
:10337000084A044806F03EFC052009F03DFB0649DA
:10338000EFE700BF18020020D012002084140300D1
:1033900060330020261200209D1403002DE9F3471E
:1033A0000121092009F06EFB0121092009F0A6FB8B
:1033B0000121082009F066FB0121082009F09EFB8D
:1033C00001210A2009F05EFB01210A2009F096FB89
:1033D000C82009F00FFB0A2004F054FF414B424D76
:1033E0001868424B0093424B424E5B68019369461A
:1033F000013004F0DFFF01210A2009F07FFB3E4984
:103400003C4809F035F8002404F04CFF60B9294627
:103410003046013409F02CF80A20E4B209F0EAFA47
:103420000A2CF1D1002708E004F03CFF0328F7D173
:103430003249304809F01CF80127314E2D4D0A243D
:1034400004F026FF022833D13146284609F010F84F
:10345000013C0A2009F0CEFA14F0FF04F0D1DFF8A5
:10346000B880DFF8B8A0DFF88C900A26404605F057
:10347000CFF9404605F0E4F90546F8B9514648460B
:1034800008F0F6FF013E0A2009F0B4FA16F0FF0634
:10349000ECD11C4EF4B1EFB1E5B11B49154808F071
:1034A000E7FF336801225A70284602B0BDE8F08772
:1034B0001649104808F0DCFF0124D0E714490D48F4
:1034C00008F0B9FF684604F08BFF6946094808F028
:1034D000EDFFDEE70F49074808F0CAFF3368002513
:1034E0005D70E1E70C020020910E0300BC86030032
:1034F00068120020603300207D0E0300AF0E030031
:10350000D20E0300100200202D0F0300F20E030064
:103510001E0F0300440F0300A01300200B0F030035
:103520002DE9F0411C4FDFF888801C4D0A243A46F3
:103530007621404602F088FD064670B918491948C0
:1035400008F096FF2B6864201E70013C09F052FAC7
:1035500014F0FF04EBD1BDE8F08113491148134C7E
:1035600008F086FF2B681248256801221A7002F0C5
:103570006FFD28600E48256802F08CFE68600C48DC
:1035800002F098FD9FED0B7A236807EE900AC7EED4
:10359000877AC3ED027ADEE794140020100200203F
:1035A000F47503006033002013760300300200201E
:1035B000241100200000C8420148FCF768BF00BF8A
:1035C000B013002070B58C00002605460161C6606E
:1035D000204619F047F900232860AE606B60044470
:1035E000A04202D040F8043BFAE7284670BD06EE40
:1035F000901A10B5D0E9031483680268A14202EB67
:10360000830223BFD2ED007A90ED017A37EE677A1C
:1036100001312CBF80ED017AC160C2ED006AD0EDAE
:10362000017A013377EEA67A9C4298BF0023C0ED61
:10363000017A836010BD00002DE9F84F844F854C5E
:103640002DED048B28253E460DF0B4FD0DF0B2FDA6
:10365000D7F84021D7F844319A4240F0D58097F806
:103660004831002B40F0D0800DF0BAFDDFF8F88132
:103670000DF0B6FD21684046FFF7B9FF6168764856
:10368000FFF7B5FF013DA1687448FFF7B0FF15F0E3
:10369000FF05D9D1D8F80C30002B00F0CC8007EE14
:1036A000903A98ED017AF8EE677A87EE279A6A4A9F
:1036B000D368002B00F0C28007EE903A92ED017AB9
:1036C000F8EE677AC7EE278A644AD368002B00F0C9
:1036D000B88007EE903A92ED017AF8EE677AC7EE7D
:1036E000279ADFF888A1DAF80040B4F9003007EE35
:1036F000103AB7EE008A79EE087AB8EEC77A38EE5B
:10370000888A27EE277ABDEEC77A17EE103A18B2EC
:1037100017F05EF80022524B16F00EFF18F080F8FA
:1037200017F070FBB4F9023007EE903AF8EEE77A42
:10373000403067EE887AA080FDEEE77A17EE903A87
:1037400018B217F045F80022454B16F0F5FE18F0B8
:1037500067F817F057FB1130E08019EE100A17F0E8
:1037600049F8804618EE900A894617F043F8044657
:1037700019EE900A0D4617F03DF802460B4617F079
:1037800091F8224606460F462B462046294617F05A
:1037900089F832463B4616F0CFFE18F0C1F80246D3
:1037A0000B464046494617F0A7F917F0A1FE26A39D
:1037B000D3E9002317F076F817F06CFBDAF800B0C5
:1037C0004246CBF808004B464046494617F06AF897
:1037D00032463B4616F0B0FE18F0A2F802460B4601
:1037E0002046294617F088F917F082FE16A3D3E980
:1037F000002317F057F817F04DFBBDEC048BDAF8F7
:103800000040E060BDE8F88F0DF0EAFCD6F84431E6
:1038100003F1010C06EB03130FCBBCF1140F84E88A
:103820000F004FF00003C6F844C186F8483108BFC6
:10383000C6F844311AE79FED0B9A38E7DFED098AA5
:1038400042E7DFED089A4CE7F8C1631ADCA54C406B
:10385000E01A002014110020881200209C12002081
:103860000000E03F0000000074120020140200205D
:103870002DE9F743644A65491368654F654D664E07
:1038800001330446136008F0D6FD022009F066F902
:103890000A220146204608F052FE6049204608F000
:1038A000CAFD5F49204608F0C6FD0A223978204645
:1038B00008F05EFE5B49204608F0BDFD0A2229683B
:1038C000204608F03CFE5849204608F0B4FD336815
:1038D000186816F08FFF4FF00A0802460B46CDF825
:1038E0000080204608F014FF5049204608F0A3FD50
:1038F0003368586816F07EFFCDF8008002460B460C
:10390000204608F005FF4A4B1B78042BB946A84611
:1039100002D04848FFF790FE474F4849204608F03C
:103920008AFD3B68986816F065FF0A2502460B463B
:103930000095204608F0ECFE3849204608F07BFD53
:103940003F49204608F077FD3B68D86816F052FFE3
:10395000009502460B46204608F0DAFE394920461B
:1039600008F069FD3368986816F044FF00950B462F
:103970000246204608F0CCFE2449334808F05BFD9F
:10398000022009F0EBF82A4601462F4808F0D7FD3F
:1039900022492D4808F04FFD21492B4808F04BFDE6
:1039A0002A4699F80010284808F0E2FD1D492648EB
:1039B00008F041FD2A46D8F80010234808F0BFFD62
:1039C0001649214808F037FD20491F4808F033FD0B
:1039D0003368186816F00EFF009502460B461A4829
:1039E00008F096FE1149184808F025FD336858681C
:1039F00016F000FF009502460B46134808F088FEBB
:103A000003B0BDE8F08300BF7C110020D413030095
:103A10000802002004020020300200201A3B0300AC
:103A2000E4130300EE130300001403000714030063
:103A300024120020D0120020140200200E140300D3
:103A40001814030021140300603300200114030044
:103A500070B58AB06749684604F012FF9DF81030CF
:103A6000072B43D9002420460AB070BD01246846C4
:103A700004F004FD002800F0BB80684604F08EFDD1
:103A80000028F4D0684604F09AFDB368B3F5967F39
:103A9000C5B203D22946304608F024FF0A2D40F073
:103AA000A380002CE2D0694605A8FFF737FC05A8E3
:103AB000FCF776FE504905A808F072FE05A94F48AC
:103AC00008F05BFF044605A808F024FE002C10DB7C
:103AD0004B494C4808F0CCFC694605A8FFF71EFC92
:103AE00005A8FFF7AFFB0024254634E00124434E30
:103AF000BDE7454905A808F053FE05A93F4808F071
:103B00003CFF044605A808F005FE002C0BDB3F49EE
:103B10003C4808F0ADFC694605A8FFF7FFFB05A887
:103B2000FFF7A6FEDFE73A4905A808F039FE05A928
:103B3000324808F022FF044605A808F0EBFD002CEF
:103B400032DB34492F4808F093FC3349684608F0CB
:103B500072FC00240125012008F04CFF684604F0A7
:103B60004FFD2E49254808F09CFE2D49254808F0B8
:103B70007FFC022008F03EFF002D3FF474AF29497E
:103B8000204808F075FC00210E2008F0B7FF4FF424
:103B9000FA7008F031FF01210E2008F0AFFF01207C
:103BA00008F028FFFCF706FB1F49164808F060FCE8
:103BB000FEF7B4FF1D490446124808F059FC1C49A1
:103BC000104808F038FC2A4621460E4808F0B9FC97
:103BD000694605A8FFF7A2FB05A804F00105C4F398
:103BE0004004FCF7FDFDB6E70D2D18BF00243EE7AD
:103BF000044679E7A0130020BB1403006C140020D6
:103C0000CA14030060330020DD140300EC14030029
:103C1000051503000F15030026150300509203003D
:103C20007E1503009D150300291503003A150300B6
:103C30006215030008B5FFF70BFF024B00B91878B7
:103C4000187008BD2C020020F0B56E496E486F4E0A
:103C500085B008F0A5FD6E4A6E496B480DF0C1FDB8
:103C60006D496E4808F09CFD6D496E4808F098FD5E
:103C70006D496E4808F094FD6D496E4808F090FD5E
:103C80006D496E4808F08CFD6D496E4808F088FD5E
:103C90006D496E4808F084FD5D4A6D4900200DF0C5
:103CA000A0FD6C4B6C48002200240025C3E90445AC
:103CB0001A605A609A60C3E90645684B4FF47D422A
:103CC0001A8044F61F525A804FF61A429A80DA221E
:103CD0009A7140F6B8321A815A8119229A812A22A1
:103CE000DA8140F2D6721A820A225A829A824FF4FC
:103CF000C872DA8206221A83594A0027012382F801
:103D0000B53082F8B47001934FF4FA4300932E2239
:103D10004FF0FF332F2106F033FD3D4A51494E4805
:103D20000DF05FFD1423A020C6E9057318F09AFD7D
:103D3000C6E902453060376100F1A003E0E80245C2
:103D40009842FBD1324A48493048484C0DF049FD71
:103D5000474801F08FFE2E4A464945480DF041FD87
:103D600014230093A8220123C021434808F012FB2A
:103D70000A230093A8220123C021404808F00AFB2F
:103D80003F4B404A1A60002550225D601A813E4B2D
:103D90003E48CDE901330E23009340223C4B802165
:103DA00002F0C8FD1A4A3B4938480DF01AFD20467A
:103DB0004FF47A73A360384B656040F8143B08F009
:103DC000E1FA08232821354884F82030FFF7FAFB70
:103DD0000F4A334931480DF004FD28213148FFF7DF
:103DE000F1FB0B4A2E492F480DF0FBFC28212E48F1
:103DF000FFF7E8FB064A2A492B4805B0BDE8F0402A
:103E00000DF0EFBC509203006C140020B0120020A3
:103E10000002002015C70100440E03008411002099
:103E20004C0E030090110020530E03009C11002043
:103E30005A0E0300A8110020630E0300B4110020E5
:103E40006D0E0300C0110020750E0300CC11002080
:103E50000D02010080130020D41200202612002041
:103E6000B0130020595A01006F020100F010002029
:103E700024110020875A01006812002074130020CA
:103E8000A01300202C820300801A0600D811002005
:103E900094140020956901004C82030074120020E4
:103EA00061020100881200209C1200202DE9F04FD1
:103EB0001646514A136885B00133834650200D469B
:103EC000136008F099FD4D4B0293002401238DF8F7
:103ED0000D308DF80C40019304AB13E906004848FF
:103EE00002F06AFAF2B210462146009208F006FE8D
:103EF000142008F081FDAA21414802F017FA8146FA
:103F0000142008F079FD59463D4802F00FFA4FEAB7
:103F1000152A8046142008F06FFD5146384802F0FB
:103F200005FAEDB20746142008F066FD294634482C
:103F300002F0FCF90646142008F05EFD019B009A91
:103F40001946104608F0DAFD2D4802F02DFA5020EF
:103F500008F052FDB8F1190F03D1A9F118035C4222
:103F60005C411A2F46D11B2E44D1002C3ED025494E
:103F7000254808F060FA0A225946234808F0F8FA62
:103F80002249214808F057FA0A2251461E4808F0F3
:103F9000EFFA1E491C4808F04EFA0A2229461A4830
:103FA00008F0E8FA1A49184808F045FA0A22494682
:103FB000154808F0DDFA1549134808F03CFA0A22C2
:103FC0004146114808F0D4FA10490F4808F033FA76
:103FD0000A2239460C4808F0CBFA0C490A4808F086
:103FE0002AFA0A223146084808F0C4FA204605B0E9
:103FF000BDE8F08F0024F9E78011002080841E00C6
:10400000781400202A140300603300203F140300BA
:1040100043140300F8B504460E46174697253A4662
:1040200031462046FFF742FF18B9013DF7D104F1B0
:10403000FA00F8BD2DE9F74F0646502015460F4609
:1040400008F0DAFC704B0093002401238DF8053052
:104050008DF8044002AB13E906006C48EDB202F0A3
:10406000ABF92146284608F049FD142008F0C4FCAD
:104070000F21664802F05AF98346142008F0BCFC70
:104080003146624802F052F98246142008F0B4FC2E
:1040900021465E4802F04AF98146142008F0ACFC43
:1040A00021465A4802F042F98046142008F0A4FC48
:1040B000BAF1190F03D1ABF118035C425C41B9F1BD
:1040C0001A0F40F09880B8F11B0F40F0948084F0F4
:1040D00001044F494F4808F0B7F90A2231464D48CC
:1040E00008F046FA4C494B4808F0D6F94B49494884
:1040F00008F0AAF90A225946464808F039FA484910
:10410000444808F0A1F90A225146424808F030FA22
:104110004349404808F098F90A2249463D4808F0CA
:1041200027FA3F493B4808F08FF90A2241463948AF
:1041300008F020FA502008F05FFC1821334802F004
:10414000F5F88346142008F057FC19212F4802F097
:10415000EDF88246142008F04FFC1A212B4802F09B
:10416000E5F88146142008F047FC1B21274802F09F
:10417000DDF88046142008F03FFC0121284608F0B5
:10418000BDFC224802F010F9502008F035FC25490A
:10419000204808F081F924491E4808F055F90A2200
:1041A00059461C4808F0E4F91D491A4808F04CF932
:1041B0000A225146174808F0DBF91949154808F05A
:1041C00043F90A224946134808F0D2F91449114824
:1041D00008F03AF90A2241460E4808F0CBF9BBF143
:1041E000F00F03D1B24501D1012C06D10020388057
:1041F00003B0BDE8F08F01246BE748EA0928A7F86F
:1042000000800120F4E700BF80841E0078140020A5
:10421000641303006033002079130300801303004C
:104220003F14030090130300AD130300F8B50446D8
:104230000E46174697253A4631462046FFF7FAFEC6
:1042400018B9013DF7D104F5AF70F8BD2DE9F3477A
:104250000024DFF8DC80DFF8DC90304DADF806405C
:104260002646271D7F00D8F800303B445FFA84FAC9
:10427000092299885046FFF7CDFEC8B34946284623
:1042800008F0E2F80A222146284608F058F92449A5
:10429000284608F0D9F8D8F800303B440A2299881B
:1042A000284608F04EF909220DF106015046FFF7A5
:1042B000BDFFE8B11B49284608F0C6F80A2221468E
:1042C000284608F03CF91649284608F0BDF80A22AD
:1042D000BDF80610284608F032F9D8F800303B4403
:1042E0009A88BDF806309A4209D00136952EBADD7B
:1042F0000134072CB5D1304602B0BDE8F0870A4939
:10430000284608F0A1F80A222146284608F017F9A5
:104310000649284608F0C0F80026E9E76033002087
:10432000251303002E1303003F130300551303004E
:104330000C0200200D13030073B51E4C237883B1CB
:104340001D491E481E4D08F093F8FFF77FFF1D49D9
:1043500028601A4808F06FF80A222968174808F000
:10436000F0F8194E327802B32378F3B90220ADF891
:10437000063008F0F3FBB0B9962509220DF10601CD
:104380000B20FFF757FE28B9013DF6D14FF45F43EC
:10439000ADF80630BDF806100C4B0848090A0A2291
:1043A000197008F0E7F8002333700023237002B07F
:1043B00070BD00BF2C020020E71503006033002011
:1043C00004020020FA150300AC13002008020020AC
:1043D0002DE9F04F85B09A469DF8383002939DF84C
:1043E000403003930125102390460022CDE900358B
:1043F000064680231E48DDF83C909DF844B01C4CD6
:104400000F46114602F0DBFF2F2300930195802316
:1044100011220021164802F0D2FFBBF1000F0DD08F
:104420002823112240212046009502F012FE00951B
:10443000802337220021204602F0E4FD51460C483B
:1044400003F03AFC029B7BB14FF48033636101239C
:104450000F93039B0E9342464B463946304605B0B8
:10446000BDE8F04FFCF750B94FF00113EEE700BF85
:10447000D81100202DE9F0438046A1B08548854D34
:1044800002F097FB844B1F78844B1D9345F64F1326
:10449000ADF8783000241DAEE3B29F424FF0010327
:1044A000315D00934FF03B024FF00203284640F08D
:1044B000D08003F0A2F90134062CEDD1DFF8189278
:1044C000744C00230A27CDE90273CDE90039052297
:1044D000012316214046FFF77BFF714B1B685B7879
:1044E000002B00F0B9806F4B6F4D23616F49204660
:1044F00007F0AAFF6E4B23612B683A4619782046D5
:1045000008F036F86B4B23616B49204607F09CFF9F
:104510006A4B23616A49304608F042F92B681978E2
:104520003A4614311AA808F06BF91AA9304608F077
:10453000E6F9014605A808F0A2F91AA808F0EAF879
:10454000304608F0E7F805A9204607F078FF5D4BF4
:1045500023615D49204607F077FF5C4B23612B68A0
:10456000102259780BA808F03AF90BA90EA808F008
:1045700086F957490EA808F0CEF92B6810229978D1
:10458000074611A808F02BF911A9384608F0B7F929
:104590004F4908F0C0F92B681022D978074614A8B3
:1045A00008F01DF914A9384608F0A9F9484908F09F
:1045B000B2F92B6810221979074617A808F00FF9ED
:1045C00017A9384608F09BF9414908F0A4F92B686F
:1045D0001022597907461AA808F001F91AA9384695
:1045E00008F08DF93A4908F096F92B68102299796C
:1045F0000746304608F0F3F83146384608F07FF9B0
:10460000014608A808F03BF9304608F083F81AA8DC
:1046100008F080F817A808F07DF814A808F07AF8D8
:1046200011A808F077F80EA808F074F80BA808F0A5
:1046300071F808A9204607F002FF08A808F06AF8F8
:1046400005A808F067F8134802F02AFD21B0BDE87C
:10465000F08302F05FFF2EE701251323CDE901353A
:104660001223009316221B4B2046372103F0F2F849
:104670002946204603F020FB4FF0011363611A2303
:10468000009301954B462B2211214046FCF73CF844
:10469000D9E700BFD81100202412002027313B4564
:1046A00010020020050014000C02002065730300B6
:1046B0003200140005001E006E73030032001E005D
:1046C000A275030005002700777303000500300082
:1046D00021320300586D0300807403002DE9F0437C
:1046E000054687B05D485D4F02F063FA5C4B93F876
:1046F00000805C4B049345F64F13ADF81430002452
:104700000DF110090126E3B2984519F8041000963E
:104710004FF002034FF03B02384640F0868003F032
:104720006CF80134062CEED100230B22CDE90223D4
:104730004D4A2846CDE90032192101230522FFF711
:1047400047FE032008F00AFA002871D1072008F07C
:1047500005FA00286CD1414C444B454D2361454935
:10476000204607F071FE444B23612B680A22998989
:10477000204607F0E4FE414B23614149204607F003
:1047800063FE404B23612B680A22D989204607F03B
:10479000D6FE3D4B23613D49204607F055FE3C4B7C
:1047A00023612B680A22198B204607F0C8FE394B7B
:1047B00023613949204607F047FE384B23612B68B7
:1047C0000A22D98A204607F0BAFE354B23613549C3
:1047D000204607F039FE344B23612B680A22998A60
:1047E000204607F0ACFE314B23613149204607F0EB
:1047F0002BFE304B23612B680A22598A204607F092
:104800009EFE2D4B23612D49204607F01DFE2C4BAB
:1048100023612B680A22198A204607F090FE0F4870
:1048200007B0BDE8F04302F03BBC02F073FE78E74E
:1048300001241323CDE90134122300931622214BC6
:104840000648372103F006F8042300930194064B31
:104850002B2219212846FBF757FFE0E7D81100204B
:104860002412002027313B4580740300030013000D
:104870000C020020C87303002D0013004000130039
:10488000D07303006C00130003001D00F6730300D7
:104890002D001D0040001D00EF73030066001D0089
:1048A00003002700E77303002D00270040002700C6
:1048B000E07303006C00270003003100D87303008D
:1048C0002D003100586D03002DE9F04F064689B0E8
:1048D0007748774F02F06DF9764B93F80080764B6E
:1048E000069345F64F13ADF81C3000240DF118095E
:1048F0000125E3B2984519F8041000954FF0020322
:104900004FF03B02384640F0A98002F076FF0134B8
:10491000062CEED1694F00252B24012305221921F5
:104920003046CDE90245CDE90057FFF751FD0220A1
:1049300008F014F9012840F0A4805D4E029017237E
:104940001522CDE9003203215D4BDFF8ACB1DFF871
:10495000AC911422304602F07DFF0221304603F074
:10496000ABF9584B3361584C08F032F82368CBF858
:104970000000C01A132836D908F02AF820605348DE
:10498000534C05F0E1FE534B80461860D9F8000007
:10499000514BA8EB000043F8250015F009FFD4E9BE
:1049A000053A5345CDE904015BD2013363612769C0
:1049B00023689DED047B03EBC70383ED007B53EC81
:1049C000172BD4E9020115F0B7FD0137BA45C4E948
:1049D000020198BF002305F101058CBF2761236107
:1049E000C9F80080EDB2132DBDD9394B5C69002C9C
:1049F00044D0D3E9020116F04DFA07EE904A07EED3
:104A0000100AF8EE677A87EE277A344B1C6817EEA7
:104A1000100A15F0EFFE0022C4E90401304B16F035
:104A20006BF800222F4B15F03DFF0B460246C4E900
:104A30000623022400941E4807F06AFE21461C4803
:104A400003F03AF9284B33612849194807F0FCFC78
:104A5000174809B0BDE8F04F02F022BB02F05AFD42
:104A600055E72269236803EBC203D3E90023D4E9A5
:104A7000020115F05FFDC4E9020198E79FED1C7A81
:104A8000C3E701251323CDE9013512230093162234
:104A9000184B0748372102F0DDFE2D2300930195C6
:104AA0003B46224619213046FBF72EFED0E700BFD9
:104AB000D81100202412002027313B4580740300C8
:104AC000047203001E002200E4100020D412002013
:104AD000B0120020DC1000208C10002030020020DA
:104AE000000034400000D03F50002200EA7503006F
:104AF00000000000586D0300E0100020E8100020C6
:104B00002DE9FF412A4C2B4F01254023CDE90135EA
:104B1000802306460522002100932046264B02F002
:104B200099FE204602F0BCFA40F2DC5007F062FF2A
:104B3000204602F03EF84FF000080623CDE9023887
:104B400005222B463046CDE900871721FFF740FCB0
:104B50002946204603F0B0F84FF001136361CDE918
:104B600000853B4630461E222321FBF7CDFD3B4608
:104B70002822CDE900552A213046104DFBF7C4FD0F
:104B8000204602F08DFA0E49284607F071FC0D49C7
:104B9000284607F06DFC40F2DC5007F02BFF204662
:104BA00002F007F8204604B0BDE8F04102F078BA00
:104BB000D811002080740300916D03006033002041
:104BC000D7750300E27503002DE9F043484EDFF886
:104BD0003881DFF82C91474C85B000230622CDE9BF
:104BE0000223CDE900360522012317210746FFF7EE
:104BF000EFFB03230122CDE90032112133462422A9
:104C00003846FBF781FD3B4802F04AFA40F2DC509F
:104C100007F0F0FE072007F0A1FF58B341464846D1
:104C200007F026FC204601F0C4FF01251323CDE93F
:104C300001351223009320462F4B1622372102F014
:104C400009FE00230622CDE90223CDE900363846CD
:104C50002B4605221721FFF7BBFB042300933846A0
:104C60000195234B2B221921FBF74EFD204602F024
:104C700017FACFE7032007F071FF05460028CDD1D2
:104C80001E491F4807F0F4FB1A4801F092FF012467
:104C90001123CDE90134122300931722194B154833
:104CA000372102F0D7FD0623CDE9016338462346BC
:104CB0000395009505221721FFF78AFB05232B2278
:104CC0001421009338460A4B0194FBF71DFD094857
:104CD00002F0E6F940F2DC5007F08CFE054801F0E6
:104CE00068FF044805B0BDE8F04302F0D9B900BF41
:104CF00080740300D8110020586D0300C1750300B3
:104D000060330020256D0300AD7503002DE9F04FE1
:104D10004D4F4E4DDFF84C9185B04FF000084FF0ED
:104D2000060A012305221721CDE902A8CDE9008753
:104D300004460126FFF74CFB132324221121CDE961
:104D4000003620463B46FBF7DFFC284602F0A8F978
:104D500040F2DC5007F04EFE2046FEF7E1FB204615
:104D6000D9F800B0FBF794FC8BF80400284601F05A
:104D700020FF33460522CDE902A8CDE9008717219F
:104D80002046FFF725FBD9F800301A78A946002AFB
:104D900035D093F80480B8F1000F30D02C492D485D
:104DA00007F066FB4FF0110912231722CDE90039F5
:104DB0003721294B0296284602F04CFD3146284601
:104DC00002F07AFF4FF001136B61142300930196F8
:104DD0003B462B2249462046FBF796FC1B4802F037
:104DE0005FF940F2DC5007F005FE184801F0E1FEE3
:104DF000164802F055F9404605B0BDE8F08F174956
:104E0000144807F035FB01251323CDE901351223A2
:104E1000162200933721124B0C4802F01BFD294645
:104E20000A4802F049FF4FF00113C9F81430152366
:104E300000930195044B2B2211212046FBF764FCC3
:104E40004FF00008CAE700BF80740300D8110020AB
:104E50004075030060330020256D03005375030087
:104E6000586D0300100200202DE9F043394E3A4DF1
:104E700085B04FF000084FF00609CDE90298CDE962
:104E8000008601230522172107460124FFF7A0FA17
:104E90001B2324221121CDE9003438463346FBF789
:104EA00033FC284602F0FCF840F2DC5007F0A2FD8B
:104EB000284601F07EFECDE90298CDE90086234622
:104EC000052217213846FFF783FAFEF767FA804676
:104ED00030B32249224807F0CBFA4FF011091223D0
:104EE000CDE9003917221F4B02943721284602F0E2
:104EF000B1FC2146284602F0DFFE4FF001136B6142
:104F000001941C2300932B22334611213846FBF7D2
:104F1000FBFB114802F0C4F8404605B0BDE8F08341
:104F200011490F4807F0A4FA12231322CDE90032E9
:104F300037210E4B02941622284602F08BFC2146A4
:104F4000284602F0B9FE4FF001136B6101941D2356
:104F5000D8E700BF80740300D811002074750300E7
:104F600060330020256D03008C750300586D03002D
:104F70002DE9F043074687B05548554E01F019FE1C
:104F8000544B93F80080544B049345F64F13ADF8FF
:104F9000143000240DF110090125E3B2984519F8E9
:104FA000041000954FF002034FF03B02304671D1E0
:104FB00002F023FC0134062CEFD100230722CDE9B7
:104FC0000223464A464D424CCDE9003217210123C7
:104FD00005223846FFF7FCF92B689B787BB9012343
:104FE0002377404B23612821204602F0DBFD21215D
:104FF000204602F0D7FD2921204602F0D3FD3A4B8E
:1050000023613A4932483A4E07F01EFA394B236180
:1050100039492F4807F018FA384B236138492C4892
:1050200007F012FA2B682A485B790121002B34D053
:1050300002F042FE4FF48033324926616361244816
:1050400007F002FA2B6822489B792F4D012163B3A8
:1050500002F032FE4FF480332A49256163611C4817
:105060002A4D07F0F1F9022007F078FD01280146EA
:1050700023D1174802F020FE4FF4803324492561E4
:105080006361134807F0E0F9114807B0BDE8F04349
:1050900002F006B802F03EFA8CE702F00DFE4FF483
:1050A0008033266163611B49C9E702F005FE4FF4B6
:1050B0008033256163611749D1E70121044802F07B
:1050C000FBFD4FF48033256163611349D9E700BFCD
:1050D000D81100202412002027313B4580740300A2
:1050E000100200206C00050005001400F672030099
:1050F00050001400050021000373030005002E007A
:10510000107303001F7303005000210050002E0095
:10511000257303001C730300287303002DE9F0437B
:10512000064687B05448544F01F043FD534B93F863
:105130000080534B049345F64F13ADF81430002410
:105140000DF110090125E3B2984519F804100095F6
:105150004FF002034FF03B0238466FD102F04DFB97
:105160000134062CEFD100230822464F424CCDE9F2
:1051700002230522CDE90037114601233046FFF70F
:1051800027F9414B1B681B7801250295002B58D04D
:105190001026CDE900663D4BDFF8108116220A216A
:1051A000204602F057FB2722394B0096CDE90165D6
:1051B0000A21204602F04EFB0221204602F07CFD2F
:1051C000344B4FF00116C4E90436D8F800301868A3
:1051D00015F010FB022702460B460097204607F009
:1051E00097FA2D4B2361D8F80030586815F002FB70
:1051F000009702460B46204607F08AFA29462046C9
:10520000257702F059FD254BA721C4E90436204635
:1052100002F0C8FC2249204607F016F94321204637
:1052200002F0C0FC1F4B23612521204602F0BAFC8E
:10523000114807B0BDE8F04301F032BF02F06AF94F
:105240008EE712231322CDE900322046164B162298
:10525000372102F0FFFA2946204602F02DFD4FF0DB
:10526000011363611623009301953B462B22112104
:105270003046FBF749FADBE7D81100202412002062
:1052800027313B4580740300100200209171030018
:10529000B1710300230016002300270061001600EF
:1052A0005092030061002700586D03003002002077
:1052B0002DE9F043074687B04D484D4D01F079FC8C
:1052C0004C4B93F800804C4B049345F64F13ADF8CC
:1052D000143000260DF110090124F3B2984519F895
:1052E000061000944FF002034FF03B0228467BD19A
:1052F00002F083FA0136062EEFD101250923CDE90C
:1053000002353E4B01930023394C009338462B461F
:1053100005222321FFF75CF8112325771322CDE91D
:1053200000331821364B0295204602F093FA384696
:10533000FEF782F93346334E009520462422602141
:1053400002F0E8F83368B3F90620B3F904100095C9
:10535000322AA8BF32227A29A8BF7A21162AB8BFDA
:1053600016224529B8BF45212046042302F045FAFC
:10537000254B2361E921204602F014FC23492046F5
:1053800007F062F8224B23613368986815F032FA0F
:10539000009502460B46204607F0BAF91D4B2361E3
:1053A000A721204602F0FEFB1B4B2361E92120468A
:1053B00002F0F8FB1949204607F046F83368D86830
:1053C00015F018FA009502460B46204607F0A0F9A2
:1053D000134B2361A721204602F0E4FB204607B0CF
:1053E000BDE8F04301F05CBE02F094F882E700BF34
:1053F000D81100202412002027313B45807403007F
:10540000D17103001402002004002400EE75030093
:10541000160024003700240004002E00F17503005C
:1054200037002E0038B5354A354B11781878354C91
:10543000884211D13448007870B1344D2B7803BBC9
:1054400007F0C6FA324B1B6803F5922303F5787315
:1054500098421AD9012317E01878814202D12A48CC
:10546000007890B1187881420FD01B781370264BCA
:105470001B789BB12378042B94BF01330023237046
:1054800003E00623237000232B702378072B30D8EA
:10549000DFE803F0060B10151A1F242A0723EEE796
:1054A0001C48BDE83840FFF763BD1A48BDE83840E6
:1054B000FFF714B91748BDE83840FFF705BA15489B
:1054C000BDE83840FEF7D6BF1248BDE83840FFF7C8
:1054D000EFBE1048BDE83840FFF720BE0D48FBF78F
:1054E00043F90823237038BD0A48FBF74BF9002322
:1054F000F8E70120BDE8384007F07EBA71130020BC
:10550000681400202412002070130020EC100020EA
:1055100070120020D01200202DE9F0412148214FC7
:10552000DFF89880204D01F019F820491D4801F05E
:1055300074F832243A465021404604F046FB0646B1
:1055400070B91B491B4806F093FF2B680520DE70DD
:10555000013C07F04FFA14F0FF04EBD1BDE8F081F5
:105560001549144806F084FF2B6814480122DA70AC
:105570004FF4FA3104F038FB8021104804F036FB78
:1055800003210E4804F034FB0D490A4806F053FF8E
:105590000A4804F007FB0A220146BDE8F04105482D
:1055A00006F0F2BF9414002010020020801A0600BA
:1055B000DF0F0300603300200010030018020020FA
:1055C0000F1003002DE9FF415049514806F050FFEC
:1055D000FFF7A2FF4F4B1B68DB78002B00F08C809D
:1055E0004D4C4E4E4A4FDFF84C81FDF7A7FE226826
:1055F0001378118919441433DBB2518102A8A8220F
:105600000093C021012306F0C5FE039B4449404896
:10561000736006F02DFF43493D4806F029FF4249DB
:105620003B4806F011FF2368394819780A2206F032
:10563000A1FF3E49364806F0FEFE002573190A22F6
:105640001979384606F094FF032D03D041463846B9
:1056500006F0F1FE0135042DF0D135492C482C4ED1
:10566000344F06F019FF3449294806F0EDFE0025B5
:1056700023682B4410225978304606F079FF052D17
:1056800003D03946304606F0DFFE0135062DEFD156
:1056900027491F48DFF8B4801D4E284F06F0FCFE56
:1056A00027491B4806F0D0FE2368194819890A22A9
:1056B00006F047FF2349164806F0C6FE2368144843
:1056C00059890A2206F03DFF00250C2101FB0581C6
:1056D000304606F0B4FE3946304606F0B5FE236883
:1056E00003EB45030A2299893046013506F029FF6C
:1056F000072DEAD1002005E01349054806F0B8FE61
:105700004FF0FF3004B0BDE8F08100BF816C0300B2
:1057100060330020100200200C02002068120020DC
:10572000A06C0300B06C0300C06C0300CB6C0300E2
:105730005092030021320300D66C03006310030073
:10574000E46C0300F06C0300FD6C03008411002086
:105750002DE9F0433B4F3C4E85B000254FF0060944
:10576000012305221721CDE90295CDE90057804696
:105770000124FEF72DFE252324221121CDE900343A
:1057800040463B46FAF7C0FF304601F089FC40F244
:10579000DC5007F02FF9304601F00BFA23460522C2
:1057A00017214046CDE90295CDE90057FEF710FEDE
:1057B000FFF708FF1223029448BB11251722CDE9F9
:1057C00000353721214B304602F044F8214630465F
:1057D00002F072FA4FF001137361272300930194D2
:1057E0003B462B2229464046FAF78EFF164801F029
:1057F00057FC40F2DC5007F0FDF8134801F0D9F9EE
:10580000114801F04DFC204605B0BDE8F08313229D
:10581000CDE9003237210E4B1622304602F01AF83D
:105820002146304602F048FA4FF0011373612823F5
:10583000019400932B223B4611214046FAF764FF66
:105840002C46D3E780740300D8110020256D030097
:10585000586D0300F7B54FF4E1316448644F654D6E
:10586000654E06F00FFC6549654806F001FE4FF4F1
:10587000FA7007F0BFF80221052007F003F90121B3
:105880000E2007F0FFF80221072007F0FBF8C820E0
:1058900007F0B0F801210E2007F030F959495848B7
:1058A00006F0E6FD4FF4FA7007F0A4F80124009426
:1058B00023463D220221384601F088F928B93146B5
:1058C0004F4806F0D5FD2C70F0E700232B704E4BAF
:1058D0004E494B481C7006F0CBFD4FF47A7007F030
:1058E00089F8434801F065F9414801F0D9FB48487F
:1058F000FFF706F94648FFF767F94548FFF728FF25
:1059000004464348FFF702FA05464148FFF7ACFA60
:10591000002D68D0002808BF00243E4B1B684FF4C0
:10592000FA709C7007F066F83B49354806F0A0FD18
:105930004FF4FA7007F05EF803223849052005F0AD
:1059400099FA37492E4806F093FD4FF4FA7007F0A4
:1059500051F800230A2233493348FAF724FE012381
:10596000142232493048FAF71EFE02234FF4FA623D
:105970002F492D48FAF717FE03232E4A2E492A48AD
:10598000FAF711FE012332222C492748FAF70BFEC1
:10599000032341F288322A492348FAF704FE0323FD
:1059A0004EF6602227492048FAF7FDFD0323214ADD
:1059B00025491D48FAF7F7FD03231E4A23491A48D3
:1059C000FAF7F1FD0A4801F0F4F8094801F068FB24
:1059D00006F0FEFF1E4B1F491860094803B0BDE8E2
:1059E000F04006F045BD2C4697E700BF2832002066
:1059F000D811002040120020417603001F760300DA
:105A0000603300202D760300701300205B760300C6
:105A1000D0120020100200206A7603007D020100EF
:105A20008376030039430100B0130020353C0100A8
:105A3000E101010080EE3600E90201002554010079
:105A40005903010029020100E1030100A90201003C
:105A5000701200209C76030010B504465C3007F0FD
:105A600023FE04F1300007F01FFE201D07F01CFE8E
:105A7000204610BD00224FF0FF31C0E90222026132
:105A8000C0E90812704710B50446806810B1036879
:105A90005B689847E06810B103685B6898472069C5
:105AA00010B103685B689847204610BD2DE9F041AE
:105AB00090F92330013305460F4605D1406803684D
:105AC000BDE8F0419B681847072600244FF0010805
:105AD000002195F8230007F011F808FA06F1394083
