:020000021000EC
:1000000000000420FD4E0200354F0200890C020062
:10001000394F0200950C02009B0C0200000000000A
:100020000000000000000000000000002925020080
:10003000414F020000000000C1250200D12502004E
:10004000D99102006D000200474F0200474F0200A5
:10005000474F0200474F0200474F0200474F020040
:10006000474F0200474F0200474F0200474F020030
:10007000474F02006D930200474F020085000200C7
:10008000474F0200474F0200474F0200474F020010
:10009000474F0200474F0200474F0200474F020000
:1000A000474F0200474F0200474F0200474F0200F0
:1000B000474F020061AA010000000000000000009C
:1000C000474F0200474F0200474F0200474F0200D0
:1000D000474F0200474F0200474F0200474F0200C0
:1000E000474F0200474F0200474F02000000000048
:1000F00000000000474F020000000000474F0200D0
:1001000010B5054C237833B9044B13B10448AFF351
:1001100000800123237010BD70100020000000003B
:10012000D4A3030008B5034B1BB103490348AFF345
:10013000008008BD0000000074100020D4A303005C
:10014000154B002B08BF134B9D46A3F5803A0021A9
:100150008B460F461348144A121A1DF009F80F4B2C
:10016000002B00D098470E4B002B00D09847002062
:10017000002104000D000D48002802D00C4811F0A9
:100180006FFB1CF003FB2000290012F025F811F092
:1001900064FB00BF00000800000004200000000015
:1001A0003521020070100020F0CD002061180200FF
:1001B00000000000BFF34F8F0549064BCA6802F4E8
:1001C000E0621343CB60BFF34F8F00BFFDE700BF7A
:1001D00000ED00E00400FA0570470020704770470A
:1001E000014B01221A707047B4130020D0E900308F
:1001F000184708B50446204609F05AFEFBE70B688D
:1002000003604B6843608B688360704738B5054C6A
:10021000A4F1540520460C3C0CF0B6FAAC42F9D1DE
:1002200038BD00BFCC110020094B1B681A785AB1A9
:100230005A784AB1DA783AB11A792AB101220549D5
:100240009A7005480CF04EB900229A700349F8E7FD
:1002500010020020A310030068330020AF10030039
:1002600010B5044600681CF041FB204610BD10B5D7
:10027000044600681CF03AFB204610BD10B5084C3F
:100280000CF0E0FB236803F59673984207D90CF055
:10029000D9FB044A2060137883F00103137010BD6A
:1002A000741200207014002038B50A480A4C0AF075
:1002B000CAF9054630B9094909480CF013F9236811
:1002C0001D7138BD074906480CF00CF9236801225E
:1002D0001A71F6E7E42A00201002002088160300B5
:1002E000683300209916030010B508F00BF80128B8
:1002F000044619D1144808F0DDFAA8B1134B14498B
:100300001B6814485C700CF0EDF807F0FBFF022846
:1003100005D007F0F7FF012801D007F0F3FF0A48E6
:10032000BDE8104008F0C6BA07F0ECFF022804D17F
:10033000064B1B6800225A70E7E7034808F0BAFA38
:100340000028F5D010BD00BFA81300201002002027
:10035000C11003006833002038B51A4C1A482568CC
:1003600005F0B0FE28601848256805F0CDFF6860EC
:10037000154805F0D9FE9FED157A2368144A07EE5B
:10038000900AC7EE877AC3ED027AD3ED007AF5EED4
:10039000C07AF1EE10FA0FDDD3ED017AF5EEC07AF6
:1003A000F1EE10FA08DD13680A4901221A700A48B2
:1003B000BDE838400CF096B81368084900221A705E
:1003C000F5E700BF30020020241100200000C842E1
:1003D00010020020E40F030068330020F20F030036
:1003E00038B550210A480B4C09F018FC054630B9C5
:1003F00009490A480CF076F82368DD7038BD0849D1
:1004000006480CF06FF823680122DA70F6E700BFA7
:100410001802002010020020D214030068330020CC
:10042000F7140300F0B590F8B46000234FF0140CFB
:10043000DCB2A6420BD90CFB03F41D4607598F42D0
:1004400003D104446468944203D00133F0E74FF0D1
:10045000FF352846F0BD002910B5044615DB90F89D
:10046000B430994211DA142202FB01F05B1A013B0D
:10047000811821445A4320441CF016FE94F8B430ED
:10048000013B84F8B430012010BD0020FCE72DE9C9
:10049000F84306460CF0D6FA0024142796F8B43038
:1004A000A3422DD907FB0463D3E90212851A8D42BA
:1004B00018D304EB840006EB80050A44D5F80490B9
:1004C0001D6956F82080DA607DB90125B9F1000F69
:1004D00014DB4846C04796F8B5308BB90CF0B2FA39
:1004E000002DDBD00134E4B2D8E7013D1D61002DC1
:1004F000EBD121463046FFF7AEFFE7E7C047EAE71A
:10050000BDE8F8832DE9F843089F16463A460546AC
:1005100089469846FFF786FF041E2FDA95F8B44007
:100520009DF824309C4228BF1C4695F8B430082B17
:100530002AD85EB3A3420AD9142204FB0220A0F1F8
:1005400014011B1B5A43294428441CF0ADFD04EB45
:1005500084039B00EA1845F80390142303FB04541A
:10056000A66057600CF06EFAC4E9030895F8B43041
:10057000013385F8B4300120BDE8F88321462846D0
:10058000FFF769FFE4B2D0E70020F5E73046F3E774
:1005900013B59DF8104001944FF0FF340094FFF71D
:1005A000B1FF02B010BD07B500930023FFF7F0FFC5
:1005B00003B05DF804FB00007FB50023144E8DF8F6
:1005C00007200D468DF80F30322401230DF107026C
:1005D0002946304609F0ABFB05200CF047FA012311
:1005E0000DF10F022946304609F03EFB9DF80F2021
:1005F0009DF807309A4209D00520013C0CF036FAEC
:1006000014F0FF04E1D1204604B070BD0120FBE7E7
:10061000180200207FB50023144EADF806200D46C9
:10062000ADF80E30322402230DF106022946304681
:1006300009F07DFB05200CF019FA02230DF10E02E2
:100640002946304609F010FBBDF80E20BDF80630F3
:100650009A4209D00520013C0CF008FA14F0FF047E
:10066000E1D1204604B070BD0120FBE71802002054
:1006700008B50548054A1A2309F059FB0520BDE8CD
:1006800008400CF0F3B900BF180200202612002029
:1006900030B5194D85B00A24284609F0D4FF60B959
:1006A0000A20013C0CF0E2F914F0FF04F4D105201B
:1006B0000CF0DAF9204605B030BD104C204609F0A8
:1006C000B3FB0F4B03930F4B6946CDE9003404F5A0
:1006D000A8700023029314F043F8039B13B19B68A6
:1006E00068469847084B094A1B681A604FF6ED7236
:1006F0009A800124DBE700BFE42A0020E81A0020EA
:10070000B80E0300F301010014020020E0FFEDFF2A
:10071000F0B587B01E469DF834309DF83070134C0C
:1007200009B215B203B30DF11603039305AB02939F
:100730000DF11203019304AB0A46009356F82710FB
:100740002B46204607F0B8FBBDF814300222C3F157
:10075000800393FBF2F3238256F827100348658247
:100760000BF0ACFE07B0F0BD2182F5E7D8110020F8
:1007700008B5AE21034806F025FA034B00221A7093
:1007800008BD00BFD81100207813002008B5AF21A4
:10079000034806F017FA034B01221A7008BD00BF88
:1007A000D81100207813002010B50A4904460BF038
:1007B00099FE094920460BF095FE084920460BF0AA
:1007C00091FE20460BF088FE05490648BDE8104022
:1007D0000BF088BE1810030028100300401003001F
:1007E00052100300683300202DE9F74F0446DB491F
:1007F000DFF86C84DFF86CA4D94DDA4FDFF8689429
:10080000DFF868B4D84E0BF06DFED84920460BF0E7
:1008100069FED74920460BF065FED64920460BF00D
:1008200061FED54920460BF05DFED44920460BF011
:1008300059FED34920460BF055FED24920460BF015
:1008400051FE414620460BF04DFECF4920460BF0AD
:1008500049FECE4920460BF045FECD4920460BF01F
:1008600041FE514620460BF03DFECA4920460BF0A2
:1008700039FE294620460BF035FEC74920460BF0CD
:1008800031FE394620460BF02DFEC44920460BF0C0
:1008900029FEC34920460BF025FE294620460BF0D1
:1008A00021FEC04920460BF01DFE494620460BF0B4
:1008B00019FEBD4B0093194620460BF013FE294646
:1008C00020460BF00FFEB94920460BF00BFE4146C7
:1008D00020460BF007FEB64920460BF003FEB54953
:1008E00020460BF0FFFDB44920460BF0FBFD5946B6
:1008F00020460BF0F7FD294620460BF0F3FDAF49EB
:1009000020460BF0EFFD414620460BF0EBFDAC49D5
:1009100020460BF0E7FDAB4920460BF0E3FDAA496A
:1009200020460BF0DFFD314620460BF0DBFDA749EA
:1009300020460BF0D7FD294620460BF0D3FDA449F5
:1009400020460BF0CFFD594620460BF0CBFD009B17
:10095000204619460BF0C6FD514620460BF0C2FD5D
:10096000294620460BF0BEFD9A4920460BF0BAFD01
:10097000494620460BF0B6FD9749DFF8F492204631
:100980000BF0B0FD954920460BF0ACFD9449204694
:100990000BF0A8FD494620460BF0A4FD91492046E6
:1009A0000BF0A0FD314620460BF09CFD8E49204601
:1009B0000BF098FD294620460BF094FD8B4920460C
:1009C0000BF090FD594620460BF08CFD8849DFF86E
:1009D000A4B220460BF086FD864920460BF082FD2E
:1009E000854920460BF07EFD294620460BF07AFD16
:1009F000824920460BF076FD814920460BF072FDBE
:100A0000804920460BF06EFD7F4920460BF06AFDC1
:100A1000294620460BF066FD7C4920460BF062FD1E
:100A2000314620460BF05EFD794920460BF05AFD19
:100A3000414620460BF056FD764920460BF052FD0C
:100A4000294620460BF04EFD734920460BF04AFD27
:100A5000314620460BF046FD514620460BF042FD44
:100A60006E49DFF814A220460BF03CFD6C4920468D
:100A70000BF038FD294620460BF034FD694920462D
:100A80000BF030FD684920460BF02CFD67492046ED
:100A90000BF028FD294620460BF024FD6449204632
:100AA0000BF020FD634920460BF01CFD2946204633
:100AB0000BF018FD604920460BF014FD3946204626
:100AC0000BF010FD5D4920460BF00CFD5C49204603
:100AD0000BF008FD5B4920460BF004FD294620463B
:100AE0000BF000FD584920460BF0FCFC3146204637
:100AF0000BF0F8FC294620460BF0F4FC5349204645
:100B00000BF0F0FC394620460BF0ECFC5146204639
:100B10000BF0E8FC294620460BF0E4FC4C4920464B
:100B20000BF0E0FC314620460BF0DCFC2946204669
:100B30000BF0D8FC474920460BF0D4FC3946204640
:100B40000BF0D0FC444920460BF0CCFC434A019208
:100B5000114620460BF0C6FC90E000BFA016030033
:100B60009C170300AB170300BA180300B01603006C
:100B7000C0160300D1160300D816030001170300A6
:100B8000141703001C1703002E1703003A17030065
:100B90006D170300811703009E170300BA170300A7
:100BA000DD17030003180300261803003B18030099
:100BB000491803005C1803006A1803008518030035
:100BC00092180300A6180300B1180300CE18030002
:100BD000E3180300EA180300F418030005190300E2
:100BE000101903002A1903003F1903004F190300CD
:100BF0005A1903006C1903007F19030093190300AD
:100C0000A0190300AE190300C8190300D719030087
:100C1000E0190300F7190300081A0300131A030070
:100C20002A1A03003C1A03004D1A0300681A030035
:100C3000781A0300831A0300951A0300B21A0300FE
:100C4000CF1A0300F41A0300031B0300231B030045
:100C50004C1B03005E1B0300771B03009F1B03005C
:100C600023170300581A03000D1803007818030017
:100C70001D190300E31B0300331B0300DB4B009330
:100C8000194620460BF02EFC594620460BF02AFC54
:100C9000294620460BF026FCD54920460BF022FCC5
:100CA000D44920460BF01EFCD34920460BF01AFC19
:100CB000314620460BF016FC294620460BF012FC6C
:100CC000CE4920460BF00EFC394620460BF00AFCBC
:100CD000CB4920460BF006FC019A204611460BF04A
:100CE00001FC009B204619460BF0FCFB59462046B0
:100CF0000BF0F8FB294620460BF0F4FBC149DFF866
:100D0000ECB320460BF0EEFB394620460BF0EAFB35
:100D1000514620460BF0E6FB294620460BF0E2FB4D
:100D2000B949DFF8CCA3B94F20460BF0DBFBB84B39
:100D30000093194620460BF0D5FB594620460BF090
:100D4000D1FBB44920460BF0CDFB514620460BF0B9
:100D5000C9FB394620460BF0C5FB294620460BF05F
:100D6000C1FBAD4920460BF0BDFB009B2046194658
:100D70000BF0B8FB594620460BF0B4FBA749DFF84F
:100D800074B320460BF0AEFB514620460BF0AAFB95
:100D9000394620460BF0A6FB294620460BF0A2FB65
:100DA0009F49A04FDFF850A320460BF09BFB9E49C4
:100DB00020460BF097FB9D4920460BF093FB9C4986
:100DC00020460BF08FFB494620460BF08BFB9949E0
:100DD00020460BF087FB294620460BF083FB964903
:100DE00020460BF07FFB954920460BF07BFB3146FC
:100DF00020460BF077FB9249924E20460BF072FB97
:100E0000414620460BF06EFB8F49DFF8F08220460A
:100E10000BF068FB8D4920460BF064FB2946204609
:100E20000BF060FB8A4920460BF05CFB89492046A9
:100E30000BF058FB884920460BF054FB294620460E
:100E40000BF050FB854920460BF04CFB84492046B3
:100E50000BF048FB834920460BF044FB2946204613
:100E60000BF040FB804920460BF03CFB7F492046BD
:100E70000BF038FB294620460BF034FB7C4920461A
:100E80000BF030FB7B4920460BF02CFB7A492046C7
:100E90000BF028FB794920460BF024FB78492046CB
:100EA0000BF020FB294620460BF01CFB7549204621
:100EB0000BF018FB744920460BF014FB73492046D5
:100EC0000BF010FB294620460BF00CFB7049204626
:100ED0000BF008FB6F4920460BF004FB6E492046DF
:100EE0000BF000FB294620460BF0FCFA6B4920462C
:100EF0000BF0F8FA6A4920460BF0F4FA69492046EB
:100F00000BF0F0FA684920460BF0ECFA294620462F
:100F10000BF0E8FA654920460BF0E4FA64492046F4
:100F20000BF0E0FA634920460BF0DCFA62492046F8
:100F30000BF0D8FA294620460BF0D4FA5F49204638
:100F40000BF0D0FA314620460BF0CCFA2946204669
:100F50000BF0C8FA5A4920460BF0C4FA594920460A
:100F60000BF0C0FA294620460BF0BCFA5649204641
:100F70000BF0B8FA554920460BF0B4FA2946204642
:100F80000BF0B0FA524920460BF0ACFA314620463D
:100F90000BF0A8FA294620460BF0A4FA4D4920464A
:100FA0000BF0A0FA4C4920460BF09CFA294620464B
:100FB0000BF098FA494920460BF094FA3146204646
:100FC0000BF090FA294620460BF08CFA4449204653
:100FD0000BF088FA434920460BF084FA4249204638
:100FE0000BF080FA314620468AE000BFC41B0300A4
:100FF000F21B03000F1C0300221C0300341C03001F
:101000004E1C0300761C0300871C0300DC1C03003D
:10101000941C0300AF1C0300F31C0300FE1C030020
:10102000151D0300F52C0300261D03003B1D0300C6
:101030004D1D0300681D03007D1D03000E1E0300EF
:10104000901D03003F200300AB1D0300BB1D0300E8
:10105000D01D0300E41D0300681A0300FF1D0300F8
:10106000131E0300291E0300421E0300511E03002D
:10107000631E0300831E0300941E0300B61E0300BC
:10108000C01E0300CD1E0300D91E0300011F030074
:10109000161F0300231F03004B1F03005F1F0300E5
:1010A000751F0300A31F0300B81F0300DD1F03000B
:1010B000F61F0300092003001E2003003420030054
:1010C0004C2003005720030064200300702003001D
:1010D0007E2003008A20030097200300A420030041
:1010E000AF200300B7200300C0200300A21C0300B0
:1010F000C81C0300AB390300113B0300872C03001D
:101100000BF0F0F9294620460BF0ECF9D449D54E06
:1011100020460BF0E7F9D44920460BF0E3F92946C5
:1011200020460BF0DFF9D14920460BF0DBF9D0491E
:1011300020460BF0D7F9CF4920460BF0D3F9CE4922
:1011400020460BF0CFF9CD4920460BF0CBF94946AC
:1011500020460BF0C7F9CA49DFF84C9420460BF043
:10116000C1F9294620460BF0BDF9C64920460BF0CF
:10117000B9F9C54920460BF0B5F9C44920460BF032
:10118000B1F9C34920460BF0ADF9C24920460BF036
:10119000A9F9C14920460BF0A5F9C04920460BF03A
:1011A000A1F9BF4920460BF09DF9BE4920460BF03E
:1011B00099F9BD4920460BF095F9BC4920460BF042
:1011C00091F9BB4920460BF08DF9BA4920460BF046
:1011D00089F9B94920460BF085F9B84920460BF04A
:1011E00081F9B74920460BF07DF9B64920460BF04E
:1011F00079F9B54920460BF075F9B44920460BF052
:1012000071F9B34920460BF06DF9B24920460BF055
:1012100069F9B14920460BF065F9B04920460BF059
:1012200061F9AF4920460BF05DF9AE4920460BF05D
:1012300059F9AD4920460BF055F9294620460BF0E7
:1012400051F9AA4920460BF04DF9A94920460BF067
:1012500049F9A84920460BF045F9A74920460BF06B
:1012600041F9A64920460BF03DF9A54920460BF06F
:1012700039F9A44920460BF035F9A34920460BF073
:1012800031F9494620460BF02DF9A04920460BF0D4
:1012900029F99F4920460BF025F99E4920460BF07D
:1012A00021F99D4920460BF01DF99C4920460BF081
:1012B00019F99B4920460BF015F99A4920460BF085
:1012C00011F9994920460BF00DF9984920460BF089
:1012D00009F9974920460BF005F9964920460BF08D
:1012E00001F9954920460BF0FDF8944920460BF092
:1012F000F9F8934920460BF0F5F8924920460BF097
:10130000F1F8314620460BF0EDF88F4920460BF0FE
:10131000E9F88E4920460BF0E5F88D4920460BF0A0
:10132000E1F88C4920460BF0DDF88B4920460BF0A4
:10133000D9F8294620460BF0D5F8414620460BF057
:10134000D1F8294620460BF0CDF8294620460BF06F
:10135000C9F8294620460BF0C5F8294620460BF06F
:10136000C1F87E4920460BF0BDF8394620460BF007
:10137000B9F8294620460BF0B5F8794920460BF01C
:10138000B1F8784B0093194620460BF0ABF876493C
:1013900020460BF0A7F8294620460BF0A3F8734926
:1013A00020460BF09FF8724920460BF09BF87149DC
:1013B00020460BF097F8704920460BF093F8464909
:1013C00020460BF08FF8494620460BF08BF831464B
:1013D00020460BF087F8294620460BF083F8674932
:1013E000674EDFF8D49020460BF07CF86549204624
:1013F0000BF078F8644920460BF074F863492046F6
:101400000BF070F8624920460BF06CF8314620462C
:101410000BF068F85F4920460BF064F8314620462F
:101420000BF060F85C4920460BF05CF83146204632
:101430000BF058F8594920460BF054F83146204635
:101440000BF050F8564920460BF04CF83146204638
:101450000BF048F8534920460BF044F8A6E000BFD3
:10146000CA200300172B0300D5200300E32003004C
:10147000F920030002210300152103002D210300A0
:101480004A2103005E210300672103008721030036
:10149000BA210300C3210300D5210300EB2103007F
:1014A0000D2203003B22030072220300812203006D
:1014B000942203001A2303003C230300602303004B
:1014C00084230300AF230300CB230300E5230300A1
:1014D0000624030033240300EF210300112203003C
:1014E000672403009C240300BA240300F7240300AC
:1014F0002D2503006A250300A8250300ED25030020
:101500002B26030070260300AE26030031270300BC
:1015100076270300B6270300FD2703003D280300BC
:1015200084280300C42803000B2903004B2903006F
:1015300092290300D2290300192A0300592A030023
:10154000A02A0300D82A0300512B0300922B03008A
:10155000C22B0300EC2B0300362C0300C82C030025
:10156000092D03001F2D0300372D0300982D0300C4
:10157000B32D0300F32D03000B2E0300292E0300CF
:10158000E72E0300802E0300962E0300AB2E0300EF
:10159000B82E0300222F0300562F03008A2F0300CA
:1015A000BE2F0300F22F0300F3260300314620462E
:1015B0000AF098FFD34920460AF094FF31462046AE
:1015C0000AF090FFD04920460AF08CFF31462046B1
:1015D0000AF088FFCD4ECE4920460AF083FFCD4960
:1015E00020460AF07FFF314620460AF07BFFCA49B9
:1015F00020460AF077FF314620460AF073FF29465D
:1016000020460AF06FFFC549C54E20460AF06AFF22
:10161000C44920460AF066FFC34920460AF062FF2B
:10162000C24920460AF05EFFC14920460AF05AFF2F
:10163000C04920460AF056FFBF4920460AF052FF33
:10164000BE4920460AF04EFFBD4920460AF04AFF37
:10165000BC4920460AF046FFBB4920460AF042FF3B
:10166000BA4920460AF03EFFB94920460AF03AFF3F
:10167000B84920460AF036FFB74920460AF032FF43
:10168000B64920460AF02EFFB54920460AF02AFF47
:10169000B44920460AF026FFB34920460AF022FF4B
:1016A000B24920460AF01EFFB14920460AF01AFF4F
:1016B000414620460AF016FFAE49DFF894832046E3
:1016C0000AF010FF294620460AF00CFFAA492046DE
:1016D0000AF008FFA94920460AF004FFA84920465D
:1016E0000AF000FFA74920460AF0FCFEA649204662
:1016F0000AF0F8FEA54920460AF0F4FEA449204667
:101700000AF0F0FEA34920460AF0ECFEA24920466A
:101710000AF0E8FEA14920460AF0E4FE29462046E8
:101720000AF0E0FE9E4920460AF0DCFE9D49204674
:101730000AF0D8FE9C4920460AF0D4FE9B49204678
:101740000AF0D0FE9A4920460AF0CCFE994920467C
:101750000AF0C8FE314620460AF0C4FE294620465B
:101760000AF0C0FE594620460AF0BCFE2946204633
:101770000AF0B8FE904920460AF0B4FE8F49204690
:101780000AF0B0FE8E4920460AF0ACFE8D49204694
:101790000AF0A8FE8C4920460AF0A4FE29462046FD
:1017A0000AF0A0FE894920460AF09CFE884920469E
:1017B0000AF098FE514620460AF094FE494620461B
:1017C0000AF090FE834920460AF08CFE41462046EE
:1017D0000AF088FE804920460AF084FE7F492046B0
:1017E0000AF080FE7E4920460AF07CFE7D492046B4
:1017F0000AF078FE7C4920460AF074FE7B492046B8
:101800000AF070FE7A4920460AF06CFE79492046BB
:101810000AF068FE784920460AF064FE77492046BF
:101820000AF060FE764920460AF05CFE75492046C3
:101830000AF058FE744920460AF054FE73492046C7
:101840000AF050FE724920460AF04CFE71492046CB
:101850000AF048FE704920460AF044FE6F492046CF
:101860000AF040FE6E4920460AF03CFE6D492046D3
:101870000AF038FE6C4920460AF034FE6B492046D7
:101880000AF030FE294620460AF02CFE6849204620
:101890000AF028FE674920460AF024FE2946204621
:1018A0000AF020FE294620460AF01CFE2946204662
:1018B0000AF018FE604920460AF014FE3946204618
:1018C0000AF010FE5D4920460AF00CFE5C492046F5
:1018D0000AF008FE5B4920460AF004FE009B204601
:1018E00019460AF0FFFD584920460AF0FBFD59460B
:1018F00020460AF0F7FD294620460AF0F3FD534939
:10190000A8E000BF263003005A3003007631030000
:101910008A300300993003008A31030091310300BB
:101920009C3903001E3203003B3203005D3203008A
:101930007F32030093320300A3320300C832030056
:101940000C3303005A330300A8330300F6330300BB
:101950004434030092340300E034030026350300CE
:101960002D3503003D350300663503009435030033
:10197000D6350300053603004536030072360300F2
:10198000B2360300E1360300253703005537030064
:101990009B370300C93703000B38030039380300B5
:1019A0007B3803009B380300183903003A390300E1
:1019B000733903007F390300B9390300EE3903009E
:1019C000073A0300203A03008B3A0300953A0300DC
:1019D000F03A03003D3B03006A3B0300863B0300F3
:1019E000E92303009C3B0300C83B0300FE3B0300CC
:1019F000AC3C0300DD3C03006D3D0300FD3D0300F6
:101A00008B3E0300193F0300A93F03003940030048
:101A10009A400300F74003004F410300A741030031
:101A200007420300494203007F4203002E430300A4
:101A3000A8420300E24203003D4303007443030055
:101A40007D430300E84303000844030063440300AC
:101A500084230300DFF894B420460AF043FDD749FD
:101A600020460AF03FFDD64920460AF03BFDD54905
:101A700020460AF037FDD44920460AF033FD2946B6
:101A800020460AF02FFDD14920460AF02BFDD0490F
:101A900020460AF027FDCF4920460AF023FDCE4913
:101AA00020460AF01FFD514620460AF01BFD49461C
:101AB00020460AF017FD414620460AF013FDC749AB
:101AC000DFF82C84DFF82C94DFF82CA420460AF0F1
:101AD00009FDC34920460AF005FDC24920460AF027
:101AE00001FD314620460AF0FDFC294620460AF059
:101AF000F9FC294620460AF0F5FC294620460AF062
:101B0000F1FC294620460AF0EDFCB749B74E2046C5
:101B10000AF0E8FC394620460AF0E4FC2946204653
:101B20000AF0E0FC294620460AF0DCFCB049B14D41
:101B3000B14F20460AF0D6FCB04920460AF0D2FC4C
:101B4000AF4920460AF0CEFCAE4920460AF0CAFC56
:101B5000AD4920460AF0C6FCAC4920460AF0C2FC5A
:101B6000AB4920460AF0BEFC414620460AF0BAFCCA
:101B7000A84920460AF0B6FCA74920460AF0B2FC64
:101B8000A64920460AF0AEFCA54920460AF0AAFC68
:101B9000A44920460AF0A6FCA34920460AF0A2FC6C
:101BA000294620460AF09EFCA04920460AF09AFCED
:101BB0009F4920460AF096FC9E4920460AF092FC76
:101BC0009D4920460AF08EFC414620460AF08AFCD8
:101BD0009A4920460AF086FC394620460AF082FCE3
:101BE000974920460AF07EFC964920460AF07AFC86
:101BF000954920460AF076FC314620460AF072FCF0
:101C0000394620460AF06EFC904920460AF06AFCEC
:101C10008F4920460AF066FC314620460AF062FCF5
:101C2000394620460AF05EFC8A4920460AF05AFCF2
:101C3000894920460AF056FC314620460AF052FCFB
:101C4000394620460AF04EFC844920460AF04AFCF8
:101C5000834920460AF046FC314620460AF042FC01
:101C6000394620460AF03EFC7E497F4F20460AF066
:101C700039FC7E4920460AF035FC314620460AF000
:101C800031FC7B497B4E20460AF02CFC294620463D
:101C90000AF028FC784920460AF024FC77492046BF
:101CA0000AF020FC764920460AF01CFC41462046FA
:101CB0000AF018FC7349DFF8448220460AF012FC4F
:101CC000294620460AF00EFC294620460AF00AFC66
:101CD0006D4920460AF006FC294620460AF002FC1F
:101CE0006A4920460AF0FEFB694920460AF0FAFBE1
:101CF000684920460AF0F6FB674920460AF0F2FBE5
:101D0000664920460AF0EEFB294620460AF0EAFB27
:101D1000634920460AF0E6FB624920460AF0E2FBEE
:101D2000614920460AF0DEFB604920460AF0DAFBF2
:101D30005F4920460AF0D6FB294620460AF0D2FB2E
:101D40005C4920460AF0CEFB5B4920460AF0CAFBFC
:101D50005A4920460AF0C6FB594920460AF0C2FB00
:101D6000584920460AF0BEFB574920460AF0BAFB04
:101D7000564920460AF0B6FB554920460AF0B2FB08
:101D8000544920460AF0AEFB534920460AF0AAFB0C
:101D9000524920460AF0A6FB514920460AF0A2FB10
:101DA000504920460AF09EFB4F4920460AF09AFB14
:101DB000294620460AF096FBA2E000BFBF4403007C
:101DC000DF4403002345030069450300D7450300B2
:101DD000404603005B46030095460300AF23030023
:101DE000CB230300E5230300B54603004A49030063
:101DF000E7460300774C0300BD6B0300F546030084
:101E0000FF46030007470300154703003047030060
:101E100045470300724703007E470300DE47030087
:101E2000844B030015480300334803004E48030069
:101E300058480300724803008F4803009E4803007F
:101E4000C8480300CD48030011490300504903006E
:101E50009B490300D9490300234A0300614A030058
:101E6000B94A0300F94A0300B4520300494B030086
:101E7000894B0300F45103008F4B0300964B030082
:101E8000AC4B0300C04B0300D14B0300D94B030004
:101E9000084C03002D4C0300454C03005B4C030031
:101EA0007E4C0300A04C0300D94C0300044D0300FA
:101EB0002B4D0300574D0300784D0300A84D030040
:101EC000BF4D0300D74D0300F44D03000C4E03003B
:101ED000234E0300404E0300764E0300AC4E030039
:101EE000E14E0300164F03004C4F0300105D03004A
:101EF0005A47030067530300B65E03004D550300C5
:101F0000D94920460AF0EEFAD84920460AF0EAFA02
:101F1000294620460AF0E6FA294620460AF0E2FA67
:101F2000294620460AF0DEFAD14920460AF0DAFABC
:101F3000D04920460AF0D6FACF4920460AF0D2FA14
:101F4000CE4920460AF0CEFACD4920460AF0CAFA18
:101F5000CC4920460AF0C6FACB4B019319462046DD
:101F60000AF0C0FAC94A0092114620460AF0BAFAAD
:101F7000C74920460AF0B6FAC64920460AF0B2FA26
:101F8000C54920460AF0AEFAC44920460AF0AAFA2A
:101F9000C34920460AF0A6FAC24920460AF0A2FA2E
:101FA000C14920460AF09EFA314620460AF09AFAC4
:101FB000BE4920460AF096FABD4920460AF092FA38
:101FC000BC4920460AF08EFABB4920460AF08AFA3C
:101FD000BA4920460AF086FAB94920460AF082FA40
:101FE000B84920460AF07EFA394620460AF07AFAC5
:101FF000314620460AF076FAB34920460AF072FAD2
:10200000B24920460AF06EFAB14920460AF06AFA4F
:10201000B04920460AF066FA494620460AF062FABC
:10202000AD4920460AF05EFAAC4920460AF05AFA59
:10203000AB4920460AF056FAAA4920460AF052FA5D
:10204000A94920460AF04EFAA84920460AF04AFA61
:10205000394620460AF046FA314620460AF042FA4E
:10206000A34920460AF03EFAA24920460AF03AFA6D
:10207000A14920460AF036FAA04920460AF032FA71
:10208000414620460AF02EFA414620460AF02AFA36
:102090009B49DFF8F08220460AF024FA994920464D
:1020A0000AF020FA984920460AF01CFA31462046E8
:1020B0000AF018FA954920460AF014FA9449204685
:1020C0000AF010FA394620460AF00CFA314620464A
:1020D0000AF008FA8F4920460AF004FA8E49204691
:1020E0000AF000FA394620460AF0FCF9314620464B
:1020F0000AF0F8F9894920460AF0F4F9884920469F
:102100000AF0F0F9394620460AF0ECF9314620464B
:102110000AF0E8F9834920460AF0E4F982492046AA
:102120000AF0E0F9814920460AF0DCF980492046AE
:102130000AF0D8F97F4920460AF0D4F97E492046B2
:102140000AF0D0F97D4920460AF0CCF97C492046B6
:102150000AF0C8F97B4920460AF0C4F97A492046BA
:102160000AF0C0F9394620460AF0BCF9314620464B
:102170000AF0B8F9754920460AF0B4F941462046FC
:102180000AF0B0F9724920460AF0ACF93946204607
:102190000AF0A8F9314620460AF0A4F96D49204614
:1021A0000AF0A0F9414620460AF09CF96A49204607
:1021B0000AF098F9394620460AF094F9314620464B
:1021C0000AF090F9654920460AF08CF9414620460C
:1021D0000AF088F9624920460AF084F93946204617
:1021E0000AF080F9314620460AF07CF95D49204624
:1021F0000AF078F9414620460AF074F95A49204617
:102200000AF070F9394620460AF06CF9314620464A
:102210000AF068F9554920460AF064F9414620461B
:102220000AF060F95249DFF8608120460AF05AF955
:10223000394620460AF056F9314620460AF052F94E
:102240004C4920460AF04EF94B4920460AF04AF91B
:102250004A4920460AF046F9494620460AF042F922
:102260004749204692E000BF824F0300B74F03006A
:10227000FE4F0300365003005B5003008B500300F9
:10228000C450030020510300465103005151030084
:10229000675103007D51030094510300A8510300CE
:1022A000BD510300D2510300E8510300F95103006E
:1022B000135203002D5203004852030061520300E1
:1022C0007A52030093520300BA520300D352030020
:1022D00003530300F35C0300735303007E530300B6
:1022E0008B530300F35303000D5403006E5403009B
:1022F0008B540300A7540300E15403003655030038
:1023000063550300CB550300E1550300215603003C
:102310003D56030092560300AE56030003570300D8
:102320001F5703007457030090570300CB57030057
:10233000215803007A58030092580300AA5803005A
:10234000C25803001D5903007E590300B859030009
:102350002B5A0300845A0300A05A0300F95A0300C1
:10236000155B03006E5B03008A5B0300E35B030005
:10237000FF5B0300585C0300715C0300A35C030077
:10238000025D0300D45903001A5E03000AF0AAF8A4
:10239000594620460AF0A6F8D84920460AF0A2F885
:1023A000394620460AF09EF8314620460AF09AF84F
:1023B000D34920460AF096F8D24920460AF092F80E
:1023C000D14920460AF08EF8D04920460AF08AF812
:1023D000414620460AF086F8414620460AF082F837
:1023E000CB49DFF8308420460AF07CF8C949204602
:1023F0000AF078F8394620460AF074F8C6492046B3
:102400000AF070F8514620460AF06CF8C34920469D
:102410000AF068F8C24920460AF064F8C14920462B
:102420000AF060F8294620460AF05CF8414620464A
:102430000AF058F8294620460AF054F8BA492046CE
:102440000AF050F8B94920460AF04CF8B84920463D
:102450000AF048F8B74920460AF044F8B649204641
:102460000AF040F8019B204619460AF03BF8009A12
:10247000204611460AF036F8B04920460AF032F8F4
:10248000AF4920460AF02EF8AE4920460AF02AF855
:10249000AD4920460AF026F8AC4920460AF022F859
:1024A000AB4920460AF01EF8AA4920460AF01AF85D
:1024B000A94920460AF016F8314620460AF012F8DB
:1024C000A64920460AF00EF8A54920460AF00AF867
:1024D000A44920460AF006F8A34920460AF002F86B
:1024E000A249204609F0FEFFA149204609F0FAFF63
:1024F000A049204609F0F6FF9F49204609F0F2FF67
:102500003946204609F0EEFF3146204609F0EAFF41
:102510009A49204609F0E6FF9949204609F0E2FF72
:102520009849204609F0DEFF9749204609F0DAFF76
:102530004946204609F0D6FF9449204609F0D2FFCB
:102540009349204609F0CEFF9249204609F0CAFF80
:102550009149204609F0C6FF3946204609F0C2FFDE
:102560003146204609F0BEFF8C49204609F0BAFFEB
:102570008B49204609F0B6FF8A49204609F0B2FF90
:102580008949204609F0AEFF4946204609F0AAFFD6
:102590008649204609F0A6FF8549204609F0A2FF9A
:1025A0008449204609F09EFF3946204609F09AFFEB
:1025B0003146204609F096FF7F49204609F092FFF8
:1025C0007E49204609F08EFF7D49204609F08AFFAA
:1025D0007C49204609F086FF4946204609F082FFE3
:1025E0007949204609F07EFF5946204609F07AFFD6
:1025F0007649DFF824B2204609F074FF39462046B8
:1026000009F070FF3146204609F06CFF7049204602
:1026100009F068FF6F49204609F064FF6E492046C3
:1026200009F060FF6D4A01921146204609F05AFFF9
:102630004946204609F056FF6949204609F052FFF5
:10264000684B00931946204609F04CFF5946204636
:1026500009F048FF6449204609F044FF3946204606
:1026600009F040FF3146204609F03CFF5F49204613
:1026700009F038FF5E49204609F034FF5D492046E5
:1026800009F030FF019A2046114609F02BFF494618
:10269000204609F027FF5849204609F023FF009BF8
:1026A0002046194609F01EFF5946204609F01AFF38
:1026B0005249204609F016FF3946204609F012FF1C
:1026C0003146204609F00EFF4D49204609F00AFF29
:1026D0004C49204609F006FF4B49204609F002FF0D
:1026E0004A49204609F0FEFE4946204609F0FAFE16
:1026F0004749204609F0F6FE90E000BF1E5D03004A
:10270000785D0300915D0300C45D03000F5E03006C
:10271000245E0300865E0300AD5E0300C75E030017
:10272000DD5E03000C5F03005E5F0300835F030058
:10273000B35F0300EC5F0300486003006E600300BA
:10274000856003009D60030094510300A8510300BD
:10275000BD510300D2510300E8510300F9510300B9
:10276000135203002D520300B360030048520300CC
:10277000615203007A52030093520300CD600300BC
:10278000E66003001C6103006961030075610300DA
:10279000816103008D610300FF610300106203008B
:1027A0002962030060620300AB620300B7620300AA
:1027B000C3620300CF6203003B6303005463030062
:1027C00089630300D8630300E5630300F363030038
:1027D0004D640300666403009E640300EC64030020
:1027E000FD640300086503007B650300BD6503000D
:1027F000D66503000F6603005F6603006A66030088
:10280000A9660300C2660300F5660300456703007E
:1028100051670300565F03001465030075492046A5
:1028200009F060FE7449204609F05CFE73492046B9
:1028300009F058FE3946204609F054FE314620463C
:1028400009F050FE6E496F4E204609F04BFE6E496E
:10285000204609F047FE6D49204609F043FE6C49C9
:10286000204609F03FFE6B49204609F03BFE6A49CD
:10287000204609F037FE6949204609F033FE4946F3
:10288000204609F02FFE6649204609F02BFE6549D7
:10289000204609F027FE6449204609F023FE394608
:1028A000204609F01FFE6149204609F01BFE5146F3
:1028B000204609F017FE5E49204609F013FE5D49E7
:1028C000204609F00FFE5C49204609F00BFE294620
:1028D000204609F007FE2946204609F003FE41463E
:1028E000204609F0FFFD2946204609F0FBFD53492B
:1028F000204609F0F7FD5249204609F0F3FD514901
:10290000204609F0EFFD5049204609F0EBFD314625
:10291000204609F0E7FD4D49204609F0E3FD4C490A
:10292000204609F0DFFD2946204609F0DBFD494934
:10293000204609F0D7FD3146204609F0D3FD46492F
:10294000204609F0CFFD4549204609F0CBFD294638
:10295000204609F0C7FD4249204609F0C3FD314633
:10296000204609F0BFFD3F49204609F0BBFD3E4926
:10297000204609F0B7FD2946204609F0B3FD41463F
:10298000204609F0AFFD2946204609F0ABFD41463F
:10299000204609F0A7FD2946204609F0A3FD33494A
:1029A000204609F09FFD3249204609F09BFD314940
:1029B000204609F097FD3049204609F093FD2F4944
:1029C000204609F08FFD2E49204609F08BFD2D4948
:1029D000204609F087FD2946204609F083FD2A4953
:1029E000204609F07FFD2949204603B0BDE8F04F9D
:1029F00009F078BD5E6703006C670300D2670300CF
:102A0000DF670300206A0300F86703002F680300F4
:102A1000666803008E680300B6680300C56803009B
:102A2000D1680300DF680300ED680300AD5E0300BA
:102A3000C75E03004469030073690300A4690300CF
:102A4000D4690300026A0300096A0300266A0300CE
:102A5000566A0300B26A0300CD6A0300026B0300EA
:102A6000606B03007C6B0300C26B0300FF6B030011
:102A7000496C0300786C0300826C0300B46C0300A3
:102A8000CF6C0300E96C0300F16C0300F96C0300E8
:102A9000392884BF0738C0B2392984BF0739C9B281
:102AA00001F00F0100F00F0041EA00107047000034
:102AB0002DE9F0410C461849184DDFF864800646B0
:102AC00009F0A8FE00272146284609F073FF037885
:102AD000262B1DD02146284609F06CFF0378202BB9
:102AE00016D05FB12146284609F064FF01783046D0
:102AF00009F032FF3146404609F0FEFC21462846E7
:102B000009F058FF03783D2B08BF01270134DAE7AD
:102B10003046BDE8F08100BFD0920300741400205D
:102B2000683300202DE9F04786B0BD49684609F0BA
:102B300071FEBC4903A809F06DFE03A9BA4809F06B
:102B400056FF044603A809F01FFE002C80F2CA823B
:102B50000024B64903A809F05DFE03A9B24809F0B4
:102B600046FF054603A809F00FFE002D47DB294666
:102B700003A8FFF79DFF03A9684609F0C4FE03A858
:102B800009F002FE0021684609F014FF01210578D2
:102B9000684609F00FFF01782846A54DFFF778FF3A
:102BA0002B685B7883422AD00021684609F002FF37
:102BB00001210478684609F0FDFE01782B68204663
:102BC000FFF766FF9B4958709B4809F06EFC2B6825
:102BD000994859780A2209F007FD2B6897485A78D6
:102BE0000121FDF7E9FC0446052009F03FFF002C18
:102BF00040F0B1829249904809F074FC0124914957
:102C000003A809F007FE03A9874809F0F0FE05466E
:102C100003A809F0B9FD002D47DB294603A8FFF7FB
:102C200047FF03A9684609F06EFE03A809F0ACFD52
:102C30000021684609F0BEFE01210578684609F0CA
:102C4000B9FE017828467A4DFFF722FF2B689B7862
:102C500083422AD00021684609F0ACFE01210478A5
:102C6000684609F0A7FE01782B682046FFF710FFA1
:102C700075499870704809F018FC2B686E4899786F
:102C80000A2209F0B1FC2B686C489A780221FDF702
:102C900093FC0446052009F0E9FE002C40F0608218
:102CA0006A49654809F01EFC0124694903A809F036
:102CB000B1FD03A95C4809F09AFE054603A809F096
:102CC00063FD002D47DB294603A8FFF7F1FE03A9AA
:102CD000684609F018FE03A809F056FD0021684671
:102CE00009F068FE01210578684609F063FE017865
:102CF00028464F4DFFF7CCFE2B68DB7883422AD065
:102D00000021684609F056FE01210478684609F062
:102D100051FE01782B682046FFF7BAFE4D49D87066
:102D2000454809F0C2FB2B684348D9780A2209F0CC
:102D30005BFC2B684148DA780321FDF73DFC044633
:102D4000052009F093FE002C40F00F8242493A48DA
:102D500009F0C8FB0124414903A809F05BFD03A960
:102D6000314809F044FE054603A809F00DFD002D89
:102D700047DB294603A8FFF79BFE03A9684609F035
:102D8000C2FD03A809F000FD0021684609F012FE0B
:102D900001210578684609F00DFE01782846244D8A
:102DA000FFF776FE2B681B7983422AD00021684604
:102DB00009F000FE01210478684609F0FBFD017866
:102DC0002B682046FFF764FE254918711A4809F060
:102DD0006CFB2B68184819790A2209F005FC2B684E
:102DE00016481A790421FDF7E7FB0446052009F08F
:102DF0003DFE002C40F0BE811A490F4809F072FBDD
:102E00000124194903A809F005FD03A9064809F0A2
:102E1000EEFD054603A809F0B7FC002D6EDB25E0AA
:102E2000D0920300CD10030074140020151103008C
:102E30000C0200202B11030068330020D812002060
:102E4000441103006C110300821103009B11030065
:102E5000C3110300D9110300F21103001A12030079
:102E6000301203004912030071120300294603A81F
:102E7000FFF71EFE03A9684609F045FD03A809F007
:102E800083FC0021684609F095FD0121057868461C
:102E900009F090FD01782846B94DFFF7F9FD2B6840
:102EA0005B7983422AD00021684609F083FD012125
:102EB0000478684609F07EFD01782B682046FFF70C
:102EC000E7FDB0495871B04809F0EFFA2B68AE48F9
:102ED00059790A2209F088FB2B68AC485A790521F8
:102EE000FDF76AFB0446052009F0C0FD002C40F008
:102EF0007581A749A44809F0F5FA0124A54903A85A
:102F000009F088FC03A9A44809F071FD054603A84F
:102F100009F03AFC002D47DB294603A8FFF7C8FD5E
:102F200003A9684609F0EFFC03A809F02DFC002175
:102F3000684609F03FFD01210578684609F03AFD31
:102F4000017828468E4DFFF7A3FD2B689B798342BD
:102F50002AD00021684609F02DFD01210478684639
:102F600009F028FD01782B682046FFF791FD8B4979
:102F70009871854809F099FA2B68834899790A2253
:102F800009F032FB2B6881489A790621FDF714FB82
:102F90000446052009F06AFD002C40F02481804998
:102FA000794809F09FFA01247E4903A809F032FC10
:102FB00003A9794809F01BFD054603A809F0E4FBC5
:102FC000002D33DB294603A8FFF772FD03A96846ED
:102FD00009F099FC6A4D03A809F0D6FB684609F090
:102FE00009FD2B681B89984220D0684609F002FD34
:102FF0002B686D491881644809F057FA2B686248BC
:1030000019890A2209F0D7FA2B6860481A89082121
:10301000FDF700FB0446052009F028FD002C40F0D8
:10302000E7806249584809F05DFA01240025DFF87D
:10303000A891DFF864A1DFF848812F460C2606FB33
:1030400005963146504609F0D2FC011EC0F2DB80E5
:1030500003A8FFF72DFD03A9684609F054FC03A857
:1030600009F092FB684609F0C5FC2F1DD8F8003026
:103070007F003B449B88984232D0684609F0BAFCF6
:10308000D8F800304A493B4498803F4809F00DFA8F
:1030900031463D4809F00DFA46493B4809F005FA2A
:1030A000D8F8003038483B440A22998809F083FA5E
:1030B000D8F8003035481F44691DBA884900FDF72B
:1030C000A9FA0746052009F0D1FC31462E48002F09
:1030D00040F0938009F0EDF937492B4809F002FAE6
:1030E000012790E0214603A8FFF7E2FC03A9684608
:1030F00009F009FC224C03A809F046FB684609F0D8
:1031000079FC23681B7898423FF422AD684609F0A9
:1031100071FC2368294918701B4809F0C6F9236817
:10312000194819780A2209F05FFA236817481A78B3
:103130000021FDF741FA0446052009F097FC2CB95F
:103140001F49114809F0CEF9012402E51D490E4836
:1031500009F0C8F9FDE41C490B4809F0C3F94EE534
:103160001A49094809F0BEF99FE51949064809F0CE
:10317000B9F9F0E51749044809F0B4F941E600BF90
:103180000C0200208712030068330020D8120020B0
:10319000A0120300C812030074140020DE12030002
:1031A000F71203001F130300291303003D1303004C
:1031B0006B130300E31003004A110300D610030051
:1031C000E9100300FC10030055110300AC110300CB
:1031D000031203005A1203008411002015491648F7
:1031E00009F080F98AE61549134809F07BF9DBE616
:1031F0001349114809F076F918E709F05AF911490D
:103200000D4809F06FF90135072D7FF417AF44EA37
:1032100047040D49084809F048F90A2221460648A2
:1032200009F0C9F9684609F0AFFA204606B0BDE8D2
:10323000F08700BFB11203006833002008130300B9
:10324000511303005B110300701303002DE9F843D1
:103250002C4E2D492D4F044609F027F933680A22D8
:103260001978204609F0BEF92949204609F01DF9D0
:103270002849204609F019F933680A22198920469D
:1032800009F097F92249204609F00FF92249204612
:1032900009F00BF9002533682B4410225978204699
:1032A00009F0A0F9052D03D03946204609F0FDF8B4
:1032B0000135062DEFD11649184FDFF86480DFF88D
:1032C0005090204609F0F1F800250C2101FB057112
:1032D000204609F0EEF84146204609F0E6F833684A
:1032E00003EB45030A229989204609F062F9062D6D
:1032F00003D04946204609F0D8F80135072DE4D11E
:10330000BDE8F8830C0200203D140300A132030045
:103310009A3B0300421403004A1403008411002066
:10332000401403004A6842608A688260CA68C260CA
:10333000034A02600A7C02744A8A4282704700BFD4
:103340005082030013B502AA0024214642F8044D1E
:1033500004230E4806F088FC019959B90C48FDF782
:1033600087F9052009F082FB0A490B4809F0BAF8F1
:1033700002B010BD21461A23084A044806F074FC26
:10338000052009F073FB0649EFE700BF1802002093
:10339000D8120020041503006833002026120020F4
:1033A0001D1503002DE9F3470121092009F0A4FBB5
:1033B0000121092009F0DCFB0121082009F09CFB18
:1033C0000121082009F0D4FB01210A2009F094FB17
:1033D00001210A2009F0CCFBC82009F045FB0A2096
:1033E00004F08AFF414B424D1868424B0093424B18
:1033F000424E5B6801936946013005F015F80121E2
:103400000A2009F0B5FB3E493C4809F06BF800245E
:1034100004F082FF60B929463046013409F062F8B1
:103420000A20E4B209F020FB0A2CF1D1002708E0C1
:1034300004F072FF0328F7D13249304809F052F8FE
:103440000127314E2D4D0A2404F05CFF022833D1B0
:103450003146284609F046F8013C0A2009F004FBF1
:1034600014F0FF04F0D1DFF8B880DFF8B8A0DFF87F
:103470008C900A26404605F005FA404605F01AFAF7
:103480000546F8B95146484609F02CF8013E0A2095
:1034900009F0EAFA16F0FF06ECD11C4EF4B1EFB1D8
:1034A000E5B11B49154809F01DF8336801225A702F
:1034B000284602B0BDE8F0871649104809F012F816
:1034C0000124D0E714490D4808F0EFFF684604F0E6
:1034D000C1FF6946094809F023F8DEE70F490748AC
:1034E00009F000F8336800255D70E1E70C02002068
:1034F000110F03003C8703006C120020683300208A
:10350000FD0E03002F0F0300520F030010020020D6
:10351000AD0F0300720F03009E0F0300C40F0300E2
:10352000A81300208B0F03002DE9F0411C4FDFF89A
:1035300088801C4D0A243A467621404602F0BEFDA2
:10354000064670B91849194808F0CCFF2B6864206A
:103550001E70013C09F088FA14F0FF04EBD1BDE8BD
:10356000F08113491148134C08F0BCFF2B68124836
:10357000256801221A7002F0A5FD28600E48256812
:1035800002F0C2FE68600C4802F0CEFD9FED0B7A9F
:10359000236807EE900AC7EE877AC3ED027ADEE76A
:1035A0009C14002010020020747603006833002071
:1035B0009376030030020020241100200000C8424E
:1035C0000148FCF764BF00BFB813002070B58C0041
:1035D000002605460161C660204619F07FF90023E8
:1035E0002860AE606B600444A04202D040F8043B07
:1035F000FAE7284670BD06EE901A10B5D0E903141C
:1036000083680268A14202EB830223BFD2ED007AF5
:1036100090ED017A37EE677A01312CBF80ED017AA7
:10362000C160C2ED006AD0ED017A013377EEA67A6F
:103630009C4298BF0023C0ED017A836010BD00005A
:103640002DE9F84F9C4F9D4C2DED048B28253E46CF
:103650000DF0EAFD0DF0E8FDD7F84021D7F8443130
:103660009A4240F0E88097F84831002B40F0E38020
:103670000DF0F0FDDFF868820DF0ECFD21684046AA
:10368000FFF7B9FF61688E48FFF7B5FF013DA168FC
:103690008C48FFF7B0FF15F0FF05D9D1D8F80C30F2
:1036A000002B00F0DF8007EE903A98ED017AF8EEFB
:1036B000677AC7EE278A824AD368002B00F0D5804C
:1036C00007EE903A92ED017AF8EE677A87EE278A54
:1036D0007C4AD368002B00F0CB8007EE903A92ED45
:1036E000017AF8EE677A87EE279A774D2C68B4F95D
:1036F0000030AA4607EE903AB7EE007A38EE877AA5
:10370000F8EEE77A67EE877AFDEEE77A17EE903A01
:1037100018B217F097F800226C4B16F047FF18F01C
:10372000BBF817F0A9FB00B217F08CF80022684B29
:1037300016F03CFF17F0A0FBB5EEC09AF1EE10FAC0
:10374000E080C0F29880B4F9023007EE903AF8EECB
:10375000E77A67EE887AFDEEE77A17EE903A18B2CC
:1037600017F070F80022594B16F020FF18F094F86B
:1037700017F082FB00B217F065F8564B002216F0E6
:1037800015FF17F079FB208118EE900A17F06CF8FE
:10379000804618EE100A894617F066F8044619EEBE
:1037A000100A0D4617F060F802460B4617F0B4F801
:1037B000224606460F462B462046294617F0ACF80F
:1037C00032463B4616F0F2FE18F0E6F802460B468B
:1037D0004046494617F0CAF917F0C6FE34A3D3E9AC
:1037E000002317F099F817F08FFBDAF800B0424683
:1037F000CBF80C004B464046494617F08DF8324650
:103800003B4616F0D3FE18F0C7F802460B4620469A
:10381000294617F0ABF917F0A7FE25A3D3E900233B
:1038200017F07AF817F070FBBDEC048BDAF8004063
:103830002061BDE8F88F0DF00DFDD6F8443103F19D
:10384000010C06EB03130FCBBCF1140F84E80F003F
:103850004FF00003C6F844C186F8483108BFC6F8E7
:10386000443107E7DFED1C8A25E79FED1B8A2FE730
:103870009FED199A39E7B4F9043007EE903AF8EE63
:10388000E77A68EE677AFDEEE77A17EE903A18B2BB
:1038900016F0D8FF00220D4B16F088FE17F0FCFF43
:1038A00017F0EAFA00B216F0CDFF00220B4B66E7E4
:1038B000F8C1631ADCA54C40E81A0020141100205E
:1038C0008C120020A0120020140200200000E03F13
:1038D00000006040000031400000000000804B40CC
:1038E000781200202DE9F743644A65491368654F53
:1038F000654D664E01330446136008F0D6FD022084
:1039000009F066F90A220146204608F052FE604995
:10391000204608F0CAFD5F49204608F0C6FD0A228D
:103920003978204608F05EFE5B49204608F0BDFD70
:103930000A222968204608F03CFE5849204608F033
:10394000B4FD3368186816F08FFF4FF00A0802467E
:103950000B46CDF80080204608F014FF5049204661
:1039600008F0A3FD3368586816F07EFFCDF800809C
:1039700002460B46204608F005FF4A4B1B78042BF5
:10398000B946A84602D04848FFF75AFE474F484973
:10399000204608F08AFD3B68D86816F065FF0A25C6
:1039A00002460B460095204608F0ECFE38492046BA
:1039B00008F07BFD3F49204608F077FD3B68186919
:1039C00016F052FF009502460B46204608F0DAFE3C
:1039D0003949204608F069FD3368986816F044FFBD
:1039E00000950B460246204608F0CCFE2449334899
:1039F00008F05BFD022009F0EBF82A4601462F484B
:103A000008F0D7FD22492D4808F04FFD21492B48E9
:103A100008F04BFD2A4699F80010284808F0E2FD0E
:103A20001D49264808F041FD2A46D8F800102348D1
:103A300008F0BFFD1649214808F037FD20491F480E
:103A400008F033FD3368186816F00EFF0095024643
:103A50000B461A4808F096FE1149184808F025FD53
:103A60003368586816F000FF009502460B4613486D
:103A700008F088FE03B0BDE8F08300BF7C11002091
:103A80005414030008020020040200203002002029
:103A90009A3B0300641403006E14030080140300B7
:103AA0008714030024120020D812002014020020E2
:103AB0008E14030098140300A1140300683300203F
:103AC0008114030070B58AB06749684604F012FF9C
:103AD0009DF81030072B43D9002420460AB070BD52
:103AE0000124684604F004FD002800F0BB8068460D
:103AF00004F08EFD0028F4D0684604F09AFDB36807
:103B0000B3F5967FC5B203D22946304608F024FFAC
:103B10000A2D40F0A380002CE2D0694605A8FFF7EB
:103B200001FC05A8FCF740FE504905A808F072FE0C
:103B300005A94F4808F05BFF044605A808F024FEDD
:103B4000002C10DB4B494C4808F0CCFC694605A81A
:103B5000FFF7E8FB05A8FFF779FB0024254634E0D2
:103B60000124434EBDE7454905A808F053FE05A9C9
:103B70003F4808F03CFF044605A808F005FE002C6D
:103B80000BDB3F493C4808F0ADFC694605A8FFF750
:103B9000C9FB05A8FFF7A6FEDFE73A4905A808F02C
:103BA00039FE05A9324808F022FF044605A808F0AE
:103BB000EBFD002C32DB34492F4808F093FC3349ED
:103BC000684608F072FC00240125012008F04CFF33
:103BD000684604F04FFD2E49254808F09CFE2D490B
:103BE000254808F07FFC022008F03EFF002D3FF43E
:103BF00074AF2949204808F075FC00210E2008F018
:103C0000B7FF4FF4FA7008F031FF01210E2008F0E1
:103C1000AFFF012008F028FFFCF7CCFA1F49164837
:103C200008F060FCFEF77EFF1D490446124808F0CC
:103C300059FC1C49104808F038FC2A4621460E4819
:103C400008F0B9FC694605A8FFF76CFB05A804F06D
:103C50000105C4F34004FCF7C7FDB6E70D2D18BFFE
:103C600000243EE7044679E7A81300203B15030033
:103C7000741400204A150300683300205D1503000A
:103C80006C150300851503008F150300A6150300AE
:103C9000D0920300FE1503001D160300A9150300B2
:103CA000BA150300E215030008B5FFF70BFF024B3E
:103CB00000B91878187008BD2C020020F0B56E49C4
:103CC0006E486F4E85B008F0A5FD6E4A6E496B4890
:103CD0000DF0C1FD6D496E4808F09CFD6D496E48C0
:103CE00008F098FD6D496E4808F094FD6D496E48E6
:103CF00008F090FD6D496E4808F08CFD6D496E48E6
:103D000008F088FD6D496E4808F084FD5D4A6D49F4
:103D100000200DF0A0FD6C4B6C4800220024002513
:103D2000C3E904451A605A609A60C3E90645684BC6
:103D30004FF47D421A8044F61F525A804FF61A42C1
:103D40009A80DA229A7140F6B8321A815A81192281
:103D50009A812A22DA8140F2D6721A820A225A8283
:103D60009A824FF4C872DA8206221A83594A0027CF
:103D7000012382F8B53082F8B47001934FF4FA430E
:103D800000932E224FF0FF332F2106F033FD3D4AE2
:103D900051494E480DF05FFD1423A020C6E905737C
:103DA00018F09CFDC6E902453060376100F1A003C0
:103DB000E0E802459842FBD1324A48493048484C35
:103DC0000DF049FD474801F08FFE2E4A464945480F
:103DD0000DF041FD14230093A8220123C021434884
:103DE00008F012FB0A230093A8220123C0214048B7
:103DF00008F00AFB3F4B404A1A60002550225D60E4
:103E00001A813E4B3E48CDE901330E2300934022F8
:103E10003C4B802102F0C8FD1A4A3B4938480DF05E
:103E20001AFD20464FF47A73A360384B656040F862
:103E3000143B08F0E1FA08232821354884F82030A3
:103E4000FFF7C4FB0F4A334931480DF004FD282128
:103E50003148FFF7BBFB0B4A2E492F480DF0FBFC06
:103E600028212E48FFF7B2FB064A2A492B4805B005
:103E7000BDE8F0400DF0EFBCD092030074140020B8
:103E8000B81200200002002089C70100C40E030000
:103E900084110020CC0E030090110020D30E0300EB
:103EA0009C110020DA0E0300A8110020E30E03008D
:103EB000B4110020ED0E0300C0110020F50E030028
:103EC000CC1100200D02010088130020DC1200201C
:103ED00026120020B8130020CD5A01006F02010005
:103EE000F010002024110020FB5A01006C12002069
:103EF0007C130020A8130020AC820300801A060067
:103F0000D81100209C140020096A0100CC82030013
:103F100078120020610201008C120020A012002003
:103F20002DE9F04F1646514A136885B00133834698
:103F300050200D46136008F099FD4D4B029300246C
:103F400001238DF80D308DF80C40019304AB13E97B
:103F50000600484802F06AFAF2B210462146009282
:103F600008F006FE142008F081FDAA21414802F065
:103F700017FA8146142008F079FD59463D4802F0B1
:103F80000FFA4FEA152A8046142008F06FFD5146BB
:103F9000384802F005FAEDB20746142008F066FD35
:103FA0002946344802F0FCF90646142008F05EFD6C
:103FB000019B009A1946104608F0DAFD2D4802F0E0
:103FC0002DFA502008F052FDB8F1190F03D1A9F1D4
:103FD00018035C425C411A2F46D11B2E44D1002CA1
:103FE0003ED02549254808F060FA0A225946234860
:103FF00008F0F8FA2249214808F057FA0A225146F7
:104000001E4808F0EFFA1E491C4808F04EFA0A2232
:1040100029461A4808F0E8FA1A49184808F045FAFB
:104020000A224946154808F0DDFA1549134808F0F8
:104030003CFA0A224146114808F0D4FA10490F48C8
:1040400008F033FA0A2239460C4808F0CBFA0C493A
:104050000A4808F02AFA0A223146084808F0C4FA49
:10406000204605B0BDE8F08F0024F9E7801100205C
:1040700080841E0080140020AA14030068330020EE
:10408000BF140300C3140300F8B504460E461746D8
:1040900097253A4631462046FFF742FF18B9013DC1
:1040A000F7D104F1FA00F8BD2DE9F74F064650208C
:1040B00015460F4608F0DAFC704B009300240123EC
:1040C0008DF805308DF8044002AB13E906006C480A
:1040D000EDB202F0ABF92146284608F049FD142064
:1040E00008F0C4FC0F21664802F05AF983461420F8
:1040F00008F0BCFC3146624802F052F982461420B6
:1041000008F0B4FC21465E4802F04AF981461420CA
:1041100008F0ACFC21465A4802F042F980461420CF
:1041200008F0A4FCBAF1190F03D1ABF118035C42FB
:104130005C41B9F11A0F40F09880B8F11B0F40F0C4
:10414000948084F001044F494F4808F0B7F90A22DF
:1041500031464D4808F046FA4C494B4808F0D6F92C
:104160004B49494808F0AAF90A225946464808F03E
:1041700039FA4849444808F0A1F90A225146424810
:1041800008F030FA4349404808F098F90A224946B5
:104190003D4808F027FA3F493B4808F08FF90A22CA
:1041A0004146394808F020FA502008F05FFC1821F9
:1041B000334802F0F5F88346142008F057FC192123
:1041C0002F4802F0EDF88246142008F04FFC1A2127
:1041D0002B4802F0E5F88146142008F047FC1B212B
:1041E000274802F0DDF88046142008F03FFC01214A
:1041F000284608F0BDFC224802F010F9502008F0D3
:1042000035FC2549204808F081F924491E4808F06A
:1042100055F90A2259461C4808F0E4F91D491A4884
:1042200008F04CF90A225146174808F0DBF9194901
:10423000154808F043F90A224946134808F0D2F914
:104240001449114808F03AF90A2241460E4808F08C
:10425000CBF9BBF1F00F03D1B24501D1012C06D14E
:104260000020388003B0BDE8F08F01246BE748EAF6
:104270000928A7F800800120F4E700BF80841E0011
:1042800080140020E413030068330020F9130300B6
:1042900000140300BF140300101403002D140300C6
:1042A000F8B504460E46174697253A46314620464D
:1042B000FFF7FAFE18B9013DF7D104F5AF70F8BD6C
:1042C0002DE9F3470024DFF8DC80DFF8DC90304D87
:1042D000ADF806402646271D7F00D8F800303B4445
:1042E0005FFA84FA092299885046FFF7CDFEC8B3D9
:1042F0004946284608F0E2F80A222146284608F0F6
:1043000058F92449284608F0D9F8D8F800303B4439
:104310000A229988284608F04EF909220DF1060173
:104320005046FFF7BDFFE8B11B49284608F0C6F824
:104330000A222146284608F03CF91649284608F08A
:10434000BDF80A22BDF80610284608F032F9D8F860
:1043500000303B449A88BDF806309A4209D00136B5
:10436000952EBADD0134072CB5D1304602B0BDE838
:10437000F0870A49284608F0A1F80A222146284673
:1043800008F017F90649284608F0C0F80026E9E7C2
:1043900068330020A5130300AE130300BF1303000E
:1043A000D51303000C0200208D13030073B51E4CBF
:1043B000237883B11D491E481E4D08F093F8FFF77E
:1043C0007FFF1D4928601A4808F06FF80A22296803
:1043D000174808F0F0F8194E327802B32378F3B991
:1043E0000220ADF8063008F0F3FBB0B9962509229B
:1043F0000DF106010B20FFF757FE28B9013DF6D15C
:104400004FF45F43ADF80630BDF806100C4B08487A
:10441000090A0A22197008F0E7F800233370002314
:10442000237002B070BD00BF2C020020671603008D
:1044300068330020040200207A160300B413002021
:10444000080200202DE9F04F85B09A469DF83830DB
:1044500002939DF8403003930125102390460022DB
:10446000CDE90035064680231E48DDF83C909DF8D6
:1044700044B01C4C0F46114602F0DBFF2F23009383
:104480000195802311220021164802F0D2FFBBF1D2
:10449000000F0DD02823112240212046009502F064
:1044A00012FE0095802337220021204602F0E4FD11
:1044B00051460C4803F03AFC029B7BB14FF4803329
:1044C000636101230F93039B0E9342464B4639468B
:1044D000304605B0BDE8F04FFCF71AB94FF00113B4
:1044E000EEE700BFD81100202DE9F0438046A1B0CF
:1044F0008548854D02F097FB844B1F78844B1D93B4
:1045000045F64F13ADF8783000241DAEE3B29F425C
:104510004FF00103315D00934FF03B024FF0020377
:10452000284640F0D08003F0A2F90134062CEDD1EA
:10453000DFF81892744C00230A27CDE90273CDE905
:1045400000390522012316214046FFF77BFF714BFE
:104550001B685B78002B00F0B9806F4B6F4D2361B7
:104560006F49204607F0AAFF6E4B23612B683A463D
:104570001978204608F036F86B4B23616B492046CA
:1045800007F09CFF6A4B23616A49304608F042F904
:104590002B6819783A4614311AA808F06BF91AA951
:1045A000304608F0E6F9014605A808F0A2F91AA875
:1045B00008F0EAF8304608F0E7F805A9204607F0C9
:1045C00078FF5D4B23615D49204607F077FF5C4B28
:1045D00023612B68102259780BA808F03AF90BA92F
:1045E0000EA808F086F957490EA808F0CEF92B68F6
:1045F00010229978074611A808F02BF911A938461E
:1046000008F0B7F94F4908F0C0F92B681022D978A3
:10461000074614A808F01DF914A9384608F0A9F9AE
:10462000484908F0B2F92B6810221979074617A8F3
:1046300008F00FF917A9384608F09BF9414908F02E
:10464000A4F92B681022597907461AA808F001F935
:104650001AA9384608F08DF93A4908F096F92B68FE
:10466000102299790746304608F0F3F8314638466B
:1046700008F07FF9014608A808F03BF9304608F039
:1046800083F81AA808F080F817A808F07DF814A895
:1046900008F07AF811A808F077F80EA808F074F876
:1046A0000BA808F071F808A9204607F002FF08A837
:1046B00008F06AF805A808F067F8134802F02AFD28
:1046C00021B0BDE8F08302F05FFF2EE70125132340
:1046D000CDE901351223009316221B4B20463721CA
:1046E00003F0F2F82946204603F020FB4FF00113B7
:1046F00063611A23009301954B462B2211214046FA
:10470000FCF706F8D9E700BFD811002024120020DA
:1047100027313B4510020020050014000C02002048
:10472000E57303003200140005001E00EE73030061
:1047300032001E002276030005002700F7730300F5
:1047400005003000A1320300D86D0300007503009E
:104750002DE9F043054687B05D485D4F02F063FAEE
:104760005C4B93F800805C4B049345F64F13ADF817
:10477000143000240DF110090126E3B2984519F810
:10478000041000964FF002034FF03B02384640F011
:10479000868003F06CF80134062CEED100230B2246
:1047A000CDE902234D4A2846CDE9003219210123E3
:1047B0000522FFF747FE032008F00AFA002871D10E
:1047C000072008F005FA00286CD1414C444B454DB8
:1047D00023614549204607F071FE444B23612B6855
:1047E0000A229989204607F0E4FE414B23614149A2
:1047F000204607F063FE404B23612B680A22D989CB
:10480000204607F0D6FE3D4B23613D49204607F088
:1048100055FE3C4B23612B680A22198B204607F07A
:10482000C8FE394B23613949204607F047FE384B13
:1048300023612B680A22D98A204607F0BAFE354B3D
:1048400023613549204607F039FE344B23612B683C
:104850000A22998A204607F0ACFE314B2361314988
:10486000204607F02BFE304B23612B680A22598A21
:10487000204607F09EFE2D4B23612D49204607F070
:104880001DFE2C4B23612B680A22198A204607F053
:1048900090FE0F4807B0BDE8F04302F03BBC02F0C9
:1048A00073FE78E701241323CDE90134122300932A
:1048B0001622214B0648372103F006F80423009303
:1048C0000194064B2B2219212846FBF721FFE0E734
:1048D000D81100202412002027313B450075030029
:1048E000030013000C020020487403002D00130085
:1048F00040001300507403006C00130003001D00FF
:10490000767403002D001D0040001D006F7403002D
:1049100066001D0003002700677403002D002700B8
:1049200040002700607403006C0027000300310082
:10493000587403002D003100D86D03002DE9F04FAD
:10494000064689B07748774F02F06DF9764B93F8B9
:104950000080764B069345F64F13ADF81C300024CB
:104960000DF118090125E3B2984519F804100095D6
:104970004FF002034FF03B02384640F0A98002F0AE
:1049800076FF0134062CEED1694F00252B2401233C
:10499000052219213046CDE90245CDE90057FFF740
:1049A00051FD022008F014F9012840F0A4805D4E6A
:1049B000029017231522CDE9003203215D4BDFF869
:1049C000ACB1DFF8AC911422304602F07DFF022139
:1049D000304603F0ABF9584B3361584C08F032F8CD
:1049E0002368CBF80000C01A132836D908F02AF83B
:1049F00020605348534C05F0E1FE534B804618604D
:104A0000D9F80000514BA8EB000043F8250015F041
:104A100009FFD4E9053A5345CDE904015BD20133DE
:104A20006361276923689DED047B03EBC70383ED76
:104A3000007B53EC172BD4E9020115F0B7FD0137C9
:104A4000BA45C4E9020198BF002305F101058CBFF6
:104A500027612361C9F80080EDB2132DBDD9394B10
:104A60005C69002C44D0D3E9020116F04DFA07EE40
:104A7000904A07EE100AF8EE677A87EE277A344BF1
:104A80001C6817EE100A15F0EFFE0022C4E90401BD
:104A9000304B16F06BF800222F4B15F03DFF0B4604
:104AA0000246C4E90623022400941E4807F06AFE69
:104AB00021461C4803F03AF9284B3361284919482C
:104AC00007F0FCFC174809B0BDE8F04F02F022BB2C
:104AD00002F05AFD55E72269236803EBC203D3E9CC
:104AE0000023D4E9020115F05FFDC4E9020198E753
:104AF0009FED1C7AC3E701251323CDE9013512236D
:104B000000931622184B0748372102F0DDFE2D23B3
:104B1000009301953B46224619213046FBF7F8FDEC
:104B2000D0E700BFD81100202412002027313B45D8
:104B300000750300847203001E002200E4100020B0
:104B4000DC120020B8120020DC1000208C100020A5
:104B500030020020000034400000D03F500022000E
:104B60006A76030000000000D86D0300E01000200A
:104B7000E81000202DE9FF412A4C2B4F012540234E
:104B8000CDE9013580230646052200210093204609
:104B9000264B02F099FE204602F0BCFA40F2DC50AF
:104BA00007F062FF204602F03EF84FF000080623AF
:104BB000CDE9023805222B463046CDE90087172182
:104BC000FFF740FC2946204603F0B0F84FF00113F0
:104BD0006361CDE900853B4630461E222321FBF769
:104BE00097FD3B462822CDE900552A213046104D3D
:104BF000FBF78EFD204602F08DFA0E49284607F09D
:104C000071FC0D49284607F06DFC40F2DC5007F0BE
:104C10002BFF204602F007F8204604B0BDE8F04123
:104C200002F078BAD811002000750300116E03005D
:104C30006833002057760300627603002DE9F043C5
:104C4000484EDFF83881DFF82C91474C85B00023BF
:104C50000622CDE90223CDE90036052201231721E2
:104C60000746FFF7EFFB03230122CDE900321121B4
:104C7000334624223846FBF74BFD3B4802F04AFA04
:104C800040F2DC5007F0F0FE072007F0A1FF58B318
:104C90004146484607F026FC204601F0C4FF0125A6
:104CA0001323CDE901351223009320462F4B162202
:104CB000372102F009FE00230622CDE90223CDE9C7
:104CC000003638462B4605221721FFF7BBFB04238D
:104CD000009338460195234B2B221921FBF718FD31
:104CE000204602F017FACFE7032007F071FF0546D0
:104CF0000028CDD11E491F4807F0F4FB1A4801F0E7
:104D000092FF01241123CDE90134122300931722CD
:104D1000194B1548372102F0D7FD0623CDE9016371
:104D2000384623460395009505221721FFF78AFB95
:104D300005232B221421009338460A4B0194FBF7DC
:104D4000E7FC094802F0E6F940F2DC5007F08CFE7F
:104D5000054801F068FF044805B0BDE8F04302F0E3
:104D6000D9B900BF00750300D8110020D86D030029
:104D70004176030068330020A56D03002D76030003
:104D80002DE9F04F4D4F4E4DDFF84C9185B04FF06F
:104D900000084FF0060A012305221721CDE902A8D9
:104DA000CDE9008704460126FFF74CFB132324229C
:104DB0001121CDE9003620463B46FBF7A9FC2846E9
:104DC00002F0A8F940F2DC5007F04EFE2046FEF754
:104DD000ABFB2046D9F800B0FBF75AFC8BF8040077
:104DE000284601F020FF33460522CDE902A8CDE98F
:104DF000008717212046FFF725FBD9F800301A78E5
:104E0000A946002A35D093F80480B8F1000F30D0BD
:104E10002C492D4807F066FB4FF011091223172289
:104E2000CDE900393721294B0296284602F04CFD86
:104E30003146284602F07AFF4FF001136B611423CC
:104E4000009301963B462B2249462046FBF760FC27
:104E50001B4802F05FF940F2DC5007F005FE1848ED
:104E600001F0E1FE164802F055F9404605B0BDE8F4
:104E7000F08F1749144807F035FB01251323CDE9BE
:104E800001351223162200933721124B0C4802F0F1
:104E90001BFD29460A4802F049FF4FF00113C9F8EB
:104EA0001430152300930195044B2B221121204629
:104EB000FBF72EFC4FF00008CAE700BF00750300A7
:104EC000D8110020C075030068330020A56D0300D1
:104ED000D3750300D86D0300100200202DE9F043C4
:104EE000394E3A4D85B04FF000084FF00609CDE934
:104EF0000298CDE9008601230522172107460124E7
:104F0000FFF7A0FA1B2324221121CDE900343846F3
:104F10003346FBF7FDFB284602F0FCF840F2DC507C
:104F200007F0A2FD284601F07EFECDE90298CDE90A
:104F300000862346052217213846FFF783FAFEF73D
:104F400031FA804630B32249224807F0CBFA4FF0BD
:104F500011091223CDE9003917221F4B0294372182
:104F6000284602F0B1FC2146284602F0DFFE4FF051
:104F700001136B6101941C2300932B2233461121F2
:104F80003846FBF7C5FB114802F0C4F8404605B0AF
:104F9000BDE8F08311490F4807F0A4FA1223132249
:104FA000CDE9003237210E4B02941622284602F03A
:104FB0008BFC2146284602F0B9FE4FF001136B61CD
:104FC00001941D23D8E700BF00750300D81100200D
:104FD000F475030068330020A56D03000C76030010
:104FE000D86D03002DE9F043074687B05548554E6C
:104FF00001F019FE544B93F80080544B049345F68E
:105000004F13ADF8143000240DF110090125E3B25F
:10501000984519F8041000954FF002034FF03B0239
:10502000304671D102F023FC0134062CEFD100236D
:105030000722CDE90223464A464D424CCDE90032D3
:105040001721012305223846FFF7FCF92B689B78CE
:105050007BB901232377404B23612821204602F0AE
:10506000DBFD2121204602F0D7FD2921204602F058
:10507000D3FD3A4B23613A4932483A4E07F01EFAC3
:10508000394B236139492F4807F018FA384B23610F
:1050900038492C4807F012FA2B682A485B7901211D
:1050A000002B34D002F042FE4FF4803332492661A7
:1050B0006361244807F002FA2B6822489B792F4D40
:1050C000012163B302F032FE4FF480332A49256197
:1050D00063611C482A4D07F0F1F9022007F078FDC2
:1050E0000128014623D1174802F020FE4FF48033F7
:1050F000244925616361134807F0E0F9114807B0BE
:10510000BDE8F04302F006B802F03EFA8CE702F088
:105110000DFE4FF48033266163611B49C9E702F03D
:1051200005FE4FF48033256163611749D1E7012102
:10513000044802F0FBFD4FF480332561636113499D
:10514000D9E700BFD81100202412002027313B45A9
:1051500000750300100200206C000500050014001B
:1051600076730300500014000500210083730300D0
:1051700005002E00907303009F7303005000210070
:1051800050002E00A57303009C730300A873030056
:105190002DE9F043064687B05448544F01F043FDD3
:1051A000534B93F80080534B049345F64F13ADF8DF
:1051B000143000240DF110090125E3B2984519F8C7
:1051C000041000954FF002034FF03B0238466FD1B8
:1051D00002F04DFB0134062CEFD100230822464F8C
:1051E000424CCDE902230522CDE9003711460123C7
:1051F0003046FFF727F9414B1B681B7801250295C4
:10520000002B58D01026CDE900663D4BDFF8108109
:1052100016220A21204602F057FB2722394B00961E
:10522000CDE901650A21204602F04EFB022120460D
:1052300002F07CFD344B4FF00116C4E90436D8F877
:105240000030186815F010FB022702460B46009745
:10525000204607F097FA2D4B2361D8F800305868A4
:1052600015F002FB009702460B46204607F08AFA2B
:1052700029462046257702F059FD254BA721C4E990
:105280000436204602F0C8FC2249204607F016F9F1
:105290004321204602F0C0FC1F4B236125212046FC
:1052A00002F0BAFC114807B0BDE8F04301F032BF8C
:1052B00002F06AF98EE712231322CDE9003220466C
:1052C000164B1622372102F0FFFA2946204602F03B
:1052D0002DFD4FF0011363611623009301953B46AA
:1052E0002B2211213046FBF713FADBE7D8110020FF
:1052F0002412002027313B450075030010020020D6
:1053000011720300317203002300160023002700EE
:1053100061001600D092030061002700D86D0300E1
:10532000300200202DE9F043074687B04D484D4D2F
:1053300001F079FC4C4B93F800804C4B049345F6FC
:105340004F13ADF8143000260DF110090124F3B20B
:10535000984519F8061000944FF002034FF03B02F5
:1053600028467BD102F083FA0136062EEFD10125C3
:105370000923CDE902353E4B01930023394C0093BC
:1053800038462B4605222321FFF75CF811232577A9
:105390001322CDE900331821364B0295204602F046
:1053A00093FA3846FEF74CF93346334E00952046C3
:1053B0002422602102F0E8F83368B3F90820B3F939
:1053C00006100095322AA8BF32227A29A8BF7A2176
:1053D000162AB8BF16224529B8BF45212046042306
:1053E00002F045FA254B2361E921204602F014FC26
:1053F0002349204607F062F8224B23613368D868BE
:1054000015F032FA009502460B46204607F0BAF92D
:105410001D4B2361A721204602F0FEFB1B4B23619D
:10542000E921204602F0F8FB1949204607F046F82A
:105430003368186915F018FA009502460B462046A5
:1054400007F0A0F9134B2361A721204602F0E4FBEB
:10545000204607B0BDE8F04301F05CBE02F094F8CE
:1054600082E700BFD81100202412002027313B45DD
:105470000075030051720300140200200400240090
:105480006E760300160024003700240004002E006E
:105490007176030037002E0038B5354A354B117848
:1054A0001878354C884211D13448007870B1344DA9
:1054B0002B7803BB07F0C6FA324B1B6803F5922327
:1054C00003F5787398421AD9012317E018788142BE
:1054D00002D12A48007890B1187881420FD01B7809
:1054E0001370264B1B789BB12378042B94BF013398
:1054F0000023237003E00623237000232B702378FE
:10550000072B30D8DFE803F0060B10151A1F242AEA
:105510000723EEE71C48BDE83840FFF763BD1A4893
:10552000BDE83840FFF714B91748BDE83840FFF729
:1055300005BA1548BDE83840FEF7D6BF1248BDE8A9
:105540003840FFF7EFBE1048BDE83840FFF720BEF7
:105550000D48FBF70DF90823237038BD0A48FBF707
:1055600015F90023F8E70120BDE8384007F07EBABE
:1055700079130020701400202412002078130020DA
:10558000EC10002074120020D81200202DE9F04108
:105590002148214FDFF89880204D01F019F820496B
:1055A0001D4801F074F832243A465021404604F078
:1055B00046FB064670B91B491B4806F093FF2B6853
:1055C0000520DE70013C07F04FFA14F0FF04EBD128
:1055D000BDE8F0811549144806F084FF2B68144893
:1055E0000122DA704FF4FA3104F038FB80211048C0
:1055F00004F036FB03210E4804F034FB0D490A4841
:1056000006F053FF0A4804F007FB0A220146BDE8F2
:10561000F041054806F0F2BF9C1400201002002063
:10562000801A06005F10030068330020801003001A
:10563000180200208F1003002DE9FF415049514806
:1056400006F050FFFFF7A2FF4F4B1B68DB78002BE3
:1056500000F08C804D4C4E4E4A4FDFF84C81FDF7E8
:1056600071FE22681378118919441433DBB2518119
:1056700002A8A8220093C021012306F0C5FE039BC7
:1056800044494048736006F02DFF43493D4806F009
:1056900029FF42493B4806F011FF23683948197831
:1056A0000A2206F0A1FF3E49364806F0FEFE00251C
:1056B00073190A221979384606F094FF032D03D096
:1056C0004146384606F0F1FE0135042DF0D135494A
:1056D0002C482C4E344F06F019FF3449294806F067
:1056E000EDFE002523682B4410225978304606F041
:1056F00079FF052D03D03946304606F0DFFE01352F
:10570000062DEFD127491F48DFF8B4801D4E284FE2
:1057100006F0FCFE27491B4806F0D0FE2368194816
:1057200019890A2206F047FF2349164806F0C6FEEB
:105730002368144859890A2206F03DFF00250C21F0
:1057400001FB0581304606F0B4FE3946304606F0CE
:10575000B5FE236803EB45030A22998930460135DB
:1057600006F029FF072DEAD1002005E0134905487E
:1057700006F0B8FE4FF0FF3004B0BDE8F08100BF86
:10578000016D030068330020100200200C0200208D
:105790006C120020206D0300306D0300406D03008B
:1057A0004B6D0300D0920300A1320300566D03003D
:1057B000E3100300646D0300706D03007D6D030052
:1057C000841100202DE9F0433B4F3C4E85B000256D
:1057D0004FF00609012305221721CDE90295CDE9F5
:1057E000005780460124FEF72DFE25232422112197
:1057F000CDE9003440463B46FAF78AFF304601F0D7
:1058000089FC40F2DC5007F02FF9304601F00BFA2A
:105810002346052217214046CDE90295CDE90057E0
:10582000FEF710FEFFF708FF1223029448BB112574
:105830001722CDE900353721214B304602F044F8DC
:105840002146304602F072FA4FF0011373612723AC
:10585000009301943B462B2229464046FAF758FF15
:10586000164801F057FC40F2DC5007F0FDF81348F1
:1058700001F0D9F9114801F04DFC204605B0BDE812
:10588000F0831322CDE9003237210E4B1622304629
:1058900002F01AF82146304602F048FA4FF00113A0
:1058A00073612823019400932B223B46112140462B
:1058B000FAF72EFF2C46D3E700750300D81100201D
:1058C000A56D0300D86D0300F7B54FF4E1316448CE
:1058D000644F654D654E06F00FFC6549654806F05E
:1058E00001FE4FF4FA7007F0BFF80221052007F01F
:1058F00003F901210E2007F0FFF80221072007F02D
:10590000FBF8C82007F0B0F801210E2007F030F9AD
:105910005949584806F0E6FD4FF4FA7007F0A4F82C
:105920000124009423463D220221384601F088F9E3
:1059300028B931464F4806F0D5FD2C70F0E700231A
:105940002B704E4B4E494B481C7006F0CBFD4FF46C
:105950007A7007F089F8434801F065F9414801F091
:10596000D9FB4848FFF706F94648FFF767F945486D
:10597000FFF728FF04464348FFF702FA054641486F
:10598000FFF7ACFA002D68D0002808BF00243E4B7A
:105990001B684FF4FA709C7007F066F83B49354875
:1059A00006F0A0FD4FF4FA7007F05EF803223849C4
:1059B000052005F099FA37492E4806F093FD4FF47B
:1059C000FA7007F051F800230A2233493348FAF7F6
:1059D000EAFD0123142232493048FAF7E4FD02239C
:1059E0004FF4FA622F492D48FAF7DDFD03232E4AC2
:1059F0002E492A48FAF7D7FD012332222C4927489D
:105A0000FAF7D1FD032341F288322A492348FAF7F5
:105A1000CAFD03234EF6602227492048FAF7C3FD4A
:105A20000323214A25491D48FAF7BDFD03231E4AD9
:105A300023491A48FAF7B7FD0A4801F0F4F8094873
:105A400001F068FB06F0FEFF1E4B1F491860094875
:105A500003B0BDE8F04006F045BD2C4697E700BF17
:105A600030320020D811002040120020C1760300FF
:105A70009F76030068330020AD7603007813002082
:105A8000DB760300D812002010020020EA76030023
:105A90007D02010003770300AD430100B81300202D
:105AA000A93C0100E101010080EE3600E90201009D
:105AB000995401005903010029020100E10301008A
:105AC000A9020100741200201C77030010B50446DF
:105AD0005C3007F023FE04F1300007F01FFE201DAC
