:020000021000EC
:1000000000000420C54E0200FD4E0200510C02000B
:10001000014F02005D0C0200630C020000000000B2
:10002000000000000000000000000000F1240200B9
:10003000094F0200000000008925020099250200F6
:10004000A1910200350002000F4F02000F4F020085
:100050000F4F02000F4F02000F4F02000F4F020020
:100060000F4F02000F4F02000F4F02000F4F020010
:100070000F4F0200359302000F4F02004D000200A7
:100080000F4F02000F4F02000F4F02000F4F0200F0
:100090000F4F02000F4F02000F4F02000F4F0200E0
:1000A0000F4F02000F4F02000F4F02000F4F0200D0
:1000B0000F4F020021AB0100000000000000000013
:1000C0000F4F02000F4F02000F4F02000F4F0200B0
:1000D0000F4F02000F4F02000F4F02000F4F0200A0
:1000E0000F4F02000F4F02000F4F020000000000F0
:1000F000000000000F4F0200000000000F4F020040
:1001000010B5054C237833B9044B13B10448AFF351
:1001100000800123237010BD70100020000000003B
:10012000F4A2030008B5034B1BB103490348AFF326
:10013000008008BD0000000074100020F4A203003D
:10014000154B002B08BF134B9D46A3F5803A0021A9
:100150008B460F461348144A121A1CF0F1FF0F4B3E
:10016000002B00D098470E4B002B00D09847002062
:10017000002104000D000D48002802D00C4811F0A9
:1001800053FB1CF0E7FA2000290012F009F811F0E7
:1001900048FB00BF00000800000004200000000031
:1001A000FD2002007010002088CE002029180200D7
:1001B0000000000070470020704770477047000043
:1001C000014B01221A7070474C140020D0E9003016
:1001D0001847000008B50CF019FC044B1860044BDC
:1001E0001A68D37983F00103D37108BD041300208A
:1001F0001002002008B50446204609F0BBFFFBE7CB
:100200000B6803604B6843608B6883607047000035
:10021000094B1B681A785AB15A784AB1DA783AB160
:100220001A792AB1012205499A7005480CF03EB9A5
:1002300000229A700349F8E71002002063100300BF
:10024000FC3300206F10030008B5104910480CF073
:1002500041F900210E200CF06FFC4FF4FA700CF005
:10026000E9FB01210E200CF067FC01200CF0E0FB03
:10027000BFF34F8F0749084BCA6802F4E06213438B
:10028000CB60BFF34F8F00BFFDE700BF8D6C030055
:10029000FC33002000ED00E00400FA05014805F001
:1002A00068BF00BF7C11002038B5054CA4F154058F
:1002B00020460C3C0CF04CFAAC42F9D138BD00BFE2
:1002C0006012002010B5044600681CF0F3FA2046C6
:1002D00010BD10B5044600681CF0ECFA204610BDB5
:1002E00038B50A480A4C0AF010FB054630B90949EE
:1002F00009480CF0DBF823681D7138BD0749064832
:100300000CF0D4F8236801221A71F6E7782B00204C
:100310001002002070150300FC330020811503003B
:1003200010B508F051F90128044619D1144808F015
:1003300023FCA8B1134B14491B6814485C700CF0E3
:10034000B5F808F041F9022805D008F03DF9012878
:1003500001D008F039F90A48BDE8104008F00CBC9B
:1003600008F032F9022804D1064B1B6800225A70AB
:10037000E7E7034808F000FC0028F5D010BD00BFF7
:10038000401400201002002081100300FC330020E4
:1003900038B51A4C1A48256806F0A0FA28601848A3
:1003A000256806F0BDFB6860154806F0C9FA9FEDA8
:1003B000157A2368144A07EE900AC7EE877AC3EDD0
:1003C000027AD3ED007AF5EEC07AF1EE10FA0FDD85
:1003D000D3ED017AF5EEC07AF1EE10FA08DD13687C
:1003E0000A4901221A700A48BDE838400CF05EB88C
:1003F0001368084900221A70F5E700BF3002002098
:10040000241100200000C84210020020A40F0300A5
:10041000FC330020B20F030038B550210A480B4CC2
:1004200009F05EFD054630B909490A480CF03EF86E
:100430002368DD7038BD084906480CF037F823689A
:100440000122DA70F6E700BF180200201002002037
:10045000BA130300FC330020DF130300F0B590F85B
:10046000B46000234FF0140CDCB2A6420BD90CFB95
:1004700003F41D4607598F4203D104446468944233
:1004800003D00133F0E74FF0FF352846F0BD0029D7
:1004900010B5044615DB90F8B430994211DA1422F5
:1004A00002FB01F05B1A013B811821445A432044AE
:1004B0001CF0E2FD94F8B430013B84F8B430012024
:1004C00010BD0020FCE72DE9F84306460CF09EFA2B
:1004D0000024142796F8B430A3422DD907FB0463F7
:1004E000D3E90212851A8D4218D304EB840006EB7F
:1004F00080050A44D5F804901D6956F82080DA601A
:100500007DB90125B9F1000F14DB4846C04796F8C4
:10051000B5308BB90CF07AFA002DDBD00134E4B29F
:10052000D8E7013D1D61002DEBD121463046FFF794
:10053000AEFFE7E7C047EAE7BDE8F8832DE9F843F7
:10054000089F16463A46054689469846FFF786FFB5
:10055000041E2FDA95F8B4409DF824309C4228BF41
:100560001C4695F8B430082B2AD85EB3A3420AD9AA
:10057000142204FB0220A0F114011B1B5A4329443E
:1005800028441CF079FD04EB84039B00EA1845F82D
:100590000390142303FB0454A66057600CF036FA52
:1005A000C4E9030895F8B430013385F8B43001206C
:1005B000BDE8F88321462846FFF769FFE4B2D0E79B
:1005C0000020F5E73046F3E713B59DF8104001949D
:1005D0004FF0FF340094FFF7B1FF02B010BD07B534
:1005E00000930023FFF7F0FF03B05DF804FB000069
:1005F0007FB50023144E8DF807200D468DF80F307F
:10060000322401230DF107022946304609F0F1FC9E
:1006100005200CF00FFA01230DF10F022946304698
:1006200009F084FC9DF80F209DF807309A4209D00C
:100630000520013C0CF0FEF914F0FF04E1D1204646
:1006400004B070BD0120FBE7180200207FB5002335
:10065000144EADF806200D46ADF80E3032240223BC
:100660000DF106022946304609F0C3FC05200CF0C6
:10067000E1F902230DF10E022946304609F056FC3D
:10068000BDF80E20BDF806309A4209D00520013C85
:100690000CF0D0F914F0FF04E1D1204604B070BD95
:1006A0000120FBE71802002008B50548054A1A2377
:1006B00009F09FFC0520BDE808400CF0BBB900BF65
:1006C00018020020BA12002030B5174D85B00A2458
:1006D00028460AF01AF960B90A20013C0CF0AAF980
:1006E00014F0FF04F4D105200CF0A2F9204605B067
:1006F00030BD0E4C204609F0F9FC0D4B03930D4B19
:100700006946CDE9003404F5A8700023029314F083
:100710000BF8039B13B19B6868469847064B074A42
:100720001B6801241A60DEE7782B00207C1B002068
:10073000780E0300F501010014020020E0FFEDFF38
:1007400038B50C4D0C4C0D4928460BF0AFFE204639
:1007500005F0E8FC20460A4905F072FD204641F20A
:100760008831084A05F06EFD28460749BDE8384043
:100770000BF0B0BEFC3300207C110020C4740300D9
:10078000D501010049020100DD740300F0B587B016
:100790001E469DF834309DF83070134C09B215B2E6
:1007A00003B30DF11603039305AB02930DF112038E
:1007B000019304AB0A46009356F827102B462046B7
:1007C00007F0DCFCBDF814300222C3F1800393FB78
:1007D000F2F3238256F82710034865820BF052FE8D
:1007E00007B0F0BD2182F5E76C12002008B5AE21FC
:1007F000034806F049FB034B00221A7008BD00BFF6
:100800006C1200200814002008B5AF21034806F040
:100810003BFB034B01221A7008BD00BF6C12002085
:100820000814002010B50A4904460BF03FFE0949A0
:1008300020460BF03BFE084920460BF037FE2046D1
:100840000BF02EFE05490648BDE810400BF02EBE09
:10085000D80F0300E80F030000100300121003007C
:10086000FC3300202DE9F74F0446DB49DFF86C84A8
:10087000DFF86CA4D94DDA4FDFF86894DFF868B47C
:10088000D84E0BF013FED84920460BF00FFED74987
:1008900020460BF00BFED64920460BF007FED5494B
:1008A00020460BF003FED44920460BF0FFFDD34950
:1008B00020460BF0FBFDD24920460BF0F7FD4146E8
:1008C00020460BF0F3FDCF4920460BF0EFFDCE495B
:1008D00020460BF0EBFDCD4920460BF0E7FD5146DD
:1008E00020460BF0E3FDCA4920460BF0DFFD294608
:1008F00020460BF0DBFDC74920460BF0D7FD3946FB
:1009000020460BF0D3FDC44920460BF0CFFDC34970
:1009100020460BF0CBFD294620460BF0C7FDC04911
:1009200020460BF0C3FD494620460BF0BFFDBD4BF2
:100930000093194620460BF0B9FD294620460BF0DE
:10094000B5FDB94920460BF0B1FD414620460BF0FC
:10095000ADFDB64920460BF0A9FDB54920460BF088
:10096000A5FDB44920460BF0A1FD594620460BF0E9
:100970009DFD294620460BF099FDAF4920460BF01E
:1009800095FD414620460BF091FDAC4920460BF009
:100990008DFDAB4920460BF089FDAA4920460BF09E
:1009A00085FD314620460BF081FDA74920460BF01E
:1009B0007DFD294620460BF079FDA44920460BF029
:1009C00075FD594620460BF071FD009B20461946E7
:1009D0000BF06CFD514620460BF068FD2946204681
:1009E0000BF064FD9A4920460BF060FD4946204615
:1009F0000BF05CFD9749DFF8F49220460BF056FDB2
:100A0000954920460BF052FD944920460BF04EFDCF
:100A1000494620460BF04AFD914920460BF046FD21
:100A2000314620460BF042FD8E4920460BF03EFD3C
:100A3000294620460BF03AFD8B4920460BF036FD47
:100A4000594620460BF032FD8849DFF8A4B2204613
:100A50000BF02CFD864920460BF028FD85492046E9
:100A60000BF024FD294620460BF020FD824920464C
:100A70000BF01CFD814920460BF018FD80492046F3
:100A80000BF014FD7F4920460BF010FD294620464F
:100A90000BF00CFD7C4920460BF008FD314620464A
:100AA0000BF004FD794920460BF000FD414620463D
:100AB0000BF0FCFC764920460BF0F8FC294620465A
:100AC0000BF0F4FC734920460BF0F0FC3146204655
:100AD0000BF0ECFC514620460BF0E8FC6E49DFF8C9
:100AE00014A220460BF0E2FC6C4920460BF0DEFC21
:100AF000294620460BF0DAFC694920460BF0D6FC6B
:100B0000684920460BF0D2FC674920460BF0CEFC2A
:100B1000294620460BF0CAFC644920460BF0C6FC6F
:100B2000634920460BF0C2FC294620460BF0BEFC70
:100B3000604920460BF0BAFC394620460BF0B6FC63
:100B40005D4920460BF0B2FC5C4920460BF0AEFC40
:100B50005B4920460BF0AAFC294620460BF0A6FC78
:100B6000584920460BF0A2FC314620460BF09EFC73
:100B7000294620460BF09AFC534920460BF096FC80
:100B8000394620460BF092FC514620460BF08EFC75
:100B9000294620460BF08AFC4C4920460BF086FC87
:100BA000314620460BF082FC294620460BF07EFCA5
:100BB000474920460BF07AFC394620460BF076FC7C
:100BC000444920460BF072FC434A019211462046EC
:100BD0000BF06CFC90E000BF881503008416030046
:100BE00093160300A217030098150300A81503002D
:100BF000B9150300C0150300E9150300FC15030037
:100C000004160300161603002216030055160300EF
:100C10006916030086160300A2160300C51603001A
:100C2000EB1603000E170300231703003117030010
:100C300044170300521703006D1703007A170300CF
:100C40008E17030099170300B6170300CB17030094
:100C5000D2170300DC170300ED170300F817030099
:100C60001218030027180300371803004218030066
:100C700054180300671803007B180300881803004A
:100C800096180300B0180300BF180300C81803002B
:100C9000DF180300F0180300FB180300121903000B
:100CA00024190300351903005019030060190300CB
:100CB0006B1903007D1903009A190300B71903008B
:100CC000DC190300EB1903000B1A0300341A0300AC
:100CD000461A03005F1A0300871A03000B1603006D
:100CE00040190300F5160300601703000518030000
:100CF000CB1A03001B1A0300DB4B00931946204656
:100D00000BF0D4FB594620460BF0D0FB2946204679
:100D10000BF0CCFBD54920460BF0C8FBD44920464C
:100D20000BF0C4FBD34920460BF0C0FB31462046F4
:100D30000BF0BCFB294620460BF0B8FBCE49204601
:100D40000BF0B4FB394620460BF0B0FBCB492046F4
:100D50000BF0ACFB019A204611460BF0A7FB009B61
:100D6000204619460BF0A2FB594620460BF09EFB8D
:100D7000294620460BF09AFBC149DFF8ECB3204628
:100D80000BF094FB394620460BF090FB5146204671
:100D90000BF08CFB294620460BF088FBB949DFF8A5
:100DA000CCA3B94F20460BF081FBB84B00931946FA
:100DB00020460BF07BFB594620460BF077FBB449ED
:100DC00020460BF073FB514620460BF06FFB394673
:100DD00020460BF06BFB294620460BF067FBAD4924
:100DE00020460BF063FB009B204619460BF05EFB90
:100DF000594620460BF05AFBA749DFF874B320464A
:100E00000BF054FB514620460BF050FB3946204670
:100E10000BF04CFB294620460BF048FB9F49A04FA6
:100E2000DFF850A320460BF041FB9E4920460BF013
:100E30003DFB9D4920460BF039FB9C4920460BF0B9
:100E400035FB494620460BF031FB994920460BF013
:100E50002DFB294620460BF029FB964920460BF036
:100E600025FB954920460BF021FB314620460BF02F
:100E70001DFB9249924E20460BF018FB414620463E
:100E80000BF014FB8F49DFF8F08220460BF00EFBCD
:100E90008D4920460BF00AFB294620460BF006FB45
:100EA0008A4920460BF002FB894920460BF0FEFAE6
:100EB000884920460BF0FAFA294620460BF0F6FA4C
:100EC000854920460BF0F2FA844920460BF0EEFAF1
:100ED000834920460BF0EAFA294620460BF0E6FA51
:100EE000804920460BF0E2FA7F4920460BF0DEFAFB
:100EF000294620460BF0DAFA7C4920460BF0D6FA58
:100F00007B4920460BF0D2FA7A4920460BF0CEFA04
:100F1000794920460BF0CAFA784920460BF0C6FA08
:100F2000294620460BF0C2FA754920460BF0BEFA5E
:100F3000744920460BF0BAFA734920460BF0B6FA12
:100F4000294620460BF0B2FA704920460BF0AEFA63
:100F50006F4920460BF0AAFA6E4920460BF0A6FA1C
:100F6000294620460BF0A2FA6B4920460BF09EFA68
:100F70006A4920460BF09AFA694920460BF096FA26
:100F8000684920460BF092FA294620460BF08EFA6B
:100F9000654920460BF08AFA644920460BF086FA30
:100FA000634920460BF082FA624920460BF07EFA34
:100FB000294620460BF07AFA5F4920460BF076FA74
:100FC000314620460BF072FA294620460BF06EFAA5
:100FD0005A4920460BF06AFA594920460BF066FA46
:100FE000294620460BF062FA564920460BF05EFA7D
:100FF000554920460BF05AFA294620460BF056FA7E
:10100000524920460BF052FA314620460BF04EFA78
:10101000294620460BF04AFA4D4920460BF046FA85
:101020004C4920460BF042FA294620460BF03EFA86
:10103000494920460BF03AFA314620460BF036FA81
:10104000294620460BF032FA444920460BF02EFA8E
:10105000434920460BF02AFA424920460BF026FA73
:10106000314620468AE000BFAC1A0300DA1A0300BA
:10107000F71A03000A1B03001C1B0300361B0300A6
:101080005E1B03006F1B0300C41B03007C1B0300DB
:10109000971B0300DB1B0300E61B0300FD1B030083
:1010A000DD2B03000E1C0300231C0300351C030072
:1010B000501C0300651C0300F61C0300781C030091
:1010C000271F0300931C0300A31C0300B81C03008C
:1010D000CC1C030050190300E71C0300FB1C030099
:1010E000111D03002A1D0300391D03004B1D0300C1
:1010F0006B1D03007C1D03009E1D0300A81D030043
:10110000B51D0300C11D0300E91D0300FE1D030002
:101110000B1E0300331E0300471E03005D1E030069
:101120008B1E0300A01E0300C51E0300DE1E03006D
:10113000F11E0300061F03001C1F0300341F0300E1
:101140003F1F03004C1F0300581F0300661F0300CE
:10115000721F03007F1F03008C1F0300971F0300F3
:101160009F1F0300A81F03008A1B0300B01B03007E
:1011700093380300F93903006F2B03000BF096F945
:10118000294620460BF092F9D449D54E20460BF063
:101190008DF9D44920460BF089F9294620460BF0F9
:1011A00085F9D14920460BF081F9D04920460BF052
:1011B0007DF9CF4920460BF079F9CE4920460BF056
:1011C00075F9CD4920460BF071F9494620460BF0E0
:1011D0006DF9CA49DFF84C9420460BF067F92946AF
:1011E00020460BF063F9C64920460BF05FF9C5496C
:1011F00020460BF05BF9C44920460BF057F9C34970
:1012000020460BF053F9C24920460BF04FF9C14973
:1012100020460BF04BF9C04920460BF047F9BF4977
:1012200020460BF043F9BE4920460BF03FF9BD497B
:1012300020460BF03BF9BC4920460BF037F9BB497F
:1012400020460BF033F9BA4920460BF02FF9B94983
:1012500020460BF02BF9B84920460BF027F9B74987
:1012600020460BF023F9B64920460BF01FF9B5498B
:1012700020460BF01BF9B44920460BF017F9B3498F
:1012800020460BF013F9B24920460BF00FF9B14993
:1012900020460BF00BF9B04920460BF007F9AF4997
:1012A00020460BF003F9AE4920460BF0FFF8AD499C
:1012B00020460BF0FBF8294620460BF0F7F8AA4928
:1012C00020460BF0F3F8A94920460BF0EFF8A849A7
:1012D00020460BF0EBF8A74920460BF0E7F8A649AB
:1012E00020460BF0E3F8A54920460BF0DFF8A449AF
:1012F00020460BF0DBF8A34920460BF0D7F849460F
:1013000020460BF0D3F8A04920460BF0CFF89F49B8
:1013100020460BF0CBF89E4920460BF0C7F89D49BC
:1013200020460BF0C3F89C4920460BF0BFF89B49C0
:1013300020460BF0BBF89A4920460BF0B7F89949C4
:1013400020460BF0B3F8984920460BF0AFF89749C8
:1013500020460BF0ABF8964920460BF0A7F89549CC
:1013600020460BF0A3F8944920460BF09FF89349D0
:1013700020460BF09BF8924920460BF097F8314637
:1013800020460BF093F88F4920460BF08FF88E49DA
:1013900020460BF08BF88D4920460BF087F88C49DE
:1013A00020460BF083F88B4920460BF07FF8294646
:1013B00020460BF07BF8414620460BF077F8294693
:1013C00020460BF073F8294620460BF06FF82946AB
:1013D00020460BF06BF8294620460BF067F87E4953
:1013E00020460BF063F8394620460BF05FF829469B
:1013F00020460BF05BF8794920460BF057F8784B04
:101400000093194620460BF051F8764920460BF020
:101410004DF8294620460BF049F8734920460BF059
:1014200045F8724920460BF041F8714920460BF00F
:101430003DF8704920460BF039F8464920460BF03C
:1014400035F8494620460BF031F8314620460BF07E
:101450002DF8294620460BF029F86749674EDFF83A
:10146000D49020460BF022F8654920460BF01EF878
:10147000644920460BF01AF8634920460BF016F831
:10148000624920460BF012F8314620460BF00EF868
:101490005F4920460BF00AF8314620460BF006F86B
:1014A0005C4920460BF002F8314620460AF0FEFF68
:1014B000594920460AF0FAFF314620460AF0F6FF65
:1014C000564920460AF0F2FF314620460AF0EEFF68
:1014D000534920460AF0EAFFA6E000BFB21F03000E
:1014E000FF290300BD1F0300CB1F0300E11F030002
:1014F000EA1F0300FD1F0300152003003220030034
:10150000462003004F2003006F200300A2200300A9
:10151000AB200300BD200300D3200300F52003000F
:10152000232103005A210300692103007C210300C9
:101530000222030024220300482203006C2203003D
:1015400097220300B3220300CD220300EE22030002
:101550001B230300D7200300F92003004F230300BF
:1015600084230300A2230300DF23030015240300C8
:101570005224030090240300D52403001325030004
:101580005825030096250300192603005E26030054
:101590009E260300E5260300252703006C27030091
:1015A000AC270300F3270300332803007A28030045
:1015B000BA280300012903004129030088290300F8
:1015C000C0290300392A03007A2A0300AA2A03004B
:1015D000D42A03001E2B0300B02B0300F12B0300C1
:1015E000072C03001F2C0300802C03009B2C0300FE
:1015F000DB2C0300F32C0300112D0300CF2D03007F
:10160000682D03007E2D0300932D0300A02D030001
:101610000A2E03003E2E0300722E0300A62E0300A6
:10162000DA2E0300DB250300314620460AF03EFF98
:10163000D34920460AF03AFF314620460AF036FFE9
:10164000D04920460AF032FF314620460AF02EFFEC
:10165000CD4ECE4920460AF029FFCD4920460AF05A
:1016600025FF314620460AF021FFCA4920460AF0EC
:101670001DFF314620460AF019FF294620460AF090
:1016800015FFC549C54E20460AF010FFC449204643
:101690000AF00CFFC34920460AF008FFC249204661
:1016A0000AF004FFC14920460AF000FFC049204665
:1016B0000AF0FCFEBF4920460AF0F8FEBE4920466B
:1016C0000AF0F4FEBD4920460AF0F0FEBC4920466F
:1016D0000AF0ECFEBB4920460AF0E8FEBA49204673
:1016E0000AF0E4FEB94920460AF0E0FEB849204677
:1016F0000AF0DCFEB74920460AF0D8FEB64920467B
:101700000AF0D4FEB54920460AF0D0FEB44920467E
:101710000AF0CCFEB34920460AF0C8FEB249204682
:101720000AF0C4FEB14920460AF0C0FE41462046F8
:101730000AF0BCFEAE49DFF8948320460AF0B6FEFC
:10174000294620460AF0B2FEAA4920460AF0AEFE1B
:10175000A94920460AF0AAFEA84920460AF0A6FE9A
:10176000A74920460AF0A2FEA64920460AF09EFE9E
:10177000A54920460AF09AFEA44920460AF096FEA2
:10178000A34920460AF092FEA24920460AF08EFEA6
:10179000A14920460AF08AFE294620460AF086FE24
:1017A0009E4920460AF082FE9D4920460AF07EFEB0
:1017B0009C4920460AF07AFE9B4920460AF076FEB4
:1017C0009A4920460AF072FE994920460AF06EFEB8
:1017D000314620460AF06AFE294620460AF066FE97
:1017E000594620460AF062FE294620460AF05EFE6F
:1017F000904920460AF05AFE8F4920460AF056FECC
:101800008E4920460AF052FE8D4920460AF04EFECF
:101810008C4920460AF04AFE294620460AF046FE38
:10182000894920460AF042FE884920460AF03EFED9
:10183000514620460AF03AFE494620460AF036FE56
:10184000834920460AF032FE414620460AF02EFE29
:10185000804920460AF02AFE7F4920460AF026FEEB
:101860007E4920460AF022FE7D4920460AF01EFEEF
:101870007C4920460AF01AFE7B4920460AF016FEF3
:101880007A4920460AF012FE794920460AF00EFEF7
:10189000784920460AF00AFE774920460AF006FEFB
:1018A000764920460AF002FE754920460AF0FEFD00
:1018B000744920460AF0FAFD734920460AF0F6FD05
:1018C000724920460AF0F2FD714920460AF0EEFD09
:1018D000704920460AF0EAFD6F4920460AF0E6FD0D
:1018E0006E4920460AF0E2FD6D4920460AF0DEFD11
:1018F0006C4920460AF0DAFD6B4920460AF0D6FD15
:10190000294620460AF0D2FD684920460AF0CEFD5D
:10191000674920460AF0CAFD294620460AF0C6FD5E
:10192000294620460AF0C2FD294620460AF0BEFD9F
:10193000604920460AF0BAFD394620460AF0B6FD55
:101940005D4920460AF0B2FD5C4920460AF0AEFD32
:101950005B4920460AF0AAFD009B204619460AF082
:10196000A5FD584920460AF0A1FD594620460AF037
:101970009DFD294620460AF099FD5349A8E000BF85
:101980000E2F0300422F03005E300300722F03006E
:10199000812F030072300300793003008438030084
:1019A0000631030023310300453103006731030092
:1019B0007B3103008B310300B0310300F4310300AD
:1019C0004232030090320300DE3203002C33030066
:1019D0007A330300C83303000E34030015340300C8
:1019E000253403004E3403007C340300BE3403006E
:1019F000ED3403002D3503005A3503009A350300FA
:101A0000C93503000D3603003D360300833603005D
:101A1000B1360300F33603002137030063370300B8
:101A20008337030000380300223803005B380300CB
:101A300067380300A1380300D6380300EF380300ED
:101A400008390300733903007D390300D8390300D6
:101A5000253A0300523A03006E3A0300D1220300F4
:101A6000843A0300B03A0300E63A0300943B0300D3
:101A7000C53B0300553C0300E53C0300733D0300F8
:101A8000013E0300913E0300213F0300823F03001B
:101A9000DF3F0300374003008F400300EF400300A7
:101AA00031410300674103001642030090410300E7
:101AB000CA410300254203005C4203006542030063
:101AC000D0420300F04203004B4303006C220300AA
:101AD000DFF894B420460AF0E9FCD74920460AF022
:101AE000E5FCD64920460AF0E1FCD54920460AF03B
:101AF000DDFCD44920460AF0D9FC294620460AF0EC
:101B0000D5FCD14920460AF0D1FCD04920460AF044
:101B1000CDFCCF4920460AF0C9FCCE4920460AF048
:101B2000C5FC514620460AF0C1FC494620460AF051
:101B3000BDFC414620460AF0B9FCC749DFF82C84B9
:101B4000DFF82C94DFF82CA420460AF0AFFCC34940
:101B500020460AF0ABFCC24920460AF0A7FC3146F9
:101B600020460AF0A3FC294620460AF09FFC29469D
:101B700020460AF09BFC294620460AF097FC29469D
:101B800020460AF093FCB749B74E20460AF08EFC77
:101B9000394620460AF08AFC294620460AF086FC8F
:101BA000294620460AF082FCB049B14DB14F20468B
:101BB0000AF07CFCB04920460AF078FCAF49204688
:101BC0000AF074FCAE4920460AF070FCAD4920468C
:101BD0000AF06CFCAC4920460AF068FCAB49204690
:101BE0000AF064FC414620460AF060FCA849204601
:101BF0000AF05CFCA74920460AF058FCA64920469A
:101C00000AF054FCA54920460AF050FCA44920469D
:101C10000AF04CFCA34920460AF048FC294620461D
:101C20000AF044FCA04920460AF040FC9F492046A7
:101C30000AF03CFC9E4920460AF038FC9D492046AB
:101C40000AF034FC414620460AF030FC9A4920460E
:101C50000AF02CFC394620460AF028FC9749204619
:101C60000AF024FC964920460AF020FC95492046BB
:101C70000AF01CFC314620460AF018FC3946204682
:101C80000AF014FC904920460AF010FC8F492046C7
:101C90000AF00CFC314620460AF008FC3946204682
:101CA0000AF004FC8A4920460AF000FC89492046D3
:101CB0000AF0FCFB314620460AF0F8FB3946204684
:101CC0000AF0F4FB844920460AF0F0FB83492046E1
:101CD0000AF0ECFB314620460AF0E8FB3946204684
:101CE0000AF0E4FB7E497F4F20460AF0DFFB7E4985
:101CF00020460AF0DBFB314620460AF0D7FB7B4941
:101D00007B4E20460AF0D2FB294620460AF0CEFB45
:101D1000784920460AF0CAFB774920460AF0C6FBFC
:101D2000764920460AF0C2FB414620460AF0BEFB37
:101D30007349DFF8448220460AF0B8FB2946204662
:101D40000AF0B4FB294620460AF0B0FB6D49204654
:101D50000AF0ACFB294620460AF0A8FB6A49204657
:101D60000AF0A4FB694920460AF0A0FB6849204616
:101D70000AF09CFB674920460AF098FB664920461A
:101D80000AF094FB294620460AF090FB634920465E
:101D90000AF08CFB624920460AF088FB6149204624
:101DA0000AF084FB604920460AF080FB5F49204628
:101DB0000AF07CFB294620460AF078FB5C49204665
:101DC0000AF074FB5B4920460AF070FB5A49204632
:101DD0000AF06CFB594920460AF068FB5849204636
:101DE0000AF064FB574920460AF060FB564920463A
:101DF0000AF05CFB554920460AF058FB544920463E
:101E00000AF054FB534920460AF050FB5249204641
:101E10000AF04CFB514920460AF048FB5049204645
:101E20000AF044FB4F4920460AF040FB2946204671
:101E30000AF03CFBA2E000BFA7430300C743030036
:101E40000B44030051440300BF4403002845030032
:101E5000434503007D45030097220300B32203009E
:101E6000CD2203009D45030032480300CF45030007
:101E70005F4B0300A56A0300DD450300E74503004F
:101E8000EF450300FD450300184603002D460300FF
:101E90005A46030066460300C64603006C4A030028
:101EA000FD4603001B47030036470300404703007D
:101EB0005A4703007747030086470300B0470300F3
:101EC000B5470300F947030038480300834803007F
:101ED000C14803000B49030049490300A14903001D
:101EE000E14903009C510300314A0300714A030099
:101EF000DC500300774A03007E4A0300944A030043
:101F0000A84A0300B94A0300C14A0300F04A03008B
:101F1000154B03002D4B0300434B0300664B03009E
:101F2000884B0300C14B0300EC4B0300134C030030
:101F30003F4C0300604C0300904C0300A74C03008F
:101F4000BF4C0300DC4C0300F44C03000B4D0300BA
:101F5000284D03005E4D0300944D0300C94D03005E
:101F6000FE4D0300344E0300F85B030042460300BD
:101F70004F5203009E5D030035540300D9492046AB
:101F80000AF094FAD84920460AF090FA29462046E9
:101F90000AF08CFA294620460AF088FA294620469B
:101FA0000AF084FAD14920460AF080FAD049204646
:101FB0000AF07CFACF4920460AF078FACE4920464A
:101FC0000AF074FACD4920460AF070FACC4920464E
:101FD0000AF06CFACB4B0193194620460AF066FAD8
:101FE000C94A0092114620460AF060FAC7492046C5
:101FF0000AF05CFAC64920460AF058FAC54920465C
:102000000AF054FAC44920460AF050FAC34920465F
:102010000AF04CFAC24920460AF048FAC149204663
:102020000AF044FA314620460AF040FABE492046FA
:102030000AF03CFABD4920460AF038FABC4920466D
:102040000AF034FABB4920460AF030FABA49204671
:102050000AF02CFAB94920460AF028FAB849204675
:102060000AF024FA394620460AF020FA3146204682
:102070000AF01CFAB34920460AF018FAB249204681
:102080000AF014FAB14920460AF010FAB049204685
:102090000AF00CFA494620460AF008FAAD492046F3
:1020A0000AF004FAAC4920460AF000FAAB4920468F
:1020B0000AF0FCF9AA4920460AF0F8F9A949204695
:1020C0000AF0F4F9A84920460AF0F0F9394620460A
:1020D0000AF0ECF9314620460AF0E8F9A349204617
:1020E0000AF0E4F9A24920460AF0E0F9A1492046A5
:1020F0000AF0DCF9A04920460AF0D8F9414620460A
:102100000AF0D4F9414620460AF0D0F99B49DFF89D
:10211000F08220460AF0CAF9994920460AF0C6F929
:10212000984920460AF0C2F9314620460AF0BEF925
:10213000954920460AF0BAF9944920460AF0B6F9C2
:10214000394620460AF0B2F9314620460AF0AEF987
:102150008F4920460AF0AAF98E4920460AF0A6F9CE
:10216000394620460AF0A2F9314620460AF09EF987
:10217000894920460AF09AF9884920460AF096F9DA
:10218000394620460AF092F9314620460AF08EF987
:10219000834920460AF08AF9824920460AF086F9E6
:1021A000814920460AF082F9804920460AF07EF9EA
:1021B0007F4920460AF07AF97E4920460AF076F9EE
:1021C0007D4920460AF072F97C4920460AF06EF9F2
:1021D0007B4920460AF06AF97A4920460AF066F9F6
:1021E000394620460AF062F9314620460AF05EF987
:1021F000754920460AF05AF9414620460AF056F938
:10220000724920460AF052F9394620460AF04EF942
:10221000314620460AF04AF96D4920460AF046F94F
:10222000414620460AF042F96A4920460AF03EF942
:10223000394620460AF03AF9314620460AF036F986
:10224000654920460AF032F9414620460AF02EF947
:10225000624920460AF02AF9394620460AF026F952
:10226000314620460AF022F95D4920460AF01EF95F
:10227000414620460AF01AF95A4920460AF016F952
:10228000394620460AF012F9314620460AF00EF986
:10229000554920460AF00AF9414620460AF006F957
:1022A0005249DFF8608120460AF000F9394620469D
:1022B0000AF0FCF8314620460AF0F8F84C4920466E
:1022C0000AF0F4F84B4920460AF0F0F84A49204653
:1022D0000AF0ECF8494620460AF0E8F8474920465B
:1022E00092E000BF6A4E03009F4E0300E64E0300DB
:1022F0001E4F0300434F0300734F0300AC4F030016
:10230000085003002E500300395003004F500300C3
:10231000655003007C50030090500300A55003005B
:10232000BA500300D0500300E1500300FB500300FB
:10233000155103003051030049510300625103005D
:102340007B510300A2510300BB510300EB5103007A
:10235000DB5B03005B520300665203007352030011
:10236000DB520300F552030056530300735303007E
:102370008F530300C95303001E5403004B54030042
:10238000B3540300C9540300095503002555030045
:102390007A55030096550300EB55030007560300DA
:1023A0005C56030078560300B35603000957030038
:1023B000625703007A57030092570300AA5703009D
:1023C0000558030066580300A05803001359030082
:1023D0006C59030088590300E1590300FD590300BB
:1023E000565A0300725A0300CB5A0300E75A0300FF
:1023F000405B0300595B03008B5B0300EA5B030057
:10240000BC580300025D03000AF050F8594620460C
:102410000AF04CF8D84920460AF048F839462046D8
:102420000AF044F8314620460AF040F8D3492046E5
:102430000AF03CF8D24920460AF038F8D149204643
:102440000AF034F8D04920460AF030F841462046D8
:102450000AF02CF8414620460AF028F8CB49DFF86C
:10246000308420460AF022F8C94920460AF01EF8B6
:10247000394620460AF01AF8C64920460AF016F8EE
:10248000514620460AF012F8C34920460AF00EF8D9
:10249000C24920460AF00AF8C14920460AF006F867
:1024A000294620460AF002F84146204609F0FEFF80
:1024B0002946204609F0FAFFBA49204609F0F6FFFE
:1024C000B949204609F0F2FFB849204609F0EEFF6D
:1024D000B749204609F0EAFFB649204609F0E6FF71
:1024E000019B2046194609F0E1FF009A204611465B
:1024F00009F0DCFFB049204609F0D8FFAF4920467B
:1025000009F0D4FFAE49204609F0D0FFAD4920467E
:1025100009F0CCFFAC49204609F0C8FFAB49204682
:1025200009F0C4FFAA49204609F0C0FFA949204686
:1025300009F0BCFF3146204609F0B8FFA649204605
:1025400009F0B4FFA549204609F0B0FFA449204690
:1025500009F0ACFFA349204609F0A8FFA249204694
:1025600009F0A4FFA149204609F0A0FFA049204698
:1025700009F09CFF9F49204609F098FF3946204604
:1025800009F094FF3146204609F090FF9A49204611
:1025900009F08CFF9949204609F088FF98492046A8
:1025A00009F084FF9749204609F080FF49462046FC
:1025B00009F07CFF9449204609F078FF93492046B2
:1025C00009F074FF9249204609F070FF91492046B6
:1025D00009F06CFF3946204609F068FF3146204675
:1025E00009F064FF8C49204609F060FF8B492046C2
:1025F00009F05CFF8A49204609F058FF89492046C6
:1026000009F054FF4946204609F050FF864920460C
:1026100009F04CFF8549204609F048FF84492046CF
:1026200009F044FF3946204609F040FF3146204674
:1026300009F03CFF7F49204609F038FF7E492046DB
:1026400009F034FF7D49204609F030FF7C492046DF
:1026500009F02CFF4946204609F028FF7949204619
:1026600009F024FF5946204609F020FF7649DFF89B
:1026700024B2204609F01AFF3946204609F016FF19
:102680003146204609F012FF7049204609F00EFF3E
:102690006F49204609F00AFF6E49204609F006FFFF
:1026A0006D4A01921146204609F000FF4946204636
:1026B00009F0FCFE6949204609F0F8FE684B0093DA
:1026C0001946204609F0F2FE5946204609F0EEFE72
:1026D0006449204609F0EAFE3946204609F0E6FE44
:1026E0003146204609F0E2FE5F49204609F0DEFE51
:1026F0005E49204609F0DAFE5D49204609F0D6FE23
:10270000019A2046114609F0D1FE4946204609F0BB
:10271000CDFE5849204609F0C9FE009B20461946C7
:1027200009F0C4FE5946204609F0C0FE5249204631
:1027300009F0BCFE3946204609F0B8FE3146204675
:1027400009F0B4FE4D49204609F0B0FE4C49204640
:1027500009F0ACFE4B49204609F0A8FE4A49204644
:1027600009F0A4FE4946204609F0A0FE474920464C
:1027700009F09CFE90E000BF065C0300605C030073
:10278000795C0300AC5C0300F75C03000C5D0300A4
:102790006E5D0300955D0300AF5D0300C55D030042
:1027A000F45D0300465E03006B5E03009B5E030066
:1027B000D45E0300305F0300565F03006D5F0300CB
:1027C000855F03007C50030090500300A550030078
:1027D000BA500300D0500300E1500300FB50030047
:1027E000155103009B5F0300305103004951030062
:1027F000625103007B510300B55F0300CE5F03000D
:1028000004600300516003005D6003006960030021
:1028100075600300E7600300F860030011610300C6
:1028200048610300936103009F610300AB610300F3
:10283000B7610300236203003C620300716203007E
:10284000C0620300CD620300DB6203003563030056
:102850004E63030086630300D4630300E563030053
:10286000F063030063640300A5640300BE64030017
:10287000F764030047650300526503009165030098
:10288000AA650300DD6503002D66030039660300B9
:102890003E5E0300FC6303007549204609F006FE16
:1028A0007449204609F002FE7349204609F0FEFDF6
:1028B0003946204609F0FAFD3146204609F0F6FD7A
:1028C0006E496F4E204609F0F1FD6E49204609F031
:1028D000EDFD6D49204609F0E9FD6C49204609F0FF
:1028E000E5FD6B49204609F0E1FD6A49204609F003
:1028F000DDFD6949204609F0D9FD4946204609F029
:10290000D5FD6649204609F0D1FD6549204609F00C
:10291000CDFD6449204609F0C9FD3946204609F03D
:10292000C5FD6149204609F0C1FD5146204609F028
:10293000BDFD5E49204609F0B9FD5D49204609F01C
:10294000B5FD5C49204609F0B1FD2946204609F055
:10295000ADFD2946204609F0A9FD4146204609F073
:10296000A5FD2946204609F0A1FD5349204609F05E
:102970009DFD5249204609F099FD5149204609F034
:1029800095FD5049204609F091FD3146204609F059
:102990008DFD4D49204609F089FD4C49204609F03E
:1029A00085FD2946204609F081FD4949204609F068
:1029B0007DFD3146204609F079FD4649204609F063
:1029C00075FD4549204609F071FD2946204609F06C
:1029D0006DFD4249204609F069FD3146204609F067
:1029E00065FD3F49204609F061FD3E49204609F05A
:1029F0005DFD2946204609F059FD4146204609F073
:102A000055FD2946204609F051FD4146204609F072
:102A10004DFD2946204609F049FD3349204609F07D
:102A200045FD3249204609F041FD3149204609F073
:102A30003DFD3049204609F039FD2F49204609F077
:102A400035FD2E49204609F031FD2D49204609F07B
:102A50002DFD2946204609F029FD2A49204609F086
:102A600025FD2949204603B0BDE8F04F09F01EBD01
:102A70004666030054660300BA660300C766030097
:102A800008690300E0660300176703004E67030050
:102A9000766703009E670300AD670300B967030014
:102AA000C7670300D5670300955D0300AF5D0300B2
:102AB0002C6803005B6803008C680300BC6803009B
:102AC000EA680300F16803000E6903003E69030031
:102AD0009A690300B5690300EA690300486A0300C4
:102AE000646A0300AA6A0300E76A0300316B03000B
:102AF000606B03006A6B03009C6B0300B76B030001
:102B0000D16B0300D96B0300E16B0300392884BF4C
:102B10000738C0B2392984BF0739C9B201F00F01A3
:102B200000F00F0041EA0010704700002DE9F0416D
:102B30000C461849184DDFF86480064609F04EFE31
:102B400000272146284609F019FF0378262B1DD0BF
:102B50002146284609F012FF0378202B16D05FB1DA
:102B60002146284609F00AFF0178304609F0D8FED0
:102B70003146404609F0A4FC2146284609F0FEFEF5
:102B800003783D2B08BF01270134DAE73046BDE862
:102B9000F08100BFF091030008150020FC330020F5
:102BA0002DE9F04786B0BD49684609F017FEBC49DB
:102BB00003A809F013FE03A9BA4809F0FCFE044675
:102BC00003A809F0C5FD002C80F2CA820024B64992
:102BD00003A809F003FE03A9B24809F0ECFE05467C
:102BE00003A809F0B5FD002D47DB294603A8FFF730
:102BF0009DFF03A9684609F06AFE03A809F0A8FD35
:102C00000021684609F0BAFE01210578684609F0FE
:102C1000B5FE01782846A54DFFF778FF2B685B7855
:102C200083422AD00021684609F0A8FE01210478D9
:102C3000684609F0A3FE01782B682046FFF766FF7F
:102C40009B4958709B4809F014FC2B6899485978A7
:102C50000A2209F0ADFC2B6897485A780121FDF74C
:102C6000C7FC0446052009F0E5FE002C40F0B182C7
:102C70009249904809F01AFC0124914903A809F0EF
:102C8000ADFD03A9874809F096FE054603A809F0A3
:102C90005FFD002D47DB294603A8FFF747FF03A987
:102CA000684609F014FE03A809F052FD00216846A9
:102CB00009F064FE01210578684609F05FFE01789D
:102CC00028467A4DFFF722FF2B689B7883422AD053
:102CD0000021684609F052FE01210478684609F097
:102CE0004DFE01782B682046FFF710FF754998705C
:102CF000704809F0BEFB2B686E4899780A2209F0EB
:102D000057FC2B686C489A780221FDF771FC044649
:102D1000052009F08FFE002C40F060826A4965486A
:102D200009F0C4FB0124694903A809F057FD03A970
:102D30005C4809F040FE054603A809F009FD002D96
:102D400047DB294603A8FFF7F1FE03A9684609F00F
:102D5000BEFD03A809F0FCFC0021684609F00EFE48
:102D600001210578684609F009FE017828464F4D93
:102D7000FFF7CCFE2B68DB7883422AD0002168461F
:102D800009F0FCFD01210478684609F0F7FD01789F
:102D90002B682046FFF7BAFE4D49D870454809F028
:102DA00068FB2B684348D9780A2209F001FC2B689C
:102DB0004148DA780321FDF71BFC0446052009F0A1
:102DC00039FE002C40F00F8242493A4809F06EFB70
:102DD0000124414903A809F001FD03A9314809F084
:102DE000EAFD054603A809F0B3FC002D47DB2946A0
:102DF00003A8FFF79BFE03A9684609F068FD03A836
:102E000009F0A6FC0021684609F0B8FD012105780B
:102E1000684609F0B3FD01782846244DFFF776FE99
:102E20002B681B7983422AD00021684609F0A6FD51
:102E300001210478684609F0A1FD01782B6820463D
:102E4000FFF764FE254918711A4809F012FB2B6838
:102E5000184819790A2209F0ABFB2B6816481A7931
:102E60000421FDF7C5FB0446052009F0E3FD002C15
:102E700040F0BE811A490F4809F018FB0124194996
:102E800003A809F0ABFC03A9064809F094FD054628
:102E900003A809F05DFC002D6EDB25E0F091030036
:102EA0008D10030008150020D51003000C0200202F
:102EB000EB100300FC330020681300200411030012
:102EC0002C110300421103005B1103008311030066
:102ED00099110300B2110300DA110300F01103008D
:102EE0000912030031120300294603A8FFF71EFE52
:102EF00003A9684609F0EBFC03A809F029FC0021AE
:102F0000684609F03BFD01210578684609F036FD69
:102F100001782846B94DFFF7F9FD2B685B798342AC
:102F20002AD00021684609F029FD0121047868466D
:102F300009F024FD01782B682046FFF7E7FDB04932
:102F40005871B04809F095FA2B68AE4859790A22B1
:102F500009F02EFB2B68AC485A790521FDF748FB98
:102F60000446052009F066FD002C40F07581A74954
:102F7000A44809F09BFA0124A54903A809F02EFCF6
:102F800003A9A44809F017FD054603A809F0E0FBD2
:102F9000002D47DB294603A8FFF7C8FD03A96846B3
:102FA00009F095FC03A809F0D3FB0021684609F05D
:102FB000E5FC01210578684609F0E0FC0178284627
:102FC0008E4DFFF7A3FD2B689B7983422AD0002109
:102FD000684609F0D3FC01210478684609F0CEFC6C
:102FE00001782B682046FFF791FD8B499871854841
:102FF00009F03FFA2B68834899790A2209F0D8FA38
:103000002B6881489A790621FDF7F2FA04460520DB
:1030100009F010FD002C40F024818049794809F026
:1030200045FA01247E4903A809F0D8FB03A9794891
:1030300009F0C1FC054603A809F08AFB002D33DB2B
:10304000294603A8FFF772FD03A9684609F03FFC73
:103050006A4D03A809F07CFB684609F0AFFC2B68B9
:103060001B89984220D0684609F0A8FC2B686D495E
:103070001881644809F0FDF92B68624819890A2211
:1030800009F07DFA2B6860481A890821FDF7DEFAFD
:103090000446052009F0CEFC002C40F0E780624990
:1030A000584809F003FA01240025DFF8A891DFF859
:1030B00064A1DFF848812F460C2606FB05963146B1
:1030C000504609F078FC011EC0F2DB8003A8FFF730
:1030D0002DFD03A9684609F0FAFB03A809F038FBA7
:1030E000684609F06BFC2F1DD8F800307F003B4488
:1030F0009B88984232D0684609F060FCD8F80030CE
:103100004A493B4498803F4809F0B3F931463D486D
:1031100009F0B3F946493B4809F0ABF9D8F800305B
:1031200038483B440A22998809F029FAD8F8003037
:1031300035481F44691DBA884900FDF787FA0746DC
:10314000052009F077FC31462E48002F40F093808F
:1031500009F093F937492B4809F0A8F9012790E0C5
:10316000214603A8FFF7E2FC03A9684609F0AFFB7C
:10317000224C03A809F0ECFA684609F01FFC23680A
:103180001B7898423FF422AD684609F017FC23688B
:10319000294918701B4809F06CF9236819481978F7
:1031A0000A2209F005FA236817481A780021FDF76A
:1031B0001FFA0446052009F03DFC2CB91F491148AF
:1031C00009F074F9012402E51D490E4809F06EF971
:1031D000FDE41C490B4809F069F94EE51A49094814
:1031E00009F064F99FE51949064809F05FF9F0E52F
:1031F0001749044809F05AF941E600BF0C020020C3
:1032000047120300FC330020681300206012030003
:1032100088120300081500209E120300B712030055
:10322000DF120300E9120300FD1203002B13030059
:10323000A31003000A11030096100300A910030055
:10324000BC100300151103006C110300C31103002F
:103250001A120300181200201549164809F026F921
:103260008AE61549134809F021F9DBE613491148AC
:1032700009F01CF918E709F000F911490D4809F0A7
:1032800015F90135072D7FF417AF44EA47040D49BE
:10329000084809F0EEF80A222146064809F06FF9BD
:1032A000684609F055FA204606B0BDE8F08700BF31
:1032B00071120300FC330020C81203001113030035
:1032C0001B110300301303002DE9F8432C4E2D4948
:1032D0002D4F044609F0CDF833680A2219782046AC
:1032E00009F064F92949204609F0C3F82849204625
:1032F00009F0BFF833680A221989204609F03DF920
:103300002249204609F0B5F82249204609F0B1F8D3
:10331000002533682B4410225978204609F046F9DD
:10332000052D03D03946204609F0A3F80135062DB6
:10333000EFD11649184FDFF86480DFF8509020462F
:1033400009F097F800250C2101FB0571204609F0D2
:1033500094F84146204609F08CF8336803EB4503A6
:103360000A229989204609F008F9062D03D049461A
:10337000204609F07EF80135072DE4D1BDE8F88339
:103380000C0200204D13030089310300823A030030
:10339000521303005A1303001812002050130300A5
:1033A0004A6842608A688260CA68C260034A0260F2
:1033B0000A7C02744A8A4282704700BF88810300F7
:1033C00013B502AA0024214642F8044D04230E48F6
:1033D00006F0ACFD019959B90C48FDF765F90520D7
:1033E00009F028FB0A490B4809F060F802B010BD4B
:1033F00021461A23084A044806F098FD052009F0E2
:1034000019FB0649EFE700BF1802002068130020EF
:10341000EC130300FC330020BA1200200514030053
:103420002DE9F3470121092009F04AFB0121092078
:1034300009F082FB0121082009F042FB012108204C
:1034400009F07AFB01210A2009F03AFB01210A2048
:1034500009F072FBC82009F0EBFA0A2005F0AEF87B
:10346000414B424D1868424B0093424B424E5B68C1
:1034700001936946013005F039F901210A2009F06C
:103480005BFB3E493C4809F011F8002405F0A6F822
:1034900060B929463046013409F008F80A20E4B240
:1034A00009F0C6FA0A2CF1D1002708E005F096F8D9
:1034B0000328F7D13249304808F0F8FF0127314E90
:1034C0002D4D0A2405F080F8022833D131462846D4
:1034D00008F0ECFF013C0A2009F0AAFA14F0FF04FE
:1034E000F0D1DFF8B880DFF8B8A0DFF88C900A26BA
:1034F000404605F029FB404605F03EFB0546F8B97D
:103500005146484608F0D2FF013E0A2009F090FAE1
:1035100016F0FF06ECD11C4EF4B1EFB1E5B11B493A
:10352000154808F0C3FF336801225A70284602B0DC
:10353000BDE8F0871649104808F0B8FF0124D0E72D
:1035400014490D4808F095FF684605F0E5F869460E
:10355000094808F0C9FFDEE70F49074808F0A6FF51
:10356000336800255D70E1E70C020020D10E0300F6
:103570005C860300FC120020FC330020BD0E03001B
:10358000EF0E0300120F0300100200206D0F030066
:10359000320F03005E0F0300840F0300401400206D
:1035A0004B0F03002DE9F0411C4FDFF888801C4DC4
:1035B0000A243A467621404603F08CF9064670B953
:1035C0001849194808F072FF2B6864201E70013CEE
:1035D00009F02EFA14F0FF04EBD1BDE8F081134995
:1035E0001148134C08F062FF2B681248256801222D
:1035F0001A7003F073F928600E48256803F090FAFA
:1036000068600C4803F09CF99FED0B7A236807EE85
:10361000900AC7EE877AC3ED027ADEE73015002004
:1036200010020020A5750300FC330020C4750300C0
:1036300030020020241100200000C8420148FCF79D
:1036400042BF00BF5014002070B58C000026054614
:103650000161C660204619F025F900232860AE609C
:103660006B600444A04202D040F8043BFAE72846CD
:1036700070BD06EE901A10B5D0E903148368026895
:10368000A14202EB830223BFD2ED007A90ED017AD2
:1036900037EE677A01312CBF80ED017AC160C2ED4F
:1036A000006AD0ED017A013377EEA67A9C4298BF8A
:1036B0000023C0ED017A836010BD0000000000000F
:1036C0002DE9F04F2DED028B934F944C83B02825BC
:1036D0003E460DF08DFD0DF08BFDD7F84021D7F85B
:1036E00044319A4240F0F28097F84831002B40F084
:1036F000ED800DF093FDDFF844820DF08FFD216821
:103700004046FFF7B6FF61688548FFF7B2FF013D0D
:10371000A1688448FFF7ADFF15F0FF05D9D1D8F8AF
:103720000C30002B00F0E98007EE903AD8ED016AEA
:10373000F8EE677A86EEA77A794AD368002B00F014
:10374000DF8007EE903AD2ED016AF8EE677A86EEF6
:10375000A78A744AD368002B00F0D58007EE903A10
:10376000D2ED016AF8EE677AC6EEA78ADFF8D0A13B
:10377000DAF8008017EE100A17F05AF80646B8F982
:1037800000000F4617F042F8002204460D46664B33
:103790003046394616F0EEFE02460B4620462946D4
:1037A00017F09EF817F04CFB00B217F02FF800222C
:1037B0005E4B16F0DFFE18F053F817F041FB00B235
:1037C00017F024F800225A4B16F0D4FE17F038FBFD
:1037D000A8F8040018EE900A17F02AF80446B8F981
:1037E00002000D4617F012F80022CDE900014E4B01
:1037F0002046294616F0BEFE02460B46DDE90001D2
:1038000017F06EF817F01CFB00B216F0FFFF002255
:10381000464B16F0AFFE18F023F817F011FB00B27C
:1038200016F0F4FF0022434B16F0A4FE17F008FB3D
:10383000A8F8060018EE100A16F0FAFF02460B462A
:1038400017F04EF82246804689462B4620462946E8
:1038500017F046F842464B4616F08CFE18F080F8FA
:1038600002460B463046394617F064F917F060FE01
:1038700027A3D3E9002317F033F817F029FBDAF870
:1038800000B03246CBF808003B463046394617F0C8
:1038900027F842464B4616F06DFE18F061F80246D6
:1038A0000B462046294617F045F917F041FE18A3AC
:1038B000D3E9002317F014F817F00AFBDAF80040F8
:1038C000206103B0BDEC028BBDE8F08F0DF0A6FCCB
:1038D000D6F8443103F1010C06EB03130FCBBCF116
:1038E000140F84E80F004FF00003C6F844C186F8B7
:1038F000483108BFC6F84431FDE69FED0F7A1BE75B
:103900009FED0D8A25E7DFED0C8A2FE7AFF30080EE
:10391000F8C1631ADCA54C407C1B00201411002068
:103920001C130020301300200000F03F0000E03F97
:103930000000604000804B400000000008130020A1
:10394000140200202DE9F743644A65491368654F66
:10395000654D664E01330446136008F08AFD02206F
:1039600009F01AF90A220146204608F006FE6049CD
:10397000204608F07EFD5F49204608F07AFD0A22C5
:103980003978204608F012FE5B49204608F071FDA8
:103990000A222968204608F0F0FD5849204608F020
:1039A00068FD3368186816F043FF4FF00A080246B6
:1039B0000B46CDF80080204608F0C8FE504920464E
:1039C00008F057FD3368586816F032FFCDF80080D4
:1039D00002460B46204608F0B9FE4A4B1B78042BE2
:1039E000B946A84602D04848FFF76AFE474F484903
:1039F000204608F03EFD3B68986816F019FF0A253E
:103A000002460B460095204608F0A0FE38492046A5
:103A100008F02FFD3F49204608F02BFD3B68D86891
:103A200016F006FF009502460B46204608F08EFE73
:103A30003949204608F01DFD3368986816F0F8FEF5
:103A400000950B460246204608F080FE2449334884
:103A500008F00FFD022009F09FF82A4601462F4882
:103A600008F08BFD22492D4808F003FD21492B4821
:103A700008F0FFFC2A4699F80010284808F096FD47
:103A80001D49264808F0F5FC2A46D8F800102348BE
:103A900008F073FD1649214808F0EBFC20491F4847
:103AA00008F0E7FC3368186816F0C2FE009502467D
:103AB0000B461A4808F04AFE1149184808F0D9FC8C
:103AC0003368586816F0B4FE009502460B4613485A
:103AD00008F03CFE03B0BDE8F08300BF10120020E8
:103AE00064130300080200200402002030020020BA
:103AF000823A0300741303007E1303009013030043
:103B000097130300B812002068130020140200204D
:103B10009E130300A8130300B1130300FC3300201D
:103B20009113030070B58AB06049684605F044F807
:103B30009DF81030072B43D9002420460AB070BDF1
:103B40000124684604F036FE002800F0AC80684688
:103B500004F0C0FE0028F4D0684604F0CCFEB36840
:103B6000B3F5967FC5B203D22946304608F0D8FE99
:103B70000A2D40F09480002CE2D0694605A8FFF79A
:103B80000FFC05A8FCF74EFE494905A808F026FEE3
:103B900005A9484808F00FFF044605A808F0D8FD1D
:103BA000002C10DB4449454808F080FC694605A814
:103BB000FFF7F6FB05A8FFF787FB0024254634E056
:103BC00001243C4EBDE73E4905A808F007FE05A9C3
:103BD000384808F0F0FE044605A808F0B9FD002CAE
:103BE0000BDB3849354808F061FC694605A8FFF74A
:103BF000D7FB05A8FFF7A6FEDFE7334905A808F0C5
:103C0000EDFD05A92B4808F0D6FE044605A808F0EE
:103C10009FFD002C23DB2D49284808F047FC2C4948
:103C2000684608F026FC00240125012008F000FF6A
:103C3000684604F081FE27491E4808F050FE2649D8
:103C40001E4808F033FC022008F0F2FE002D3FF47D
:103C500074AF2249194808F029FCFCF7F5FA20490D
:103C6000164808F023FCFEF79BFF1E490446134844
:103C700008F01CFC1C49114808F0FBFB2A462146B1
:103C80000E4808F07CFC694605A8FFF789FB05A8EB
:103C900004F00105C4F34004FCF7E4FDC5E70D2D75
:103CA00018BF00244DE7044688E700BF40140020F9
:103CB000231403000815002032140300FC330020F5
:103CC00045140300541403006D140300771403001B
:103CD0008E140300F0910300E614030005150300A1
:103CE00091140300A2140300CA14030008B5FFF7DF
:103CF00019FF024B00B91878187008BD2C0200207B
:103D0000F0B57F497F48804E85B008F067FD7F4A57
:103D10007F497C480DF083FD7E497F4808F05EFDB9
:103D20007E497F4808F05AFD7E497F4808F056FDDD
:103D30007E497F4808F052FD7E497F4808F04EFDDD
:103D40007E497F4808F04AFD7E497F4808F046FDDD
:103D50006E4A7E4900200DF062FD7D4B7D480022B9
:103D6000002700240025C3E904451A605A609A60C0
:103D7000C3E9064583F82070774B4FF47D421A80E3
:103D800044F61F525A804FF61A429A80DA229A71EC
:103D900040F6B8321A815A8119229A812A22DA8190
:103DA00040F2D6721A820A225A829A824FF4C8725C
:103DB000DA8206221A83694A012382F8B53082F832
:103DC000B47001934FF4FA4300932E224FF0FF3367
:103DD0002F2102F01DF94D4A61495E480DF01FFD8B
:103DE0001423A020C6E9057318F05CFDC6E902455E
:103DF0003060376100F1A003E0E802459842FBD152
:103E0000424A584940480DF00AFD574B002403F13F
:103E100050021C705C70DC60C3E9014410339342B3
:103E2000F7D15248524B036001250523374A5149C7
:103E300080F8795080F889302323C0F88C3080F8DE
:103E4000905080F891500DF0EAFC4B4802F057FA80
:103E50002E4A4A4948480DF0E2FC14230093A82258
:103E60002B46C021464808F0B3FA0A230093A82243
:103E70002B46C0214348444D08F0AAFA434B444A1C
:103E80001A6050225C601A81424B4348CDE90133ED
:103E90000E2300934022414B802102F0E7FE1B4A93
:103EA0003F493D480DF0BBFC28464FF47A73AB60A8
:103EB0003C4B6C6040F8143B08F082FA0823282140
:103EC000394885F82030FFF7BFFB104A374936489C
:103ED0000DF0A5FC28213648FFF7B6FB0B4A334905
:103EE00033480DF09CFC28213248FFF7ADFB074A10
:103EF0002E49304805B0BDE8F0400DF090BC00BF41
:103F0000F091030008150020481300200002002053
:103F100051C70100840E0300181200208C0E03000C
:103F200024120020930E0300301200209A0E03008A
:103F30003C120020A30E030048120020AD0E030027
:103F400054120020B50E030060120020A9020100E7
:103F5000181400206C130020BA1200205014002006
:103F6000B1590100D3020100801100207C11002012
:103F7000F4760300BD01010024110020116301004B
:103F8000FC1200200C140020F0100020401400202F
:103F9000E4810300801A06006C1200203015002016
:103FA000CD6C01000482030008130020C50201004B
:103FB0001C130020301300202DE9F34715462E4A2C
:103FC00013688046013350200F461360002408F028
:103FD00031FD0126294B00938DF8044002AB8DF88A
:103FE000056013E906002648EDB201F035FD2146D3
:103FF000284608F0A1FD142008F01CFDAA21204845
:1040000001F0E4FC8146142008F014FD41461C48F0
:1040100001F0DCFC8246142008F00CFD390A184837
:1040200001F0D4FC8046142008F004FDF9B21448D5
:1040300001F0CCFC0746142008F0FCFC3146284671
:1040400008F07AFD0E4801F0FFFC502008F0F2FC69
:10405000BAF1190F0CD1A9F1180358425841B8F11F
:104060001A0F07D11B2F18BF002002B0BDE8F08740
:104070002046F4E70020F8E71412002080841E0098
:1040800014150020F8B504460E46174697253A4603
:1040900031462046FFF790FF18B9013DF7D104F1F2
:1040A000FA00F8BD2DE9F74F8046502015460F461F
:1040B00008F0C0FC414B0093002401238DF805302B
:1040C0008DF8044002AB13E906003D48EDB201F063
:1040D000C3FC2146284608F02FFD142008F0AAFC56
:1040E0000F21374801F072FC8246142008F0A2FC30
:1040F0004146334801F06AFC8346142008F09AFCDC
:1041000021462F4801F062FC8146142008F092FC01
:1041100021462B4801F05AFC0646142008F08AFC80
:10412000BBF1190F03D1AAF118035C425C41B9F14C
:104130001A0F3CD11B2E3AD184F00104502008F014
:1041400079FC18211E4801F041FC8346142008F038
:1041500071FC19211A4801F039FC8246142008F03C
:1041600069FC1A21164801F031FC8146142008F040
:1041700061FC1B21124801F029FC0646142008F0BE
:1041800059FC0121284608F0D7FC0D4801F05CFCE1
:10419000502008F04FFCBBF1F00F03D1C24501D114
:1041A000012C06D10020388003B0BDE8F08F012437
:1041B000C4E746EA09263E800120F5E780841E0018
:1041C00014150020F8B504460E46174697253A46C2
:1041D00031462046FFF766FF18B9013DF7D104F5D7
:1041E000AF70F8BD2DE9F74302AF002427F8024D68
:1041F000DFF850902546261D5FFA84F87600D9F83E
:1042000000303344092299884046FFF73BFF80B1D4
:10421000092239464046FFF7D5FF50B1D9F80030A2
:1042200033449A88BDF806309A4209D00135952D5D
:10423000E5DD0134072CDED1284603B0BDE8F0836C
:104240000025F6E70C02002073B51E4C237883B1DD
:104250001D491E481E4D08F029F9FFF7C3FF1D49EF
:1042600028601A4808F005F90A222968174808F05A
:1042700086F9194E327802B32378F3B90220ADF8EB
:10428000063008F089FCB0B9962509220DF1060127
:104290000B20FFF707FF28B9013DF6D14FF45F432C
:1042A000ADF80630BDF806100C4B0848090A0A2282
:1042B000197008F07DF9002333700023237002B0D9
:1042C00070BD00BF2C0200204F150300FC330020FE
:1042D00004020020621503004C1400200802002094
:1042E0002DE9F04F85B09A469DF8383002939DF83D
:1042F000403003930125102390460022CDE900357C
:10430000064680231E48DDF83C909DF844B01C4CC6
:104310000F46114603F0EFF92F23009301958023F8
:1043200011220021164803F0E6F9BBF1000F0DD071
:104330002823112240212046009503F026F80095FD
:10434000802337220021204602F0F8FF51460C4816
:1043500003F04EFE029B7BB14FF480336361012377
:104360000F93039B0E9342464B463946304605B0A9
:10437000BDE8F04FFCF70ABA4FF00113EEE700BFBB
:104380006C1200202DE9F0438046A1B08548854D90
:1043900002F0ABFD844B1F78844B1D9345F64F1301
:1043A000ADF8783000241DAEE3B29F424FF0010318
:1043B000315D00934FF03B024FF00203284640F07E
:1043C000D08003F0B6FB0134062CEDD1DFF8189253
:1043D000744C00230A27CDE90273CDE90039052288
:1043E000012316214046FFF77BFF714B1B685B786A
:1043F000002B00F0B9806F4B6F4D23616F49204651
:1044000008F040F86E4B23612B683A461978204635
:1044100008F0CCF86B4B23616B49204608F032F86A
:104420006A4B23616A49304608F0D8F92B6819783D
:104430003A4614311AA808F001FA1AA9304608F0D1
:104440007CFA014605A808F038FA1AA808F080F9A5
:10445000304608F07DF905A9204608F00EF85D4BBE
:1044600023615D49204608F00DF85C4B23612B6801
:10447000102259780BA808F0D0F90BA90EA808F063
:104480001CFA57490EA808F064FA2B681022997894
:10449000074611A808F0C1F911A9384608F04DFAED
:1044A0004F4908F056FA2B681022D978074614A80D
:1044B00008F0B3F914A9384608F03FFA484908F063
:1044C00048FA2B6810221979074617A808F0A5F9B1
:1044D00017A9384608F031FA414908F03AFA2B6832
:1044E0001022597907461AA808F097F91AA93846F0
:1044F00008F023FA3A4908F02CFA2B68102299792F
:104500000746304608F089F93146384608F015FA72
:10451000014608A808F0D1F9304608F019F91AA8A0
:1045200008F016F917A808F013F914A808F010F904
:1045300011A808F00DF90EA808F00AF90BA808F068
:1045400007F908A9204607F098FF08A808F000F925
:1045500005A808F0FDF8134802F03EFF21B0BDE8C1
:10456000F08303F073F92EE701251323CDE901351C
:104570001223009316221B4B2046372103F006FB23
:104580002946204603F034FD4FF0011363611A23DE
:10459000009301954B462B2211214046FCF7F6F87B
:1045A000D9E700BF6C120020B812002027313B452C
:1045B00010020020050014000C020020DA72030033
:1045C0003200140005001E00E372030032001E00DA
:1045D0005375030005002700EC720300050030004E
:1045E00089310300CD6C0300047403002DE9F0430E
:1045F000054687B05D485D4F02F077FC5C4B93F851
:1046000000805C4B049345F64F13ADF81430002442
:104610000DF110090126E3B2984519F8041000962F
:104620004FF002034FF03B02384640F0868003F023
:1046300080FA0134062CEED100230B22CDE90223AF
:104640004D4A2846CDE90032192101230522FFF702
:1046500047FE032008F0A0FA002871D1072008F0D7
:104660009BFA00286CD1414C444B454D2361454990
:10467000204607F007FF444B23612B680A229989E3
:10468000204607F07AFF414B23614149204607F05D
:10469000F9FE404B23612B680A22D989204607F096
:1046A0006CFF3D4B23613D49204607F0EBFE3C4B40
:1046B00023612B680A22198B204607F05EFF394BD5
:1046C00023613949204607F0DDFE384B23612B6812
:1046D0000A22D98A204607F050FF354B236135491D
:1046E000204607F0CFFE344B23612B680A22998ABB
:1046F000204607F042FF314B23613149204607F045
:10470000C1FE304B23612B680A22598A204607F0EC
:1047100034FF2D4B23612D49204607F0B3FE2C4B6F
:1047200023612B680A22198A204607F026FF0F48CA
:1047300007B0BDE8F04302F04FBE03F087F878E71A
:1047400001241323CDE90134122300931622214BB7
:104750000648372103F01AFA042300930194064B0C
:104760002B2219212846FCF711F8E0E76C120020F3
:10477000B812002027313B450474030003001300E6
:104780000C0200203D7303002D00130040001300B5
:10479000457303006C00130003001D006B730300DE
:1047A0002D001D0040001D006473030066001D0005
:1047B000030027005C7303002D0027004000270042
:1047C000557303006C002700030031004D73030094
:1047D0002D003100CD6C03002DE9F04F064689B065
:1047E0007748774F02F081FB764B93F80080764B49
:1047F000069345F64F13ADF81C3000240DF118094F
:104800000125E3B2984519F8041000954FF0020312
:104810004FF03B02384640F0A98003F08AF901349A
:10482000062CEED1694F00252B24012305221921E6
:104830003046CDE90245CDE90057FFF751FD022092
:1048400008F0AAF9012840F0A4805D4E02901723D9
:104850001522CDE9003203215D4BDFF8ACB1DFF862
:10486000AC911422304603F091F90221304603F056
:10487000BFFB584B3361584C08F0C8F82368CBF89D
:104880000000C01A132836D908F0C0F82060534839
:10489000534C01F0A1FB534B80461860D9F800003F
:1048A000514BA8EB000043F8250015F09FFFD4E919
:1048B000053A5345CDE904015BD2013363612769B1
:1048C00023689DED047B03EBC70383ED007B53EC72
:1048D000172BD4E9020115F04DFE0137BA45C4E9A2
:1048E000020198BF002305F101058CBF27612361F8
:1048F000C9F80080EDB2132DBDD9394B5C69002C8D
:1049000044D0D3E9020116F0E3FA07EE904A07EE2D
:10491000100AF8EE677A87EE277A344B1C6817EE98
:10492000100A15F085FF0022C4E90401304B16F08F
:1049300001F900222F4B15F0D3FF0B460246C4E9C4
:104940000623022400941E4807F000FF21461C485D
:1049500003F04EFB284B33612849194807F092FDBC
:10496000174809B0BDE8F04F02F036BD02F06EFF07
:1049700055E72269236803EBC203D3E90023D4E996
:10498000020115F0F5FDC4E9020198E79FED1C7ADC
:10499000C3E701251323CDE9013512230093162225
:1049A000184B0748372103F0F1F82D2300930195A8
:1049B0003B46224619213046FBF7E8FED0E700BF10
:1049C0006C120020B812002027313B45047403000C
:1049D000797103001E002200E81000206C130020F3
:1049E00048130020E010002090100020300200202A
:1049F000000034400000D03F500022009B750300AF
:104A000000000000CD6C0300E4100020EC1000203A
:104A10002DE9FF412A4C2B4F01254023CDE90135DB
:104A2000802306460522002100932046264B03F0F2
:104A3000ADF8204602F0D0FC40F2DC5007F0F8FF61
:104A4000204602F052FA4FF000080623CDE9023862
:104A500005222B463046CDE900871721FFF740FCA1
:104A60002946204603F0C4FA4FF001136361CDE9F3
:104A700000853B4630461E222321FBF787FE3B463E
:104A80002822CDE900552A213046104DFBF77EFE45
:104A9000204602F0A1FC0E49284607F007FD0D490B
:104AA000284607F003FD40F2DC5007F0C1FF204626
:104AB00002F01BFA204604B0BDE8F04102F08CBCC5
:104AC0006C12002004740300066D0300FC33002008
:104AD00088750300937503002DE9F043484EDFF815
:104AE0003881DFF82C91474C85B000230622CDE9B0
:104AF0000223CDE900360522012317210746FFF7DF
:104B0000EFFB03230122CDE9003211213346242299
:104B10003846FBF73BFE3B4802F05EFC40F2DC50BF
:104B200007F086FF072008F037F858B3414648469B
:104B300007F0BCFC204602F0D8F901251323CDE98B
:104B400001351223009320462F4B1622372103F004
:104B50001DF800230622CDE90223CDE900363846B0
:104B60002B4605221721FFF7BBFB04230093384691
:104B70000195234B2B221921FBF708FE204602F05A
:104B80002BFCCFE7032008F007F805460028CDD11D
:104B90001E491F4807F08AFC1A4802F0A6F90124B2
:104BA0001123CDE90134122300931722194B154824
:104BB000372102F0EBFF0623CDE901633846234697
:104BC0000395009505221721FFF78AFB05232B2269
:104BD0001421009338460A4B0194FBF7D7FD09488E
:104BE00002F0FAFB40F2DC5007F022FF054802F029
:104BF0007CF9044805B0BDE8F04302F0EDBB00BF0E
:104C0000047403006C120020CD6C03007275030065
:104C1000FC3300209A6C03005E7503002DE9F04F11
:104C20004D4F4E4DDFF84C9185B04FF000084FF0DE
:104C3000060A012305221721CDE902A8CDE9008744
:104C400004460126FFF74CFB132324221121CDE952
:104C5000003620463B46FBF799FD284602F0BCFB98
:104C600040F2DC5007F0E4FE2046FEF79BFC2046B5
:104C7000D9F800B0FBF728FD8BF80400284602F0B5
:104C800034F933460522CDE902A8CDE90087172182
:104C90002046FFF725FBD9F800301A78A946002AEC
:104CA00035D093F80480B8F1000F30D02C492D484E
:104CB00007F0FCFB4FF0110912231722CDE9003950
:104CC0003721294B0296284602F060FF31462846DC
:104CD00003F08EF94FF001136B61142300930196DA
:104CE0003B462B2249462046FBF750FD1B4802F06D
:104CF00073FB40F2DC5007F09BFE184802F0F5F819
:104D0000164802F069FB404605B0BDE8F08F174930
:104D1000144807F0CBFB01251323CDE901351223FD
:104D2000162200933721124B0C4802F02FFF294620
:104D30000A4803F05DF94FF00113C9F81430152348
:104D400000930195044B2B2211212046FBF71EFDF9
:104D50004FF00008CAE700BF047403006C12002083
:104D6000F1740300FC3300209A6C03000475030007
:104D7000CD6C0300100200202DE9F0433E4E3F4D64
:104D800085B04FF000084FF00609CDE90298CDE953
:104D9000008601230522172107460124FFF7A0FA08
:104DA0001B2324221121CDE9003438463346FBF77A
:104DB000EDFC284602F010FB40F2DC5007F038FE14
:104DC000284602F092F8CDE90298CDE90086234604
:104DD000052217213846FFF783FAFEF721FB8046AC
:104DE00080B32749274807F061FB4FF011091223D0
:104DF000CDE900391722244B02943721284602F0CE
:104E0000C5FE2146284603F0F3F84FF001136B610D
:104E100001941C232B221121009338463346FBF7C3
:104E2000B5FC164802F0D8FA40F2DC5007F000FE5C
:104E3000124802F05AF8114802F0CEFA404605B086
:104E4000BDE8F08311490F4807F030FB122313220D
:104E5000CDE9003237210E4B02941622284602F08B
:104E600095FE2146284603F0C3F84FF001136B610D
:104E700001941D23CEE700BF047403006C120020D0
:104E800025750300FC3300209A6C03003D75030078
:104E9000CD6C030030B5114C85B000230622CDE95E
:104EA0000223CDE900340522012317210546FFF72F
:104EB00017FA2C230122CDE90032112123462422A6
:104EC0002846FBF763FC064802F086FA40F2DC5005
:104ED00005B0BDE8304007F0ABBD00BF047403006F
:104EE0006C1200202DE9F043074687B05548554E17
:104EF00001F0FBFF544B93F80080544B049345F6AC
:104F00004F13ADF8143000240DF110090125E3B260
:104F1000984519F8041000954FF002034FF03B023A
:104F2000304671D102F005FE0134062CEFD100238A
:104F30000722CDE90223464A464D424CCDE90032D4
:104F40001721012305223846FFF7CAF92B689B7801
:104F50007BB901232377404B23612821204602F0AF
:104F6000BDFF2121204602F0B9FF2921204602F091
:104F7000B5FF3A4B23613A4932483A4E07F082FA7C
:104F8000394B236139492F4807F07CFA384B2361AC
:104F900038492C4807F076FA2B682A485B790121BA
:104FA000002B34D003F024F84FF4803332492661CB
:104FB0006361244807F066FA2B6822489B792F4DDD
:104FC000012163B303F014F84FF480332A492561BB
:104FD00063611C482A4D07F055FA022007F0DCFDFA
:104FE0000128014623D1174803F002F84FF480331B
:104FF000244925616361134807F044FA114807B05A
:10500000BDE8F04302F0E8B902F020FC8CE702F0C2
:10501000EFFF4FF48033266163611B49C9E702F05B
:10502000E7FF4FF48033256163611749D1E7012120
:10503000044802F0DDFF4FF48033256163611349BA
:10504000D9E700BF6C120020B812002027313B4581
:1050500004740300100200206C0005000500140019
:105060006B720300500014000500210078720300E9
:1050700005002E0085720300947203005000210089
:1050800050002E009A720300917203009D7203007B
:105090002DE9F043064687B05448544F01F025FFF0
:1050A000534B93F80080534B049345F64F13ADF8E0
:1050B000143000240DF110090125E3B2984519F8C8
:1050C000041000954FF002034FF03B0238466FD1B9
:1050D00002F02FFD0134062CEFD100230822464FA9
:1050E000424CCDE902230522CDE9003711460123C8
:1050F0003046FFF7F5F8414B1B681B7801250295F8
:10510000002B58D01026CDE900663D4BDFF810810A
:1051100016220A21204602F039FD2722394B00963B
:10512000CDE901650A21204602F030FD022120462A
:1051300002F05EFF344B4FF00116C4E90436D8F894
:105140000030186815F074FB022702460B460097E2
:10515000204607F0FBFA2D4B2361D8F80030586841
:1051600015F066FB009702460B46204607F0EEFA64
:1051700029462046257702F03BFF254BA721C4E9AD
:105180000436204602F0AAFE2249204607F07AF9AA
:105190004321204602F0A2FE1F4B23612521204619
:1051A00002F09CFE114807B0BDE8F04302F014B9CC
:1051B00002F04CFB8EE712231322CDE90032204689
:1051C000164B1622372102F0E1FC2946204602F058
:1051D0000FFF4FF0011363611623009301953B46C7
:1051E0002B2211213046FBF7D1FADBE76C120020AD
:1051F000B812002027313B45047403001002002040
:105200000671030026710300230016002300270007
:1052100061001600F091030061002700CD6C0300CF
:10522000300200202DE9F043074687B04D484D4D30
:1052300001F05BFE4C4B93F800804C4B049345F619
:105240004F13ADF8143000260DF110090124F3B20C
:10525000984519F8061000944FF002034FF03B02F6
:1052600028467BD102F065FC0136062EEFD10125E0
:105270000923CDE902353E4B01930023394C0093BD
:1052800038462B4605222321FFF72AF811232577DC
:105290001322CDE900331821364B0295204602F047
:1052A00075FC3846FEF70CFA3346334E009520461F
:1052B0002422602102F0CAFA3368B3F90620B3F958
:1052C00004100095322AA8BF32227A29A8BF7A2179
:1052D000162AB8BF16224529B8BF45212046042307
:1052E00002F027FC254B2361E921204602F0F6FD60
:1052F0002349204607F0C6F8224B2361336898689B
:1053000015F096FA009502460B46204607F01EFA65
:105310001D4B2361A721204602F0E0FD1B4B2361BA
:10532000E921204602F0DAFD1949204607F0AAF8E3
:105330003368186915F07CFA009502460B46204642
:1053400007F004FA134B2361A721204602F0C6FDA3
:10535000204607B0BDE8F04302F03EB802F076FA0E
:1053600082E700BF6C120020B812002027313B45B5
:10537000047403004671030014020020040024009A
:105380009F750300160024003700240004002E003F
:10539000A275030037002E0038B5364B364C1A681C
:1053A000364BD0791978884211D13548007870B1E0
:1053B000344D2B7803BB07F029FB334B1B6803F5F7
:1053C000922303F5787398421AD9012317E0D07914
:1053D000814202D12A48007890B1D07981420FD021
:1053E000D2791A70264B1B789BB12378042B94BF7B
:1053F00001330023237003E00623237000232B7066
:105400002378072B30D8DFE803F0060B10151A1F9E
:10541000242A0723EEE71D48BDE83840FFF762BDA8
:105420001A48BDE83840FFF7E1B81848BDE83840F1
:10543000FFF7D2B91548BDE83840FEF7A3BF1348BF
:10544000BDE83840FFF7EEBE1048BDE83840FFF732
:105450001FBE0E48FBF7CAF90823237038BD0B485E
:10546000FBF7D2F90023F8E70120BDE8384007F048
:10547000E1BA00BF10020020B81200200914002079
:10548000081400208C100020041300206813002052
:105490002DE9F0412148214FDFF89880204D00F0A0
:1054A000ADFB20491D4800F008FC32243A4650214B
:1054B000404604F026FD064670B91B491B4806F01D
:1054C000F5FF2B680520DE70013C07F0B1FA14F0FF
:1054D000FF04EBD1BDE8F0811549144806F0E6FF62
:1054E0002B6814480122DA704FF4FA3104F018FDE9
:1054F0008021104804F016FD03210E4804F014FD2D
:105500000D490A4806F0B5FF0A4804F0E7FC0A22F4
:105510000146BDE8F041054807F054B830150020B9
:1055200010020020801A06001F100300FC33002028
:1055300040100300180200204F1003002DE9FF4126
:105540005049514806F0B2FFFFF7A2FF4F4B1B68CE
:10555000DB78002B00F08C804D4C4E4E4A4FDFF82C
:105560004C81FDF72DFF22681378118919441433FB
:10557000DBB2518102A8A8220093C021012306F0CA
:1055800027FF039B44494048736006F08FFF43495F
:105590003D4806F08BFF42493B4806F073FF236805
:1055A000394819780A2207F003F83E49364806F0D0
:1055B00060FF002573190A221979384606F0F6FFB4
:1055C000032D03D04146384606F053FF0135042D24
:1055D000F0D135492C482C4E344F06F07BFF34492E
:1055E000294806F04FFF002523682B4410225978E4
:1055F000304606F0DBFF052D03D03946304606F075
:1056000041FF0135062DEFD127491F48DFF8B4804F
:105610001D4E284F06F05EFF27491B4806F032FF5B
:105620002368194819890A2206F0A9FF2349164858
:1056300006F028FF2368144859890A2206F09FFFC4
:1056400000250C2101FB0581304606F016FF394686
:10565000304606F017FF236803EB45030A229989B9
:105660003046013506F08BFF072DEAD1002005E01A
:105670001349054806F01AFF4FF0FF3004B0BDE8AB
:10568000F08100BFE96B0300FC3300201002002012
:105690000C020020FC120020086C0300186C0300B0
:1056A000286C0300336C0300F09103008931030080
:1056B0003E6C0300A31003004C6C0300586C030005
:1056C000656C0300181200202DE9F0433B4F3C4E5F
:1056D00085B000254FF00609012305221721CDE9E9
:1056E0000295CDE9005780460124FEF7F9FD2523F8
:1056F00024221121CDE9003440463B46FBF746F811
:10570000304601F069FE40F2DC5007F091F9304676
:1057100001F0EBFB2346052217214046CDE9029517
:10572000CDE90057FEF7DCFDFFF708FF12230294D6
:1057300048BB11251722CDE900353721214B3046D2
:1057400002F024FA2146304602F052FC4FF00113D9
:1057500073612723009301943B462B222946404640
:10576000FBF714F8164801F037FE40F2DC5007F062
:105770005FF9134801F0B9FB114801F02DFE2046F6
:1057800005B0BDE8F0831322CDE9003237210E4B7E
:105790001622304602F0FAF92146304602F028FC83
:1057A0004FF0011373612823019400932B223B4691
:1057B00011214046FAF7EAFF2C46D3E704740300B0
:1057C0006C1200209A6C0300CD6C030073B54FF48B
:1057D000E1315E485E4E5F4D06F072FC5E495D4809
:1057E00006F064FE4FF4FA7007F022F9022105205A
:1057F00007F066F901210E2007F062F90221072067
:1058000007F05EF901210E2007F096F9534951483F
:1058100006F04CFE4FF4FA7007F00AF901240094E8
:1058200023463D2202214E4801F06CFB20B931464F
:10583000284606F03BFEF1E74A4B4B4945481C70B1
:1058400006F034FE4FF47A7007F0F2F8444801F0A5
:105850004CFB434801F0C0FD4448FFF7D9F84348EA
:10586000FFF73AF94148FFF72FFF04463F48FFF79B
:10587000D5F905463D48FFF77FFA002D63D0002893
:1058800008BF00243A4B39481B689C70FFF702FBA5
:105890003648FAF755FF37492E4806F007FE4FF411
:1058A000FA7007F0C5F800230A2233493348FAF7A3
:1058B00096FE0123142232493048FAF790FE022363
:1058C0004FF4FA622F492D48FAF789FE03232E4A36
:1058D0002E492A48FAF783FE012332222C49274811
:1058E000FAF77DFE012332222A492448FAF777FE8F
:1058F000032341F2883228492048FAF770FE032337
:105900004EF6602225491D48FAF769FE03231E4A18
:1059100023491A48FAF763FE03231B4A2149174813
:10592000FAF75DFE0E4801F0E0FA0D4801F054FD73
:1059300007F06CF81C4B1D491860064802B0BDE822
:10594000704006F0B3BD2C469CE700BFC432002077
:10595000F2750300FC330020D0750300DE750300F0
:105960006C120020081400200C760300681300203D
:10597000100200201B760300494201005014002051
:10598000ED3C0100C101010080EE36002103010061
:10599000995301009D0201009103010011020100D1
:1059A00019040100E1020100041300203476030011
:1059B00010B504465C3007F095FE04F1300007F0A6
:1059C00091FE201D07F08EFE204610BD10B586B05A
:1059D000C0688DF80F10036801220092DC680DF199
:1059E0000F010DF11703A0479DF8170006B010BD79
:1059F000F8B5427A036804460E46CFB29B680D0A9A
:105A000062B939469847236860F307069B682946C0
:105A10002046984760F30F26B0B2F8BD2946984754
:105A2000236860F30F269B6839462046984760F349
:105A30000706F1E713B5C06803680092DC680B46FF
:105A4000A04702B010BD70477047C06810B103682E
:105A50005B6818477047704773B543686D46994255
:105A6000044685E806000E4604D1BDF804200389EB
:105A70009A420DD09DF80420E068082107F087FFC6
:105A8000E068314607F0A0FF0098AB886060238192
:105A900002B070BD73B5044654200CF0CFF84FF03F
:105AA000FF3694F9183094F9102094F914100096E8
:105AB000054607F027FFE56002B070BD10B51C2158
:105AC00004460CF0E1F8204610BD000038B505F0A2
:105AD0000AF90C288ABF154B4FF0FF3593F9C050D7
