:020000021000EC
:1000000000000420D54E02000D4F0200610C0200DA
:10001000114F02006D0C0200730C02000000000082
:1000200000000000000000000000000001250200A8
:10003000194F02000000000099250200A9250200C6
:10004000B1910200450002001F4F02001F4F020045
:100050001F4F02001F4F02001F4F02001F4F0200E0
:100060001F4F02001F4F02001F4F02001F4F0200D0
:100070001F4F0200459302001F4F02005D00020067
:100080001F4F02001F4F02001F4F02001F4F0200B0
:100090001F4F02001F4F02001F4F02001F4F0200A0
:1000A0001F4F02001F4F02001F4F02001F4F020090
:1000B0001F4F020039AA01000000000000000000EC
:1000C0001F4F02001F4F02001F4F02001F4F020070
:1000D0001F4F02001F4F02001F4F02001F4F020060
:1000E0001F4F02001F4F02001F4F020000000000C0
:1000F000000000001F4F0200000000001F4F020020
:1001000010B5054C237833B9044B13B10448AFF351
:1001100000800123237010BD70100020000000003B
:1001200094A3030008B5034B1BB103490348AFF385
:10013000008008BD000000007410002094A303009C
:10014000154B002B08BF134B9D46A3F5803A0021A9
:100150008B460F461348144A121A1CF0F9FF0F4B36
:10016000002B00D098470E4B002B00D09847002062
:10017000002104000D000D48002802D00C4811F0A9
:100180005BFB1CF0EFFA2000290012F011F811F0CF
:1001900050FB00BF00000800000004200000000029
:1001A0000D21020070100020E8CD00203918020057
:1001B00000000000BFF34F8F0549064BCA6802F4E8
:1001C000E0621343CB60BFF34F8F00BFFDE700BF7A
:1001D00000ED00E00400FA0570470020704770470A
:1001E000014B01221A707047AC130020D0E9003097
:1001F000184708B50446204609F046FEFBE70B68A1
:1002000003604B6843608B688360704738B5054C6A
:10021000A4F1540520460C3C0CF0A2FAAC42F9D1F2
:1002200038BD00BFCC110020094B1B681A785AB1A9
:100230005A784AB1DA783AB11A792AB101220549D5
:100240009A7005480CF03AB900229A700349F8E711
:100250001002002063100300603300206F100300C1
:1002600010B5044600681CF02DFB204610BD10B5EB
:10027000044600681CF026FB204610BD10B5084C53
:100280000CF0CCFB236803F59673984207D90CF069
:10029000C5FB044A2060137883F00103137010BD7E
:1002A000701200206814002038B50A480A4C0AF081
:1002B000B6F9054630B9094909480CF0FFF823683A
:1002C0001D7138BD074906480CF0F8F82368012273
:1002D0001A71F6E7DC2A00201002002048160300FD
:1002E000603300205916030010B507F0F7FF01280E
:1002F000044619D1144808F0C9FAA8B1134B14499F
:100300001B6814485C700CF0D9F807F0E7FF02286E
:1003100005D007F0E3FF012801D007F0DFFF0A480E
:10032000BDE8104008F0B2BA07F0D8FF022804D1A7
:10033000064B1B6800225A70E7E7034808F0A6FA4C
:100340000028F5D010BD00BFA0130020100200202F
:10035000811003006033002038B51A4C1A48256814
:1003600005F09CFE28601848256805F0B9FF686014
:10037000154805F0C5FE9FED157A2368144A07EE6F
:10038000900AC7EE877AC3ED027AD3ED007AF5EED4
:10039000C07AF1EE10FA0FDDD3ED017AF5EEC07AF6
:1003A000F1EE10FA08DD13680A4901221A700A48B2
:1003B000BDE838400CF082B81368084900221A7072
:1003C000F5E700BF30020020241100200000C842E1
:1003D00010020020A40F030060330020B20F0300BE
:1003E00038B550210A480B4C09F004FC054630B9D9
:1003F00009490A480CF062F82368DD7038BD0849E5
:1004000006480CF05BF823680122DA70F6E700BFBB
:100410001802002010020020921403006033002014
:10042000B7140300F0B590F8B46000234FF0140C3B
:10043000DCB2A6420BD90CFB03F41D4607598F42D0
:1004400003D104446468944203D00133F0E74FF0D1
:10045000FF352846F0BD002910B5044615DB90F89D
:10046000B430994211DA142202FB01F05B1A013B0D
:10047000811821445A4320441CF006FE94F8B430FD
:10048000013B84F8B430012010BD0020FCE72DE9C9
:10049000F84306460CF0C2FA0024142796F8B4304C
:1004A000A3422DD907FB0463D3E90212851A8D42BA
:1004B00018D304EB840006EB80050A44D5F80490B9
:1004C0001D6956F82080DA607DB90125B9F1000F69
:1004D00014DB4846C04796F8B5308BB90CF09EFA4D
:1004E000002DDBD00134E4B2D8E7013D1D61002DC1
:1004F000EBD121463046FFF7AEFFE7E7C047EAE71A
:10050000BDE8F8832DE9F843089F16463A460546AC
:1005100089469846FFF786FF041E2FDA95F8B44007
:100520009DF824309C4228BF1C4695F8B430082B17
:100530002AD85EB3A3420AD9142204FB0220A0F1F8
:1005400014011B1B5A43294428441CF09DFD04EB55
:1005500084039B00EA1845F80390142303FB04541A
:10056000A66057600CF05AFAC4E9030895F8B43055
:10057000013385F8B4300120BDE8F88321462846D0
:10058000FFF769FFE4B2D0E70020F5E73046F3E774
:1005900013B59DF8104001944FF0FF340094FFF71D
:1005A000B1FF02B010BD07B500930023FFF7F0FFC5
:1005B00003B05DF804FB00007FB50023144E8DF8F6
:1005C00007200D468DF80F30322401230DF107026C
:1005D0002946304609F097FB05200CF033FA012339
:1005E0000DF10F022946304609F02AFB9DF80F2035
:1005F0009DF807309A4209D00520013C0CF022FA00
:1006000014F0FF04E1D1204604B070BD0120FBE7E7
:10061000180200207FB50023144EADF806200D46C9
:10062000ADF80E30322402230DF106022946304681
:1006300009F069FB05200CF005FA02230DF10E020A
:100640002946304609F0FCFABDF80E20BDF8063008
:100650009A4209D00520013C0CF0F4F914F0FF0493
:10066000E1D1204604B070BD0120FBE71802002054
:1006700008B50548054A1A2309F045FB0520BDE8E1
:1006800008400CF0DFB900BF18020020261200203D
:1006900030B5174D85B00A24284609F0C0FF60B96F
:1006A0000A20013C0CF0CEF914F0FF04F4D105202F
:1006B0000CF0C6F9204605B030BD0E4C204609F0BE
:1006C0009FFB0D4B03930D4B6946CDE9003404F5B8
:1006D000A8700023029314F02FF8039B13B19B68BA
:1006E00068469847064B074A1B6801241A60DEE7F4
:1006F000DC2A0020E01A0020780E0300F30101003C
:1007000014020020E0FFEDFFF0B587B01E469DF813
:1007100034309DF83070134C09B215B203B30DF1AB
:100720001603039305AB02930DF11203019304AB7F
:100730000A46009356F827102B46204607F0A8FBE0
:10074000BDF814300222C3F1800393FBF2F323823D
:1007500056F82710034865820BF09CFE07B0F0BDE9
:100760002182F5E7D811002008B5AE21034806F034
:1007700015FA034B00221A7008BD00BFD8110020E3
:100780007013002008B5AF21034806F007FA034BA9
:1007900001221A7008BD00BFD8110020701300207C
:1007A00010B50A4904460BF089FE094920460BF0B2
:1007B00085FE084920460BF081FE20460BF078FEAE
:1007C00005490648BDE810400BF078BED80F03007D
:1007D000E80F030000100300121003006033002034
:1007E0002DE9F74F0446DB49DFF86C84DFF86CA491
:1007F000D94DDA4FDFF86894DFF868B4D84E0BF0C3
:100800005DFED84920460BF059FED74920460BF033
:1008100055FED64920460BF051FED54920460BF037
:100820004DFED44920460BF049FED34920460BF03B
:1008300045FED24920460BF041FE414620460BF0D2
:100840003DFECF4920460BF039FECE4920460BF045
:1008500035FECD4920460BF031FE514620460BF0C7
:100860002DFECA4920460BF029FE294620460BF0F2
:1008700025FEC74920460BF021FE394620460BF0E5
:100880001DFEC44920460BF019FEC34920460BF05B
:1008900015FE294620460BF011FEC04920460BF0FC
:1008A0000DFE494620460BF009FEBD4B009319464C
:1008B00020460BF003FE294620460BF0FFFDB94908
:1008C00020460BF0FBFD414620460BF0F7FDB649F4
:1008D00020460BF0F3FDB54920460BF0EFFDB4497F
:1008E00020460BF0EBFD594620460BF0E7FD29466C
:1008F00020460BF0E3FDAF4920460BF0DFFD4146FB
:1009000020460BF0DBFDAC4920460BF0D7FDAB4990
:1009100020460BF0D3FDAA4920460BF0CFFD31460F
:1009200020460BF0CBFDA74920460BF0C7FD29461A
:1009300020460BF0C3FDA44920460BF0BFFD5946ED
:1009400020460BF0BBFD009B204619460BF0B6FD80
:10095000514620460BF0B2FD294620460BF0AEFD75
:100960009A4920460BF0AAFD494620460BF0A6FD09
:100970009749DFF8F49220460BF0A0FD95492046F8
:100980000BF09CFD944920460BF098FD494620460B
:100990000BF094FD914920460BF090FD3146204626
:1009A0000BF08CFD8E4920460BF088FD2946204631
:1009B0000BF084FD8B4920460BF080FD5946204604
:1009C0000BF07CFD8849DFF8A4B220460BF076FDE1
:1009D000864920460BF072FD854920460BF06EFDDE
:1009E000294620460BF06AFD824920460BF066FD41
:1009F000814920460BF062FD804920460BF05EFDE8
:100A00007F4920460BF05AFD294620460BF056FD43
:100A10007C4920460BF052FD314620460BF04EFD3E
:100A2000794920460BF04AFD414620460BF046FD31
:100A3000764920460BF042FD294620460BF03EFD4C
:100A4000734920460BF03AFD314620460BF036FD47
:100A5000514620460BF032FD6E49DFF814A22046C5
:100A60000BF02CFD6C4920460BF028FD2946204652
:100A70000BF024FD694920460BF020FD6849204613
:100A80000BF01CFD674920460BF018FD2946204657
:100A90000BF014FD644920460BF010FD634920461D
:100AA0000BF00CFD294620460BF008FD604920465E
:100AB0000BF004FD394620460BF000FD5D49204651
:100AC0000BF0FCFC5C4920460BF0F8FC5B4920462F
:100AD0000BF0F4FC294620460BF0F0FC5849204668
:100AE0000BF0ECFC314620460BF0E8FC2946204692
:100AF0000BF0E4FC534920460BF0E0FC394620465D
:100B00000BF0DCFC514620460BF0D8FC2946204671
:100B10000BF0D4FC4C4920460BF0D0FC314620466B
:100B20000BF0CCFC294620460BF0C8FC4749204678
:100B30000BF0C4FC394620460BF0C0FC444920466B
:100B40000BF0BCFC434A0192114620460BF0B6FC68
:100B500090E000BF601603005C1703006B170300F2
:100B60007A18030070160300801603009116030024
:100B700098160300C1160300D4160300DC16030008
:100B8000EE160300FA1603002D17030041170300A9
:100B90005E1703007A1703009D170300C3170300B5
:100BA000E6170300FB170300091803001C180300D5
:100BB0002A180300451803005218030066180300A2
:100BC000711803008E180300A3180300AA1803006D
:100BD000B4180300C5180300D0180300EA18030076
:100BE000FF1803000F1903001A1903002C19030042
:100BF0003F19030053190300601903006E19030025
:100C00008819030097190300A0190300B7190300FE
:100C1000C8190300D3190300EA190300FC190300E3
:100C20000D1A0300281A0300381A0300431A0300A0
:100C3000551A0300721A03008F1A0300B41A030036
:100C4000C31A0300E31A03000C1B03001E1B03005E
:100C5000371B03005F1B0300E3160300181A030091
:100C6000CD17030038180300DD180300A31B030091
:100C7000F31A0300DB4B0093194620460BF01EFCD1
:100C8000594620460BF01AFC294620460BF016FC6C
:100C9000D54920460BF012FCD44920460BF00EFC3F
:100CA000D34920460BF00AFC314620460BF006FCE7
:100CB000294620460BF002FCCE4920460BF0FEFBF5
:100CC000394620460BF0FAFBCB4920460BF0F6FBE9
:100CD000019A204611460BF0F1FB009B2046194675
:100CE0000BF0ECFB594620460BF0E8FB294620466A
:100CF0000BF0E4FBC149DFF8ECB320460BF0DEFB60
:100D0000394620460BF0DAFB514620460BF0D6FB65
:100D1000294620460BF0D2FBB949DFF8CCA3B94FE6
:100D200020460BF0CBFBB84B0093194620460BF046
:100D3000C5FB594620460BF0C1FBB44920460BF0D9
:100D4000BDFB514620460BF0B9FB394620460BF05F
:100D5000B5FB294620460BF0B1FBAD4920460BF010
:100D6000ADFB009B204619460BF0A8FB59462046D8
:100D70000BF0A4FBA749DFF874B320460BF09EFBF1
:100D8000514620460BF09AFB394620460BF096FB65
:100D9000294620460BF092FB9F49A04FDFF850A355
:100DA00020460BF08BFB9E4920460BF087FB9D49AC
:100DB00020460BF083FB9C4920460BF07FFB494605
:100DC00020460BF07BFB994920460BF077FB294628
:100DD00020460BF073FB964920460BF06FFB9549BC
:100DE00020460BF06BFB314620460BF067FB924927
:100DF000924E20460BF062FB414620460BF05EFB14
:100E00008F49DFF8F08220460BF058FB8D492046D1
:100E10000BF054FB294620460BF050FB8A49204634
:100E20000BF04CFB894920460BF048FB88492046D3
:100E30000BF044FB294620460BF040FB8549204639
:100E40000BF03CFB844920460BF038FB83492046DD
:100E50000BF034FB294620460BF030FB804920463E
:100E60000BF02CFB7F4920460BF028FB294620463F
:100E70000BF024FB7C4920460BF020FB7B492046ED
:100E80000BF01CFB7A4920460BF018FB79492046F1
:100E90000BF014FB784920460BF010FB2946204646
:100EA0000BF00CFB754920460BF008FB74492046FB
:100EB0000BF004FB734920460BF000FB294620464B
:100EC0000BF0FCFA704920460BF0F8FA6F49204607
:100ED0000BF0F4FA6E4920460BF0F0FA2946204652
:100EE0000BF0ECFA6B4920460BF0E8FA6A49204611
:100EF0000BF0E4FA694920460BF0E0FA6849204615
:100F00000BF0DCFA294620460BF0D8FA654920465A
:100F10000BF0D4FA644920460BF0D0FA634920461E
:100F20000BF0CCFA624920460BF0C8FA294620465D
:100F30000BF0C4FA5F4920460BF0C0FA3146204658
:100F40000BF0BCFA294620460BF0B8FA5A49204665
:100F50000BF0B4FA594920460BF0B0FA2946204666
:100F60000BF0ACFA564920460BF0A8FA554920463A
:100F70000BF0A4FA294620460BF0A0FA524920466D
:100F80000BF09CFA314620460BF098FA2946204691
:100F90000BF094FA4D4920460BF090FA4C4920464C
:100FA0000BF08CFA294620460BF088FA4949204676
:100FB0000BF084FA314620460BF080FA2946204691
:100FC0000BF07CFA444920460BF078FA434920465E
:100FD0000BF074FA424920460BF070FA3146204675
:100FE0008AE000BF841B0300B21B0300CF1B030079
:100FF000E21B0300F41B03000E1C0300361C03005D
:10100000471C03009C1C0300541C03006F1C0300BE
:10101000B31C0300BE1C0300D51C0300B52C030049
:10102000E61C0300FB1C03000D1D0300281D03002C
:101030003D1D0300CE1D0300501D0300FF1F0300D4
:101040006B1D03007B1D0300901D0300A41D030006
:10105000281A0300BF1D0300D31D0300E91D030070
:10106000021E0300111E0300231E0300431E030083
:10107000541E0300761E0300801E03008D1E030015
:10108000991E0300C11E0300D61E0300E31E0300C9
:101090000B1F03001F1F0300351F0300631F030006
:1010A000781F03009D1F0300B61F0300C91F030024
:1010B000DE1F0300F41F03000C20030017200300B1
:1010C00024200300302003003E2003004A200300B8
:1010D00057200300642003006F20030077200300E3
:1010E00080200300621C0300881C03006B3903008E
:1010F000D13A0300472C03000BF0E0F929462046C3
:101100000BF0DCF9D449D54E20460BF0D7F9D44981
:1011100020460BF0D3F9294620460BF0CFF9D149F0
:1011200020460BF0CBF9D04920460BF0C7F9CF4948
:1011300020460BF0C3F9CE4920460BF0BFF9CD494C
:1011400020460BF0BBF9494620460BF0B7F9CA49D7
:10115000DFF84C9420460BF0B1F9294620460BF0FD
:10116000ADF9C64920460BF0A9F9C54920460BF058
:10117000A5F9C44920460BF0A1F9C34920460BF05C
:101180009DF9C24920460BF099F9C14920460BF060
:1011900095F9C04920460BF091F9BF4920460BF064
:1011A0008DF9BE4920460BF089F9BD4920460BF068
:1011B00085F9BC4920460BF081F9BB4920460BF06C
:1011C0007DF9BA4920460BF079F9B94920460BF070
:1011D00075F9B84920460BF071F9B74920460BF074
:1011E0006DF9B64920460BF069F9B54920460BF078
:1011F00065F9B44920460BF061F9B34920460BF07C
:101200005DF9B24920460BF059F9B14920460BF07F
:1012100055F9B04920460BF051F9AF4920460BF083
:101220004DF9AE4920460BF049F9AD4920460BF087
:1012300045F9294620460BF041F9AA4920460BF012
:101240003DF9A94920460BF039F9A84920460BF091
:1012500035F9A74920460BF031F9A64920460BF095
:101260002DF9A54920460BF029F9A44920460BF099
:1012700025F9A34920460BF021F9494620460BF0F9
:101280001DF9A04920460BF019F99F4920460BF0A3
:1012900015F99E4920460BF011F99D4920460BF0A7
:1012A0000DF99C4920460BF009F99B4920460BF0AB
:1012B00005F99A4920460BF001F9994920460BF0AF
:1012C000FDF8984920460BF0F9F8974920460BF0B5
:1012D000F5F8964920460BF0F1F8954920460BF0B9
:1012E000EDF8944920460BF0E9F8934920460BF0BD
:1012F000E5F8924920460BF0E1F8314620460BF024
:10130000DDF88F4920460BF0D9F88E4920460BF0C6
:10131000D5F88D4920460BF0D1F88C4920460BF0CA
:10132000CDF88B4920460BF0C9F8294620460BF032
:10133000C5F8414620460BF0C1F8294620460BF07F
:10134000BDF8294620460BF0B9F8294620460BF097
:10135000B5F8294620460BF0B1F87E4920460BF03F
:10136000ADF8394620460BF0A9F8294620460BF087
:10137000A5F8794920460BF0A1F8784B009319465F
:1013800020460BF09BF8764920460BF097F829464B
:1013900020460BF093F8734920460BF08FF8724902
:1013A00020460BF08BF8714920460BF087F8704906
:1013B00020460BF083F8464920460BF07FF849465B
:1013C00020460BF07BF8314620460BF077F8294693
:1013D00020460BF073F86749674EDFF8D49020463B
:1013E0000BF06CF8654920460BF068F8644920461C
:1013F0000BF064F8634920460BF060F86249204620
:101400000BF05CF8314620460BF058F85F49204657
:101410000BF054F8314620460BF050F85C4920465A
:101420000BF04CF8314620460BF048F8594920465D
:101430000BF044F8314620460BF040F85649204660
:101440000BF03CF8314620460BF038F85349204663
:101450000BF034F8A6E000BF8A200300D72A03006F
:1014600095200300A3200300B9200300C22003003D
:10147000D5200300ED2003000A2103001E210300F4
:1014800027210300472103007A2103008321030061
:1014900095210300AB210300CD210300FB210300B4
:1014A000322203004122030054220300DA22030007
:1014B000FC22030020230300442303006F230300C6
:1014C0008B230300A5230300C6230300F32303009B
:1014D000AF210300D1210300272403005C24030073
:1014E0007A240300B7240300ED2403002A25030017
:1014F00068250300AD250300EB250300302603001B
:101500006E260300F126030036270300762703002A
:10151000BD270300FD27030044280300842803009F
:10152000CB2803000B290300522903009229030052
:10153000D9290300192A0300602A0300982A03000E
:10154000112B0300522B0300822B0300AC2B030052
:10155000F62B0300882C0300C92C0300DF2C0300AA
:10156000F72C0300582D0300732D0300B32D030047
:10157000CB2D0300E92D0300A72E0300402E03000E
:10158000562E03006B2E0300782E0300E22E03007C
:10159000162F03004A2F03007E2F0300B22F0300F3
:1015A000B3260300314620460AF088FFD34920467F
:1015B0000AF084FF314620460AF080FFD0492046D9
:1015C0000AF07CFF314620460AF078FFCD4ECE4926
:1015D00020460AF073FFCD4920460AF06FFF3146DE
:1015E00020460AF06BFFCA4920460AF067FF3146E1
:1015F00020460AF063FF294620460AF05FFFC549EE
:10160000C54E20460AF05AFFC44920460AF056FF4C
:10161000C34920460AF052FFC24920460AF04EFF55
:10162000C14920460AF04AFFC04920460AF046FF59
:10163000BF4920460AF042FFBE4920460AF03EFF5D
:10164000BD4920460AF03AFFBC4920460AF036FF61
:10165000BB4920460AF032FFBA4920460AF02EFF65
:10166000B94920460AF02AFFB84920460AF026FF69
:10167000B74920460AF022FFB64920460AF01EFF6D
:10168000B54920460AF01AFFB44920460AF016FF71
:10169000B34920460AF012FFB24920460AF00EFF75
:1016A000B14920460AF00AFF414620460AF006FFEB
:1016B000AE49DFF8948320460AF000FF2946204611
:1016C0000AF0FCFEAA4920460AF0F8FEA949204685
:1016D0000AF0F4FEA84920460AF0F0FEA749204689
:1016E0000AF0ECFEA64920460AF0E8FEA54920468D
:1016F0000AF0E4FEA44920460AF0E0FEA349204691
:101700000AF0DCFEA24920460AF0D8FEA149204694
:101710000AF0D4FE294620460AF0D0FE9E49204613
:101720000AF0CCFE9D4920460AF0C8FE9C4920469E
:101730000AF0C4FE9B4920460AF0C0FE9A492046A2
:101740000AF0BCFE994920460AF0B8FE3146204610
:101750000AF0B4FE294620460AF0B0FE594620465B
:101760000AF0ACFE294620460AF0A8FE9049204621
:101770000AF0A4FE8F4920460AF0A0FE8E492046BA
:101780000AF09CFE8D4920460AF098FE8C492046BE
:101790000AF094FE294620460AF090FE8949204628
:1017A0000AF08CFE884920460AF088FE5146204601
:1017B0000AF084FE494620460AF080FE834920460E
:1017C0000AF07CFE414620460AF078FE8049204619
:1017D0000AF074FE7F4920460AF070FE7E492046DA
:1017E0000AF06CFE7D4920460AF068FE7C492046DE
:1017F0000AF064FE7B4920460AF060FE7A492046E2
:101800000AF05CFE794920460AF058FE78492046E5
:101810000AF054FE774920460AF050FE76492046E9
:101820000AF04CFE754920460AF048FE74492046ED
:101830000AF044FE734920460AF040FE72492046F1
:101840000AF03CFE714920460AF038FE70492046F5
:101850000AF034FE6F4920460AF030FE6E492046F9
:101860000AF02CFE6D4920460AF028FE6C492046FD
:101870000AF024FE6B4920460AF020FE2946204645
:101880000AF01CFE684920460AF018FE6749204607
:101890000AF014FE294620460AF010FE294620468A
:1018A0000AF00CFE294620460AF008FE6049204650
:1018B0000AF004FE394620460AF000FE5D49204643
:1018C0000AF0FCFD5C4920460AF0F8FD5B49204621
:1018D0000AF0F4FD009B204619460AF0EFFD584936
:1018E00020460AF0EBFD594620460AF0E7FD29465E
:1018F00020460AF0E3FD5349A8E000BFE62F0300AD
:101900001A300300363103004A3003005930030017
:101910004A310300513103005C390300DE3103001A
:10192000FB3103001D3203003F320300533203003A
:101930006332030088320300CC3203001A33030001
:1019400068330300B6330300043403005234030049
:10195000A0340300E6340300ED340300FD3403003B
:10196000263503005435030096350300C5350300C2
:10197000053603003236030072360300A136030039
:10198000E5360300153703005B3703008937030092
:10199000CB370300F93703003B3803005B38030003
:1019A000D8380300FA380300333903003F39030005
:1019B00079390300AE390300C7390300E039030069
:1019C0004B3A0300553A0300B03A0300FD3A0300D6
:1019D0002A3B0300463B0300A92303005C3B0300B2
:1019E000883B0300BE3B03006C3C03009D3C0300AE
:1019F0002D3D0300BD3D03004B3E0300D93E0300D7
:101A0000693F0300F93F03005A400300B740030059
:101A10000F41030067410300C7410300094203006F
:101A20003F420300EE42030068420300A24203006B
:101A3000FD420300344303003D430300A843030079
:101A4000C84303002344030044230300DFF894B495
:101A500020460AF033FDD74920460AF02FFDD6492B
:101A600020460AF02BFDD54920460AF027FDD4492F
:101A700020460AF023FD294620460AF01FFDD149E1
:101A800020460AF01BFDD04920460AF017FDCF4939
:101A900020460AF013FDCE4920460AF00FFD5146BC
:101AA00020460AF00BFD494620460AF007FD414654
:101AB00020460AF003FDC749DFF82C84DFF82C9498
:101AC000DFF82CA420460AF0F9FCC34920460AF0AE
:101AD000F5FCC24920460AF0F1FC314620460AF0E6
:101AE000EDFC294620460AF0E9FC294620460AF08A
:101AF000E5FC294620460AF0E1FC294620460AF08A
:101B0000DDFCB749B74E20460AF0D8FC39462046DE
:101B10000AF0D4FC294620460AF0D0FC294620468B
:101B20000AF0CCFCB049B14DB14F20460AF0C6FCDA
:101B3000B04920460AF0C2FCAF4920460AF0BEFC7C
:101B4000AE4920460AF0BAFCAD4920460AF0B6FC80
:101B5000AC4920460AF0B2FCAB4920460AF0AEFC84
:101B6000414620460AF0AAFCA84920460AF0A6FCF5
:101B7000A74920460AF0A2FCA64920460AF09EFC8E
:101B8000A54920460AF09AFCA44920460AF096FC92
:101B9000A34920460AF092FC294620460AF08EFC12
:101BA000A04920460AF08AFC9F4920460AF086FC9C
:101BB0009E4920460AF082FC9D4920460AF07EFCA0
:101BC000414620460AF07AFC9A4920460AF076FC03
:101BD000394620460AF072FC974920460AF06EFC0E
:101BE000964920460AF06AFC954920460AF066FCB0
:101BF000314620460AF062FC394620460AF05EFC77
:101C0000904920460AF05AFC8F4920460AF056FCBB
:101C1000314620460AF052FC394620460AF04EFC76
:101C20008A4920460AF04AFC894920460AF046FCC7
:101C3000314620460AF042FC394620460AF03EFC76
:101C4000844920460AF03AFC834920460AF036FCD3
:101C5000314620460AF032FC394620460AF02EFC76
:101C60007E497F4F20460AF029FC7E4920460AF033
:101C700025FC314620460AF021FC7B497B4E20465C
:101C80000AF01CFC294620460AF018FC7849204638
:101C90000AF014FC774920460AF010FC76492046E9
:101CA0000AF00CFC414620460AF008FC7349DFF8B4
:101CB000448220460AF002FC294620460AF0FEFB38
:101CC000294620460AF0FAFB6D4920460AF0F6FB49
:101CD000294620460AF0F2FB6A4920460AF0EEFB4C
:101CE000694920460AF0EAFB684920460AF0E6FB0B
:101CF000674920460AF0E2FB664920460AF0DEFB0F
:101D0000294620460AF0DAFB634920460AF0D6FB52
:101D1000624920460AF0D2FB614920460AF0CEFB18
:101D2000604920460AF0CAFB5F4920460AF0C6FB1C
:101D3000294620460AF0C2FB5C4920460AF0BEFB59
:101D40005B4920460AF0BAFB5A4920460AF0B6FB26
:101D5000594920460AF0B2FB584920460AF0AEFB2A
:101D6000574920460AF0AAFB564920460AF0A6FB2E
:101D7000554920460AF0A2FB544920460AF09EFB32
:101D8000534920460AF09AFB524920460AF096FB36
:101D9000514920460AF092FB504920460AF08EFB3A
:101DA0004F4920460AF08AFB294620460AF086FB66
:101DB000A2E000BF7F4403009F440300E34403000C
:101DC0002945030097450300004603001B46030016
:101DD000554603006F2303008B230300A523030054
:101DE000754603000A490300A7460300374C030069
:101DF0007D6B0300B5460300BF460300C7460300E2
:101E0000D5460300F04603000547030032470300B0
:101E10003E4703009E470300444B0300D5470300A1
:101E2000F34703000E48030018480300324803003C
:101E30004F4803005E480300884803008D480300B4
:101E4000D1480300104903005B490300994903008E
:101E5000E3490300214A0300794A0300B94A030019
:101E600074520300094B0300494B0300B4510300B3
:101E70004F4B0300564B03006C4B0300804B030099
:101E8000914B0300994B0300C84B0300ED4B03003B
:101E9000054C03001B4C03003E4C0300604C030048
:101EA000994C0300C44C0300EB4C0300174D030096
:101EB000384D0300684D03007F4D0300974D03002C
:101EC000B44D0300CC4D0300E34D0300004E03006E
:101ED000364E03006C4E0300A14E0300D64E0300A5
:101EE0000C4F0300D05C03001A4703002753030084
:101EF000765E03000D550300D94920460AF0DEFA4C
:101F0000D84920460AF0DAFA294620460AF0D6FADD
:101F1000294620460AF0D2FA294620460AF0CEFA8F
:101F2000D14920460AF0CAFAD04920460AF0C6FA3A
:101F3000CF4920460AF0C2FACE4920460AF0BEFA3E
:101F4000CD4920460AF0BAFACC4920460AF0B6FA42
:101F5000CB4B0193194620460AF0B0FAC94A0092C9
:101F6000114620460AF0AAFAC74920460AF0A6FA06
:101F7000C64920460AF0A2FAC54920460AF09EFA50
:101F8000C44920460AF09AFAC34920460AF096FA54
:101F9000C24920460AF092FAC14920460AF08EFA58
:101FA000314620460AF08AFABE4920460AF086FAEF
:101FB000BD4920460AF082FABC4920460AF07EFA62
:101FC000BB4920460AF07AFABA4920460AF076FA66
:101FD000B94920460AF072FAB84920460AF06EFA6A
:101FE000394620460AF06AFA314620460AF066FA77
:101FF000B34920460AF062FAB24920460AF05EFA76
:10200000B14920460AF05AFAB04920460AF056FA79
:10201000494620460AF052FAAD4920460AF04EFAE7
:10202000AC4920460AF04AFAAB4920460AF046FA83
:10203000AA4920460AF042FAA94920460AF03EFA87
:10204000A84920460AF03AFA394620460AF036FAFC
:10205000314620460AF032FAA34920460AF02EFA09
:10206000A24920460AF02AFAA14920460AF026FA97
:10207000A04920460AF022FA414620460AF01EFAFC
:10208000414620460AF01AFA9B49DFF8F0822046C2
:102090000AF014FA994920460AF010FA98492046A5
:1020A0000AF00CFA314620460AF008FA9549204613
:1020B0000AF004FA944920460AF000FA394620460C
:1020C0000AF0FCF9314620460AF0F8F98F4920461B
:1020D0000AF0F4F98E4920460AF0F0F93946204614
:1020E0000AF0ECF9314620460AF0E8F98949204621
:1020F0000AF0E4F9884920460AF0E0F9394620461A
:102100000AF0DCF9314620460AF0D8F98349204626
:102110000AF0D4F9824920460AF0D0F981492046D4
:102120000AF0CCF9804920460AF0C8F97F492046D8
:102130000AF0C4F97E4920460AF0C0F97D492046DC
:102140000AF0BCF97C4920460AF0B8F97B492046E0
:102150000AF0B4F97A4920460AF0B0F93946204627
:102160000AF0ACF9314620460AF0A8F97549204634
:102170000AF0A4F9414620460AF0A0F97249204627
:102180000AF09CF9394620460AF098F93146204673
:102190000AF094F96D4920460AF090F9414620462C
:1021A0000AF08CF96A4920460AF088F93946204637
:1021B0000AF084F9314620460AF080F96549204644
:1021C0000AF07CF9414620460AF078F96249204637
:1021D0000AF074F9394620460AF070F93146204673
:1021E0000AF06CF95D4920460AF068F9414620463C
:1021F0000AF064F95A4920460AF060F93946204647
:102200000AF05CF9314620460AF058F95549204653
:102210000AF054F9414620460AF050F95249DFF8D5
:10222000608120460AF04AF9394620460AF046F90C
:10223000314620460AF042F94C4920460AF03EF960
:102240004B4920460AF03AF94A4920460AF036F945
:10225000494620460AF032F94749204692E000BF3D
:10226000424F0300774F0300BE4F0300F64F0300B9
:102270001B5003004B50030084500300E050030048
:102280000651030011510300275103003D51030083
:1022900054510300685103007D5103009251030023
:1022A000A8510300B9510300D3510300ED510300BD
:1022B00008520300215203003A5203005352030014
:1022C0007A52030093520300C3520300B35C03002D
:1022D000335303003E5303004B530300B353030037
:1022E000CD5303002E5403004B54030067540300E6
:1022F000A1540300F6540300235503008B5503003B
:10230000A1550300E1550300FD550300525603009B
:102310006E560300C3560300DF5603003457030014
:10232000505703008B570300E15703003A5803004E
:10233000525803006A58030082580300DD58030016
:102340003E59030078590300EB590300445A030037
:10235000605A0300B95A0300D55A03002E5B0300EC
:102360004A5B0300A35B0300BF5B0300185C030030
:10237000315C0300635C0300C25C030094590300FA
:10238000DA5D03000AF09AF8594620460AF096F8FA
:10239000D84920460AF092F8394620460AF08EF8CD
:1023A000314620460AF08AF8D34920460AF086F8DA
:1023B000D24920460AF082F8D14920460AF07EF838
:1023C000D04920460AF07AF8414620460AF076F8CD
:1023D000414620460AF072F8CB49DFF830842046A7
:1023E0000AF06CF8C94920460AF068F839462046D8
:1023F0000AF064F8C64920460AF060F851462046C3
:102400000AF05CF8C34920460AF058F8C249204651
:102410000AF054F8C14920460AF050F829462046EF
:102420000AF04CF8414620460AF048F82946204672
:102430000AF044F8BA4920460AF040F8B949204663
:102440000AF03CF8B84920460AF038F8B749204667
:102450000AF034F8B64920460AF030F8019B2046CD
:1024600019460AF02BF8009A204611460AF026F881
:10247000B04920460AF022F8AF4920460AF01EF87B
:10248000AE4920460AF01AF8AD4920460AF016F87F
:10249000AC4920460AF012F8AB4920460AF00EF883
:1024A000AA4920460AF00AF8A94920460AF006F887
:1024B000314620460AF002F8A649204609F0FEFF00
:1024C000A549204609F0FAFFA449204609F0F6FF85
:1024D000A349204609F0F2FFA249204609F0EEFF89
:1024E000A149204609F0EAFFA049204609F0E6FF8D
:1024F0009F49204609F0E2FF3946204609F0DEFFF9
:102500003146204609F0DAFF9A49204609F0D6FF05
:102510009949204609F0D2FF9849204609F0CEFF9C
:102520009749204609F0CAFF4946204609F0C6FFF0
:102530009449204609F0C2FF9349204609F0BEFFA6
:102540009249204609F0BAFF9149204609F0B6FFAA
:102550003946204609F0B2FF3146204609F0AEFF69
:102560008C49204609F0AAFF8B49204609F0A6FFB6
:102570008A49204609F0A2FF8949204609F09EFFBA
:102580004946204609F09AFF8649204609F096FF01
:102590008549204609F092FF8449204609F08EFFC4
:1025A0003946204609F08AFF3146204609F086FF69
:1025B0007F49204609F082FF7E49204609F07EFFD0
:1025C0007D49204609F07AFF7C49204609F076FFD4
:1025D0004946204609F072FF7949204609F06EFF0E
:1025E0005946204609F06AFF7649DFF824B22046B2
:1025F00009F064FF3946204609F060FF3146204665
:1026000009F05CFF7049204609F058FF6F492046E9
:1026100009F054FF6E49204609F050FF6D4A0192BF
:102620001146204609F04AFF4946204609F046FF78
:102630006949204609F042FF684B0093194620463D
:1026400009F03CFF5946204609F038FF644920460E
:1026500009F034FF3946204609F030FF3146204664
:1026600009F02CFF5F49204609F028FF5E4920460B
:1026700009F024FF5D49204609F020FF019A204619
:10268000114609F01BFF4946204609F017FF58493B
:10269000204609F013FF009B2046194609F00EFF63
:1026A0005946204609F00AFF5249204609F006FF24
:1026B0003946204609F002FF3146204609F0FEFE69
:1026C0004D49204609F0FAFE4C49204609F0F6FE35
:1026D0004B49204609F0F2FE4A49204609F0EEFE39
:1026E0004946204609F0EAFE4749204609F0E6FE41
:1026F00090E000BFDE5C0300385D0300515D030025
:10270000845D0300CF5D0300E45D0300465E0300CB
:102710006D5E0300875E03009D5E0300CC5E0300D8
:102720001E5F0300435F0300735F0300AC5F0300A1
:10273000086003002E600300456003005D60030035
:1027400054510300685103007D510300925103006E
:10275000A8510300B9510300D3510300ED51030008
:102760007360030008520300215203003A52030031
:10277000535203008D600300A6600300DC60030079
:102780002961030035610300416103004D610300CD
:10279000BF610300D0610300E96103002062030010
:1027A0006B62030077620300836203008F620300A1
:1027B000FB62030014630300496303009863030092
:1027C000A5630300B36303000D64030026640300E4
:1027D0005E640300AC640300BD640300C8640300CE
:1027E0003B6503007D65030096650300CF6503002C
:1027F0001F6603002A660300696603008266030001
:10280000B56603000567030011670300165F030048
:10281000D46403007549204609F050FE74492046EF
:1028200009F04CFE7349204609F048FE394620461F
:1028300009F044FE3146204609F040FE6E496F4ED5
:10284000204609F03BFE6E49204609F037FE6D49EF
:10285000204609F033FE6C49204609F02FFE6B49F3
:10286000204609F02BFE6A49204609F027FE6949F7
:10287000204609F023FE4946204609F01FFE66491E
:10288000204609F01BFE6549204609F017FE644901
:10289000204609F013FE3946204609F00FFE614933
:1028A000204609F00BFE5146204609F007FE5E491E
:1028B000204609F003FE5D49204609F0FFFD5C4912
:1028C000204609F0FBFD2946204609F0F7FD294680
:1028D000204609F0F3FD4146204609F0EFFD294668
:1028E000204609F0EBFD5349204609F0E7FD524927
:1028F000204609F0E3FD5149204609F0DFFD50492B
:10290000204609F0DBFD3146204609F0D7FD4D4950
:10291000204609F0D3FD4C49204609F0CFFD294659
:10292000204609F0CBFD4949204609F0C7FD314654
:10293000204609F0C3FD4649204609F0BFFD454940
:10294000204609F0BBFD2946204609F0B7FD424963
:10295000204609F0B3FD3146204609F0AFFD3F495E
:10296000204609F0ABFD3E49204609F0A7FD294667
:10297000204609F0A3FD4146204609F09FFD294667
:10298000204609F09BFD4146204609F097FD294667
:10299000204609F093FD3349204609F08FFD324966
:1029A000204609F08BFD3149204609F087FD30496A
:1029B000204609F083FD2F49204609F07FFD2E496E
:1029C000204609F07BFD2D49204609F077FD294678
:1029D000204609F073FD2A49204609F06FFD294978
:1029E000204603B0BDE8F04F09F068BD1E67030044
:1029F0002C670300926703009F670300E0690300F0
:102A0000B8670300EF670300266803004E68030001
:102A10007668030085680300916803009F680300DF
:102A2000AD6803006D5E0300875E03000469030068
:102A3000336903006469030094690300C2690300F9
:102A4000C9690300E6690300166A0300726A03009D
:102A50008D6A0300C26A0300206B03003C6B030015
:102A6000826B0300BF6B0300096C0300386C03002A
:102A7000426C0300746C03008F6C0300A96C0300AC
:102A8000B16C0300B96C0300392884BF0738C0B2A9
:102A9000392984BF0739C9B201F00F0100F00F00D6
:102AA00041EA0010704700002DE9F0410C4618493A
:102AB000184DDFF86480064609F098FE002721468D
:102AC000284609F063FF0378262B1DD021462846AF
:102AD00009F05CFF0378202B16D05FB12146284611
:102AE00009F054FF0178304609F022FF3146404694
:102AF00009F0EEFC2146284609F048FF03783D2BFB
:102B000008BF01270134DAE73046BDE8F08100BF95
:102B1000909203006C140020603300202DE9F047F0
:102B200086B0BD49684609F061FEBC4903A809F0BA
:102B30005DFE03A9BA4809F046FF044603A809F060
:102B40000FFE002C80F2CA820024B64903A809F0C7
:102B50004DFE03A9B24809F036FF054603A809F067
:102B6000FFFD002D47DB294603A8FFF79DFF03A9C2
:102B7000684609F0B4FE03A809F0F2FD002168469A
:102B800009F004FF01210578684609F0FFFE01788D
:102B90002846A54DFFF778FF2B685B7883422AD043
:102BA0000021684609F0F2FE01210478684609F028
:102BB000EDFE01782B682046FFF766FF9B495870B1
:102BC0009B4809F05EFC2B68994859780A2209F065
:102BD000F7FC2B6897485A780121FDF7EDFC044675
:102BE000052009F02FFF002C40F0B1829249904857
:102BF00009F064FC0124914903A809F0F7FD03A939
:102C0000874809F0E0FE054603A809F0A9FD002D5C
:102C100047DB294603A8FFF747FF03A9684609F0E9
:102C20005EFE03A809F09CFD0021684609F0AEFE97
:102C300001210578684609F0A9FE017828467A4DF9
:102C4000FFF722FF2B689B7883422AD00021684639
:102C500009F09CFE01210478684609F097FE01788E
:102C60002B682046FFF710FF75499870704809F0EF
:102C700008FC2B686E4899780A2209F0A1FC2B68A1
:102C80006C489A780221FDF797FC0446052009F06C
:102C9000D9FE002C40F060826A49654809F00EFCBC
:102CA0000124694903A809F0A1FD03A95C4809F0C2
:102CB0008AFE054603A809F053FD002D47DB29468F
:102CC00003A8FFF7F1FE03A9684609F008FE03A870
:102CD00009F046FD0021684609F058FE01210578FB
:102CE000684609F053FE017828464F4DFFF7CCFEA9
:102CF0002B68DB7883422AD00021684609F046FE23
:102D000001210478684609F041FE01782B682046CD
:102D1000FFF7BAFE4D49D870454809F0B2FB2B6861
:102D20004348D9780A2209F04BFC2B684148DA78ED
:102D30000321FDF741FC0446052009F083FE002C29
:102D400040F00F8242493A4809F0B8FB012441495A
:102D500003A809F04BFD03A9314809F034FE0546EC
:102D600003A809F0FDFC002D47DB294603A8FFF767
:102D70009BFE03A9684609F0B2FD03A809F0F0FC28
:102D80000021684609F002FE01210578684609F035
:102D9000FDFD01782846244DFFF776FE2B681B7950
:102DA00083422AD00021684609F0F0FD0121047811
:102DB000684609F0EBFD01782B682046FFF764FEBA
:102DC000254918711A4809F05CFB2B6818481979D5
:102DD0000A2209F0F5FB2B6816481A790421FDF741
:102DE000EBFB0446052009F02DFE002C40F0BE81CF
:102DF0001A490F4809F062FB0124194903A809F098
:102E0000F5FC03A9064809F0DEFD054603A809F014
:102E1000A7FC002D6EDB25E0909203008D100300CF
:102E20006C140020D51003000C020020EB100300EE
:102E300060330020D0120020041103002C11030085
:102E4000421103005B110300831103009911030079
:102E5000B2110300DA110300F0110300091203009C
:102E600031120300294603A8FFF71EFE03A9684696
:102E700009F035FD03A809F073FC0021684609F04C
:102E800085FD01210578684609F080FD0178284616
:102E9000B94DFFF7F9FD2B685B7983422AD00021F9
:102EA000684609F073FD01210478684609F06EFD5B
:102EB00001782B682046FFF7E7FDB0495871B0480C
:102EC00009F0DFFA2B68AE4859790A2209F078FB3D
:102ED0002B68AC485A790521FDF76EFB04460520A6
:102EE00009F0B0FD002C40F07581A749A44809F015
:102EF000E5FA0124A54903A809F078FC03A9A44830
:102F000009F061FD054603A809F02AFC002D47DB06
:102F1000294603A8FFF7C8FD03A9684609F0DFFCAE
:102F200003A809F01DFC0021684609F02FFD0121CE
:102F30000578684609F02AFD017828468E4DFFF78E
:102F4000A3FD2B689B7983422AD00021684609F0B3
:102F50001DFD01210478684609F018FD01782B68F1
:102F60002046FFF791FD8B499871854809F089FA51
:102F70002B68834899790A2209F022FB2B68814843
:102F80009A790621FDF718FB0446052009F05AFD41
:102F9000002C40F024818049794809F08FFA0124FF
:102FA0007E4903A809F022FC03A9794809F00BFD2A
:102FB000054603A809F0D4FB002D33DB294603A8FE
:102FC000FFF772FD03A9684609F089FC6A4D03A862
:102FD00009F0C6FB684609F0F9FC2B681B8998428A
:102FE00020D0684609F0F2FC2B686D4918816448CE
:102FF00009F047FA2B68624819890A2209F0C7FAD2
:103000002B6860481A890821FDF704FB0446052057
:1030100009F018FD002C40F0E7806249584809F09B
:103020004DFA01240025DFF8A891DFF864A1DFF84C
:1030300048812F460C2606FB05963146504609F07E
:10304000C2FC011EC0F2DB8003A8FFF72DFD03A91F
:10305000684609F044FC03A809F082FB684609F0C1
:10306000B5FC2F1DD8F800307F003B449B88984268
:1030700032D0684609F0AAFCD8F800304A493B44EF
:1030800098803F4809F0FDF931463D4809F0FDF9C7
:1030900046493B4809F0F5F9D8F8003038483B4438
:1030A0000A22998809F073FAD8F8003035481F448D
:1030B000691DBA884900FDF7ADFA0746052009F0F9
:1030C000C1FC31462E48002F40F0938009F0DDF915
:1030D00037492B4809F0F2F9012790E0214603A86F
:1030E000FFF7E2FC03A9684609F0F9FB224C03A8AC
:1030F00009F036FB684609F069FC23681B789842A2
:103100003FF422AD684609F061FC23682949187034
:103110001B4809F0B6F92368194819780A2209F002
:103120004FFA236817481A780021FDF745FA04463C
:10313000052009F087FC2CB91F49114809F0BEF998
:10314000012402E51D490E4809F0B8F9FDE41C49C7
:103150000B4809F0B3F94EE51A49094809F0AEF9F0
:103160009FE51949064809F0A9F9F0E5174904480F
:1031700009F0A4F941E600BF0C0200204712030049
:1031800060330020D0120020601203008812030078
:103190006C1400209E120300B7120300DF1203001C
:1031A000E9120300FD1203002B130300A310030018
:1031B0000A11030096100300A9100300BC100300BD
:1031C000151103006C110300C31103001A12030050
:1031D000841100201549164809F070F98AE615494E
:1031E000134809F06BF9DBE61349114809F066F959
:1031F00018E709F04AF911490D4809F05FF901355E
:10320000072D7FF417AF44EA47040D49084809F039
:1032100038F90A222146064809F0B9F9684609F04A
:103220009FFA204606B0BDE8F08700BF7112030088
:1032300060330020C8120300111303001B110300A8
:10324000301303002DE9F8432C4E2D492D4F044631
:1032500009F017F933680A221978204609F0AEF907
:103260002949204609F00DF92849204609F009F9B5
:1032700033680A221989204609F087F92249204635
:1032800009F0FFF82249204609F0FBF800253368D1
:103290002B4410225978204609F090F9052D03D0CF
:1032A0003946204609F0EDF80135062DEFD11649D3
:1032B000184FDFF86480DFF85090204609F0E1F8FD
:1032C00000250C2101FB0571204609F0DEF841467E
:1032D000204609F0D6F8336803EB45030A229989A2
:1032E000204609F052F9062D03D04946204609F040
:1032F000C8F80135072DE4D1BDE8F8830C020020A1
:10330000FD130300613203005A3B03000214030063
:103310000A14030084110020001403004A6842606C
:103320008A688260CA68C260034A02600A7C0274CA
:103330004A8A4282704700BF1082030013B502AA76
:103340000024214642F8044D04230E4806F078FC80
:10335000019959B90C48FDF78BF9052009F072FB6A
:103360000A490B4809F0AAF802B010BD21461A23F9
:10337000084A044806F064FC052009F063FB06498E
:10338000EFE700BF18020020D0120020C414030091
:103390006033002026120020DD1403002DE9F347DE
:1033A0000121092009F094FB0121092009F0CCFB3F
:1033B0000121082009F08CFB0121082009F0C4FB41
:1033C00001210A2009F084FB01210A2009F0BCFB3D
:1033D000C82009F035FB0A2004F07AFF414B424D2A
:1033E0001868424B0093424B424E5B68019369461A
:1033F000013005F005F801210A2009F0A5FB3E493E
:103400003C4809F05BF8002404F072FF60B92946DB
:103410003046013409F052F80A20E4B209F010FBFA
:103420000A2CF1D1002708E004F062FF0328F7D14D
:103430003249304809F042F80127314E2D4D0A2417
:1034400004F04CFF022833D13146284609F036F803
:10345000013C0A2009F0F4FA14F0FF04F0D1DFF87F
:10346000B880DFF8B8A0DFF88C900A26404605F057
:10347000F5F9404605F00AFA0546F8B951464846BE
:1034800009F01CF8013E0A2009F0DAFA16F0FF06EE
:10349000ECD11C4EF4B1EFB1E5B11B49154809F070
:1034A0000DF8336801225A70284602B0BDE8F08753
:1034B0001649104809F002F80124D0E714490D48D4
:1034C00008F0DFFF684604F0B1FF6946094809F0DB
:1034D00013F8DEE70F49074808F0F0FF33680025CE
:1034E0005D70E1E70C020020D10E0300FC860300B2
:1034F0006812002060330020BD0E0300EF0E0300B1
:10350000120F0300100200206D0F0300320F0300A2
:103510005E0F0300840F0300A01300204B0F030075
:103520002DE9F0411C4FDFF888801C4D0A243A46F3
:103530007621404602F0AEFD064670B9184919489A
:1035400008F0BCFF2B6864201E70013C09F078FA7B
:1035500014F0FF04EBD1BDE8F08113491148134C7E
:1035600008F0ACFF2B681248256801221A7002F09F
:1035700095FD28600E48256802F0B2FE68600C4890
:1035800002F0BEFD9FED0B7A236807EE900AC7EEAE
:10359000877AC3ED027ADEE794140020100200203F
:1035A000347603006033002053760300300200209D
:1035B000241100200000C8420148FCF768BF00BF8A
:1035C000B013002070B58C00002605460161C6606E
:1035D000204619F06FF900232860AE606B60044448
:1035E000A04202D040F8043BFAE7284670BD06EE40
:1035F000901A10B5D0E9031483680268A14202EB67
:10360000830223BFD2ED007A90ED017A37EE677A1C
:1036100001312CBF80ED017AC160C2ED006AD0EDAE
:10362000017A013377EEA67A9C4298BF0023C0ED61
:10363000017A836010BD00002DE9F04F2DED028B63
:10364000934F944C83B028253E460DF0D9FD0DF0E4
:10365000D7FDD7F84021D7F844319A4240F0F280A4
:1036600097F84831002B40F0ED800DF0DFFDDFF8DA
:1036700044820DF0DBFD21684046FFF7B8FF61682A
:103680008548FFF7B4FF013DA1688448FFF7AFFF0D
:1036900015F0FF05D9D1D8F80C30002B00F0E980E7
:1036A00007EE903AD8ED016AF8EE677A86EEA77ACF
:1036B000794AD368002B00F0DF8007EE903AD2ED14
:1036C000016AF8EE677A86EEA78A744AD368002BFF
:1036D00000F0D58007EE903AD2ED016AF8EE677AF5
:1036E000C6EEA78ADFF8D0A1DAF8008017EE100A3C
:1036F00017F0A6F80646B8F900000F4617F08EF846
:10370000002204460D46664B3046394616F03AFF15
:1037100002460B462046294617F0EAF817F098FBB8
:1037200000B217F07BF800225E4B16F02BFF18F06A
:103730009FF817F08DFB00B217F070F800225A4B7B
:1037400016F020FF17F084FBA8F8040018EE900A8A
:1037500017F076F80446B8F902000D4617F05EF847
:103760000022CDE900014E4B2046294616F00AFF03
:1037700002460B46DDE9000117F0BAF817F068FBC6
:1037800000B217F04BF80022464B16F0FBFE18F083
:103790006FF817F05DFB00B217F040F80022434BC2
:1037A00016F0F0FE17F054FBA8F8060018EE100A09
:1037B00017F046F802460B4617F09AF82246804664
:1037C00089462B462046294617F092F842464B463A
:1037D00016F0D8FE18F0CCF802460B4630463946B3
:1037E00017F0B0F917F0ACFE27A3D3E9002317F0C8
:1037F0007FF817F075FBDAF800B03246CBF8080016
:103800003B463046394617F073F842464B4616F0B1
:10381000B9FE18F0ADF802460B462046294617F0CF
:1038200091F917F08DFE18A3D3E9002317F060F883
:1038300017F056FBDAF80040206103B0BDEC028BB4
:10384000BDE8F08F0DF0F2FCD6F8443103F1010C25
:1038500006EB03130FCBBCF1140F84E80F004FF0FD
:103860000003C6F844C186F8483108BFC6F84431A1
:10387000FDE69FED0F7A1BE79FED0D8A25E7DFED53
:103880000C8A2FE7AFF30080F8C1631ADCA54C4027
:10389000E01A002014110020881200209C12002041
:1038A0000000F03F0000E03F0000604000804B401F
:1038B0000000000074120020140200202DE9F743DC
:1038C000644A65491368654F654D664E0133044689
:1038D000136008F0D6FD022009F066F90A220146BD
:1038E000204608F052FE6049204608F0CAFD5F49B4
:1038F000204608F0C6FD0A223978204608F05EFE10
:103900005B49204608F0BDFD0A222968204608F0E0
:103910003CFE5849204608F0B4FD3368186816F09C
:103920008FFF4FF00A0802460B46CDF80080204674
:1039300008F014FF5049204608F0A3FD336858688A
:1039400016F07EFFCDF8008002460B46204608F0B8
:1039500005FF4A4B1B78042BB946A84602D04848BD
:10396000FFF76AFE474F4849204608F08AFD3B684A
:10397000986816F065FF0A2502460B46009520461A
:1039800008F0ECFE3849204608F07BFD3F49204610
:1039900008F077FD3B68D86816F052FF00950246A4
:1039A0000B46204608F0DAFE3949204608F069FD4A
:1039B0003368986816F044FF00950B46024620468F
:1039C00008F0CCFE2449334808F05BFD022009F0E2
:1039D000EBF82A4601462F4808F0D7FD22492D482A
:1039E00008F04FFD21492B4808F04BFD2A4699F875
:1039F0000010284808F0E2FD1D49264808F041FD66
:103A00002A46D8F80010234808F0BFFD164921487F
:103A100008F037FD20491F4808F033FD3368186867
:103A200016F00EFF009502460B461A4808F096FE67
:103A30001149184808F025FD3368586816F000FF52
:103A4000009502460B46134808F088FE03B0BDE817
:103A5000F08300BF7C110020141403000802002032
:103A600004020020300200205A3B0300241403000B
:103A70002E140300401403004714030024120020F6
:103A8000D0120020140200204E140300581403002A
:103A900061140300603300204114030070B58AB044
:103AA0006749684604F012FF9DF81030072B43D990
:103AB000002420460AB070BD0124684604F004FDCD
:103AC000002800F0BB80684604F08EFD0028F4D08A
:103AD000684604F09AFDB368B3F5967FC5B203D289
:103AE0002946304608F024FF0A2D40F0A380002C20
:103AF000E2D0694605A8FFF711FC05A8FCF750FEC7
:103B0000504905A808F072FE05A94F4808F05BFF70
:103B1000044605A808F024FE002C10DB4B494C4855
:103B200008F0CCFC694605A8FFF7F8FB05A8FFF7ED
:103B300089FB0024254634E00124434EBDE7454976
:103B400005A808F053FE05A93F4808F03CFF0446CD
:103B500005A808F005FE002C0BDB3F493C4808F0A7
:103B6000ADFC694605A8FFF7D9FB05A8FFF7A6FE3F
:103B7000DFE73A4905A808F039FE05A9324808F000
:103B800022FF044605A808F0EBFD002C32DB344987
:103B90002F4808F093FC3349684608F072FC002473
:103BA0000125012008F04CFF684604F04FFD2E4926
:103BB000254808F09CFE2D49254808F07FFC02208E
:103BC00008F03EFF002D3FF474AF2949204808F06B
:103BD00075FC00210E2008F0B7FF4FF4FA7008F0D2
:103BE00031FF01210E2008F0AFFF012008F028FF6F
:103BF000FCF7E0FA1F49164808F060FCFEF78EFF5C
:103C00001D490446124808F059FC1C49104808F0A8
:103C100038FC2A4621460E4808F0B9FC694605A83A
:103C2000FFF77CFB05A804F00105C4F34004FCF792
:103C3000D7FDB6E70D2D18BF00243EE7044679E70F
:103C4000A0130020FB1403006C1400200A150300CD
:103C5000603300201D1503002C15030045150300DB
:103C60004F1503006615030090920300BE15030074
:103C7000DD150300691503007A150300A215030082
:103C800008B5FFF70BFF024B00B91878187008BD94
:103C90002C020020F0B56E496E486F4E85B008F0DA
:103CA000A5FD6E4A6E496B480DF0C1FD6D496E4829
:103CB00008F09CFD6D496E4808F098FD6D496E480E
:103CC00008F094FD6D496E4808F090FD6D496E480E
:103CD00008F08CFD6D496E4808F088FD6D496E480E
:103CE00008F084FD5D4A6D4900200DF0A0FD6C4B8D
:103CF0006C48002200240025C3E904451A605A607C
:103D00009A60C3E90645684B4FF47D421A8044F639
:103D10001F525A804FF61A429A80DA229A7140F660
:103D2000B8321A815A8119229A812A22DA8140F204
:103D3000D6721A820A225A829A824FF4C872DA82A2
:103D400006221A83594A0027012382F8B53082F8E7
:103D5000B47001934FF4FA4300932E224FF0FF33D7
:103D60002F2106F033FD3D4A51494E480DF05FFDCD
:103D70001423A020C6E9057318F09CFDC6E902458E
:103D80003060376100F1A003E0E802459842FBD1C2
:103D9000324A48493048484C0DF049FD474801F047
:103DA0008FFE2E4A464945480DF041FD14230093ED
:103DB000A8220123C021434808F012FB0A230093E4
:103DC000A8220123C021404808F00AFB3F4B404A8B
:103DD0001A60002550225D601A813E4B3E48CDE9B5
:103DE00001330E23009340223C4B802102F0C8FD9A
:103DF0001A4A3B4938480DF01AFD20464FF47A73B1
:103E0000A360384B656040F8143B08F0E1FA0823E2
:103E10002821354884F82030FFF7D4FB0F4A334976
:103E200031480DF004FD28213148FFF7CBFB0B4A48
:103E30002E492F480DF0FBFC28212E48FFF7C2FB2E
:103E4000064A2A492B4805B0BDE8F0400DF0EFBC0A
:103E5000909203006C140020B01200200002002099
:103E600061C70100840E0300841100208C0E030042
:103E700090110020930E03009C1100209A0E030065
:103E8000A8110020A30E0300B4110020AD0E030002
:103E9000C0110020B50E0300CC1100200D0201005E
:103EA00080130020D412002026120020B01300201E
:103EB000A55A01006F020100F0100020241100201B
:103EC000D35A01006812002074130020A0130020B0
:103ED0006C820300801A0600D81100209414002080
:103EE000E16901008C82030074120020610201006C
:103EF000881200209C1200202DE9F04F1646514AEE
:103F0000136885B00133834650200D46136008F0D6
:103F100099FD4D4B0293002401238DF80D308DF84F
:103F20000C40019304AB13E90600484802F06AFA1A
:103F3000F2B210462146009208F006FE142008F066
:103F400081FDAA21414802F017FA8146142008F0A9
:103F500079FD59463D4802F00FFA4FEA152A80468E
:103F6000142008F06FFD5146384802F005FAEDB212
:103F70000746142008F066FD2946344802F0FCF993
:103F80000646142008F05EFD019B009A1946104673
:103F900008F0DAFD2D4802F02DFA502008F052FD0D
:103FA000B8F1190F03D1A9F118035C425C411A2F33
:103FB00046D11B2E44D1002C3ED02549254808F07F
:103FC00060FA0A225946234808F0F8FA22492148A3
:103FD00008F057FA0A2251461E4808F0EFFA1E4927
:103FE0001C4808F04EFA0A2229461A4808F0E8FA56
:103FF0001A49184808F045FA0A224946154808F0B7
:10400000DDFA1549134808F03CFA0A2241461148E6
:1040100008F0D4FA10490F4808F033FA0A2239465A
:104020000C4808F0CBFA0C490A4808F02AFA0A2290
:104030003146084808F0C4FA204605B0BDE8F08FC4
:104040000024F9E78011002080841E0078140020ED
:104050006A140300603300207F14030083140300FC
:10406000F8B504460E46174697253A46314620468F
:10407000FFF742FF18B9013DF7D104F1FA00F8BD8E
:104080002DE9F74F0646502015460F4608F0DAFC9A
:10409000704B0093002401238DF805308DF8044007
:1040A00002AB13E906006C48EDB202F0ABF9214611
:1040B000284608F049FD142008F0C4FC0F2166488A
:1040C00002F05AF98346142008F0BCFC31466248DD
:1040D00002F052F98246142008F0B4FC21465E48F2
:1040E00002F04AF98146142008F0ACFC21465A48F7
:1040F00002F042F98046142008F0A4FCBAF1190F2E
:1041000003D1ABF118035C425C41B9F11A0F40F0E6
:104110009880B8F11B0F40F0948084F001044F495F
:104120004F4808F0B7F90A2231464D4808F046FAE0
:104130004C494B4808F0D6F94B49494808F0AAF9D0
:104140000A225946464808F039FA4849444808F0D6
:10415000A1F90A225146424808F030FA4349404842
:1041600008F098F90A2249463D4808F027FA3F49E5
:104170003B4808F08FF90A224146394808F020FAF6
:10418000502008F05FFC1821334802F0F5F8834610
:10419000142008F057FC19212F4802F0EDF8824650
:1041A000142008F04FFC1A212B4802F0E5F8814654
:1041B000142008F047FC1B21274802F0DDF8804658
:1041C000142008F03FFC0121284608F0BDFC2248DD
:1041D00002F010F9502008F035FC2549204808F07D
:1041E00081F924491E4808F055F90A2259461C480D
:1041F00008F0E4F91D491A4808F04CF90A22514622
:10420000174808F0DBF91949154808F043F90A2264
:104210004946134808F0D2F91449114808F03AF910
:104220000A2241460E4808F0CBF9BBF1F00F03D14A
:10423000B24501D1012C06D10020388003B0BDE881
:10424000F08F01246BE748EA0928A7F800800120D5
:10425000F4E700BF80841E0078140020A41303003C
:1042600060330020B9130300C01303007F14030060
:10427000D0130300ED130300F8B504460E461746AD
:1042800097253A4631462046FFF7FAFE18B9013D18
:10429000F7D104F5AF70F8BD2DE9F3470024DFF83E
:1042A000DC80DFF8DC90304DADF806402646271D57
:1042B0007F00D8F800303B445FFA84FA09229988DD
:1042C0005046FFF7CDFEC8B34946284608F0E2F84D
:1042D0000A222146284608F058F92449284608F0C1
:1042E000D9F8D8F800303B440A229988284608F0CB
:1042F0004EF909220DF106015046FFF7BDFFE8B166
:104300001B49284608F0C6F80A222146284608F02C
:104310003CF91649284608F0BDF80A22BDF80610F7
:10432000284608F032F9D8F800303B449A88BDF8A6
:1043300006309A4209D00136952EBADD0134072C99
:10434000B5D1304602B0BDE8F0870A49284608F0EA
:10435000A1F80A222146284608F017F906492846FE
:1043600008F0C0F80026E9E7603300206513030079
:104370006E1303007F130300951303000C0200204B
:104380004D13030073B51E4C237883B11D491E489D
:104390001E4D08F093F8FFF77FFF1D4928601A486B
:1043A00008F06FF80A222968174808F0F0F8194E4B
:1043B000327802B32378F3B90220ADF8063008F062
:1043C000F3FBB0B9962509220DF106010B20FFF78A
:1043D00057FE28B9013DF6D14FF45F43ADF80630E2
:1043E000BDF806100C4B0848090A0A22197008F09B
:1043F000E7F8002333700023237002B070BD00BFC4
:104400002C02002027160300603300200402002045
:104410003A160300AC130020080200202DE9F04FEB
:1044200085B09A469DF8383002939DF8403003934A
:104430000125102390460022CDE900350646802351
:104440001E48DDF83C909DF844B01C4C0F461146C8
:1044500002F0DBFF2F23009301958023112200211E
:10446000164802F0D2FFBBF1000F0DD02823112215
:1044700040212046009502F012FE0095802337224D
:104480000021204602F0E4FD51460C4803F03AFCBE
:10449000029B7BB14FF48033636101230F93039B35
:1044A0000E9342464B463946304605B0BDE8F04FC4
:1044B000FCF72AB94FF00113EEE700BFD811002036
:1044C0002DE9F0438046A1B08548854D02F097FB69
:1044D000844B1F78844B1D9345F64F13ADF878300D
:1044E00000241DAEE3B29F424FF00103315D009303
:1044F0004FF03B024FF00203284640F0D08003F01B
:10450000A2F90134062CEDD1DFF81892744C002387
:104510000A27CDE90273CDE90039052201231621CE
:104520004046FFF77BFF714B1B685B78002B00F068
:10453000B9806F4B6F4D23616F49204607F0AAFF8A
:104540006E4B23612B683A461978204608F036F8FE
:104550006B4B23616B49204607F09CFF6A4B23613C
:104560006A49304608F042F92B6819783A46143106
:104570001AA808F06BF91AA9304608F0E6F90146C6
:1045800005A808F0A2F91AA808F0EAF8304608F0E1
:10459000E7F805A9204607F078FF5D4B23615D49E8
:1045A000204607F077FF5C4B23612B681022597877
:1045B0000BA808F03AF90BA90EA808F086F957499C
:1045C0000EA808F0CEF92B6810229978074611A89A
:1045D00008F02BF911A9384608F0B7F94F4908F04F
:1045E000C0F92B681022D978074614A808F01DF9E5
:1045F00014A9384608F0A9F9484908F0B2F92B681F
:1046000010221979074617A808F00FF917A938469C
:1046100008F09BF9414908F0A4F92B681022597958
:1046200007461AA808F001F91AA9384608F08DF9CA
:104630003A4908F096F92B681022997907463046D6
:1046400008F0F3F83146384608F07FF9014608A82B
:1046500008F03BF9304608F083F81AA808F080F813
:1046600017A808F07DF814A808F07AF811A808F047
:1046700077F80EA808F074F80BA808F071F808A9EC
:10468000204607F002FF08A808F06AF805A808F01D
:1046900067F8134802F02AFD21B0BDE8F08302F06C
:1046A0005FFF2EE701251323CDE901351223009387
:1046B00016221B4B2046372103F0F2F829462046EC
:1046C00003F020FB4FF0011363611A23009301955F
:1046D0004B462B2211214046FCF716F8D9E700BFC4
:1046E000D81100202412002027313B451002002061
:1046F000050014000C020020A57303003200140012
:1047000005001E00AE73030032001E00E2750300B8
:1047100005002700B7730300050030006132030075
:10472000986D0300C07403002DE9F043054687B07F
:104730005D485D4F02F063FA5C4B93F800805C4B80
:10474000049345F64F13ADF8143000240DF1100911
:104750000126E3B2984519F8041000964FF00203C1
:104760004FF03B02384640F0868003F06CF801348D
:10477000062CEED100230B22CDE902234D4A284618
:10478000CDE90032192101230522FFF747FE03205E
:1047900008F00AFA002871D1072008F005FA00286D
:1047A0006CD1414C444B454D23614549204607F0AF
:1047B00071FE444B23612B680A229989204607F039
:1047C000E4FE414B23614149204607F063FE404B24
:1047D00023612B680A22D989204607F0D6FE3D4B7B
:1047E00023613D49204607F055FE3C4B23612B6871
:1047F0000A22198B204607F0C8FE394B236139493C
:10480000204607F047FE384B23612B680A22D98ADD
:10481000204607F0BAFE354B23613549204607F0A4
:1048200039FE344B23612B680A22998A204607F00F
:10483000ACFE314B23613149204607F02BFE304B53
:1048400023612B680A22598A204607F09EFE2D4BD1
:1048500023612D49204607F01DFE2C4B23612B6858
:104860000A22198A204607F090FE0F4807B0BDE8DB
:10487000F04302F03BBC02F073FE78E701241323FF
:10488000CDE90134122300931622214B064837212B
:1048900003F006F8042300930194064B2B22192100
:1048A0002846FBF731FFE0E7D81100202412002052
:1048B00027313B45C0740300030013000C020020A5
:1048C000087403002D00130040001300107403004F
:1048D0006C00130003001D00367403002D001D0042
:1048E00040001D002F74030066001D000300270018
:1048F000277403002D0027004000270020740300C8
:104900006C00270003003100187403002D003100F3
:10491000986D03002DE9F04F064689B07748774F30
:1049200002F06DF9764B93F80080764B069345F6CE
:104930004F13ADF81C3000240DF118090125E3B226
:10494000984519F8041000954FF002034FF03B0210
:10495000384640F0A98002F076FF0134062CEED1F3
:10496000694F00252B240123052219213046CDE96A
:104970000245CDE90057FFF751FD022008F014F978
:10498000012840F0A4805D4E029017231522CDE946
:10499000003203215D4BDFF8ACB1DFF8AC9114229B
:1049A000304602F07DFF0221304603F0ABF9584B50
:1049B0003361584C08F032F82368CBF80000C01A75
:1049C000132836D908F02AF820605348534C05F0D4
:1049D000E1FE534B80461860D9F80000514BA8EB1C
:1049E000000043F8250015F009FFD4E9053A5345C6
:1049F000CDE904015BD201336361276923689DED32
:104A0000047B03EBC70383ED007B53EC172BD4E946
:104A1000020115F0B7FD0137BA45C4E9020198BF9C
:104A2000002305F101058CBF27612361C9F80080CF
:104A3000EDB2132DBDD9394B5C69002C44D0D3E9BC
:104A4000020116F04DFA07EE904A07EE100AF8EE52
:104A5000677A87EE277A344B1C6817EE100A15F038
:104A6000EFFE0022C4E90401304B16F06BF800227F
:104A70002F4B15F03DFF0B460246C4E906230224E6
:104A800000941E4807F06AFE21461C4803F03AF9DC
:104A9000284B33612849194807F0FCFC174809B036
:104AA000BDE8F04F02F022BB02F05AFD55E7226943
:104AB000236803EBC203D3E90023D4E9020115F014
:104AC0005FFDC4E9020198E79FED1C7AC3E7012569
:104AD0001323CDE90135122300931622184B074802
:104AE000372102F0DDFE2D23009301953B4622463F
:104AF00019213046FBF708FED0E700BFD81100208F
:104B00002412002027313B45C07403004472030087
:104B10001E002200E4100020D4120020B012002059
:104B2000DC1000208C1000203002002000003440F7
:104B30000000D03F500022002A7603000000000051
:104B4000986D0300E0100020E81000202DE9FF41DF
:104B50002A4C2B4F01254023CDE901358023064601
:104B60000522002100932046264B02F099FE2046A4
:104B700002F0BCFA40F2DC5007F062FF204602F07F
:104B80003EF84FF000080623CDE9023805222B46F7
:104B90003046CDE900871721FFF740FC2946204623
:104BA00003F0B0F84FF001136361CDE900853B4697
:104BB00030461E222321FBF7A7FD3B462822CDE9E4
:104BC00000552A213046104DFBF79EFD204602F08D
:104BD0008DFA0E49284607F071FC0D49284607F06A
:104BE0006DFC40F2DC5007F02BFF204602F007F886
:104BF000204604B0BDE8F04102F078BAD811002098
:104C0000C0740300D16D03006033002017760300E9
:104C1000227603002DE9F043484EDFF83881DFF8B3
:104C20002C91474C85B000230622CDE90223CDE923
:104C300000360522012317210746FFF7EFFB032368
:104C40000122CDE900321121334624223846FBF7F8
:104C50005BFD3B4802F04AFA40F2DC5007F0F0FE00
:104C6000072007F0A1FF58B34146484607F026FC4D
:104C7000204601F0C4FF01251323CDE9013512239D
:104C8000009320462F4B1622372102F009FE002305
:104C90000622CDE90223CDE9003638462B4605220F
:104CA0001721FFF7BBFB0423009338460195234BE4
:104CB0002B221921FBF728FD204602F017FACFE737
:104CC000032007F071FF05460028CDD11E491F487B
:104CD00007F0F4FB1A4801F092FF01241123CDE9FB
:104CE0000134122300931722194B1548372102F083
:104CF000D7FD0623CDE90163384623460395009589
:104D000005221721FFF78AFB05232B22142100938C
:104D100038460A4B0194FBF7F7FC094802F0E6F924
:104D200040F2DC5007F08CFE054801F068FF0448B3
:104D300005B0BDE8F04302F0D9B900BFC07403006C
:104D4000D8110020986D0300017603006033002025
:104D5000656D0300ED7503002DE9F04F4D4F4E4D8D
:104D6000DFF84C9185B04FF000084FF0060A0123A0
:104D700005221721CDE902A8CDE9008704460126C6
:104D8000FFF74CFB132324221121CDE900362046E6
:104D90003B46FBF7B9FC284602F0A8F940F2DC508C
:104DA00007F04EFE2046FEF7BBFB2046D9F800B0C8
:104DB000FBF76EFC8BF80400284601F020FF334619
:104DC0000522CDE902A8CDE9008717212046FFF78B
:104DD00025FBD9F800301A78A946002A35D093F877
:104DE0000480B8F1000F30D02C492D4807F066FB45
:104DF0004FF0110912231722CDE900393721294B31
:104E00000296284602F04CFD3146284602F07AFF11
:104E10004FF001136B611423009301963B462B2244
:104E200049462046FBF770FC1B4802F05FF940F250
:104E3000DC5007F005FE184801F0E1FE164802F0CC
:104E400055F9404605B0BDE8F08F1749144807F002
:104E500035FB01251323CDE90135122316220093DA
:104E60003721124B0C4802F01BFD29460A4802F07C
:104E700049FF4FF00113C9F8143015230093019531
:104E8000044B2B2211212046FBF73EFC4FF000087B
:104E9000CAE700BFC0740300D8110020807503006A
:104EA00060330020656D030093750300986D030067
:104EB000100200202DE9F043394E3A4D85B04FF0F5
:104EC00000084FF00609CDE90298CDE900860123DC
:104ED0000522172107460124FFF7A0FA1B232422ED
:104EE0001121CDE9003438463346FBF70DFC284646
:104EF00002F0FCF840F2DC5007F0A2FD284601F079
:104F00007EFECDE90298CDE90086234605221721D1
:104F10003846FFF783FAFEF741FA804630B322495C
:104F2000224807F0CBFA4FF011091223CDE90039DE
:104F300017221F4B02943721284602F0B1FC21466C
:104F4000284602F0DFFE4FF001136B6101941C2331
:104F500000932B22334611213846FBF7D5FB11482D
:104F600002F0C4F8404605B0BDE8F08311490F488F
:104F700007F0A4FA12231322CDE9003237210E4B99
:104F800002941622284602F08BFC2146284602F0A5
:104F9000B9FE4FF001136B6101941D23D8E700BFE8
:104FA000C0740300D8110020B475030060330020E2
:104FB000656D0300CC750300986D03002DE9F04387
:104FC000074687B05548554E01F019FE544B93F8EB
:104FD0000080544B049345F64F13ADF81430002471
:104FE0000DF110090125E3B2984519F80410009558
:104FF0004FF002034FF03B02304671D102F023FC28
:105000000134062CEFD100230722CDE90223464AC2
:10501000464D424CCDE90032172101230522384686
:10502000FFF7FCF92B689B787BB901232377404B72
:1050300023612821204602F0DBFD2121204602F0D9
:10504000D7FD2921204602F0D3FD3A4B23613A498E
:1050500032483A4E07F01EFA394B236139492F483E
:1050600007F018FA384B236138492C4807F012FA38
:105070002B682A485B790121002B34D002F042FED4
:105080004FF48033324926616361244807F002FA05
:105090002B6822489B792F4D012163B302F032FE29
:1050A0004FF480332A49256163611C482A4D07F07B
:1050B000F1F9022007F078FD0128014623D11748B5
:1050C00002F020FE4FF480332449256163611348C8
:1050D00007F0E0F9114807B0BDE8F04302F006B868
:1050E00002F03EFA8CE702F00DFE4FF480332661A9
:1050F00063611B49C9E702F005FE4FF48033256167
:1051000063611749D1E70121044802F0FBFD4FF428
:105110008033256163611349D9E700BFD8110020AE
:105120002412002027313B45C074030010020020E8
:105130006C000500050014003673030050001400D5
:10514000050021004373030005002E005073030087
:105150005F7303005000210050002E0065730300B0
:105160005C730300687303002DE9F043064687B0C3
:105170005448544F01F043FD534B93F80080534B78
:10518000049345F64F13ADF8143000240DF11009C7
:105190000125E3B2984519F8041000954FF0020379
:1051A0004FF03B0238466FD102F04DFB0134062C24
:1051B000EFD100230822464F424CCDE902230522BD
:1051C000CDE90037114601233046FFF727F9414B5F
:1051D0001B681B7801250295002B58D01026CDE9BD
:1051E00000663D4BDFF8108116220A21204602F0AE
:1051F00057FB2722394B0096CDE901650A2120464D
:1052000002F04EFB0221204602F07CFD344B4FF0B1
:105210000116C4E90436D8F80030186815F010FB00
:10522000022702460B460097204607F097FA2D4BBF
:105230002361D8F80030586815F002FB0097024649
:105240000B46204607F08AFA29462046257702F0C9
:1052500059FD254BA721C4E90436204602F0C8FCBD
:105260002249204607F016F94321204602F0C0FCEF
:105270001F4B23612521204602F0BAFC114807B0DC
:10528000BDE8F04301F032BF02F06AF98EE7122365
:105290001322CDE900322046164B1622372102F0A8
:1052A000FFFA2946204602F02DFD4FF001136361FD
:1052B0001623009301953B462B2211213046FBF724
:1052C00023FADBE7D81100202412002027313B45C8
:1052D000C074030010020020D1710300F1710300BB
:1052E000230016002300270061001600909203009F
:1052F00061002700986D0300300200202DE9F04383
:10530000074687B04D484D4D01F079FC4C4B93F862
:1053100000804C4B049345F64F13ADF81430002633
:105320000DF110090124F3B2984519F80610009404
:105330004FF002034FF03B0228467BD102F083FA84
:105340000136062EEFD101250923CDE902353E4B6A
:1053500001930023394C009338462B460522232124
:10536000FFF75CF8112325771322CDE900331821CC
:10537000364B0295204602F093FA3846FEF75CF968
:105380003346334E009520462422602102F0E8F88F
:105390003368B3F90620B3F904100095322AA8BF88
:1053A00032227A29A8BF7A21162AB8BF16224529A7
:1053B000B8BF45212046042302F045FA254B23615E
:1053C000E921204602F014FC2349204607F062F848
:1053D000224B23613368986815F032FA0095024633
:1053E0000B46204607F0BAF91D4B2361A721204642
:1053F00002F0FEFB1B4B2361E921204602F0F8FB83
:105400001949204607F046F83368186915F018FA6C
:10541000009502460B46204607F0A0F9134B236186
:10542000A721204602F0E4FB204607B0BDE8F04388
:1054300001F05CBE02F094F882E700BFD8110020B2
:105440002412002027313B45C07403001172030071
:1054500014020020040024002E760300160024000D
:105460003700240004002E003176030037002E00A0
:1054700038B5354A354B11781878354C884211D1FA
:105480003448007870B1344D2B7803BB07F0C6FA6E
:10549000324B1B6803F5922303F5787398421AD9AF
:1054A000012317E01878814202D12A48007890B190
:1054B000187881420FD01B781370264B1B789BB154
:1054C0002378042B94BF01330023237003E00623C9
:1054D000237000232B702378072B30D8DFE803F0EC
:1054E000060B10151A1F242A0723EEE71C48BDE8F7
:1054F0003840FFF763BD1A48BDE83840FFF714B9DC
:105500001748BDE83840FFF705BA1548BDE83840F0
:10551000FEF7D6BF1248BDE83840FFF7EFBE10488F
:10552000BDE83840FFF720BE0D48FBF71DF9082302
:10553000237038BD0A48FBF725F90023F8E701205E
:10554000BDE8384007F07EBA7113002068140020CF
:105550002412002070130020EC1000207012002094
:10556000D01200202DE9F0412148214FDFF898802A
:10557000204D01F019F820491D4801F074F832243B
:105580003A465021404604F046FB064670B91B4996
:105590001B4806F093FF2B680520DE70013C07F0E6
:1055A0004FFA14F0FF04EBD1BDE8F081154914481F
:1055B00006F084FF2B6814480122DA704FF4FA31A8
:1055C00004F038FB8021104804F036FB03210E481C
:1055D00004F034FB0D490A4806F053FF0A4804F072
:1055E00007FB0A220146BDE8F041054806F0F2BF7C
:1055F0009414002010020020801A06001F100300DF
:105600006033002040100300180200204F100300F8
:105610002DE9FF415049514806F050FFFFF7A2FF26
:105620004F4B1B68DB78002B00F08C804D4C4E4EAE
:105630004A4FDFF84C81FDF781FE2268137811890B
:1056400019441433DBB2518102A8A8220093C0216F
:10565000012306F0C5FE039B44494048736006F0F1
:105660002DFF43493D4806F029FF42493B4806F0DB
:1056700011FF2368394819780A2206F0A1FF3E4934
:10568000364806F0FEFE002573190A2219793846BD
:1056900006F094FF032D03D04146384606F0F1FE94
:1056A0000135042DF0D135492C482C4E344F06F0ED
:1056B00019FF3449294806F0EDFE002523682B44E4
:1056C00010225978304606F079FF052D03D039466F
:1056D000304606F0DFFE0135062DEFD127491F4881
:1056E000DFF8B4801D4E284F06F0FCFE27491B480A
:1056F00006F0D0FE2368194819890A2206F047FFF0
:105700002349164806F0C6FE2368144859890A2220
:1057100006F03DFF00250C2101FB0581304606F017
:10572000B4FE3946304606F0B5FE236803EB450368
:105730000A2299893046013506F029FF072DEAD162
:10574000002005E01349054806F0B8FE4FF0FF3091
:1057500004B0BDE8F08100BFC16C030060330020DD
:10576000100200200C02002068120020E06C0300F0
:10577000F06C0300006D03000B6D030090920300BA
:1057800061320300166D0300A3100300246D0300B3
:10579000306D03003D6D0300841100202DE9F043BE
:1057A0003B4F3C4E85B000254FF0060901230522F2
:1057B0001721CDE90295CDE9005780460124FEF777
:1057C0002DFE252324221121CDE9003440463B46FD
:1057D000FAF79AFF304601F089FC40F2DC5007F0FE
:1057E0002FF9304601F00BFA2346052217214046D7
:1057F000CDE90295CDE90057FEF710FEFFF708FF4F
:105800001223029448BB11251722CDE90035372118
:10581000214B304602F044F82146304602F072FA3D
:105820004FF0011373612723009301943B462B2211
:1058300029464046FAF768FF164801F057FC40F247
:10584000DC5007F0FDF8134801F0D9F9114801F0D8
:105850004DFC204605B0BDE8F0831322CDE90032AF
:1058600037210E4B1622304602F01AF821463046F8
:1058700002F048FA4FF0011373612823019400935A
:105880002B223B4611214046FAF73EFF2C46D3E738
:10589000C0740300D8110020656D0300986D0300EB
:1058A000F7B54FF4E1316448644F654D654E06F03D
:1058B0000FFC6549654806F001FE4FF4FA7007F0E9
:1058C000BFF80221052007F003F901210E2007F09F
:1058D000FFF80221072007F0FBF8C82007F0B0F816
:1058E00001210E2007F030F95949584806F0E6FD2D
:1058F0004FF4FA7007F0A4F80124009423463D22E7
:105900000221384601F088F928B931464F4806F09F
:10591000D5FD2C70F0E700232B704E4B4E494B48C1
:105920001C7006F0CBFD4FF47A7007F089F84348FD
:1059300001F065F9414801F0D9FB4848FFF706F945
:105940004648FFF767F94548FFF728FF04464348F4
:10595000FFF702FA05464148FFF7ACFA002D68D080
:10596000002808BF00243E4B1B684FF4FA709C705F
:1059700007F066F83B49354806F0A0FD4FF4FA7091
:1059800007F05EF803223849052005F099FA3749F7
:105990002E4806F093FD4FF4FA7007F051F80023FB
:1059A0000A2233493348FAF7FEFD01231422324913
:1059B0003048FAF7F8FD02234FF4FA622F492D48D8
:1059C000FAF7F1FD03232E4A2E492A48FAF7EBFD98
:1059D000012332222C492748FAF7E5FD032341F23F
:1059E00088322A492348FAF7DEFD03234EF6602267
:1059F00027492048FAF7D7FD0323214A25491D48A6
:105A0000FAF7D1FD03231E4A23491A48FAF7CBFDC2
:105A10000A4801F0F4F8094801F068FB06F0FEFFBF
:105A20001E4B1F491860094803B0BDE8F04006F05E
:105A300045BD2C4697E700BF28320020D811002032
:105A400040120020817603005F760300603300205F
:105A50006D760300701300209B760300D0120020A7
:105A600010020020AA7603007D020100C376030025
:105A700085430100B0130020813C0100E1010100D9
:105A800080EE3600E9020100715401005903010063
:105A900029020100E1030100A902010070120020A7
:105AA000DC76030010B504465C3007F023FE04F1F9
:105AB000300007F01FFE201D07F01CFE204610BD21
:105AC00000224FF0FF31C0E902220261C0E9081252
:105AD000704710B50446806810B103685B6898474A
