:020000021000EC
:100000000000042009460200414602009503020058
:1000100045460200A1030200A70302000000000001
:10002000000000000000000000000000351C02007D
:100030004D46020000000000CD1C0200DD1C020045
:10004000E588020079F7010053460200534602009A
:100050005346020053460200534602005346020034
:100060005346020053460200534602005346020024
:1000700053460200798A02005346020091F70100BC
:100080005346020053460200534602005346020004
:1000900053460200534602005346020053460200F4
:1000A00053460200534602005346020053460200E4
:1000B00053460200E9A20100000000000000000019
:1000C00053460200534602005346020053460200C4
:1000D00053460200534602005346020053460200B4
:1000E000534602005346020053460200000000003F
:1000F00000000000534602000000000053460200CA
:1001000010B5054C237833B9044B13B10448AFF351
:1001100000800123237010BD70100020000000003B
:10012000BC92030008B5034B1BB103490348AFF36E
:10013000008008BD0000000074100020BC92030085
:10014000154B002B08BF134B9D46A3F5803A0021A9
:100150008B460F461348144A121A1CF091FB0F4BA2
:10016000002B00D098470E4B002B00D09847002062
:10017000002104000D000D48002802D00C4810F0AA
:10018000F5FE1BF087FE2000290011F0ABFB10F0FC
:10019000EAFE00BF0000080000000420000000008C
:1001A0004118020070100020B8CE00206D0F020030
:1001B0000000000070470020704770477047000043
:1001C000074B1B681A7842B15A7832B1DA7822B1FB
:1001D0001A7912B101229A7070470022FBE700BF22
:1001E00010020020014B01221A70704744140020B5
:1001F000D0E900301847000008B50BF0A9FF044B08
:100200001860044B1A68137A83F00103137208BD57
:10021000041300201002002008B5054809F059FF1A
:10022000044B1B6808B9187108BD01221A71FBE75D
:10023000AC2B00201002002008B500210E200CF08D
:100240001DF84FF4FA700BF097FF01210E200CF00F
:1002500015F801200BF08EFFBFF34F8F0549064BB9
:10026000CA6802F4E0621343CB60BFF34F8F00BF54
:10027000FDE700BF00ED00E00400FA0508B5044604
:10028000204609F05BFBFBE70B6803604B684360AB
:100290008B68836070470000014805F072BB00BFA7
:1002A0007C11002038B5054CA4F1540520460C3CC7
:1002B0000BF0F0FDAC42F9D138BD00BF6012002058
:1002C00010B507F089FD0128044607D10B4808F056
:1002D00039F818B10A4B1B685C7010BD07F07CFD43
:1002E000022804D1064B1B6800225A70F5E7034828
:1002F00008F028F80028F5D0EFE700BF38140020F8
:100300001002002038B5164C1648256805F0EEFEA0
:1003100028601448256806F00BF86860114805F05D
:1003200017FF9FED117A2368104A07EE900AC7EE77
:10033000877AC3ED027AD3ED007AF5EEC07AF1EE5A
:1003400010FA0ADDD3ED017AF5EEC07AF1EE10FA7B
:1003500003DD136801221A7038BD13680022FAE722
:1003600030020020241100200000C84210020020AA
:1003700008B55021054809F097F9054B1B6808B9E5
:10038000D87008BD0122DA70FBE700BF1802002018
:100390001002002010B5044600681BF02BFE20461A
:1003A00010BD10B5044600681BF024FE204610BDA9
:1003B000F0B590F8F06000234FF0140CDCB2A642C8
:1003C0000BD90CFB03F41D4607598F4203D104449B
:1003D0006468944203D00133F0E74FF0FF352846BC
:1003E000F0BD002910B5044615DB90F8F0309942B5
:1003F00011DA142202FB01F05B1A013B811821443F
:100400005A4320441CF0D8F994F8F030013B84F8AA
:10041000F030012010BD0020FCE72DE9F84306462E
:100420000BF096FE0024142796F8F030A3422DD945
:1004300007FB0463D3E90212851A8D4218D304EB3B
:10044000840006EB80050A44D5F804901D6956F82F
:100450002080DA607DB90125B9F1000F14DB484630
:10046000C04796F8F1308BB90BF072FE002DDBD04F
:100470000134E4B2D8E7013D1D61002DEBD12146E6
:100480003046FFF7AEFFE7E7C047EAE7BDE8F8838D
:100490002DE9F843089F16463A4605468946984690
:1004A000FFF786FF041E2FDA95F8F0409DF8243000
:1004B0009C4228BF1C4695F8F0300B2B2AD85EB31F
:1004C000A3420AD9142204FB0220A0F114011B1B31
:1004D0005A43294428441CF06FF904EB84039B0021
:1004E000EA1845F80390142303FB0454A6605760F0
:1004F0000BF02EFEC4E9030895F8F030013385F8BF
:10050000F0300120BDE8F88321462846FFF769FF57
:10051000E4B2D0E70020F5E73046F3E713B59DF8E5
:10052000104001944FF0FF340094FFF7B1FF02B088
:1005300010BD07B500930023FFF7F0FF03B05DF88F
:1005400004FB00007FB50023144E8DF807200D46F4
:100550008DF80F30322401230DF107022946304671
:1005600009F02BF905200BF007FE01230DF10F0216
:100570002946304609F0BEF89DF80F209DF8073057
:100580009A4209D00520013C0BF0F6FD14F0FF045F
:10059000E1D1204604B070BD0120FBE71802002025
:1005A0007FB50023144EADF806200D46ADF80E3091
:1005B000322402230DF106022946304609F0FDF8E7
:1005C00005200BF0D9FD02230DF10E02294630461D
:1005D00009F090F8BDF80E20BDF806309A4209D017
:1005E0000520013C0BF0C8FD14F0FF04E1D12046CA
:1005F00004B070BD0120FBE71802002008B50548D3
:10060000054A1A2309F0D9F80520BDE808400BF087
:10061000B3BD00BF18020020B812002030B5174D3E
:1006200085B00A24284609F054FD60B90A20013C2F
:100630000BF0A2FD14F0FF04F4D105200BF09AFD9D
:10064000204605B030BD0E4C204609F033F90D4B65
:1006500003930D4B6946CDE9003404F5A8700023DF
:10066000029313F003FC039B13B19B686846984701
:10067000064B074A1B6801241A60DEE7AC2B0020FA
:10068000B01B0020B80503007D0201001402002009
:10069000E6FFF2FF10B5084C204605F04BF9204666
:1006A000064905F0D5F92046054A41F28831BDE8F2
:1006B000104005F0CFB900BF7C110020F901010006
:1006C00039020100F0B587B01E469DF834309DF820
:1006D0003070134C09B215B203B30DF11603039336
:1006E00005AB02930DF11203019304AB0A4600938C
:1006F00056F827102B46204607F048F9BDF814306D
:100700000222C3F1800393FBF2F3238256F82710F1
:10071000034865820BF09AFA07B0F0BD2182F5E735
:100720006C12002008B5AE21034805F0B5FF034B5D
:100730001B680022DA7108BD6C1200201002002034
:1007400008B5AF21034805F0A7FF034B1B68012242
:10075000DA7108BD6C1200201002002010B50849A3
:1007600004460BF081FA074920460BF07DFA20463B
:1007700005490BF079FA2046BDE810400BF06EBA3F
:10078000FD0503000D060300250603002DE9F74FC4
:100790000446DB49DFF86C84DFF86CA4D94DDA4FEE
:1007A000DFF86894DFF868B4D84E0BF05DFAD849EA
:1007B00020460BF059FAD74920460BF055FAD64996
:1007C00020460BF051FAD54920460BF04DFAD4499A
:1007D00020460BF049FAD34920460BF045FAD2499E
:1007E00020460BF041FA414620460BF03DFACF4936
:1007F00020460BF039FACE4920460BF035FACD49A8
:1008000020460BF031FA514620460BF02DFACA492A
:1008100020460BF029FA294620460BF025FAC74955
:1008200020460BF021FA394620460BF01DFAC44948
:1008300020460BF019FAC34920460BF015FA294659
:1008400020460BF011FAC04920460BF00DFA49463C
:1008500020460BF009FABD4B0093194620460BF0D9
:1008600003FA294620460BF0FFF9B94920460BF060
:10087000FBF9414620460BF0F7F9B64920460BF04C
:10088000F3F9B54920460BF0EFF9B44920460BF0D7
:10089000EBF9594620460BF0E7F9294620460BF0C4
:1008A000E3F9AF4920460BF0DFF9414620460BF053
:1008B000DBF9AC4920460BF0D7F9AB4920460BF0E9
:1008C000D3F9AA4920460BF0CFF9314620460BF068
:1008D000CBF9A74920460BF0C7F9294620460BF073
:1008E000C3F9A44920460BF0BFF9594620460BF046
:1008F000BBF9009B204619460BF0B6F9514620463D
:100900000BF0B2F9294620460BF0AEF99A49204681
:100910000BF0AAF9494620460BF0A6F99749DFF8F3
:10092000F49220460BF0A0F9954920460BF09CF973
:10093000944920460BF098F9494620460BF094F96B
:10094000914920460BF090F9314620460BF08CF986
:100950008E4920460BF088F9294620460BF084F991
:100960008B4920460BF080F9594620460BF07CF964
:100970008849DFF8A4B220460BF076F98649204674
:100980000BF072F9854920460BF06EF92946204696
:100990000BF06AF9824920460BF066F9814920463E
:1009A0000BF062F9804920460BF05EF97F49204642
:1009B0000BF05AF9294620460BF056F97C4920469F
:1009C0000BF052F9314620460BF04EF9794920469A
:1009D0000BF04AF9414620460BF046F9764920468D
:1009E0000BF042F9294620460BF03EF973492046A8
:1009F0000BF03AF9314620460BF036F951462046C5
:100A00000BF032F96E49DFF814A220460BF02CF9F6
:100A10006C4920460BF028F9294620460BF024F9B2
:100A2000694920460BF020F9684920460BF01CF973
:100A3000674920460BF018F9294620460BF014F9B7
:100A4000644920460BF010F9634920460BF00CF97D
:100A5000294620460BF008F9604920460BF004F9BE
:100A6000394620460BF000F95D4920460BF0FCF8B2
:100A70005C4920460BF0F8F85B4920460BF0F4F88F
:100A8000294620460BF0F0F8584920460BF0ECF8C8
:100A9000314620460BF0E8F8294620460BF0E4F8F2
:100AA000534920460BF0E0F8394620460BF0DCF8BD
:100AB000514620460BF0D8F8294620460BF0D4F8D2
:100AC0004C4920460BF0D0F8314620460BF0CCF8CC
:100AD000294620460BF0C8F8474920460BF0C4F8D9
:100AE000394620460BF0C0F8444920460BF0BCF8CC
:100AF000434A0192114620460BF0B6F890E000BF41
:100B00006607030062080300710803008009030000
:100B10007607030086070300970703009E0703007C
:100B2000C7070300DA070300E2070300F407030026
:100B300000080300330803004708030064080300AB
:100B400080080300A3080300C9080300EC080300A1
:100B5000010903000F090300220903003009030003
:100B60004B090300580903006C09030077090300CF
:100B700094090300A9090300B0090300BA0903009E
:100B8000CB090300D6090300F0090300050A03009E
:100B9000150A0300200A0300320A0300450A030075
:100BA000590A0300660A0300740A03008E0A030050
:100BB0009D0A0300A60A0300BD0A0300CE0A030033
:100BC000D90A0300F00A0300020B0300130B030011
:100BD0002E0B03003E0B0300490B03005B0B0300CD
:100BE000780B0300950B0300BA0B0300C90B03003D
:100BF000E90B0300120C0300240C03003D0C03005E
:100C0000650C0300E90703001E0B0300D308030073
:100C10003E090300E3090300A90C0300F90B0300DC
:100C2000DB4B0093194620460BF01EF85946204630
:100C30000BF01AF8294620460BF016F8D549204645
:100C40000BF012F8D44920460BF00EF8D349204699
:100C50000BF00AF8314620460BF006F829462046EC
:100C60000BF002F8CE4920460AF0FEFF3946204636
:100C70000AF0FAFFCB4920460AF0F6FF019A204617
:100C800011460AF0F1FF009B204619460AF0ECFFDE
:100C9000594620460AF0E8FF294620460AF0E4FFBC
:100CA000C149DFF8ECB320460AF0DEFF39462046A2
:100CB0000AF0DAFF514620460AF0D6FF29462046C0
:100CC0000AF0D2FFB949DFF8CCA3B94F20460AF0A9
:100CD000CBFFB84B0093194620460AF0C5FF594692
:100CE00020460AF0C1FFB44920460AF0BDFF514634
:100CF00020460AF0B9FF394620460AF0B5FF2946DA
:100D000020460AF0B1FFAD4920460AF0ADFF009B36
:100D1000204619460AF0A8FF594620460AF0A4FFCB
:100D2000A749DFF874B320460AF09EFF51462046DB
:100D30000AF09AFF394620460AF096FF29462046D7
:100D40000AF092FF9F49A04FDFF850A320460AF017
:100D50008BFF9E4920460AF087FF9D4920460AF0F6
:100D600083FF9C4920460AF07FFF494620460AF04F
:100D70007BFF994920460AF077FF294620460AF072
:100D800073FF964920460AF06FFF954920460AF006
:100D90006BFF314620460AF067FF9249924E20468B
:100DA0000AF062FF414620460AF05EFF8F49DFF8F5
:100DB000F08220460AF058FF8D4920460AF054FF81
:100DC000294620460AF050FF8A4920460AF04CFF87
:100DD000894920460AF048FF884920460AF044FF26
:100DE000294620460AF040FF854920460AF03CFF8C
:100DF000844920460AF038FF834920460AF034FF30
:100E0000294620460AF030FF804920460AF02CFF90
:100E10007F4920460AF028FF294620460AF024FF91
:100E20007C4920460AF020FF7B4920460AF01CFF3F
:100E30007A4920460AF018FF794920460AF014FF43
:100E4000784920460AF010FF294620460AF00CFF98
:100E5000754920460AF008FF744920460AF004FF4D
:100E6000734920460AF000FF294620460AF0FCFE9E
:100E7000704920460AF0F8FE6F4920460AF0F4FE59
:100E80006E4920460AF0F0FE294620460AF0ECFEA4
:100E90006B4920460AF0E8FE6A4920460AF0E4FE63
:100EA000694920460AF0E0FE684920460AF0DCFE67
:100EB000294620460AF0D8FE654920460AF0D4FEAD
:100EC000644920460AF0D0FE634920460AF0CCFE71
:100ED000624920460AF0C8FE294620460AF0C4FEB0
:100EE0005F4920460AF0C0FE314620460AF0BCFEAB
:100EF000294620460AF0B8FE5A4920460AF0B4FEB8
:100F0000594920460AF0B0FE294620460AF0ACFEB8
:100F1000564920460AF0A8FE554920460AF0A4FE8C
:100F2000294620460AF0A0FE524920460AF09CFEBF
:100F3000314620460AF098FE294620460AF094FEE3
:100F40004D4920460AF090FE4C4920460AF08CFE9E
:100F5000294620460AF088FE494920460AF084FEC8
:100F6000314620460AF080FE294620460AF07CFEE3
:100F7000444920460AF078FE434920460AF074FEB0
:100F8000424920460AF070FE314620468AE000BF02
:100F90008A0C0300B80C0300D50C0300E80C030016
:100FA000FA0C0300140D03003C0D03004D0D03006B
:100FB000A20D03005A0D0300750D0300B90D0300C7
:100FC000C40D0300DB0D0300BB1D0300EC0D03008B
:100FD000010E0300130E03002E0E0300430E030048
:100FE000D40E0300560E030005110300710E03001A
:100FF000810E0300960E0300AA0E03002E0B0300C1
:10100000C50E0300D90E0300EF0E0300080F030006
:10101000170F0300290F0300490F03005A0F0300A5
:101020007C0F0300860F0300930F03009F0F030044
:10103000C70F0300DC0F0300E90F030011100300CA
:10104000251003003B100300691003007E1003000D
:10105000A3100300BC100300CF100300E410030032
:10106000FA100300121103001D1103002A110300DE
:101070003611030044110300501103005D110300F9
:101080006A110300751103007D110300861103002E
:10109000680D03008E0D0300712A0300D72B030097
:1010A0004D1D03000AF0E0FD294620460AF0DCFD54
:1010B000D449D54E20460AF0D7FDD44920460AF03F
:1010C000D3FD294620460AF0CFFDD14920460AF03B
:1010D000CBFDD04920460AF0C7FDCF4920460AF093
:1010E000C3FDCE4920460AF0BFFDCD4920460AF097
:1010F000BBFD494620460AF0B7FDCA49DFF84C94CB
:1011000020460AF0B1FD294620460AF0ADFDC64949
:1011100020460AF0A9FDC54920460AF0A5FDC449AC
:1011200020460AF0A1FDC34920460AF09DFDC249B0
:1011300020460AF099FDC14920460AF095FDC049B4
:1011400020460AF091FDBF4920460AF08DFDBE49B8
:1011500020460AF089FDBD4920460AF085FDBC49BC
:1011600020460AF081FDBB4920460AF07DFDBA49C0
:1011700020460AF079FDB94920460AF075FDB849C4
:1011800020460AF071FDB74920460AF06DFDB649C8
:1011900020460AF069FDB54920460AF065FDB449CC
:1011A00020460AF061FDB34920460AF05DFDB249D0
:1011B00020460AF059FDB14920460AF055FDB049D4
:1011C00020460AF051FDAF4920460AF04DFDAE49D8
:1011D00020460AF049FDAD4920460AF045FD294662
:1011E00020460AF041FDAA4920460AF03DFDA949E2
:1011F00020460AF039FDA84920460AF035FDA749E6
:1012000020460AF031FDA64920460AF02DFDA549E9
:1012100020460AF029FDA44920460AF025FDA349ED
:1012200020460AF021FD494620460AF01DFDA0494E
:1012300020460AF019FD9F4920460AF015FD9E49F7
:1012400020460AF011FD9D4920460AF00DFD9C49FB
:1012500020460AF009FD9B4920460AF005FD9A49FF
:1012600020460AF001FD994920460AF0FDFC984904
:1012700020460AF0F9FC974920460AF0F5FC964909
:1012800020460AF0F1FC954920460AF0EDFC94490D
:1012900020460AF0E9FC934920460AF0E5FC924911
:1012A00020460AF0E1FC314620460AF0DDFC8F4979
:1012B00020460AF0D9FC8E4920460AF0D5FC8D491B
:1012C00020460AF0D1FC8C4920460AF0CDFC8B491F
:1012D00020460AF0C9FC294620460AF0C5FC4146D2
:1012E00020460AF0C1FC294620460AF0BDFC2946EA
:1012F00020460AF0B9FC294620460AF0B5FC2946EA
:1013000020460AF0B1FC7E4920460AF0ADFC394681
:1013100020460AF0A9FC294620460AF0A5FC794996
:1013200020460AF0A1FC784B0093194620460AF0AB
:101330009BFC764920460AF097FC294620460AF095
:1013400093FC734920460AF08FFC724920460AF04C
:101350008BFC714920460AF087FC704920460AF050
:1013600083FC464920460AF07FFC494620460AF0A5
:101370007BFC314620460AF077FC294620460AF0DD
:1013800073FC6749674EDFF8D49020460AF06CFC86
:10139000654920460AF068FC644920460AF064FC6E
:1013A000634920460AF060FC624920460AF05CFC72
:1013B000314620460AF058FC5F4920460AF054FCAA
:1013C000314620460AF050FC5C4920460AF04CFCAD
:1013D000314620460AF048FC594920460AF044FCB0
:1013E000314620460AF040FC564920460AF03CFCB3
:1013F000314620460AF038FC534920460AF034FCB6
:10140000A6E000BF90110300DD1B03009B11030049
:10141000A9110300BF110300C8110300DB11030071
:10142000F311030010120300241203002D12030015
:101430004D12030080120300891203009B12030067
:10144000B1120300D3120300011303003813030089
:10145000471303005A130300E013030002140300B0
:10146000261403004A1403007514030091140300AA
:10147000AB140300CC140300F9140300B5120300ED
:10148000D71203002D150300621503008015030019
:10149000BD150300F3150300301603006E1603009C
:1014A000B3160300F1160300361703007417030088
:1014B000F71703003C1803007C180300C31803004F
:1014C000031903004A1903008A190300D119030004
:1014D000111A0300581A0300981A0300DF1A0300B8
:1014E0001F1B0300661B03009E1B0300171C030049
:1014F000581C0300881C0300B21C0300FC1C0300E2
:101500008E1D0300CF1D0300E51D0300FD1D03001C
:101510005E1E0300791E0300B91E0300D11E0300E6
:10152000EF1E0300AD1F0300461F03005C1F0300F6
:10153000711F03007E1F0300E81F03001C2003002F
:101540005020030084200300B8200300B9170300D3
:10155000314620460AF088FBD34920460AF084FB36
:10156000314620460AF080FBD04920460AF07CFB39
:10157000314620460AF078FBCD4ECE4920460AF08F
:1015800073FBCD4920460AF06FFB314620460AF036
:101590006BFBCA4920460AF067FB314620460AF039
:1015A00063FB294620460AF05FFBC549C54E20462D
:1015B0000AF05AFBC44920460AF056FBC3492046AC
:1015C0000AF052FBC24920460AF04EFBC1492046B0
:1015D0000AF04AFBC04920460AF046FBBF492046B4
:1015E0000AF042FBBE4920460AF03EFBBD492046B8
:1015F0000AF03AFBBC4920460AF036FBBB492046BC
:101600000AF032FBBA4920460AF02EFBB9492046BF
:101610000AF02AFBB84920460AF026FBB7492046C3
:101620000AF022FBB64920460AF01EFBB5492046C7
:101630000AF01AFBB44920460AF016FBB3492046CB
:101640000AF012FBB24920460AF00EFBB1492046CF
:101650000AF00AFB414620460AF006FBAE49DFF8D5
:10166000948320460AF000FB294620460AF0FCFA43
:10167000AA4920460AF0F8FAA94920460AF0F4FAE5
:10168000A84920460AF0F0FAA74920460AF0ECFAE9
:10169000A64920460AF0E8FAA54920460AF0E4FAED
:1016A000A44920460AF0E0FAA34920460AF0DCFAF1
:1016B000A24920460AF0D8FAA14920460AF0D4FAF5
:1016C000294620460AF0D0FA9E4920460AF0CCFA74
:1016D0009D4920460AF0C8FA9C4920460AF0C4FAFF
:1016E0009B4920460AF0C0FA9A4920460AF0BCFA03
:1016F000994920460AF0B8FA314620460AF0B4FA71
:10170000294620460AF0B0FA594620460AF0ACFABB
:10171000294620460AF0A8FA904920460AF0A4FA81
:101720008F4920460AF0A0FA8E4920460AF09CFA1A
:101730008D4920460AF098FA8C4920460AF094FA1E
:10174000294620460AF090FA894920460AF08CFA88
:10175000884920460AF088FA514620460AF084FA61
:10176000494620460AF080FA834920460AF07CFA6E
:10177000414620460AF078FA804920460AF074FA79
:101780007F4920460AF070FA7E4920460AF06CFA3A
:101790007D4920460AF068FA7C4920460AF064FA3E
:1017A0007B4920460AF060FA7A4920460AF05CFA42
:1017B000794920460AF058FA784920460AF054FA46
:1017C000774920460AF050FA764920460AF04CFA4A
:1017D000754920460AF048FA744920460AF044FA4E
:1017E000734920460AF040FA724920460AF03CFA52
:1017F000714920460AF038FA704920460AF034FA56
:101800006F4920460AF030FA6E4920460AF02CFA59
:101810006D4920460AF028FA6C4920460AF024FA5D
:101820006B4920460AF020FA294620460AF01CFAA5
:10183000684920460AF018FA674920460AF014FA67
:10184000294620460AF010FA294620460AF00CFAEA
:10185000294620460AF008FA604920460AF004FAB0
:10186000394620460AF000FA5D4920460AF0FCF9A4
:101870005C4920460AF0F8F95B4920460AF0F4F981
:10188000009B204619460AF0EFF9584920460AF015
:10189000EBF9594620460AF0E7F9294620460AF0B6
:1018A000E3F95349A8E000BFEC2003002021030026
:1018B0003C220300502103005F210300502203005B
:1018C00057220300622A0300E422030001230300DD
:1018D0002323030045230300592303006923030046
:1018E0008E230300D2230300202403006E24030070
:1018F000BC2403000A25030058250300A625030085
:10190000EC250300F3250300032603002C26030027
:101910005A2603009C260300CB2603000B27030056
:101920003827030078270300A7270300EB270300CD
:101930001B280300612803008F280300D12803001F
:10194000FF2803004129030061290300DE29030069
:10195000002A0300392A0300452A03007F2A0300D6
:10196000B42A0300CD2A0300E62A0300512B03000A
:101970005B2B0300B62B0300032C0300302C030069
:101980004C2C0300AF140300622C03008E2C0300C8
:10199000C42C0300722D0300A32D0300332E03007B
:1019A000C32E0300512F0300DF2F03006F3003000D
:1019B000FF30030060310300BD3103001532030026
:1019C0006D320300CD3203000F33030045330300B3
:1019D000F43303006E330300A83303000334030021
:1019E0003A34030043340300AE340300CE34030022
:1019F000293503004A140300DFF894B420460AF0A6
:101A000033F9D74920460AF02FF9D64920460AF083
:101A10002BF9D54920460AF027F9D44920460AF087
:101A200023F9294620460AF01FF9D14920460AF039
:101A30001BF9D04920460AF017F9CF4920460AF091
:101A400013F9CE4920460AF00FF9514620460AF014
:101A50000BF9494620460AF007F9414620460AF0AC
:101A600003F9C749DFF82C84DFF82C94DFF82CA4A5
:101A700020460AF0F9F8C34920460AF0F5F8C249B1
:101A800020460AF0F1F8314620460AF0EDF82946E2
:101A900020460AF0E9F8294620460AF0E5F82946EA
:101AA00020460AF0E1F8294620460AF0DDF8B74959
:101AB000B74E20460AF0D8F8394620460AF0D4F846
:101AC000294620460AF0D0F8294620460AF0CCF8EC
:101AD000B049B14DB14F20460AF0C6F8B049204692
:101AE0000AF0C2F8AF4920460AF0BEF8AE492046D7
:101AF0000AF0BAF8AD4920460AF0B6F8AC492046DB
:101B00000AF0B2F8AB4920460AF0AEF8414620464A
:101B10000AF0AAF8A84920460AF0A6F8A7492046E4
:101B20000AF0A2F8A64920460AF09EF8A5492046E8
:101B30000AF09AF8A44920460AF096F8A3492046EC
:101B40000AF092F8294620460AF08EF8A04920466D
:101B50000AF08AF89F4920460AF086F89E492046F6
:101B60000AF082F89D4920460AF07EF84146204658
:101B70000AF07AF89A4920460AF076F83946204663
:101B80000AF072F8974920460AF06EF89649204606
:101B90000AF06AF8954920460AF066F83146204670
:101BA0000AF062F8394620460AF05EF8904920466D
:101BB0000AF05AF88F4920460AF056F83146204676
:101BC0000AF052F8394620460AF04EF88A49204673
:101BD0000AF04AF8894920460AF046F8314620467C
:101BE0000AF042F8394620460AF03EF88449204679
:101BF0000AF03AF8834920460AF036F83146204682
:101C00000AF032F8394620460AF02EF87E497F4F16
:101C100020460AF029F87E4920460AF025F8314688
:101C200020460AF021F87B497B4E20460AF01CF83A
:101C3000294620460AF018F8784920460AF014F898
:101C4000774920460AF010F8764920460AF00CF849
:101C5000414620460AF008F87349DFF844822046DE
:101C60000AF002F82946204609F0FEFF29462046E0
:101C700009F0FAFF6D49204609F0F6FF2946204693
:101C800009F0F2FF6A49204609F0EEFF6949204653
:101C900009F0EAFF6849204609F0E6FF6749204657
:101CA00009F0E2FF6649204609F0DEFF294620469A
:101CB00009F0DAFF6349204609F0D6FF6249204661
:101CC00009F0D2FF6149204609F0CEFF6049204665
:101CD00009F0CAFF5F49204609F0C6FF29462046A1
:101CE00009F0C2FF5C49204609F0BEFF5B4920466F
:101CF00009F0BAFF5A49204609F0B6FF5949204673
:101D000009F0B2FF5849204609F0AEFF5749204676
:101D100009F0AAFF5649204609F0A6FF554920467A
:101D200009F0A2FF5449204609F09EFF534920467E
:101D300009F09AFF5249204609F096FF5149204682
:101D400009F092FF5049204609F08EFF4F49204686
:101D500009F08AFF2946204609F086FFA2E000BF6D
:101D600085350300A5350300E93503002F36030050
:101D70009D36030006370300213703005B3703005D
:101D80007514030091140300AB1403007B370300A8
:101D9000103A0300AD3703003D3D0300835C0300B0
:101DA000BB370300C5370300CD370300DB37030023
:101DB000F63703000B3803003838030044380300BB
:101DC000A43803004A3C0300DB380300F938030061
:101DD000143903001E390300383903005539030054
:101DE000643903008E39030093390300D7390300A7
:101DF000163A0300613A03009F3A0300E93A0300F0
:101E0000273B03007F3B0300BF3B03007A430300F3
:101E10000F3C03004F3C0300BA420300553C030053
:101E20005C3C0300723C0300863C0300973C0300CB
:101E30009F3C0300CE3C0300F33C03000B3D03003A
:101E4000213D0300443D0300663D03009F3D030028
:101E5000CA3D0300F13D03001D3E03003E3E03006A
:101E60006E3E0300853E03009D3E0300BA3E030024
:101E7000D23E0300E93E0300063F03003C3F03005F
:101E8000723F0300A73F0300DC3F03001240030042
:101E9000D64D0300203803002D4403007C4F03007F
:101EA00013460300D949204609F0DEFED8492046F2
:101EB00009F0DAFE2946204609F0D6FE29462046DA
:101EC00009F0D2FE2946204609F0CEFED14920462F
:101ED00009F0CAFED049204609F0C6FECF49204687
:101EE00009F0C2FECE49204609F0BEFECD4920468B
:101EF00009F0BAFECC49204609F0B6FECB4B01935F
:101F00001946204609F0B0FEC94A00921146204603
:101F100009F0AAFEC749204609F0A6FEC649204698
:101F200009F0A2FEC549204609F09EFEC44920469C
:101F300009F09AFEC349204609F096FEC2492046A0
:101F400009F092FEC149204609F08EFE3146204636
:101F500009F08AFEBE49204609F086FEBD492046AA
:101F600009F082FEBC49204609F07EFEBB492046AE
:101F700009F07AFEBA49204609F076FEB9492046B2
:101F800009F072FEB849204609F06EFE3946204637
:101F900009F06AFE3146204609F066FEB349204644
:101FA00009F062FEB249204609F05EFEB1492046C2
:101FB00009F05AFEB049204609F056FE494620462F
:101FC00009F052FEAD49204609F04EFEAC492046CC
:101FD00009F04AFEAB49204609F046FEAA492046D0
:101FE00009F042FEA949204609F03EFEA8492046D4
:101FF00009F03AFE3946204609F036FE31462046C1
:1020000009F032FEA349204609F02EFEA2492046DF
:1020100009F02AFEA149204609F026FEA0492046E3
:1020200009F022FE4146204609F01EFE41462046A8
:1020300009F01AFE9B49DFF8F082204609F014FEF1
:102040009949204609F010FE9849204609F00CFEF7
:102050003146204609F008FE9549204609F004FE65
:102060009449204609F000FE3946204609F0FCFD5F
:102070003146204609F0F8FD8F49204609F0F4FD6D
:102080008E49204609F0F0FD3946204609F0ECFD66
:102090003146204609F0E8FD8949204609F0E4FD73
:1020A0008849204609F0E0FD3946204609F0DCFD6C
:1020B0003146204609F0D8FD8349204609F0D4FD79
:1020C0008249204609F0D0FD8149204609F0CCFD27
:1020D0008049204609F0C8FD7F49204609F0C4FD2B
:1020E0007E49204609F0C0FD7D49204609F0BCFD2F
:1020F0007C49204609F0B8FD7B49204609F0B4FD33
:102100007A49204609F0B0FD3946204609F0ACFD79
:102110003146204609F0A8FD7549204609F0A4FD86
:102120004146204609F0A0FD7249204609F09CFD79
:102130003946204609F098FD3146204609F094FDC5
:102140006D49204609F090FD4146204609F08CFD7E
:102150006A49204609F088FD3946204609F084FD89
:102160003146204609F080FD6549204609F07CFD96
:102170004146204609F078FD6249204609F074FD89
:102180003946204609F070FD3146204609F06CFDC5
:102190005D49204609F068FD4146204609F064FD8E
:1021A0005A49204609F060FD3946204609F05CFD99
:1021B0003146204609F058FD5549204609F054FDA6
:1021C0004146204609F050FD5249DFF86081204623
:1021D00009F04AFD3946204609F046FD31462046C1
:1021E00009F042FD4C49204609F03EFD4B4920468E
:1021F00009F03AFD4A49204609F036FD4946204695
:1022000009F032FD4749204692E000BF48400300F4
:102210007D400300C4400300FC4003002141030053
:10222000514103008A410300E64103000C420300D0
:10223000174203002D420300434203005A420300A9
:102240006E4203008342030098420300AE42030043
:10225000BF420300D9420300F34203000E430300D0
:102260002743030040430300594303008043030016
:1022700099430300C9430300B94D030039440300E7
:102280004444030051440300B9440300D344030011
:1022900034450300514503006D450300A745030085
:1022A000FC4503002946030091460300A7460300AE
:1022B000E746030003470300584703007447030041
:1022C000C9470300E54703003A48030056480300A6
:1022D00091480300E74803004049030058490300C0
:1022E0007049030088490300E3490300444A03009E
:1022F0007E4A0300F14A03004A4B0300664B030089
:10230000BF4B0300DB4B0300344C0300504C030075
:10231000A94C0300C54C03001E4D0300374D0300BC
:10232000694D0300C84D03009A4A0300E04E0300C4
:1023300009F09AFC5946204609F096FCD8492046F7
:1023400009F092FC3946204609F08EFC31462046C1
:1023500009F08AFCD349204609F086FCD249204680
:1023600009F082FCD149204609F07EFCD049204684
:1023700009F07AFC4146204609F076FC41462046A9
:1023800009F072FCCB49DFF83084204609F06CFC80
:10239000C949204609F068FC3946204609F064FC2A
:1023A000C649204609F060FC5146204609F05CFC15
:1023B000C349204609F058FCC249204609F054FCA4
:1023C000C149204609F050FC2946204609F04CFC42
:1023D0004146204609F048FC2946204609F044FCC5
:1023E000BA49204609F040FCB949204609F03CFCB6
:1023F000B849204609F038FCB749204609F034FCBA
:10240000B649204609F030FC019B2046194609F0E8
:102410002BFC009A2046114609F026FCB0492046C4
:1024200009F022FCAF49204609F01EFCAE492046C7
:1024300009F01AFCAD49204609F016FCAC492046CB
:1024400009F012FCAB49204609F00EFCAA492046CF
:1024500009F00AFCA949204609F006FC314620464D
:1024600009F002FCA649204609F0FEFBA5492046DA
:1024700009F0FAFBA449204609F0F6FBA3492046DF
:1024800009F0F2FBA249204609F0EEFBA1492046E3
:1024900009F0EAFBA049204609F0E6FB9F492046E7
:1024A00009F0E2FB3946204609F0DEFB31462046C2
:1024B00009F0DAFB9A49204609F0D6FB99492046F3
:1024C00009F0D2FB9849204609F0CEFB97492046F7
:1024D00009F0CAFB4946204609F0C6FB944920464C
:1024E00009F0C2FB9349204609F0BEFB9249204601
:1024F00009F0BAFB9149204609F0B6FB394620465F
:1025000009F0B2FB3146204609F0AEFB8C4920466B
:1025100009F0AAFB8B49204609F0A6FB8A49204610
:1025200009F0A2FB8949204609F09EFB4946204656
:1025300009F09AFB8649204609F096FB854920461A
:1025400009F092FB8449204609F08EFB394620466B
:1025500009F08AFB3146204609F086FB7F49204678
:1025600009F082FB7E49204609F07EFB7D4920462A
:1025700009F07AFB7C49204609F076FB4946204663
:1025800009F072FB7949204609F06EFB5946204656
:1025900009F06AFB7649DFF824B2204609F064FBB3
:1025A0003946204609F060FB3146204609F05CFBC5
:1025B0007049204609F058FB6F49204609F054FB4A
:1025C0006E49204609F050FB6D4A019211462046A3
:1025D00009F04AFB4946204609F046FB6949204676
:1025E00009F042FB684B00931946204609F03CFB7A
:1025F0005946204609F038FB6449204609F034FB6F
:102600003946204609F030FB3146204609F02CFBC4
:102610005F49204609F028FB5E49204609F024FB6B
:102620005D49204609F020FB019A2046114609F039
:102630001BFB4946204609F017FB5849204609F084
:1026400013FB009B2046194609F00EFB5946204615
:1026500009F00AFB5249204609F006FB394620469C
:1026600009F002FB3146204609F0FEFA4D492046AA
:1026700009F0FAFA4C49204609F0F6FA4B4920468F
:1026800009F0F2FA4A49204609F0EEFA4946204696
:1026900009F0EAFA4749204609F0E6FA90E000BF5F
:1026A000E44D03003E4E0300574E03008A4E0300E4
:1026B000D54E0300EA4E03004C4F0300734F030056
:1026C0008D4F0300A34F0300D24F0300245003009B
:1026D0004950030079500300B25003000E5103002B
:1026E000345103004B510300635103005A4203006D
:1026F0006E4203008342030098420300AE4203008F
:10270000BF420300D9420300F342030079510300A2
:102710000E430300274303004043030059430300D3
:1027200093510300AC510300E25103002F52030008
:102730003B5203004752030053520300C5520300AB
:10274000D6520300EF5203002653030071530300D7
:102750007D53030089530300955303000154030084
:102760001A5403004F5403009E540300AB5403005B
:10277000B9540300135503002C550300645503009E
:10278000B2550300C3550300CE5503004156030064
:10279000835603009C560300D556030025570300BB
:1027A000305703006F57030088570300BB570300DF
:1027B0000B580300175803001C500300DA550300A0
:1027C0007549204609F050FA7449204609F04CFA40
:1027D0007349204609F048FA3946204609F044FA80
:1027E0003146204609F040FA6E496F4E204609F006
:1027F0003BFA6E49204609F037FA6D49204609F048
:1028000033FA6C49204609F02FFA6B49204609F04B
:102810002BFA6A49204609F027FA6949204609F04F
:1028200023FA4946204609F01FFA6649204609F076
:102830001BFA6549204609F017FA6449204609F059
:1028400013FA3946204609F00FFA6149204609F08B
:102850000BFA5146204609F007FA5E49204609F076
:1028600003FA5D49204609F0FFF95C49204609F06A
:10287000FBF92946204609F0F7F92946204609F0D8
:10288000F3F94146204609F0EFF92946204609F0C0
:10289000EBF95349204609F0E7F95249204609F07F
:1028A000E3F95149204609F0DFF95049204609F083
:1028B000DBF93146204609F0D7F94D49204609F0A9
:1028C000D3F94C49204609F0CFF92946204609F0B2
:1028D000CBF94949204609F0C7F93146204609F0AD
:1028E000C3F94649204609F0BFF94549204609F099
:1028F000BBF92946204609F0B7F94249204609F0BC
:10290000B3F93146204609F0AFF93F49204609F0B6
:10291000ABF93E49204609F0A7F92946204609F0BF
:10292000A3F94146204609F09FF92946204609F0BF
:102930009BF94146204609F097F92946204609F0BF
:1029400093F93349204609F08FF93249204609F0BE
:102950008BF93149204609F087F93049204609F0C2
:1029600083F92F49204609F07FF92E49204609F0C6
:102970007BF92D49204609F077F92946204609F0D0
:1029800073F92A49204609F06FF92949204603B016
:10299000BDE8F04F09F068B924580300325803002D
:1029A00098580300A5580300E65A0300BE580300D8
:1029B000F55803002C590300545903007C590300B7
:1029C0008B59030097590300A5590300B35903001D
:1029D000734F03008D4F03000A5A0300395A030056
:1029E0006A5A03009A5A0300C85A0300CF5A0300D8
:1029F000EC5A03001C5B0300785B0300935B03004D
:102A0000C85B0300265C0300425C0300885C030093
:102A1000C55C03000F5D03003E5D0300485D0300DD
:102A20007A5D0300955D0300AF5D0300B75D0300B1
:102A3000BF5D0300392884BF0738C0B2392984BF7D
:102A40000739C9B201F00F0100F00F0041EA001090
:102A500070470000F8B50C461449154D074609F0BB
:102A60005FFA00262146284609F02AFB0378262B28
:102A700019D02146284609F023FB0378202B12D0D9
:102A80003EB12146284609F01BFB0178384609F083
:102A9000E9FA2146284609F013FB03783D2B08BFCD
:102AA00001260134DEE73846F8BD00BFB8810300D7
:102AB0003C1500202DE9F04387B0BA49684609F07B
:102AC0002FFAB94903A809F02BFA03A9B74809F06E
:102AD00014FB044603A809F0DDF9002C80F21B82E8
:102AE0000024B34903A809F01BFA03A9AF4809F071
:102AF00004FB054603A809F0CDF9002D35DB294676
:102B000003A8FFF7A7FF03A9684609F082FA03A804
:102B100009F0C0F90021684609F0D2FA01210578D0
:102B2000684609F0CDFA01782846A24DFFF782FFEA
:102B30002B685B78834218D00021684609F0C0FA00
:102B400001210478684609F0BBFA01782B68204619
:102B5000FFF770FF58702B6897485A780121FDF7EE
:102B6000F1FC052009F008FB0124944903A809F0B1
:102B7000D7F903A98D4809F0C0FA054603A809F062
:102B800089F9002D35DB294603A8FFF763FF03A968
:102B9000684609F03EFA03A809F07CF9002168466E
:102BA00009F08EFA01210578684609F089FA017862
:102BB0002846804DFFF73EFF2B689B78834218D054
:102BC0000021684609F07CFA01210478684609F082
:102BD00077FA01782B682046FFF72CFF98702B6856
:102BE00075489A780221FDF7ADFC052009F0C4FA7A
:102BF0000124734903A809F093F903A96B4809F06C
:102C00007CFA054603A809F045F9002D35DB294675
:102C100003A8FFF71FFF03A9684609F0FAF903A804
:102C200009F038F90021684609F04AFA01210578CF
:102C3000684609F045FA017828465E4DFFF7FAFE2E
:102C40002B68DB78834218D00021684609F038FAF7
:102C500001210478684609F033FA01782B68204690
:102C6000FFF7E8FED8702B685348DA780321FDF7A8
:102C700069FC052009F080FA0124524903A809F0F3
:102C80004FF903A9494809F038FA054603A809F0A5
:102C900001F9002D34DB294603A8FFF7DBFE03A969
:102CA000684609F0B6F903A809F0F4F8002168466F
:102CB00009F006FA01210578684609F001FA017861
:102CC00028463C4DFFF7B6FE2B681B79834217D090
:102CD0000021684609F0F4F901210478684609F0FA
:102CE000EFF901782B682046FFF7A4FE0421024685
:102CF00018713148FDF726FC052009F03DFA012442
:102D0000314903A809F00CF903A9284809F0F5F99D
:102D1000054603A809F0BEF8002D34DB294603A8B8
:102D2000FFF798FE03A9684609F073F903A809F0B4
:102D3000B1F80021684609F0C3F901210578684619
:102D400009F0BEF9017828461A4DFFF773FE2B688B
:102D50005B79834217D00021684609F0B1F901215F
:102D60000478684609F0ACF901782B682046FFF733
:102D700061FE0521024658710F48FDF7E3FB05206F
:102D800009F0FAF90124114903A809F0C9F803A9C7
:102D9000064809F0B2F9054603A809F07BF8002DB2
:102DA0004BDB15E0B8810300370603003C1500201B
:102DB000400603000C0200206813002056060300A2
:102DC0006C0603008206030098060300AE060300AB
:102DD000294603A8FFF73EFE03A9684609F019F942
:102DE00003A809F057F80021684609F069F90121A4
:102DF0000578684609F064F901782846584DFFF7D0
:102E000019FE2B689B79834217D00021684609F090
:102E100057F901210478684609F052F901782B68C6
:102E20002046FFF707FE0621024698714D48FDF740
:102E300089FB052009F0A0F901244B4903A809F0FA
:102E40006FF803A9494809F058F9054603A809F0A5
:102E500021F8002D20DB294603A8FFF7FBFD03A97D
:102E6000684609F0D6F83E4D03A809F013F8684605
:102E700009F046F92B681B8998420DD0684609F085
:102E80003FF92B6882B21A8108213648FDF788FB8A
:102E9000052009F071F901240025DFF8D480DFF85E
:102EA000CC902F4F2E460C2101FB0581484609F09E
:102EB00024F9011E23DB03A8FFF7CCFD03A9684614
:102EC00009F0A7F803A808F0E5FF684609F018F92B
:102ED0002E1D3B68760033445B8898420ED06846CE
:102EE00009F00EF93B681E4482B2691D72804900E8
:102EF0001C48FDF755FB052009F03EF90126013578
:102F0000072DD0D1684608F0C5FF44EA46042046A4
:102F100007B0BDE8F083214603A8FFF79BFD03A996
:102F2000684609F076F80E4C03A808F0B3FF68462F
:102F300009F0E6F823681B7898423FF4D1AD684663
:102F400009F0DEF823681870236806481A78002113
:102F5000FDF7F8FA052009F00FF90124C1E500BFDB
:102F60000C02002068130020C40603003C1500205A
:102F7000181200202DE9F8432C4E2D492D4F044600
:102F800008F05BFE33680A221978204608F0C4FE78
:102F90002949204608F051FE2849204608F04DFEF8
:102FA00033680A221989204608F0A7FE22492046E4
:102FB00008F043FE2249204608F03FFE0025336812
:102FC0002B4410225978204608F0A6FE052D03D088
:102FD0003946204608F031FE0135062DEFD116495D
:102FE000184FDFF86480DFF85090204608F025FE87
:102FF00000250C2101FB0571204608F022FE414608
:10300000204608F01AFE336803EB45030A2259896B
:10301000204608F072FE062D03D04946204608F0EF
:103020000CFE0135072DE4D1BDE8F8830C02002029
:10303000CE06030067230300602C0300D3060300C1
:10304000DB06030018120020D10603004A68426024
:103050008A688260CA68C260034A02600A7C02749D
:103060004A8A4282704700BF5071030013B502AA1A
:103070000024214642F8044D04230A4806F03AFB96
:10308000019939B90848FDF7B9FA052009F074F833
:1030900002B010BD1A23054A0248214606F02AFB59
:1030A000F3E700BF1802002068130020B8120020C8
:1030B0002DE9F3410121092009F0A4F8012109209B
:1030C00009F0DCF80121082009F09CF80121082012
:1030D00009F0D4F801210A2009F094F801210A200E
:1030E00009F0CCF8C82009F045F80A2004F06EFE7B
:1030F000274B1868274B0093274B69465B68019361
:10310000013004F0FBFE01210A2009F0B7F8002489
:1031100004F06CFE40B901340A20E4B209F02AF848
:103120000A2CF5D1002704E004F060FE0328F7D153
:1031300001270A2404F050FE022823D10A20013C72
:1031400009F018F814F0FF04F4D1DFF854800A26CF
:10315000404605F0DFF8404605F0F4F8054630B982
:103160000A20013E09F006F816F0FF06F0D10B4BDD
:103170001B684CB147B13DB101225A70284602B0DC
:10318000BDE8F0810124E0E700255D70F6E700BFAF
:103190000C02002024760300FC1200201002002004
:1031A00038140020F8B5174E174F184D0A24324630
:1031B0007621384602F096FF2B6840B91870013C22
:1031C000642008F0D7FF14F0FF04F0D1F8BD01220D
:1031D0000F4C1A700C48256802F088FF28600A48D6
:1031E000256803F0A5F86860074802F0B1FF9FED7D
:1031F000097A236807EE900AC7EE877AC3ED027A50
:10320000E4E700BF64150020241100201002002014
:10321000300200200000C8420148FDF7FEB800BFA0
:103220004814002070B58C00002605460161C66078
:10323000204618F0D7FE00232860AE606B6004447F
:10324000A04202D040F8043BFAE7284670BD06EEE3
:10325000901A10B5D0E9031483680268A14202EB0A
:10326000830223BFD2ED007A90ED017A37EE677AC0
:1032700001312CBF80ED017AC160C2ED006AD0ED52
:10328000017A013377EEA67A9C4298BF0023C0ED05
:10329000017A836010BD00002DE9F84F904F914CEA
:1032A0002DED048B28253E460DF044FB0DF042FB2E
:1032B000D7F84021D7F844319A4240F0EB8097F894
:1032C0004831002B40F0E6800DF04AFBDFF83082F9
:1032D0000DF046FB21684046FFF7B9FF6168824860
:1032E000FFF7B5FF013DA1688048FFF7B0FF15F07B
:1032F000FF05D9D1D8F80C30002B00F0E28007EEA2
:10330000903A98ED017AF8EE677A87EE279A764A36
:10331000D368002B00F0D88007EE903A92ED017A46
:10332000F8EE677AC7EE279A704AD368002B00F050
:10333000CE8007EE903A92ED017AF8EE677A87EE4A
:10334000278ADFF8C0A1DAF80040B4F9003007EEB0
:10335000103AF7EE008A79EE287AB8EEC77A78EE5E
:10336000288A27EE277ABDEEC77A17EE103A18B2F0
:1033700016F0EEFD00225E4B16F09EFC17F010FEDC
:1033800017F000F900B207EE900AB8EEE77ADFED29
:10339000597A37EE277ABDEEC77A17EE103AA38036
:1033A000B4F9023007EE903AF8EEE77A67EEA87AC1
:1033B000FDEEE77A17EE903A18B216F0C9FD00223A
:1033C0004B4B16F079FC17F0EBFD17F0DBF800B271
:1033D00007EE900A9FED487AF8EEE77A19EE100AA8
:1033E00077EE877AFDEEE77A17EE903AE38016F0F3
:1033F000C1FD804619EE900A894616F0BBFD0246D3
:103400000B4616F00FFE064618EE100A0F4616F091
:10341000B1FD02460B4604460D4616F003FE324649
:103420003B4616F049FC17F03BFE02460B46404671
:10343000494616F021FF17F01BFC27A3D3E9002310
:1034400016F0F0FD17F0E6F8DAF800B04246CBF8D7
:1034500008004B464046494616F0E4FD32463B46DE
:1034600016F02AFC17F01CFE02460B4620462946A1
:1034700016F002FF17F0FCFB17A3D3E9002316F0A8
:10348000D1FD17F0C7F8BDEC048BDAF800402061DD
:10349000BDE8F88F0DF064FAD6F8443103F1010C61
:1034A00006EB03130FCBBCF1140F84E80F004FF0B1
:1034B0000003C6F844C186F8483108BFC6F8443155
:1034C00004E79FED0E9A22E7DFED0C9A2CE79FEDC3
:1034D0000B8A36E7AFF30080F8C1631ADCA54C40D5
:1034E000B01B0020141100201C13002030130020FA
:1034F0000000E03F0000F4420000484200000000ED
:103500000813002014020020F7B5404A4049136810
:10351000404D01330446136008F08FFB022008F091
:10352000DDFE0A220146204608F0E7FB3A49204624
:1035300008F083FB3949204608F07FFB384B0A220C
:103540001978204608F0E8FB3649204608F075FB5C
:10355000354B0A221968204608F0CFFB3349204634
:1035600008F06BFB2B68186816F004FD0A2602466B
:103570000B460096204608F08BFC2D49204608F0AB
:103580005CFB2B68586816F0F5FC009602460B466B
:10359000204608F07DFC2B6893F82130042B02D0E4
:1035A0002448FFF779FE244F2449204608F045FBC4
:1035B0003B68986816F0DEFC0A2602460B46009629
:1035C000204608F065FC1449204608F036FB1C49EB
:1035D000204608F032FB3B68D86816F0CBFC00961A
:1035E00002460B46204608F053FC1649204608F0D8
:1035F00024FB2B68986816F0BDFC009602460B462B
:10360000204608F045FC03B0F0BD00BF10120020BA
:10361000E506030030020020602C0300F5060300DD
:1036200008020020FF060300040200201107030027
:103630001807030068130020140200201F0703006E
:10364000290703003207030070B58AB04C49684669
:1036500004F098FE9DF81030072B3ED90024204638
:103660000AB070BD0124684604F08AFC002800F00E
:103670008480684604F014FD0028F4D0684604F005
:1036800020FDB368B3F5967FC5B203D22946304614
:1036900008F0E8FC0A2D6CD1002CE3D0694605A89F
:1036A000FFF7D4FC05A8FDF759F8364905A808F03E
:1036B00037FC05A9344808F020FD044605A808F0A9
:1036C000E9FB002C0CDB694605A8FFF7BFFC05A849
:1036D000FFF750FC002425462CE001242A4EC2E7C7
:1036E0002A4905A808F01CFC05A9274808F005FD93
:1036F000044605A808F0CEFB002C07DB694605A8A8
:10370000FFF7A4FC05A8FFF7FFFEE3E7204905A8A3
:1037100008F006FC05A91C4808F0EFFC044605A8C3
:1037200008F0B8FB002C16DB1A49684608F085FA49
:1037300000240125012008F01DFD684604F0E2FC8C
:103740001549114808F06DFC022008F013FD002D0A
:1037500085D0FCF771FDFFF7ADF9694600F0010572
:10376000C0F3400405A8FFF771FC05A8FDF70EF8AB
:10377000E0E70D2D18BF002475E70446ABE700BF56
:10378000381400203B0703003C1500204A070300C3
:103790005907030063070300B881030008B5FFF76A
:1037A00053FF024B00B91878187008BD2C02002096
:1037B000F0B580498048814E85B008F0B1FB804A61
:1037C00080497D480DF0CDFB7F49804808F0A8FB7B
:1037D0007F49804808F0A4FB7F49804808F0A0FB9F
:1037E0007F49804808F09CFB7F49804808F098FB9F
:1037F0007F49804808F094FB7F49804808F090FB9F
:103800006F4A7F4900200DF0ACFB7E4B7E480027BD
:10381000002200240025C3E904451A605A609A601A
:10382000C3E9064583F8207083F82170774B4FF485
:103830007D4219211A80598144F61F522A215A804B
:1038400099814FF61A4240F2D6719A80D981DA22D4
:103850000A219A711982598240F6B8324FF4C87120
:103860001A8199821A830621694AD982012382F832
:10387000F13082F8F07001934FF4FA4300932E2256
:103880004FF0FF332F2101F0CBFF4D4A61495E48D5
:103890000DF067FB1423A020C6E9057318F0A2FB06
:1038A000C6E902453060376100F1A003E0E8024557
:1038B0009842FBD1424A584940480DF052FB574BC1
:1038C000002403F150021C705C70DC60C3E9014409
:1038D00010339342F7D15248524B03600125052320
:1038E000374A514980F8795080F889302323C0F84D
:1038F0008C3080F8905080F891500DF032FB4B489E
:1039000002F005F92E4A4A4948480DF02AFB1423D3
:103910000093A8222B46C021464808F03DF90A230F
:103920000093A8222B46C0214348444D08F034F9A7
:10393000434B444A1A6050225C601A81424B434810
:10394000CDE901330E2300934022414B802102F048
:1039500095FD1B4A3F493D480DF003FB28464FF4B7
:103960007A73AB603C4B6C6040F8143B08F00CF988
:1039700008232821394885F82030FFF753FC104AE6
:10398000374936480DF0EDFA28213648FFF74AFC52
:103990000B4A334933480DF0E4FA28213248FFF747
:1039A00041FC074A2E49304805B0BDE8F0400DF013
:1039B000D8BA00BFB88103003C150020481300208E
:1039C0000002002095BE0100C4050300181200206B
:1039D000CC05030024120020D30503003012002080
:1039E000DA0503003C120020E30503004812002022
:1039F000ED05030054120020F505030060120020BD
:103A0000A5020100101400206C130020B812002041
:103A100048140020C1510100A303010080110020BF
:103A20007C110020BC660300BD01010024110020B0
:103A3000215B0100FC12002008140020F01000207F
:103A400038140020AC710300801A06006C120020AC
:103A500064150020DD640100CC7103000813002010
:103A6000950301001C130020301300202DE9F347BB
:103A700015462E4A13688046013350200F461360C6
:103A8000002408F079FB0126294B00938DF80440AF
:103A900002AB8DF8056013E906002648EDB201F08F
:103AA000E3FB2146284608F0E9FB142008F064FBFC
:103AB000AA21204801F092FB8146142008F05CFB0B
:103AC00041461C4801F08AFB8246142008F054FB52
:103AD000390A184801F082FB8046142008F04CFB9C
:103AE000F9B2144801F07AFB0746142008F044FBB1
:103AF0003146284608F0C2FB0E4801F0ADFB5020CD
:103B000008F03AFBBAF1190F0CD1A9F11803584289
:103B10005841B8F11A0F07D11B2F18BF002002B06F
:103B2000BDE8F0872046F4E70020F8E714120020F3
:103B300080841E0048150020F8B504460E4617463E
:103B400097253A4631462046FFF790FF18B9013DC8
:103B5000F7D104F1FA00F8BD2DE9F74F8046502067
:103B600015460F4608F008FB414B00930024012343
:103B70008DF805308DF8044002AB13E906003D488E
:103B8000EDB201F071FB2146284608F077FB1420C6
:103B900008F0F2FA0F21374801F020FB824614208A
:103BA00008F0EAFA4146334801F018FB8346142036
:103BB00008F0E2FA21462F4801F010FB814614205C
:103BC00008F0DAFA21462B4801F008FB06461420DB
:103BD00008F0D2FABBF1190F03D1AAF118035C4225
:103BE0005C41B9F11A0F3CD11B2E3AD184F001048B
:103BF000502008F0C1FA18211E4801F0EFFA834660
:103C0000142008F0B9FA19211A4801F0E7FA82469F
:103C1000142008F0B1FA1A21164801F0DFFA8146A3
:103C2000142008F0A9FA1B21124801F0D7FA064621
:103C3000142008F0A1FA0121284608F01FFB0D48C6
:103C400001F00AFB502008F097FABBF1F00F03D106
:103C5000C24501D1012C06D10020388003B0BDE857
:103C6000F08F0124C4E746EA09263E800120F5E7EB
:103C700080841E0048150020F8B504460E461746FD
:103C800097253A4631462046FFF766FF18B9013DB1
:103C9000F7D104F5AF70F8BD2DE9F74302AF00246A
:103CA00027F8024DDFF850902546261D5FFA84F86C
:103CB0007600D9F800303344092259884046FFF78E
:103CC0003BFF80B1092239464046FFF7D5FF50B18E
:103CD000D9F8003033445A88BDF806309A4209D0EA
:103CE0000135952DE5DD0134072CDED1284603B0E2
:103CF000BDE8F0830025F6E70C02002073B5154CF3
:103D000023781BB1FFF7C8FF134B1860134E3278AE
:103D1000E2B12378D3B90220ADF8063008F0DEFA1C
:103D200090B9962509220DF106010B20FFF714FF2B
:103D300028B9013DF6D14FF45F43ADF80630BDF828
:103D40000630074A1B0A13700023337000232370C8
:103D500002B070BD2C020020040200204414002098
:103D6000080200202DE9F04F85B09A469DF83830C2
:103D700002939DF8403003930125102390460022C2
:103D8000CDE90035064680231E48DDF83C909DF8BD
:103D900044B01C4C0F46114603F0B5F82F23009396
:103DA0000195802311220021164803F0ACF8BBF1E5
:103DB000000F0DD02823112240212046009502F04B
:103DC000ECFE0095802337220021204602F0BEFE43
:103DD00051460C4803F014FD029B7BB14FF4803335
:103DE000636101230F93039B0E9342464B46394672
:103DF000304605B0BDE8F04FFCF764BC4FF001134E
:103E0000EEE700BF6C1200202DE9F0438046A1B020
:103E10008648864D02F071FC854B1B6893F8217033
:103E2000844B1D9345F64F13ADF8783000241DAE3A
:103E3000E3B29F424FF00103315D00934FF03B022C
:103E40004FF00203284640F0D08003F07AFA0134A4
:103E5000062CEDD1DFF81892744C00230A27CDE927
:103E60000273CDE900390522012316214046FFF7F0
:103E700079FF714B1B685B78002B00F0B9806F4BAA
:103E80006F4D23616F49204607F0E0FE6E4B2361C2
:103E90002B683A461978204607F03EFF6B4B2361AA
:103EA0006B49204607F0D2FE6A4B23616A493046CF
:103EB00008F036F82B6819783A4614311AA808F039
:103EC0005FF81AA9304608F0DAF8014605A808F0AC
:103ED00096F81AA807F0DEFF304607F0DBFF05A9C9
:103EE000204607F0AEFE5D4B23615D49204607F09A
:103EF000ADFE5C4B23612B68102259780BA808F0AB
:103F00002EF80BA90EA808F07AF857490EA808F069
:103F1000C2F82B6810229978074611A808F01FF8FC
:103F200011A9384608F0ABF84F4908F0B4F82B68EF
:103F30001022D978074614A808F011F814A93846B9
:103F400008F09DF8484908F0A6F82B681022197966
:103F5000074617A808F003F817A9384608F08FF8A5
:103F6000414908F098F82B681022597907461AA899
:103F700007F0F5FF1AA9384608F081F83A4908F029
:103F80008AF82B68102299790746304607F0E7FF38
:103F90003146384608F073F8014608A808F02FF8B3
:103FA000304607F077FF1AA807F074FF17A807F04C
:103FB00071FF14A807F06EFF11A807F06BFF0EA8A1
:103FC00007F068FF0BA807F065FF08A9204607F077
:103FD00038FE08A807F05EFF05A807F05BFF13484E
:103FE00002F002FE21B0BDE8F08303F037F82EE7BF
:103FF00001251323CDE901351223009316221B4B13
:104000002046372103F0CAF92946204603F0F8FB81
:104010004FF0011363611A23009301954B462B2245
:1040200011214046FCF74EFBD9E700BF6C1200207F
:104030003002002027313B4510020020050014000B
:104040000C020020076403003200140005001E006B
:104050001064030032001E00F46503000500270011
:10406000196403000500300067230300FA5D0300B4
:10407000346503002DE9F043054687B05E485E4F86
:1040800002F03BFB5D4B1B6893F821805C4B049373
:1040900045F64F13ADF8143000240DF11009012638
:1040A000E3B2984519F8041000964FF002034FF060
:1040B0003B02384640F0868003F043F90134062C79
:1040C000EED100230B22CDE902234E4A2846CDE94A
:1040D0000032192101230522FFF744FE032008F0D6
:1040E000FDF8002871D1072008F0F8F800286CD1FD
:1040F000414C454B454D23614549204607F0A6FDFF
:10410000444B23612B680A225989204607F0F5FDAC
:10411000414B23614149204607F098FD404B236104
:104120002B680A229989204607F0E7FD3D4B236161
:104130003D49204607F08AFD3C4B23612B680A224B
:10414000D98A204607F0D9FD394B236139492046E9
:1041500007F07CFD384B23612B680A22998A2046A0
:1041600007F0CBFD354B23613549204607F06EFD46
:10417000344B23612B680A22598A204607F0BDFD83
:10418000314B23613149204607F060FD304B2361FC
:104190002B680A22198A204607F0AFFD2D4B2361B8
:1041A0002D49204607F052FD2C4B23612B680A2233
:1041B000D989204607F0A1FD0F4807B0BDE8F043BC
:1041C00002F012BD02F04AFF78E701241323CDE983
:1041D0000134122300931622214B0748372103F0A4
:1041E000DDF8042300930194064B2B221921284665
:1041F000FCF768FAE0E700BF6C12002030020020F4
:1042000027313B4534650300030013000C020020F6
:104210006A6403002D001300400013007264030061
:104220006C00130003001D00986403002D001D00A6
:1042300040001D009164030066001D00030027007C
:10424000896403002D0027004000270082640300DA
:104250006C002700030031007A6403002D00310058
:10426000FA5D03002DE9F04F064689B07648764F97
:1042700002F043FA754B04931A6892F82180744A4D
:10428000069245F64F12ADF81C2000240DF11809D6
:104290000125E3B2984519F8041000954FF0020388
:1042A0004FF03B02384640F0A68003F04AF8013454
:1042B000062CEED1674F00252B240123052219215E
:1042C0003046CDE90245CDE90057FFF74BFD02200E
:1042D00008F004F8012840F0A1805B4C02901723FD
:1042E0001522CDE9003203215B4BDFF8A4A1142293
:1042F000204603F053F80221204603F081FA574B81
:104300002361059407F024FF554C564B1860236831
:10431000C01A132833D907F01BFF20605248534CB2
:1043200001F062FA524B07461860DAF80000514B70
:10433000381A43F8250015F0FBFDD4E9053B5B4531
:10434000804689465AD2013363612669236803EBAC
:10435000C603C3E9008942464B46D4E9020115F081
:10436000ABFC0136B345C4E9020198BF002305F157
:1043700001058CBF26612361CAF80070EDB2132DD0
:10438000C0D93A4B5C69002C45D0D3E9020116F044
:1043900041F907EE904A07EE100AF8EE677A87EEC9
:1043A000277A049B1C6817EE100A15F0E3FD002223
:1043B000C4E90401304B15F05FFF00222F4B15F0CC
:1043C00031FE02460B46C4E90623022400941E482F
:1043D00007F05EFD21461C4803F012FA059A284BAF
:1043E00013612849184807F031FC174809B0BDE8A7
:1043F000F04F02F0F9BB02F031FE58E72269236862
:1044000003EBC203D3E90023D4E9020115F052FC07
:10441000C4E9020199E79FED1C7AC2E70125132345
:10442000CDE90135122300931622184B0648372197
:1044300002F0B4FF2D23009301953B46224619213B
:104440003046FCF73FF9D0E76C1200203002002024
:1044500027313B4534650300A66203001E0022009D
:10446000E8100020E41000206C1300204813002006
:10447000E010002090100020000034400000D03FE9
:1044800050002200FF65030000000000FA5D0300F9
:10449000EC1000202DE9FF41264C274F0125402339
:1044A000CDE90135802306460522002100932046F0
:1044B000224B02F073FF204602F096FB40F2DC50E4
:1044C00007F058FE204602F018F94FF000080623C6
:1044D000CDE9023805222B463046CDE90087172169
:1044E000FFF740FC2946204603F08AF94FF00113FC
:1044F000636130463B46CDE900851E222321FCF74F
:10450000E1F83B4628222A213046CDE90055FCF748
:10451000D9F8204602F068FB40F2DC5007F02AFE92
:10452000204602F0EAF8204604B0BDE8F04102F06F
:104530005BBB00BF6C12002034650300335E0300D8
:104540002DE9F043434C444DDFF8148185B000233E
:104550000622CDE90223CDE90034052201231721EB
:104560000746FFF7FFFB03230122CDE900321121AB
:10457000234624223846FCF7A5F8374802F034FBDE
:1045800040F2DC5007F0F6FDA146072007F0A6FE3A
:1045900038B3284602F0B1F801261323CDE90136DD
:1045A00012230093284643461622372102F0F6FED6
:1045B00000230622CDE90223CDE9003438463346F4
:1045C00005221721FFF7CEFB0423009338460196FE
:1045D0004B462B221921FCF775F8284602F004FB04
:1045E000D3E7032007F07AFE06460028D1D11A4807
:1045F00002F083F801251123CDE901351223009340
:104600001722164B1448372102F0C8FE0623CDE9C5
:10461000014338462B460396009605221721FFF7E3
:10462000A1FB05232B22142100933846094B019549
:10463000FCF748F8084802F0D7FA40F2DC5007F0DF
:1046400099FD054802F059F8034805B0BDE8F0436C
:1046500002F0CABA346503006C120020C75D030083
:10466000FA5D03002DE9F04F484F494DDFF82C91DA
:1046700085B04FF000084FF0060A012305221721EC
:10468000CDE902A8CDE9008704460126FFF76AFBC1
:10469000132324221121CDE9003620463B46FCF7A6
:1046A00011F8284602F0A0FA40F2DC5007F062FD53
:1046B0002046FEF777FD2046D9F800B0FBF7AEFFA5
:1046C0008BF80400284602F018F833460522CDE99D
:1046D00002A8CDE9008717212046FFF743FBD9F850
:1046E00000301A78A9468AB393F80480B8F1000F15
:1046F0002CD012234FF011091722CDE900393721B0
:10470000244B0296284602F049FE3146284603F023
:1047100077F84FF001136B611423009301963B4629
:104720002B2249462046FBF7CDFF194802F05CFAE0
:1047300040F2DC5007F01EFD154801F0DEFF144882
:1047400002F052FA404605B0BDE8F08F0125132370
:10475000CDE9013512231622009337210E4B0C4868
:1047600002F01CFE29460A4803F04AF84FF00113F4
:10477000C9F81430152300930195044B2B22112105
:104780002046FBF79FFF4FF00008CEE7346503009B
:104790006C120020C75D0300FA5D030010020020C8
:1047A0002DE9F043394E3A4D85B04FF000084FF0F7
:1047B0000609CDE90298CDE90086012305221721DB
:1047C00007460124FFF7CEFA1B2324221121CDE94D
:1047D000003438463346FBF775FF284602F004FAEA
:1047E00040F2DC5007F0C6FC284601F086FF234665
:1047F000CDE90298CDE90086052217213846FFF75A
:10480000B1FAFEF755FC12238046029450B34FF0E4
:104810001109CDE9003917221E4B3721284602F035
:10482000BDFD2146284602F0EBFF4FF001136B61FE
:1048300001941C232B221121009338463346FBF7A9
:1048400041FF134802F0D0F940F2DC5007F092FC2F
:104850000F4801F052FF0E4802F0C6F9404605B07D
:10486000BDE8F0831322CDE9003237210A4B16222E
:10487000284602F093FD2146284602F0C1FF4FF082
:1048800001136B6101941D23D4E700BF346503005D
:104890006C120020C75D0300FA5D030030B5114CB7
:1048A00085B000230622CDE90223CDE9003405229C
:1048B000012317210546FFF755FA2C230122CDE9E4
:1048C00000321121234624222846FBF7FBFE06482E
:1048D00002F08AF940F2DC5005B0BDE8304007F044
:1048E00049BC00BF346503006C1200202DE9F04381
:1048F000074687B05548554E01F0FFFE544B1B68E4
:1049000093F82180534B049345F64F13ADF81430C0
:1049100000240DF110090125E3B2984519F804109F
:1049200000954FF002034FF03B02304671D102F088
:1049300008FD0134062CEFD100230722CDE9022324
:10494000454A464D414CCDE900321721012305224D
:104950003846FFF707FA2B689B787BB9012323774A
:104960003F4B23612821204602F0C0FE2121204632
:1049700002F0BCFE2921204602F0B8FE394B23612B
:1049800039493248394E07F061F9394B23613949C9
:104990002E4807F05BF9384B236138492B4807F064
:1049A00055F92B6829485B790121002B34D002F09E
:1049B00027FF4FF48033324926616361234807F0B3
:1049C00045F92B6821489B792E4D012163B302F0F4
:1049D00017FF4FF480332A49256163611B482A4D34
:1049E00007F034F9022007F079FC0128014623D1B1
:1049F000164802F005FF4FF48033244925616361B6
:104A0000124807F023F9114807B0BDE8F04302F05F
:104A1000EBB802F023FB8CE702F0F2FE4FF4803398
:104A2000266163611A49C9E702F0EAFE4FF4803358
:104A3000256163611649D1E70121044802F0E0FED7
:104A40004FF48033256163611249D9E76C1200206D
:104A50003002002027313B4534650300100200205E
:104A60006C0005000500140098630300500014005A
:104A700005002100A563030005002E00B2630300BA
:104A8000C16303005000210050002E00C7630300E3
:104A9000BE630300CA6303002DE9F047564EDFF8FA
:104AA0005C8186B00746554801F027FE336893F8CD
:104AB0002190534B049345F64F13ADF81430002466
:104AC0000DF1100A0125E3B299451AF8041000957A
:104AD0004FF002034FF03B0240466FD102F031FC31
:104AE0000134062CEFD100230822DFF83C81434C2F
:104AF000CDE902230522CDE90038114601233846CD
:104B0000FFF730F93F4B1B681B7801250295002BFE
:104B100057D01027CDE900773B4B16220A212046BB
:104B200002F03CFC2722394B0097CDE901750A21A0
:104B3000204602F033FC0221204602F061FE344B95
:104B40004FF00117C4E904373368186815F012FAFA
:104B50004FF0020802460B46CDF80080204607F0D1
:104B600097F92C4B23613368586815F003FACDF898
:104B7000008002460B46204607F08AF92946204667
:104B8000257702F03DFE244BA721C4E904372046D7
:104B900002F0ACFD2149204607F058F84321204699
:104BA00002F0A4FD1E4B23612521204602F09EFD4C
:104BB000124806B0BDE8F04702F016B802F04EFA0F
:104BC0008EE712231322CDE900322046154B162220
:104BD000372102F0E3FB2946204602F011FE4FF098
:104BE0000113636116230093019543462B22112183
:104BF0003846FBF767FDDBE7300200206C1200202F
:104C000027313B451002002033620300536203004A
:104C1000230016002300270061001600B88103005E
:104C200061002700FA5D0300346503002DE9F043BD
:104C3000074687B04748474D01F05FFD464B1B686C
:104C400093F82180454B049345F64F13ADF814308B
:104C500000260DF110090124F3B2984519F8061049
:104C600000944FF002034FF03B0228466FD102F050
:104C700068FB0136062EEFD101250923CDE9023567
:104C8000374B01930023334C009338462B460522C3
:104C90002321FFF767F8112325771322CDE900338D
:104CA0001821304B0295204602F078FB3846FEF77B
:104CB000F3FA33462C4E009520462422602102F060
:104CC000CDF933682046B3F90620B3F904100095F6
:104CD000042302F036FB254B2361E921204602F034
:104CE00005FD2349204606F0B1FF224B23613368BE
:104CF000986815F03FF9009502460B46204607F0EC
:104D0000C7F81D4B2361A721204602F0EFFC1B4B87
:104D10002361E921204602F0E9FC1949204606F00A
:104D200095FF3368186915F025F9009502460B4682
:104D3000204607F0ADF8134B2361A721204602F06F
:104D4000D5FC204607B0BDE8F04301F04DBF02F0AE
:104D500085F98EE76C1200203002002027313B4598
:104D60003465030073620300140200200400240071
:104D700003660300160024003700240004002E0000
:104D80000666030037002E0038B5394B394C1B68D6
:104D9000197A5A7A914210D1D97971B1364D2B785E
:104DA0000BBB07F0D5F9354B1B6803F5922303F5D0
:104DB000787398421DD901231AE0197A8A4201D1E9
:104DC000D979B1B1197A8A4213D0197A5972DB793B
:104DD0002268CBB192F82130042B94BF0133002319
:104DE00082F8213005E02368062283F82120002381
:104DF0002B70236893F82130072B33D8DFE803F0BA
:104E0000060B10151A1F242C0723E9E71C48BDE8E0
:104E10003840FFF76BBD1A48BDE83840FFF72AB9A4
:104E20001748BDE83840FFF71DBA1548BDE83840BF
:104E3000FEF7EABF1248BDE83840FFF7F7BE10485A
:104E4000BDE83840FFF728BE0D48FBF76BFC236830
:104E5000082283F8212038BD0948FBF771FC23683C
:104E60000022F6E70120BDE8384007F085B900BF11
:104E700010020020300200208C10002004130020BB
:104E800068130020F8B51648154E164F164D00F061
:104E9000BDFA1649124800F018FB32243246502160
:104EA000384604F012FC2B6840B9D870013C05204C
:104EB00007F060F914F0FF04F0D1F8BD0122DA70B8
:104EC0004FF4FA31074804F00FFC7821054804F04C
:104ED0000DFC03210348BDE8F84004F009BC00BF05
:104EE000641500201802002010020020801A06001D
:104EF0001FB5FFF7C7FF0F4B1B68DB78BBB1FEF791
:104F0000B5F80D4B1A681378118919441433DBB2C4
:104F1000118302A80093A8220123C02106F03CFEC1
:104F2000064B039A5A60002005B05DF804FB4FF071
:104F3000FF30F9E7100200200C020020FC120020D4
:104F40002DE9F0433B4F3C4E85B000254FF006095C
:104F5000012305221721CDE90295CDE900578046AE
:104F60000124FEF7FFFE252324221121CDE9003480
:104F700040463B46FBF7A6FB304601F035FE40F2CB
:104F8000DC5007F0F7F8304601F0B7FB2346052266
:104F900017214046CDE90295CDE90057FEF7E2FE24
:104FA000FFF7A6FF1223029448BB11251722CDE973
:104FB00000353721214B304602F0F0F921463046CA
:104FC00002F01EFC4FF0011373612723009301943C
:104FD0003B462B2229464046FBF774FB164801F05E
:104FE00003FE40F2DC5007F0C5F8134801F085FBE2
:104FF000114801F0F9FD204605B0BDE8F083132209
:10500000CDE9003237210E4B1622304602F0C6F9A8
:105010002146304602F0F4FB4FF001137361282360
:10502000019400932B223B4611214046FBF74AFB9B
:105030002C46D3E7346503006C120020C75D0300E3
:10504000FA5D030073B54FF4FA7007F093F802218C
:10505000052007F0D7F801210E2007F0D3F8022130
:10506000072007F0CFF801210E2007F007F94FF4D1
:10507000FA7007F07FF8424D0124009401233D228D
:105080000221284601F046FB0028F6D03D4D3C4861
:105090002B68DC7101F031FB394801F0A5FD3A487D
:1050A000FFF7F8F93848FFF74BFA3748FFF748FFA2
:1050B00004463548FFF7D6FA06463348FFF770FB3B
:1050C000002E5AD0002808BF00242B682E489C7060
:1050D000FFF7E4FB2C48FBF7DDFA4FF4FA7007F01A
:1050E00049F80023142229492948FBF722FA012311
:1050F000642228492648FBF71CFA02234FF4FA627F
:1051000025492348FBF715FA0323244A244920485C
:10511000FBF70FFA0123642222491D48FBF709FA25
:105120000123322220491A48FBF703FA032341F2F4
:1051300088321E491648FBF7FCF903234EF660221D
:105140001B491348FBF7F5F9032341F2883219494B
:105150000F48FBF7EEF90323104A17490C48FBF7F9
:10516000E8F9074801F0C9FA054801F03DFD06F0ED
:10517000EFFF124B186002B070BD3446A5E700BFC8
:105180006C1200201002002068130020FD3C01007A
:10519000481400209D370100E501010080EE360033
:1051A000C1020100894D01009902010005030100BF
:1051B000C101010071030100190201000413002064
:1051C00010B504465C3007F02FFE04F1300007F004
:1051D0002BFE201D07F028FE204610BD10B586B01E
:1051E000C0688DF80F10036801220092DC680DF191
:1051F0000F010DF11703A0479DF8170006B010BD71
:10520000F8B5427A036804460E46CFB29B680D0A91
:1052100062B939469847236860F307069B682946B8
:105220002046984760F30F26B0B2F8BD294698474C
:10523000236860F30F269B6839462046984760F341
:105240000706F1E713B5C06803680092DC680B46F7
:10525000A04702B010BD70477047C06810B1036826
:105260005B6818477047704773B543686D4699424D
:10527000044685E806000E4604D1BDF804200389E3
:105280009A420DD09DF80420E068082107F021FF24
:10529000E068314607F03AFF0098AB8860602381F0
:1052A00002B070BD73B5044654200CF069F84FF09D
:1052B000FF3694F9183094F9102094F914100096E0
:1052C000054607F0C1FEE56002B070BD10B51C21B7
:1052D00004460CF07BF8204610BD000038B505F000
:1052E000E6F80C288ABF154B4FF0FF3593F9C050F4
:1052F00005F0DDF80B288ABF104B4FF0FF3493F90F
:10530000B04005F0D4F80D2888BF0C4B0C480D4A6E
:1053100088BF93F9D03002604FF0000298BF4FF081
:10532000FF334260027201224272C0E90454836179
:10533000054A0649BDE838400BF013BE380200208C
:105340004815002014660300000200206752010087
:10535000490000230162C0F8303270470368012120
:105360001B6B184710B403689C6B0123A4465DF8BF
:10537000044B6047D0F83032B3F5807F1FBF5A1C12
:10538000C0F83022C01880F8301114BF012000206E
:105390007047D0F82C0170477047C0F8341270473E
:1053A000C0F838127047D0F82C312BB1D0F8283122
:1053B000184490F8240070474FF0FF3070470346C0
:1053C000D0F82C01A8B1D3F82C2182B1D3F8282130
:1053D0001A4492F82400D3F828210132D2B2C3F83B
:1053E0002821D3F82C21013AC3F82C2170474FF023
:1053F000FF30704710B5044B0360044600F50F7092
:105400000EF0BAFD204610BD5C66030038B50446B8
:1054100080200BF0B5FF94F91C2094F91810054674
:1054200007F096FC656138BD7FB5044648200E46FE
:105430000BF0A6FF94F91C2094F91810054607F00C
:10544000C1FC71002846256107F0D8FC094B039385
:10545000094B01936946002304F50F7002930094F1
:105460000EF004FD039B13B19B686846984704B097
:1054700070BD00BF486603008755010038B5D0F8FD
:10548000303214461A44B2F5807F88BFC3F5807469
:10549000054600F598702246184417F0F3F8D5F841
:1054A00030322344C5F83032204638BD10B50446AA
:1054B000406910B10368DB689847206920B1482132
:1054C000BDE810400BF082BF10BD38B504464069FE
:1054D0000D4608B107F046FB206920B12946BDE81A
:1054E000384007F089BC38BD07B581F00101009153
:1054F000D0F83032016A00F59872406907F060FB1D
:10550000002814BF0220002003B05DF804FB70B532
:10551000C2B083F00103009302AE04461546134661
:1055200049003246406907F06CFBC8B9A84218D060
:10553000D4F82C31B3F5807F10D0D4F82431325C0C
:10554000234483F82420D4F824310133DBB2C4F897
:105550002431D4F82C310133C4F82C310130E5E783
:105560000025284642B070BD10B4D0E9013401686E
:105570006210E40701EB020048BF8A585DF8044B53
:1055800048BFD358184730B5044685B00025206978
:1055900007F03BFC012829D0F9DB0328F7DCC4F82D
:1055A0002451C4F82851C4F82C51102269462069AE
:1055B00007F02DFC002282422ADAD4F82C31B3F510
:1055C000807F11D0D4F824311DF80210234483F8D1
:1055D0002410D4F824310133DBB2C4F82431D4F8D8
:1055E0002C310133C4F82C310132E4E7D4F83832DD
:1055F00003B19847D4F8302232B104F5987120698C
:1056000007F007FCC4F83052206907F00AFCBEE737
:105610001028CAD8D4F82C31002BF5DDD4F8343258
:10562000002BF1D0D4F82C019847EDE773B54FF477
:105630007A730025C0E90153184B03600446C0E9A2
:1056400006124FF480722946243017F019F9144BD2
:10565000C4F82451C4F83C322946C4F82851C4F88F
:105660003052C4F82C51C4F83452C4F83852C4F83B
:105670004C5204F51F700CF0B3F804F50F7604F5E6
:1056800024700CF04BF8304600952B464FF48052B6
:1056900018210EF0DFFB204602B070BD5C660300EF
:1056A000848B030010B504F002FF12288ABF1B4B45
:1056B0004FF0FF3493F9204104F0F9FE132888BF1E
:1056C000164B17488CBF93F930214FF0FF3221461B
:1056D000FFF7ACFF134A144911480BF042FC04F0E9
:1056E000E6FE1E288ABF0D4B4FF0FF3493F9E041D0
:1056F00004F0DDFE1F2888BF084B0C4888BF93F9D3
:10570000F021214698BF4FF0FF32FFF78FFF054A87
:1057100005490648BDE810400BF023BC38020020C4
:105720006415002000020020F55301005C180020E1
:10573000D0F898300133C0F89830704738B5044637
:10574000043007F0BDFB054604F1300007F0B8FB5C
:10575000237840EA4500C4F89000E3B9D4F88C30CF
:10576000032B06D140B9D4F894300133C4F89430F7
:1057700002E023B90328F6D0C4F88C0038BD022B10
:1057800005D10128F8D1D4F89430013BEEE7012B84
:10579000F2D10228F6E7012BEED1D4F88C3080EA62
:1057A0000302032AE8D09842E6D083EA600313F0AC
:1057B0000103D4F8942008BF4FF0FF33D31AD5E784
:1057C00010B4D0E9013401686210E40701EB020073
:1057D00048BF8A585DF8044B48BFD3581847C36880
:1057E0000BB19B6818477047D0F8940070470000D1
:1057F00010B586B00446684680E80C0006A800E9AB
:105800000C00064BE360034643F80C1D93E80700C9
:1058100084E80700204606B010BD00BFA86603005C
:105820002DE9F04F04468FB000F10408154604F14D
:10583000300640469A469DF864B004F15C0907F0D2
:105840002BFB2946304607F027FB5146484607F018
:1058500023FB0025189BC4F88830C4F8945084F8C2
:1058600000B0C4F89850404607F02AFB074630467F
:1058700007F026FB40EA47002C4FCDE9027502AB4A
:105880000CCBC4E9230021460AA8FFF7B1FF0AA9FF
:10589000404607F018FB0AA8FFF7A1FFCDE9007505
:1058A0006B460CCB21460AA8FFF7A2FF0AA9404687
:1058B00007F025FB0AA8FFF792FFBBF1010F1DD1EE
:1058C000CDE9067506AB0CCB21460AA8FFF790FF81
:1058D0000AA9304607F0F7FA0AA8FFF780FFCDE9DA
:1058E000047504AB0CCB21460AA8FFF781FF3046B4
:1058F0000AA907F004FB0AA8FFF771FFBAF1FF3FFE
:1059000010D00B4B08930023099308AB0CCB214616
:105910000AA8FFF76DFF48460AA907F0D4FA0AA8BB
:10592000FFF75DFF20460FB0BDE8F08F3D57010047
:105930003157010010B590F890300446002B14BF89
:105940000221002190F8890006F05CFC23682046C3
:105950009B68984794F8793084F87A001BB180F0FE
:10596000010084F87A0006F0F3FB94F87A3084F8AA
:105970007B300023C4F8800084F87C30C4F88400B5
:1059800010BD2DE9F041044606F0E2FB2368054610
:105990009B682046984794F8793013B180F0010055
:1059A000C0B2D4F88430D4F88C20EB1A934226D2BB
:1059B000002384F87C30204600F052F890B394F82D
:1059C00088305BBB236F03B19847261D04F15C0749
:1059D00004F154082946304600F077F808B13B68D6
:1059E00098471036B04507F10407F3D1002384F837
:1059F0007830C4F8805094F87A00BDE8F08194F8CB
:105A00007A3084F87B3083EA0002834284F87A009B
:105A100084F87C2018BFC4F88450CCE7002384F8B5
:105A20008830E3E7204600F018F80028E1D094F829
:105A30009130012BDDD1204600F01AF8D9E708B5E6
:105A400090F8890006F04AFC003018BF012008BD1C
:105A50000167704781654267704790F87A00704728
:105A600090F87A3013B990F87C00704700207047A6
:105A7000F0B5044685B006F06BFB94F87A3013B3AA
:105A8000D4F88430C01AA36D98421CD3636FD3B18D
:105A9000012384F8883004F15407251D6E46AF4277
:105AA00008D095E80F0086E80F00304600F02BF88C
:105AB0001035F4E7636F33B194F878201AB90122F6
:105AC00084F87820984705B0F0BD0346007870B59B
:105AD00008B9002010E0DA6802B99960D3E90154EE
