:020000021000EC
:1000000000000420014A0200394A02008D07020064
:100010003D4A0200990702009F070200000000000D
:100020000000000000000000000000002D20020081
:10003000454A020000000000C5200200D520020051
:10004000DD8C020071FB01004B4A02004B4A0200AA
:100050004B4A02004B4A02004B4A02004B4A020044
:100060004B4A02004B4A02004B4A02004B4A020034
:100070004B4A0200718E02004B4A020089FB0100CC
:100080004B4A02004B4A02004B4A02004B4A020014
:100090004B4A02004B4A02004B4A02004B4A020004
:1000A0004B4A02004B4A02004B4A02004B4A0200F4
:1000B0004B4A0200E1A60100000000000000000021
:1000C0004B4A02004B4A02004B4A02004B4A0200D4
:1000D0004B4A02004B4A02004B4A02004B4A0200C4
:1000E0004B4A02004B4A02004B4A0200000000004B
:1000F000000000004B4A0200000000004B4A0200D2
:1001000010B5054C237833B9044B13B10448AFF351
:1001100000800123237010BD70100020000000003B
:10012000D4A6030008B5034B1BB103490348AFF342
:10013000008008BD0000000074100020D4A6030059
:10014000154B002B08BF134B9D46A3F5803A0021A9
:100150008B460F461348144A121A1DF0A1FD0F4B8F
:10016000002B00D098470E4B002B00D09847002062
:10017000002104000D000D48002802D00C4811F0A9
:10018000F1F81DF095F82000290011F0A7FD11F0FD
:10019000E6F800BF00000800000004200000000096
:1001A000391C020070100020B8CE00206513020038
:1001B0000000000070470020704770477047000043
:1001C000074B1B681A7842B15A7832B1DA7822B1FB
:1001D0001A7912B101229A7070470022FBE700BF22
:1001E00010020020014B01221A70704744140020B5
:1001F000D0E900301847000008B50CF0A5F9044B11
:100200001860044B1A68137A83F00103137208BD57
:10021000041300201002002008B505480AF055F923
:10022000044B1B6808B9187108BD01221A71FBE75D
:10023000AC2B00201002002008B50446204609F02F
:1002400079FDFBE70B6803604B6843608B68836054
:100250007047000008B500210E200CF00BFA4FF497
:10026000FA700CF085F901210E200CF003FA012040
:100270000CF07CF9BFF34F8F0549064BCA6802F4B6
:10028000E0621343CB60BFF34F8F00BFFDE700BFB9
:1002900000ED00E00400FA05014805F06EBD00BF66
:1002A0007C11002038B5054CA4F1540520460C3CC7
:1002B0000BF0ECFFAC42F9D138BD00BF601200205A
:1002C00010B507F085FF0128044607D10B4808F058
:1002D00035FA18B10A4B1B685C7010BD07F078FF47
:1002E000022804D1064B1B6800225A70F5E7034828
:1002F00008F024FA0028F5D0EFE700BF38140020FA
:100300001002002038B5164C1648256806F0EAF8A9
:1003100028601448256806F007FA6860114806F05E
:1003200013F99FED117A2368104A07EE900AC7EE81
:10033000877AC3ED027AD3ED007AF5EEC07AF1EE5A
:1003400010FA0ADDD3ED017AF5EEC07AF1EE10FA7B
:1003500003DD136801221A7038BD13680022FAE722
:1003600030020020241100200000C84210020020AA
:1003700008B55021054809F093FB054B1B6808B9E7
:10038000D87008BD0122DA70FBE700BF1802002018
:100390001002002010B5044600681DF039F8204610
:1003A00010BD10B5044600681DF032F8204610BD9F
:1003B000F0B590F8F06000234FF0140CDCB2A642C8
:1003C0000BD90CFB03F41D4607598F4203D104449B
:1003D0006468944203D00133F0E74FF0FF352846BC
:1003E000F0BD002910B5044615DB90F8F0309942B5
:1003F00011DA142202FB01F05B1A013B811821443F
:100400005A4320441DF0E8FB94F8F030013B84F897
:10041000F030012010BD0020FCE72DE9F84306462E
:100420000CF092F80024142796F8F030A3422DD94E
:1004300007FB0463D3E90212851A8D4218D304EB3B
:10044000840006EB80050A44D5F804901D6956F82F
:100450002080DA607DB90125B9F1000F14DB484630
:10046000C04796F8F1308BB90CF06EF8002DDBD058
:100470000134E4B2D8E7013D1D61002DEBD12146E6
:100480003046FFF7AEFFE7E7C047EAE7BDE8F8838D
:100490002DE9F843089F16463A4605468946984690
:1004A000FFF786FF041E2FDA95F8F0409DF8243000
:1004B0009C4228BF1C4695F8F0300B2B2AD85EB31F
:1004C000A3420AD9142204FB0220A0F114011B1B31
:1004D0005A43294428441DF07FFB04EB84039B000E
:1004E000EA1845F80390142303FB0454A6605760F0
:1004F0000CF02AF8C4E9030895F8F030013385F8C8
:10050000F0300120BDE8F88321462846FFF769FF57
:10051000E4B2D0E70020F5E73046F3E713B59DF8E5
:10052000104001944FF0FF340094FFF7B1FF02B088
:1005300010BD07B500930023FFF7F0FF03B05DF88F
:1005400004FB000008B50548054A1A2309F031FBF1
:100550000520BDE808400CF00BB800BF18020020D1
:10056000B812002030B5174D85B00A24284609F08E
:10057000ACFF60B90A20013C0BF0FAFF14F0FF0455
:10058000F4D105200BF0F2FF204605B030BD0E4C33
:10059000204609F08BFB0D4B03930D4B6946CDE9CB
:1005A000003404F5A8700023029313F05BFE039B54
:1005B00013B19B6868469847064B074A1B6801249D
:1005C0001A60DEE7AC2B0020B01B0020B819030036
:1005D0003902010014020020E6FFF2FF10B5084CBA
:1005E000204605F0A3FB2046064905F02DFC2046D9
:1005F000054A41F28831BDE8104005F027BC00BF34
:100600007C110020F901010055020100F0B587B00E
:100610001E469DF834309DF83070134C09B215B267
:1006200003B30DF11603039305AB02930DF112030F
:10063000019304AB0A46009356F827102B46204638
:1006400007F0A0FBBDF814300222C3F1800393FB36
:10065000F2F3238256F82710034865820BF0F2FC70
:1006600007B0F0BD2182F5E76C12002008B5AE217D
:10067000034806F00DFA034B1B680022DA7108BD2F
:100680006C1200201002002008B5AF21034806F0CC
:10069000FFF9034B1B680122DA7108BD6C120020C0
:1006A0001002002010B5084904460BF0D9FC074998
:1006B00020460BF0D5FC204605490BF0D1FC204626
:1006C000BDE810400BF0C6BCFD1903000D1A030075
:1006D000251A03002DE9F74F0446DB49DFF86C8447
:1006E000DFF86CA4D94DDA4FDFF86894DFF868B40E
:1006F000D84E0BF0B5FCD84920460BF0B1FCD749D9
:1007000020460BF0ADFCD64920460BF0A9FCD5499C
:1007100020460BF0A5FCD44920460BF0A1FCD349A0
:1007200020460BF09DFCD24920460BF099FC414637
:1007300020460BF095FCCF4920460BF091FCCE49AA
:1007400020460BF08DFCCD4920460BF089FC51462C
:1007500020460BF085FCCA4920460BF081FC294657
:1007600020460BF07DFCC74920460BF079FC39464A
:1007700020460BF075FCC44920460BF071FCC349C0
:1007800020460BF06DFC294620460BF069FCC04961
:1007900020460BF065FC494620460BF061FCBD4B42
:1007A0000093194620460BF05BFC294620460BF0CF
:1007B00057FCB94920460BF053FC414620460BF04C
:1007C0004FFCB64920460BF04BFCB54920460BF0D8
:1007D00047FCB44920460BF043FC594620460BF039
:1007E0003FFC294620460BF03BFCAF4920460BF06E
:1007F00037FC414620460BF033FCAC4920460BF059
:100800002FFCAB4920460BF02BFCAA4920460BF0ED
:1008100027FC314620460BF023FCA74920460BF06D
:100820001FFC294620460BF01BFCA44920460BF078
:1008300017FC594620460BF013FC009B2046194636
:100840000BF00EFC514620460BF00AFC29462046D0
:100850000BF006FC9A4920460BF002FC4946204664
:100860000BF0FEFB9749DFF8F49220460BF0F8FB03
:10087000954920460BF0F4FB944920460BF0F0FB21
:10088000494620460BF0ECFB914920460BF0E8FB73
:10089000314620460BF0E4FB8E4920460BF0E0FB8E
:1008A000294620460BF0DCFB8B4920460BF0D8FB99
:1008B000594620460BF0D4FB8849DFF8A4B2204605
:1008C0000BF0CEFB864920460BF0CAFB854920463B
:1008D0000BF0C6FB294620460BF0C2FB824920469E
:1008E0000BF0BEFB814920460BF0BAFB8049204645
:1008F0000BF0B6FB7F4920460BF0B2FB29462046A1
:100900000BF0AEFB7C4920460BF0AAFB314620469B
:100910000BF0A6FB794920460BF0A2FB414620468E
:100920000BF09EFB764920460BF09AFB29462046A9
:100930000BF096FB734920460BF092FB31462046A4
:100940000BF08EFB514620460BF08AFB6E49DFF818
:1009500014A220460BF084FB6C4920460BF080FB70
:10096000294620460BF07CFB694920460BF078FBBA
:10097000684920460BF074FB674920460BF070FB7A
:10098000294620460BF06CFB644920460BF068FBBF
:10099000634920460BF064FB294620460BF060FBC0
:1009A000604920460BF05CFB394620460BF058FBB3
:1009B0005D4920460BF054FB5C4920460BF050FB90
:1009C0005B4920460BF04CFB294620460BF048FBC8
:1009D000584920460BF044FB314620460BF040FBC3
:1009E000294620460BF03CFB534920460BF038FBD0
:1009F000394620460BF034FB514620460BF030FBC5
:100A0000294620460BF02CFB4C4920460BF028FBD6
:100A1000314620460BF024FB294620460BF020FBF4
:100A2000474920460BF01CFB394620460BF018FBCB
:100A3000444920460BF014FB434A019211462046DC
:100A40000BF00EFB90E000BF661B0300621C03006E
:100A5000711C0300801D0300761B0300861B03002E
:100A6000971B03009E1B0300C71B0300DA1B030038
:100A7000E21B0300F41B0300001C0300331C0300F3
:100A8000471C0300641C0300801C0300A31C03001C
:100A9000C91C0300EC1C0300011D03000F1D030013
:100AA000221D0300301D03004B1D0300581D0300D1
:100AB0006C1D0300771D0300941D0300A91D030096
:100AC000B01D0300BA1D0300CB1D0300D61D03009B
:100AD000F01D0300051E0300151E0300201E030069
:100AE000321E0300451E0300591E0300661E03004C
:100AF000741E03008E1E03009D1E0300A61E03002D
:100B0000BD1E0300CE1E0300D91E0300F01E03000D
:100B1000021F0300131F03002E1F03003E1F0300CC
:100B2000491F03005B1F0300781F0300951F03008C
:100B3000BA1F0300C91F0300E91F030012200300AE
:100B4000242003003D20030065200300E91B03006F
:100B50001E1F0300D31C03003E1D0300E31D030002
:100B6000A9200300F91F0300DB4B00931946204620
:100B70000BF076FA594620460BF072FA29462046C9
:100B80000BF06EFAD54920460BF06AFAD44920469C
:100B90000BF066FAD34920460BF062FA3146204644
:100BA0000BF05EFA294620460BF05AFACE49204651
:100BB0000BF056FA394620460BF052FACB49204644
:100BC0000BF04EFA019A204611460BF049FA009BB1
:100BD000204619460BF044FA594620460BF040FADD
:100BE000294620460BF03CFAC149DFF8ECB3204619
:100BF0000BF036FA394620460BF032FA51462046C1
:100C00000BF02EFA294620460BF02AFAB949DFF8F4
:100C1000CCA3B94F20460BF023FAB84B00931946EA
:100C200020460BF01DFA594620460BF019FAB4493C
:100C300020460BF015FA514620460BF011FA3946C2
:100C400020460BF00DFA294620460BF009FAAD4973
:100C500020460BF005FA009B204619460BF000FADF
:100C6000594620460BF0FCF9A749DFF874B320463B
:100C70000BF0F6F9514620460BF0F2F939462046C2
:100C80000BF0EEF9294620460BF0EAF99F49A04FF8
:100C9000DFF850A320460BF0E3F99E4920460BF005
:100CA000DFF99D4920460BF0DBF99C4920460BF00B
:100CB000D7F9494620460BF0D3F9994920460BF065
:100CC000CFF9294620460BF0CBF9964920460BF088
:100CD000C7F9954920460BF0C3F9314620460BF081
:100CE000BFF99249924E20460BF0BAF94146204690
:100CF0000BF0B6F98F49DFF8F08220460BF0B0F91F
:100D00008D4920460BF0ACF9294620460BF0A8F996
:100D10008A4920460BF0A4F9894920460BF0A0F936
:100D2000884920460BF09CF9294620460BF098F99B
:100D3000854920460BF094F9844920460BF090F940
:100D4000834920460BF08CF9294620460BF088F9A0
:100D5000804920460BF084F97F4920460BF080F94A
:100D6000294620460BF07CF97C4920460BF078F9A7
:100D70007B4920460BF074F97A4920460BF070F954
:100D8000794920460BF06CF9784920460BF068F958
:100D9000294620460BF064F9754920460BF060F9AE
:100DA000744920460BF05CF9734920460BF058F962
:100DB000294620460BF054F9704920460BF050F9B3
:100DC0006F4920460BF04CF96E4920460BF048F96C
:100DD000294620460BF044F96B4920460BF040F9B8
:100DE0006A4920460BF03CF9694920460BF038F976
:100DF000684920460BF034F9294620460BF030F9BB
:100E0000654920460BF02CF9644920460BF028F97F
:100E1000634920460BF024F9624920460BF020F983
:100E2000294620460BF01CF95F4920460BF018F9C3
:100E3000314620460BF014F9294620460BF010F9F4
:100E40005A4920460BF00CF9594920460BF008F995
:100E5000294620460BF004F9564920460BF000F9CC
:100E6000554920460BF0FCF8294620460BF0F8F8CF
:100E7000524920460BF0F4F8314620460BF0F0F8CA
:100E8000294620460BF0ECF84D4920460BF0E8F8D7
:100E90004C4920460BF0E4F8294620460BF0E0F8D8
:100EA000494920460BF0DCF8314620460BF0D8F8D3
:100EB000294620460BF0D4F8444920460BF0D0F8E0
:100EC000434920460BF0CCF8424920460BF0C8F8C5
:100ED000314620468AE000BF8A200300B820030084
:100EE000D5200300E8200300FA20030014210300AA
:100EF0003C2103004D210300A22103005A210300DD
:100F000075210300B9210300C4210300DB21030084
:100F1000BB310300EC210300012203001322030074
:100F20002E22030043220300D42203005622030092
:100F3000052503007122030081220300962203008D
:100F4000AA2203002E1F0300C5220300D92203009A
:100F5000EF220300082303001723030029230300C3
:100F6000492303005A2303007C2303008623030044
:100F7000932303009F230300C7230300DC23030004
:100F8000E923030011240300252403003B2403006C
:100F9000692403007E240300A3240300BC2403006F
:100FA000CF240300E4240300FA24030012250300E5
:100FB0001D2503002A2503003625030044250300D0
:100FC000502503005D2503006A25030075250300F5
:100FD0007D25030086250300682103008E21030080
:100FE000713E0300D73F03004D3103000BF038F88A
:100FF000294620460BF034F8D449D54E20460BF054
:101000002FF8D44920460BF02BF8294620460BF048
:1010100027F8D14920460BF023F8D04920460BF0A1
:101020001FF8CF4920460BF01BF8CE4920460BF0A5
:1010300017F8CD4920460BF013F8494620460BF02F
:101040000FF8CA49DFF84C9420460BF009F82946FE
:1010500020460BF005F8C64920460BF001F8C549BB
:1010600020460AF0FDFFC44920460AF0F9FFC349B3
:1010700020460AF0F5FFC24920460AF0F1FFC149B7
:1010800020460AF0EDFFC04920460AF0E9FFBF49BB
:1010900020460AF0E5FFBE4920460AF0E1FFBD49BF
:1010A00020460AF0DDFFBC4920460AF0D9FFBB49C3
:1010B00020460AF0D5FFBA4920460AF0D1FFB949C7
:1010C00020460AF0CDFFB84920460AF0C9FFB749CB
:1010D00020460AF0C5FFB64920460AF0C1FFB549CF
:1010E00020460AF0BDFFB44920460AF0B9FFB349D3
:1010F00020460AF0B5FFB24920460AF0B1FFB149D7
:1011000020460AF0ADFFB04920460AF0A9FFAF49DA
:1011100020460AF0A5FFAE4920460AF0A1FFAD49DE
:1011200020460AF09DFF294620460AF099FFAA4969
:1011300020460AF095FFA94920460AF091FFA849E8
:1011400020460AF08DFFA74920460AF089FFA649EC
:1011500020460AF085FFA54920460AF081FFA449F0
:1011600020460AF07DFFA34920460AF079FF494650
:1011700020460AF075FFA04920460AF071FF9F49FA
:1011800020460AF06DFF9E4920460AF069FF9D49FE
:1011900020460AF065FF9C4920460AF061FF9B4902
:1011A00020460AF05DFF9A4920460AF059FF994906
:1011B00020460AF055FF984920460AF051FF97490A
:1011C00020460AF04DFF964920460AF049FF95490E
:1011D00020460AF045FF944920460AF041FF934912
:1011E00020460AF03DFF924920460AF039FF314679
:1011F00020460AF035FF8F4920460AF031FF8E491C
:1012000020460AF02DFF8D4920460AF029FF8C491F
:1012100020460AF025FF8B4920460AF021FF294687
:1012200020460AF01DFF414620460AF019FF2946D4
:1012300020460AF015FF294620460AF011FF2946EC
:1012400020460AF00DFF294620460AF009FF7E4994
:1012500020460AF005FF394620460AF001FF2946DC
:1012600020460AF0FDFE794920460AF0F9FE784B47
:101270000093194620460AF0F3FE764920460AF00C
:10128000EFFE294620460AF0EBFE734920460AF09D
:10129000E7FE724920460AF0E3FE714920460AF053
:1012A000DFFE704920460AF0DBFE464920460AF080
:1012B000D7FE494620460AF0D3FE314620460AF0C2
:1012C000CFFE294620460AF0CBFE6749674EDFF87D
:1012D000D49020460AF0C4FE654920460AF0C0FEBC
:1012E000644920460AF0BCFE634920460AF0B8FE75
:1012F000624920460AF0B4FE314620460AF0B0FEAC
:101300005F4920460AF0ACFE314620460AF0A8FEAE
:101310005C4920460AF0A4FE314620460AF0A0FEB1
:10132000594920460AF09CFE314620460AF098FEB4
:10133000564920460AF094FE314620460AF090FEB7
:10134000534920460AF08CFEA6E000BF902503001A
:10135000DD2F03009B250300A9250300BF25030003
:10136000C8250300DB250300F32503001026030036
:10137000242603002D2603004D26030080260300AB
:10138000892603009B260300B1260300D326030011
:101390000127030038270300472703005A270300CB
:1013A000E027030002280300262803004A28030040
:1013B0007528030091280300AB280300CC28030004
:1013C000F9280300B5260300D72603002D290300C2
:1013D0006229030080290300BD290300F3290300CB
:1013E000302A03006E2A0300B32A0300F12A030007
:1013F000362B0300742B0300F72B03003C2C030057
:101400007C2C0300C32C0300032D03004A2D030092
:101410008A2D0300D12D0300112E0300582E030046
:10142000982E0300DF2E03001F2F0300662F0300FA
:101430009E2F03001730030058300300883003004C
:10144000B2300300FC3003008E310300CF310300C3
:10145000E5310300FD3103005E3203007932030001
:10146000B9320300D1320300EF320300AD33030081
:10147000463303005C330300713303007E33030003
:10148000E83303001C3403005034030084340300A9
:10149000B8340300B92B0300314620460AF0E0FDC2
:1014A000D34920460AF0DCFD314620460AF0D8FD3B
:1014B000D04920460AF0D4FD314620460AF0D0FD3E
:1014C000CD4ECE4920460AF0CBFDCD4920460AF04C
:1014D000C7FD314620460AF0C3FDCA4920460AF03E
:1014E000BFFD314620460AF0BBFD294620460AF0E2
:1014F000B7FDC549C54E20460AF0B2FDC449204695
:101500000AF0AEFDC34920460AF0AAFDC2492046B2
:101510000AF0A6FDC14920460AF0A2FDC0492046B6
:101520000AF09EFDBF4920460AF09AFDBE492046BA
:101530000AF096FDBD4920460AF092FDBC492046BE
:101540000AF08EFDBB4920460AF08AFDBA492046C2
:101550000AF086FDB94920460AF082FDB8492046C6
:101560000AF07EFDB74920460AF07AFDB6492046CA
:101570000AF076FDB54920460AF072FDB4492046CE
:101580000AF06EFDB34920460AF06AFDB2492046D2
:101590000AF066FDB14920460AF062FD4146204648
:1015A0000AF05EFDAE49DFF8948320460AF058FD4C
:1015B000294620460AF054FDAA4920460AF050FD6B
:1015C000A94920460AF04CFDA84920460AF048FDEA
:1015D000A74920460AF044FDA64920460AF040FDEE
:1015E000A54920460AF03CFDA44920460AF038FDF2
:1015F000A34920460AF034FDA24920460AF030FDF6
:10160000A14920460AF02CFD294620460AF028FD73
:101610009E4920460AF024FD9D4920460AF020FDFF
:101620009C4920460AF01CFD9B4920460AF018FD03
:101630009A4920460AF014FD994920460AF010FD07
:10164000314620460AF00CFD294620460AF008FDE6
:10165000594620460AF004FD294620460AF000FDBE
:10166000904920460AF0FCFC8F4920460AF0F8FC1D
:101670008E4920460AF0F4FC8D4920460AF0F0FC21
:101680008C4920460AF0ECFC294620460AF0E8FC8A
:10169000894920460AF0E4FC884920460AF0E0FC2B
:1016A000514620460AF0DCFC494620460AF0D8FCA8
:1016B000834920460AF0D4FC414620460AF0D0FC7B
:1016C000804920460AF0CCFC7F4920460AF0C8FC3D
:1016D0007E4920460AF0C4FC7D4920460AF0C0FC41
:1016E0007C4920460AF0BCFC7B4920460AF0B8FC45
:1016F0007A4920460AF0B4FC794920460AF0B0FC49
:10170000784920460AF0ACFC774920460AF0A8FC4C
:10171000764920460AF0A4FC754920460AF0A0FC50
:10172000744920460AF09CFC734920460AF098FC54
:10173000724920460AF094FC714920460AF090FC58
:10174000704920460AF08CFC6F4920460AF088FC5C
:101750006E4920460AF084FC6D4920460AF080FC60
:101760006C4920460AF07CFC6B4920460AF078FC64
:10177000294620460AF074FC684920460AF070FCAD
:10178000674920460AF06CFC294620460AF068FCAE
:10179000294620460AF064FC294620460AF060FCEF
:1017A000604920460AF05CFC394620460AF058FCA5
:1017B0005D4920460AF054FC5C4920460AF050FC82
:1017C0005B4920460AF04CFC009B204619460AF073
:1017D00047FC584920460AF043FC594620460AF087
:1017E0003FFC294620460AF03BFC5349A8E000BFD5
:1017F000EC340300203503003C3603005035030071
:101800005F3503005036030057360300623E030085
:10181000E436030001370300233703004537030094
:1018200059370300693703008E370300D2370300AE
:10183000203803006E380300BC3803000A39030067
:1018400058390300A6390300EC390300F3390300CB
:10185000033A03002C3A03005A3A03009C3A03006F
:10186000CB3A03000B3B0300383B0300783B0300FB
:10187000A73B0300EB3B03001B3C0300613C030060
:101880008F3C0300D13C0300FF3C0300413D0300BB
:10189000613D0300DE3D0300003E0300393E0300CE
:1018A000453E03007F3E0300B43E0300CD3E0300EF
:1018B000E63E0300513F03005B3F0300B63F0300D9
:1018C00003400300304003004C400300AF280300F6
:1018D000624003008E400300C440030072410300D5
:1018E000A341030033420300C342030051430300FA
:1018F000DF4303006F440300FF440300604503001F
:10190000BD450300154603006D460300CD460300A8
:101910000F47030045470300F44703006E470300E9
:10192000A8470300034803003A4803004348030064
:10193000AE480300CE480300294903004A280300AB
:10194000DFF894B420460AF08BFBD74920460AF012
:1019500087FBD64920460AF083FBD54920460AF08A
:101960007FFBD44920460AF07BFB294620460AF03B
:1019700077FBD14920460AF073FBD04920460AF094
:101980006FFBCF4920460AF06BFBCE4920460AF098
:1019900067FB514620460AF063FB494620460AF0A1
:1019A0005FFB414620460AF05BFBC749DFF82C8409
:1019B000DFF82C94DFF82CA420460AF051FBC34931
:1019C00020460AF04DFBC24920460AF049FB314649
:1019D00020460AF045FB294620460AF041FB2946ED
:1019E00020460AF03DFB294620460AF039FB2946ED
:1019F00020460AF035FBB749B74E20460AF030FBC7
:101A0000394620460AF02CFB294620460AF028FBDE
:101A1000294620460AF024FBB049B14DB14F20467B
:101A20000AF01EFBB04920460AF01AFBAF492046D7
:101A30000AF016FBAE4920460AF012FBAD492046DB
:101A40000AF00EFBAC4920460AF00AFBAB492046DF
:101A50000AF006FB414620460AF002FBA849204650
:101A60000AF0FEFAA74920460AF0FAFAA6492046EB
:101A70000AF0F6FAA54920460AF0F2FAA4492046EF
:101A80000AF0EEFAA34920460AF0EAFA294620466F
:101A90000AF0E6FAA04920460AF0E2FA9F492046F9
:101AA0000AF0DEFA9E4920460AF0DAFA9D492046FD
:101AB0000AF0D6FA414620460AF0D2FA9A49204660
:101AC0000AF0CEFA394620460AF0CAFA974920466B
:101AD0000AF0C6FA964920460AF0C2FA954920460D
:101AE0000AF0BEFA314620460AF0BAFA39462046D4
:101AF0000AF0B6FA904920460AF0B2FA8F49204619
:101B00000AF0AEFA314620460AF0AAFA39462046D3
:101B10000AF0A6FA8A4920460AF0A2FA8949204624
:101B20000AF09EFA314620460AF09AFA39462046D3
:101B30000AF096FA844920460AF092FA8349204630
:101B40000AF08EFA314620460AF08AFA39462046D3
:101B50000AF086FA7E497F4F20460AF081FA7E49D4
:101B600020460AF07DFA314620460AF079FA7B4990
:101B70007B4E20460AF074FA294620460AF070FA95
:101B8000784920460AF06CFA774920460AF068FA4C
:101B9000764920460AF064FA414620460AF060FA87
:101BA0007349DFF8448220460AF05AFA2946204653
:101BB0000AF056FA294620460AF052FA6D492046A4
:101BC0000AF04EFA294620460AF04AFA6A492046A7
:101BD0000AF046FA694920460AF042FA6849204666
:101BE0000AF03EFA674920460AF03AFA664920466A
:101BF0000AF036FA294620460AF032FA63492046AE
:101C00000AF02EFA624920460AF02AFA6149204673
:101C10000AF026FA604920460AF022FA5F49204677
:101C20000AF01EFA294620460AF01AFA5C492046B4
:101C30000AF016FA5B4920460AF012FA5A49204681
:101C40000AF00EFA594920460AF00AFA5849204685
:101C50000AF006FA574920460AF002FA5649204689
:101C60000AF0FEF9554920460AF0FAF9544920468F
:101C70000AF0F6F9534920460AF0F2F95249204693
:101C80000AF0EEF9514920460AF0EAF95049204697
:101C90000AF0E6F94F4920460AF0E2F929462046C3
:101CA0000AF0DEF9A2E000BF85490300A549030060
:101CB000E94903002F4A03009D4A0300064B030035
:101CC000214B03005B4B03007528030091280300A0
:101CD000AB2803007B4B0300104E0300AD4B030009
:101CE0003D51030083700300BB4B0300C54B030051
:101CF000CD4B0300DB4B0300F64B03000B4C030002
:101D0000384C0300444C0300A44C03004A50030029
:101D1000DB4C0300F94C0300144D03001E4D03007F
:101D2000384D0300554D0300644D03008E4D0300F4
:101D3000934D0300D74D0300164E0300614E030080
:101D40009F4E0300E94E0300274F03007F4F03001F
:101D5000BF4F03007A5703000F5003004F5003009A
:101D6000BA560300555003005C5003007250030044
:101D700086500300975003009F500300CE5003008D
:101D8000F35003000B5103002151030044510300A1
:101D9000665103009F510300CA510300F151030033
:101DA0001D5203003E5203006E5203008552030091
:101DB0009D520300BA520300D2520300E9520300BD
:101DC000065303003C53030072530300A753030060
:101DD000DC53030012540300D6610300204C0300BF
:101DE0002D5803007C630300135A0300D949204691
:101DF0000AF036F9D84920460AF032F92946204639
:101E00000AF02EF9294620460AF02AF929462046EA
:101E10000AF026F9D14920460AF022F9D049204695
:101E20000AF01EF9CF4920460AF01AF9CE49204699
:101E30000AF016F9CD4920460AF012F9CC4920469D
:101E40000AF00EF9CB4B0193194620460AF008F927
:101E5000C94A0092114620460AF002F9C7492046B5
:101E60000AF0FEF8C64920460AF0FAF8C5492046AD
:101E70000AF0F6F8C44920460AF0F2F8C3492046B1
:101E80000AF0EEF8C24920460AF0EAF8C1492046B5
:101E90000AF0E6F8314620460AF0E2F8BE4920464C
:101EA0000AF0DEF8BD4920460AF0DAF8BC492046BF
:101EB0000AF0D6F8BB4920460AF0D2F8BA492046C3
:101EC0000AF0CEF8B94920460AF0CAF8B8492046C7
:101ED0000AF0C6F8394620460AF0C2F831462046D4
:101EE0000AF0BEF8B34920460AF0BAF8B2492046D3
:101EF0000AF0B6F8B14920460AF0B2F8B0492046D7
:101F00000AF0AEF8494620460AF0AAF8AD49204644
:101F10000AF0A6F8AC4920460AF0A2F8AB492046E0
:101F20000AF09EF8AA4920460AF09AF8A9492046E4
:101F30000AF096F8A84920460AF092F83946204659
:101F40000AF08EF8314620460AF08AF8A349204666
:101F50000AF086F8A24920460AF082F8A1492046F4
:101F60000AF07EF8A04920460AF07AF84146204659
:101F70000AF076F8414620460AF072F89B49DFF8ED
:101F8000F08220460AF06CF8994920460AF068F879
:101F9000984920460AF064F8314620460AF060F875
:101FA000954920460AF05CF8944920460AF058F812
:101FB000394620460AF054F8314620460AF050F8D7
:101FC0008F4920460AF04CF88E4920460AF048F81E
:101FD000394620460AF044F8314620460AF040F8D7
:101FE000894920460AF03CF8884920460AF038F82A
:101FF000394620460AF034F8314620460AF030F8D7
:10200000834920460AF02CF8824920460AF028F835
:10201000814920460AF024F8804920460AF020F839
:102020007F4920460AF01CF87E4920460AF018F83D
:102030007D4920460AF014F87C4920460AF010F841
:102040007B4920460AF00CF87A4920460AF008F845
:10205000394620460AF004F8314620460AF000F8D6
:102060007549204609F0FCFF4146204609F0F8FF7B
:102070007249204609F0F4FF3946204609F0F0FF86
:102080003146204609F0ECFF6D49204609F0E8FF93
:102090004146204609F0E4FF6A49204609F0E0FF86
:1020A0003946204609F0DCFF3146204609F0D8FFCA
:1020B0006549204609F0D4FF4146204609F0D0FF8B
:1020C0006249204609F0CCFF3946204609F0C8FF96
:1020D0003146204609F0C4FF5D49204609F0C0FFA3
:1020E0004146204609F0BCFF5A49204609F0B8FF96
:1020F0003946204609F0B4FF3146204609F0B0FFCA
:102100005549204609F0ACFF4146204609F0A8FF9A
:102110005249DFF86081204609F0A2FF3946204687
:1021200009F09EFF3146204609F09AFF4C492046AF
:1021300009F096FF4B49204609F092FF4A49204694
:1021400009F08EFF4946204609F08AFF474920469C
:1021500092E000BF485403007D540300C4540300C0
:10216000FC54030021550300515503008A55030018
:10217000E65503000C560300175603002D560300C6
:10218000435603005A5603006E560300835603005D
:1021900098560300AE560300BF560300D9560300FD
:1021A000F35603000E570300275703004057030060
:1021B000595703008057030099570300C95703007C
:1021C000B961030039580300445803005158030013
:1021D000B9580300D3580300345903005159030080
:1021E0006D590300A7590300FC590300295A030045
:1021F000915A0300A75A0300E75A0300035B030048
:10220000585B0300745B0300C95B0300E55B0300DC
:102210003A5C0300565C0300915C0300E75C03003A
:10222000405D0300585D0300705D0300885D03009E
:10223000E35D0300445E03007E5E0300F15E030085
:102240004A5F0300665F0300BF5F0300DB5F0300BC
:102250003460030050600300A9600300C560030000
:102260001E6103003761030069610300C861030058
:102270009A5E0300E062030009F0F2FE5946204630
:1022800009F0EEFED849204609F0EAFE394620461C
:1022900009F0E6FE3146204609F0E2FED349204629
:1022A00009F0DEFED249204609F0DAFED149204687
:1022B00009F0D6FED049204609F0D2FE414620461C
:1022C00009F0CEFE4146204609F0CAFECB49DFF8B0
:1022D0003084204609F0C4FEC949204609F0C0FEFA
:1022E0003946204609F0BCFEC649204609F0B8FE32
:1022F0005146204609F0B4FEC349204609F0B0FE1D
:10230000C249204609F0ACFEC149204609F0A8FEAA
:102310002946204609F0A4FE4146204609F0A0FEC9
:102320002946204609F09CFEBA49204609F098FE4D
:10233000B949204609F094FEB849204609F090FEBC
:10234000B749204609F08CFEB649204609F088FEC0
:10235000019B2046194609F083FE009A204611464B
:1023600009F07EFEB049204609F07AFEAF492046CA
:1023700009F076FEAE49204609F072FEAD492046CE
:1023800009F06EFEAC49204609F06AFEAB492046D2
:1023900009F066FEAA49204609F062FEA9492046D6
:1023A00009F05EFE3146204609F05AFEA649204655
:1023B00009F056FEA549204609F052FEA4492046E0
:1023C00009F04EFEA349204609F04AFEA2492046E4
:1023D00009F046FEA149204609F042FEA0492046E8
:1023E00009F03EFE9F49204609F03AFE3946204654
:1023F00009F036FE3146204609F032FE9A49204661
:1024000009F02EFE9949204609F02AFE98492046F7
:1024100009F026FE9749204609F022FE494620464B
:1024200009F01EFE9449204609F01AFE9349204601
:1024300009F016FE9249204609F012FE9149204605
:1024400009F00EFE3946204609F00AFE31462046C4
:1024500009F006FE8C49204609F002FE8B49204611
:1024600009F0FEFD8A49204609F0FAFD8949204617
:1024700009F0F6FD4946204609F0F2FD864920465E
:1024800009F0EEFD8549204609F0EAFD8449204621
:1024900009F0E6FD3946204609F0E2FD31462046C6
:1024A00009F0DEFD7F49204609F0DAFD7E4920462D
:1024B00009F0D6FD7D49204609F0D2FD7C49204631
:1024C00009F0CEFD4946204609F0CAFD794920466B
:1024D00009F0C6FD5946204609F0C2FD7649DFF8ED
:1024E00024B2204609F0BCFD3946204609F0B8FD6B
:1024F0003146204609F0B4FD7049204609F0B0FD90
:102500006F49204609F0ACFD6E49204609F0A8FD50
:102510006D4A01921146204609F0A2FD4946204627
:1025200009F09EFD6949204609F09AFD684B009329
:102530001946204609F094FD5946204609F090FDC1
:102540006449204609F08CFD3946204609F088FD93
:102550003146204609F084FD5F49204609F080FDA0
:102560005E49204609F07CFD5D49204609F078FD72
:10257000019A2046114609F073FD4946204609F0AC
:102580006FFD5849204609F06BFD009B2046194617
:1025900009F066FD5946204609F062FD5249204681
:1025A00009F05EFD3946204609F05AFD31462046C5
:1025B00009F056FD4D49204609F052FD4C49204690
:1025C00009F04EFD4B49204609F04AFD4A49204694
:1025D00009F046FD4946204609F042FD474920469C
:1025E00009F03EFD90E000BFE46103003E6203009D
:1025F000576203008A620300D5620300EA620300A7
:102600004C630300736303008D630300A363030043
:10261000D263030024640300496403007964030067
:10262000B26403000E650300346503004B650300CC
:10263000636503005A5603006E5603008356030079
:1026400098560300AE560300BF560300D956030048
:10265000F3560300796503000E5703002757030064
:10266000405703005957030093650300AC6503000E
:10267000E26503002F6603003B6603004766030024
:1026800053660300C5660300D6660300EF660300C9
:1026900026670300716703007D67030089670300F5
:1026A00095670300016803001A6803004F68030080
:1026B0009E680300AB680300B96803001369030058
:1026C0002C69030064690300B2690300C369030055
:1026D000CE690300416A0300836A03009C6A030019
:1026E000D56A0300256B0300306B03006F6B03009A
:1026F000886B0300BB6B03000B6C0300176C0300BB
:102700001C640300DA6903007549204609F0A8FC3F
:102710007449204609F0A4FC7349204609F0A0FC46
:102720003946204609F09CFC3146204609F098FCC9
:102730006E496F4E204609F093FC6E49204609F021
:102740008FFC6D49204609F08BFC6C49204609F04E
:1027500087FC6B49204609F083FC6A49204609F052
:102760007FFC6949204609F07BFC4946204609F078
:1027700077FC6649204609F073FC6549204609F05C
:102780006FFC6449204609F06BFC3946204609F08D
:1027900067FC6149204609F063FC5146204609F078
:1027A0005FFC5E49204609F05BFC5D49204609F06C
:1027B00057FC5C49204609F053FC2946204609F0A5
:1027C0004FFC2946204609F04BFC4146204609F0C3
:1027D00047FC2946204609F043FC5349204609F0AE
:1027E0003FFC5249204609F03BFC5149204609F084
:1027F00037FC5049204609F033FC3146204609F0A9
:102800002FFC4D49204609F02BFC4C49204609F08D
:1028100027FC2946204609F023FC4949204609F0B7
:102820001FFC3146204609F01BFC4649204609F0B2
:1028300017FC4549204609F013FC2946204609F0BB
:102840000FFC4249204609F00BFC3146204609F0B6
:1028500007FC3F49204609F003FC3E49204609F0A9
:10286000FFFB2946204609F0FBFB4146204609F0C4
:10287000F7FB2946204609F0F3FB4146204609F0C4
:10288000EFFB2946204609F0EBFB3349204609F0CF
:10289000E7FB3249204609F0E3FB3149204609F0C5
:1028A000DFFB3049204609F0DBFB2F49204609F0C9
:1028B000D7FB2E49204609F0D3FB2D49204609F0CD
:1028C000CFFB2946204609F0CBFB2A49204609F0D8
:1028D000C7FB2949204603B0BDE8F04F09F0C0BB53
:1028E000246C0300326C0300986C0300A56C030099
:1028F000E66E0300BE6C0300F56C03002C6D030054
:10290000546D03007C6D03008B6D0300976D030015
:10291000A56D0300B36D0300736303008D630300B3
:102920000A6E0300396E03006A6E03009A6E03009C
:10293000C86E0300CF6E0300EC6E03001C6F030033
:10294000786F0300936F0300C86F030026700300C5
:102950004270030088700300C57003000F7103000C
:102960003E710300487103007A7103009571030002
:10297000AF710300B7710300BF710300392884BF32
:102980000738C0B2392984BF0739C9B201F00F0135
:1029900000F00F0041EA001070470000F8B50C4647
:1029A0001449154D074609F0B7FC00262146284674
:1029B00009F082FD0378262B19D02146284609F01C
:1029C0007BFD0378202B12D03EB12146284609F02A
:1029D00073FD0178384609F041FD2146284609F08B
:1029E0006BFD03783D2B08BF01260134DEE7384636
:1029F000F8BD00BFB89503003C1500202DE9F84351
:102A00002C4E2D492D4F044609F013FB33680A2242
:102A10001978204609F07CFB2949204609F009FB7A
:102A20002849204609F005FB33680A221989204607
:102A300009F05FFB2249204609F0FBFA22492046B3
:102A400009F0F7FA002533682B4410225978204604
:102A500009F05EFB052D03D03946204609F0E9FA5E
:102A60000135062DEFD11649184FDFF86480DFF8E5
:102A70005090204609F0DDFA00250C2101FB05717C
:102A8000204609F0DAFA4146204609F0D2FA3368C6
:102A900003EB45030A225989204609F02AFB062D3B
:102AA00003D04946204609F0C4FA0135072DE4D188
:102AB000BDE8F8830C020020CE1A0300673703003C
:102AC00060400300D31A0300DB1A03001812002031
:102AD000D11A03004A6842608A688260CA68C2608C
:102AE000034A02600A7C02744A8A4282704700BF2D
:102AF0005085030013B502AA0024214642F8044D74
:102B000004230A4806F0F2FF019939B90848FDF795
:102B100019FD052009F02CFD02B010BD1A23054A4D
:102B20000248214606F0E2FFF3E700BF180200204A
:102B300068130020B81200202DE9F341012109207B
:102B400009F05CFD0121092009F094FD0121082014
:102B500009F054FD0121082009F08CFD01210A2013
:102B600009F04CFD01210A2009F084FDC82009F07C
:102B7000FDFC0A2005F026FB274B1868274B009325
:102B8000274B69465B680193013005F0B3FB0121D7
:102B90000A2009F06FFD002405F024FB40B9013440
:102BA0000A20E4B209F0E2FC0A2CF5D1002704E087
:102BB00005F018FB0328F7D101270A2405F008FBCC
:102BC000022823D10A20013C09F0D0FC14F0FF04B4
:102BD000F4D1DFF854800A26404605F097FD4046C0
:102BE00005F0ACFD054630B90A20013E09F0BEFCF7
:102BF00016F0FF06F0D10B4B1B684CB147B13DB14D
:102C000001225A70284602B0BDE8F0810124E0E7B5
:102C100000255D70F6E700BF0C020020248A030047
:102C2000FC1200201002002038140020F8B5174EC6
:102C3000174F184D0A2432467621384603F04EFCD1
:102C40002B6840B91870013C642009F08FFC14F027
:102C5000FF04F0D1F8BD01220F4C1A700C48256812
:102C600003F040FC28600A48256803F05DFD6860B9
:102C7000074803F069FC9FED097A236807EE900A84
:102C8000C7EE877AC3ED027AE4E700BF641500203F
:102C90002411002010020020300200200000C84251
:102CA0000148FDF7BABB00BF4814002070B58C0086
:102CB000002605460161C66020461AF0A1FB0023EC
:102CC0002860AE606B600444A04202D040F8043B30
:102CD000FAE7284670BD10B50123144606F069FFD7
:102CE000204610BD10B50123144606F0FFFE204615
:102CF00010BD00002DE9F04F8BB0BD4904A809F0CC
:102D00000BFBBC4907A809F007FB07A9BA4809F063
:102D1000F0FB044607A809F0B9FA002C80F21A83E8
:102D20000024B64907A809F0F7FA07A9B24809F044
:102D3000E0FB054607A809F0A9FA002D53DB294658
:102D400007A8FFF72BFE07A904A809F05EFB07A858
:102D500009F09CFA002104A809F0AEFB01210578D6
:102D600004A809F0A9FB01782846A54DFFF706FE47
:102D70002B685B78834236D0002104A809F09CFBC5
:102D80000121047804A809F097FB01782B682046FC
:102D9000FFF7F4FD58702B689A4D5B788DF806307C
:102DA00000238DF81C3032240DF106020121284643
:102DB000FFF791FF052009F0DBFB07AA0121284658
:102DC000FFF790FF9DF806209DF81C309A4206D030
:102DD0000520013C09F0CCFB14F0FF04E4D10520F0
:102DE00009F0C6FB0124884907A809F095FA07A94C
:102DF000814809F07EFB054607A809F047FA002D37
:102E000053DB294607A8FFF7C9FD07A904A809F065
:102E1000FCFA07A809F03AFA002104A809F04CFBD3
:102E20000121057804A809F047FB01782846744D74
:102E3000FFF7A4FD2B689B78834236D0002104A8BD
:102E400009F03AFB0121047804A809F035FB017868
:102E50002B682046FFF792FD98702B68694D9B7890
:102E60008DF8073000238DF81C3032240DF1070255
:102E700002212846FFF72FFF052009F079FB07AA5A
:102E800002212846FFF72EFF9DF807209DF81C30F1
:102E90009A4206D00520013C09F06AFB14F0FF04B9
:102EA000E4D1052009F064FB0124584907A809F082
:102EB00033FA07A9504809F01CFB054607A809F09A
:102EC000E5F9002D52DB294607A8FFF767FD07A9A2
:102ED00004A809F09AFA07A809F0D8F9002104A873
:102EE00009F0EAFA0121057804A809F0E5FA017869
:102EF0002846434DFFF742FD2B68DB78834235D0EF
:102F0000002104A809F0D8FA0121047804A809F0E6
:102F1000D3FA01782B682046FFF730FDD8702B6874
:102F2000384DDB788DF8083000238DF81C303224C2
:102F300002AA03212846FFF7CEFE052009F018FB60
:102F400007AA03212846FFF7CDFE9DF81C209DF817
:102F500008309A4206D00520013C09F009FB14F024
:102F6000FF04E5D1052009F003FB0124284907A847
:102F700009F0D2F907A9204809F0BBFA054607A8CD
:102F800009F084F9002D64DB294607A8FFF706FD48
:102F900007A904A809F039FA07A809F077F9002170
:102FA00004A809F089FA0121057804A809F084FA37
:102FB00001782846124DFFF7E1FC2B681B7983420C
:102FC00047D0002104A809F077FA0121047804A869
:102FD00009F072FA01782B680A4D2046FFF7CEFC03
:102FE000187100238DF809008DF81C30322411E08F
:102FF000B8950300371A03003C150020401A03005F
:103000000C02002018020020561A03006C1A03005C
:10301000821A03000DF1090204212846FFF75BFE26
:10302000052009F0A5FA07AA04212846FFF75AFE51
:103030009DF81C209DF809309A4206D00520013CDD
:1030400009F096FA14F0FF04E4D1052009F090FA93
:103050000124B94907A809F05FF907A9B74809F0A1
:1030600048FA054607A809F011F9002D51DB294659
:1030700007A8FFF793FC07A904A809F0C6F907A859
:1030800009F004F9002104A809F016FA01210578D5
:1030900004A809F011FA01782846A94DFFF76EFC43
:1030A0002B685B79834234D0002104A809F004FA2C
:1030B0000121047804A809F0FFF901782B68A14DDB
:1030C0002046FFF75BFC587100238DF80A008DF84D
:1030D0001C3032240DF10A0205212846FFF7FBFDC2
:1030E000052009F045FA07AA05212846FFF7FAFD51
:1030F0009DF81C209DF80A309A4206D00520013C1C
:1031000009F036FA14F0FF04E4D1052009F030FA92
:1031100001248D4907A809F0FFF807A9874809F09D
:10312000E8F9054607A809F0B1F8002D51DB29465A
:1031300007A8FFF733FC07A904A809F066F907A858
:1031400009F0A4F8002104A809F0B6F901210578D6
:1031500004A809F0B1F901782846794DFFF70EFC73
:103160002B689B79834234D0002104A809F0A4F98C
:103170000121047804A809F09FF901782B68714DAA
:103180002046FFF7FBFB987100238DF80B008DF8AC
:103190001C3032240DF10B0206212846FFF79BFD5F
:1031A000052009F0E5F907AA06212846FFF79AFD50
:1031B0009DF81C209DF80B309A4206D00520013C5A
:1031C00009F0D6F914F0FF04E4D1052009F0D0F994
:1031D00001245E4907A809F09FF807A9574809F09C
:1031E00088F9054607A809F051F8002D3FDB29466C
:1031F00007A8FFF7D3FB07A904A809F006F9504D6B
:1032000007A809F043F804A809F076F92B681B8990
:1032100098422CD004A809F06FF92B68494D80B270
:1032200018810023ADF80C00ADF81C3032240223C5
:1032300003AA0821284606F0BCFC052009F098F9ED
:10324000022307AA0821284606F050FCBDF81C20DE
:10325000BDF80C309A4206D00520013C09F088F9EF
:1032600014F0FF04E3D1052009F082F901240025C0
:10327000DFF8DCA0DFF8C4B0DFF8C4802E460C21F4
:1032800001FB05A1584609F034F9011E47DB07A8E8
:10329000FFF784FB07A904A809F0B7F807A808F00E
:1032A000F5FF04A809F028F92E1DD8F800307600A3
:1032B00033445B88984231D004A809F01DF9D8F84E
:1032C0000030DFF880901E4480B26F1D00237080B4
:1032D0007F00ADF80E00ADF81C30322602230DF150
:1032E0000E023946484606F064FC052009F040F914
:1032F000022307AA3946484606F0F8FBBDF81C2011
:10330000BDF80E309A4206D00520013E09F030F992
:1033100016F0FF06E2D1052009F02AF90126013551
:10332000072DACD104A808F0B1FF44EA46042046BA
:103330000BB0BDE8F08F00BF981A03003C150020C9
:103340000C02002018020020AE1A0300C41A030069
:1033500018120020214607A8FFF720FB07A904A8A0
:1033600009F053F81C4C07A808F090FF04A809F0D6
:10337000C3F823681B7898423FF4D2AC04A809F044
:10338000BBF82368154D187023681B788DF805303D
:1033900000238DF81C3032240DF10502002128464F
:1033A000FFF799FC052009F0E3F807AA0021284659
:1033B000FFF798FC9DF805209DF81C309A4206D036
:1033C0000520013C09F0D4F814F0FF04E4D10520F5
:1033D00009F0CEF80124A4E40C0200201802002019
:1033E00006EE901A10B5D0E9031483680268A14272
:1033F00002EB830223BFD2ED007A90ED017A37EE23
:10340000677A01312CBF80ED017AC160C2ED006A9C
:10341000D0ED017A013377EEA67A9C4298BF002363
:10342000C0ED017A836010BDC36853B107EE903AD6
:10343000D0ED016AF8EE677A86EEA77A17EE100AE9
:1034400070479FED017AF9E70000000070B506466D
:10345000084616F079FF04460D46304616F086FF02
:1034600022462B46BDE8704018F016B870B50446E9
:103470000D460DF05BFC0DF059FCD4F84021D4F85A
:1034800044319A4208D194F848612EB90DF064FC99
:103490000DF062FC304670BD0DF05EFCD4F8443196
:1034A0005E1C04EB03130FCBC4F84461142E85E8B3
:1034B0000F004FF0000308BFC4F8443184F84831CE
:1034C0000126E5E7000000002DE9F043AC4AAD49D4
:1034D0001368AD4F2DED048B013383B004461360A8
:1034E00008F0A7FD022009F0F5F80A22014620465F
:1034F00008F0FFFDA549204608F09BFDA4492046A1
:1035000008F097FDA34B0A221978204608F000FE28
:10351000A149204608F08DFDA04B0A2219682046DB
:1035200008F0E7FD9E49204608F083FD3B681868D7
:1035300016F01CFF0A2502460B460095204608F0AF
:10354000A3FE9849204608F074FD3B68586816F0C1
:103550000DFF009502460B46204608F095FE3B689D
:1035600093F82130042B00F0CF808F4EDFF8649267
:10357000DFF8408228258C494846FFF777FF3168FD
:103580004046FFF72DFF71688848FFF729FF013D8E
:10359000B1688748FFF724FF15F0FF05EBD1854898
:1035A000854DFFF741FF08EE900A8048FFF73CFF8A
:1035B00006467F48FFF738FFD5F80080B8F900309D
:1035C00007EE103AB7EE009A78EE897AB8EEC77A2D
:1035D00008EE100A27EE277A38EE099ABDEEC77A70
:1035E00017EE103A18B216F0AFFE0022734B16F029
:1035F0005FFD17F0D1FE17F0C1F900B207EE900A97
:10360000B8EEE77ADFED6E7A37EE277ABDEEC77A4D
:1036100017EE103AA8F80430B8F9023007EE903AE5
:10362000F8EEE77A67EE897AFDEEE77A17EE903AE0
:1036300018B216F089FE0022604B16F039FD17F023
:10364000ABFE17F09BF900B207EE900A9FED5D7A92
:10365000F8EEE77A022177EE877A3046FDEEE77AD8
:1036600017EE903AA8F80630FFF7F0FE804689463C
:1036700018EE100A0221FFF7E9FE02460B4640460B
:10368000494616F015FD18F0A5F88046894618EE53
:10369000900A16F06BFE42464B4616F0E9FF17F013
:1036A000E3FC35A3D3E9002316F0B8FE17F0AEF91A
:1036B000D5F800800221C8F8080018EE900AFFF73C
:1036C000C5FE8046894630460221FFF7BFFE02460E
:1036D0000B464046494616F0EBFC18F07BF8804656
:1036E000894618EE100A16F041FE42464B4616F087
:1036F000BFFF17F0B9FC20A3D3E9002316F08EFE1C
:1037000017F084F92D6828612B4E2F49204608F0C8
:1037100090FC3368986816F029FE0A2502460B468D
:103720000095204608F0B0FD1849204608F081FCBD
:103730002649204608F07DFC3368D86816F016FE4E
:10374000009502460B46204608F09EFD2049204683
:1037500008F06FFC3B68986816F008FE009502467A
:103760000B46204608F090FD03B0BDEC048BBDE88D
:10377000F08300BFAFF30080F8C1631ADCA54C40B2
:1037800010120020E51A0300300200206040030000
:10379000F51A030008020020FF1A030004020020AB
:1037A000111B0300181B0300141100201C13002020
:1037B0003013002008130020140200200000E03F16
:1037C0000000F442000048421F1B0300291B0300B5
:1037D000321B0300B01B002070B58AB04C4968460C
:1037E00004F0CCFF9DF81030072B3ED90024204672
:1037F0000AB070BD0124684604F0BEFD002800F048
:103800008480684604F048FE0028F4D0684604F03E
:1038100054FEB368B3F5967FC5B203D2294630464D
:1038200008F01CFE0A2D6CD1002CE3D0694605A8D7
:10383000FFF750F905A8FCF735FF364905A808F051
:103840006BFD05A9344808F054FE044605A808F0AD
:103850001DFD002C0CDB694605A8FFF73BF905A808
:10386000FFF7CCF8002425462CE001242A4EC2E7BD
:103870002A4905A808F050FD05A9274808F039FE97
:10388000044605A808F002FD002C07DB694605A8E0
:10389000FFF720F905A8FFF717FEE3E7204905A881
:1038A00008F03AFD05A91C4808F023FE044605A8C7
:1038B00008F0ECFC002C16DB1A49684608F0B9FB4E
:1038C00000240125012008F051FE684604F016FE90
:1038D0001549114808F0A1FD022008F047FE002D0F
:1038E00085D0FCF7B7FCFFF705FA694600F0010543
:1038F000C0F3400405A8FFF7EDF805A8FCF7EAFEC1
:10390000E0E70D2D18BF002475E70446ABE700BFC4
:10391000381400203B1B03003C1500204A1B030009
:10392000591B0300631B0300B895030008B5FFF79C
:1039300053FF024B00B91878187008BD2C02002004
:10394000F0B580498048814E85B008F0E5FC804A9A
:1039500080497D480DF001FD7F49804808F0DCFC7E
:103960007F49804808F0D8FC7F49804808F0D4FCA3
:103970007F49804808F0D0FC7F49804808F0CCFCA3
:103980007F49804808F0C8FC7F49804808F0C4FCA3
:103990006F4A7F4900200DF0E0FC7E4B7E480027F7
:1039A000002200240025C3E904451A605A609A6089
:1039B000C3E9064583F8207083F82170774B4FF4F4
:1039C0007D4219211A80598144F61F522A215A80BA
:1039D00099814FF61A4240F2D6719A80D981DA2243
:1039E0000A219A711982598240F6B8324FF4C8718F
:1039F0001A8199821A830621694AD982012382F8A1
:103A0000F13082F8F07001934FF4FA4300932E22C4
:103A10004FF0FF332F2102F0FFF84D4A61495E4815
:103A20000DF09BFC1423A020C6E9057319F0E8FCF7
:103A3000C6E902453060376100F1A003E0E80245C5
:103A40009842FBD1424A584940480DF086FC574BFA
:103A5000002403F150021C705C70DC60C3E9014477
:103A600010339342F7D15248524B0360012505238E
:103A7000374A514980F8795080F889302323C0F8BB
:103A80008C3080F8905080F891500DF066FC4B48D7
:103A900002F039FA2E4A4A4948480DF05EFC1423D8
:103AA0000093A8222B46C021464808F071FA0A2349
:103AB0000093A8222B46C0214348444D08F068FAE1
:103AC000434B444A1A6050225C601A81424B43487F
:103AD000CDE901330E2300934022414B802102F0B7
:103AE000C9FE1B4A3F493D480DF037FC28464FF4BC
:103AF0007A73AB603C4B6C6040F8143B08F040FAC2
:103B000008232821394885F82030FFF7CFF8104ADC
:103B1000374936480DF021FC28213648FFF7C6F812
:103B20000B4A334933480DF018FC28213248FFF77F
:103B3000BDF8074A2E49304805B0BDE8F0400DF009
:103B40000CBC00BFB89503003C15002048130020B2
:103B5000000200208DC20100C419030018120020C9
:103B6000CC19030024120020D319030030120020C6
:103B7000DA1903003C120020E31903004812002068
:103B8000ED19030054120020F51903006012002003
:103B9000A5020100101400206C130020B8120020B0
:103BA00048140020B9550100A30301008011002032
:103BB0007C110020BC7A0300BD010100241100200B
:103BC000195F0100FC12002008140020F0100020F2
:103BD00038140020AC850300801A06006C12002007
:103BE00064150020D5680100CC850300081300206F
:103BF000950301001C130020301300202DE9F04F25
:103C000085B09A469DF8383002939DF84030039372
:103C10000125102390460022CDE900350646802379
:103C20001E48DDF83C909DF844B01C4C0F461146F0
:103C300003F065FB2F2300930195802311220021BF
:103C4000164803F05CFBBBF1000F0DD028231122B6
:103C500040212046009503F09CF9009580233722EF
:103C60000021204603F06EF951460C4803F0C4FFD2
:103C7000029B7BB14FF48033636101230F93039B5D
:103C80000E9342464B463946304605B0BDE8F04FEC
:103C9000FCF7BCBC4FF00113EEE700BF6C12002034
:103CA0002DE9F0438046A1B08648864D02F021FF01
:103CB000854B1B6893F82170844B1D9345F64F1379
:103CC000ADF8783000241DAEE3B29F424FF00103FF
:103CD000315D00934FF03B024FF00203284640F065
:103CE000D08003F02AFD0134062CEDD1DFF81892C4
:103CF000744C00230A27CDE90273CDE9003905226F
:103D0000012316214046FFF779FF714B1B685B7852
:103D1000002B00F0B9806F4B6F4D23616F49204637
:103D200008F090F96E4B23612B683A4619782046CB
:103D300008F0EEF96B4B23616B49204608F082F9DD
:103D40006A4B23616A49304608F0E6FA2B68197815
:103D50003A4614311AA808F00FFB1AA9304608F0A9
:103D60008AFB014605A808F046FB1AA808F08EFA5F
:103D7000304608F08BFA05A9204608F05EF95D4B45
:103D800023615D49204608F05DF95C4B23612B6897
:103D9000102259780BA808F0DEFA0BA90EA808F03B
:103DA0002AFB57490EA808F072FB2B68102299785D
:103DB000074611A808F0CFFA11A9384608F05BFBB6
:103DC0004F4908F064FB2B681022D978074614A8E5
:103DD00008F0C1FA14A9384608F04DFB484908F02C
:103DE00056FB2B6810221979074617A808F0B3FA7A
:103DF00017A9384608F03FFB414908F048FB2B68FB
:103E00001022597907461AA808F0A5FA1AA93846C7
:103E100008F031FB3A4908F03AFB2B6810229979F7
:103E20000746304608F097FA3146384608F023FB3B
:103E3000014608A808F0DFFA304608F027FA1AA869
:103E400008F024FA17A808F021FA14A808F01EFABE
:103E500011A808F01BFA0EA808F018FA0BA808F031
:103E600015FA08A9204608F0E8F808A808F00EFAA4
:103E700005A808F00BFA134803F0B2F821B0BDE82A
:103E8000F08303F0E7FA2EE701251323CDE901358E
:103E90001223009316221B4B2046372103F07AFC95
:103EA0002946204603F0A8FE4FF0011363611A2350
:103EB000009301954B462B2211214046FCF7A6FBAF
:103EC000D9E700BF6C1200203002002027313B45AB
:103ED00010020020050014000C02002007780300E7
:103EE0003200140005001E001078030032001E008E
:103EF000F47903000500270019780300050030005D
:103F000067370300FA710300347903002DE9F043A9
:103F1000054687B05E485E4F02F0EBFD5D4B1B68C7
:103F200093F821805C4B049345F64F13ADF81430A1
:103F300000240DF110090126E3B2984519F8041088
:103F400000964FF002034FF03B02384640F0868067
:103F500003F0F3FB0134062CEED100230B22CDE954
:103F600002234E4A2846CDE90032192101230522B9
:103F7000FFF744FE032008F0ADFB002871D10720B5
:103F800008F0A8FB00286CD1414C454B454D2361FE
:103F90004549204608F056F8444B23612B680A2215
:103FA0005989204608F0A5F8414B23614149204634
:103FB00008F048F8404B23612B680A229989204673
:103FC00008F097F83D4B23613D49204608F03AF848
:103FD0003C4B23612B680A22D98A204608F089F8D5
:103FE000394B23613949204608F02CF8384B2361BE
:103FF0002B680A22998A204608F07BF8354B23610A
:104000003549204608F01EF8344B23612B680A22FC
:10401000598A204608F06DF8314B2361314920461A
:1040200008F010F8304B23612B680A22198A2046C9
:1040300008F05FF82D4B23612D49204608F002F867
:104040002C4B23612B680A22D989204608F051F8AD
:104050000F4807B0BDE8F04302F0C2BF03F0FAF921
:1040600078E701241323CDE90134122300931622AB
:10407000214B0748372103F08DFB04230093019463
:10408000064B2B2219212846FCF7C0FAE0E700BFB7
:104090006C1200203002002027313B4534790300A8
:1040A000030013000C0200206A7803002D001300A7
:1040B00040001300727803006C00130003001D0021
:1040C000987803002D001D0040001D00917803002A
:1040D00066001D0003002700897803002D002700DB
:1040E00040002700827803006C00270003003100A5
:1040F0007A7803002D003100FA7103002DE9F04FAA
:10410000064689B07648764F02F0F3FC754B04936F
:104110001A6892F82180744A069245F64F12ADF85B
:104120001C2000240DF118090125E3B2984519F867
:10413000041000954FF002034FF03B02384640F068
:10414000A68003F0FAFA0134062CEED1674F002561
:104150002B240123052219213046CDE90245CDE962
:104160000057FFF74BFD022008F0B4FA012840F099
:10417000A1805B4C029017231522CDE90032032168
:104180005B4BDFF8A4A11422204603F003FB0221BD
:10419000204603F031FD574B2361059408F0D4F914
:1041A000554C564B18602368C01A132833D908F0B1
:1041B000CBF920605248534C01F012FD524B074698
:1041C0001860DAF80000514B381A43F8250016F051
:1041D000ABF8D4E9053B5B45804689465AD20133AA
:1041E00063612669236803EBC603C3E9008942467D
:1041F0004B46D4E9020115F05BFF0136B345C4E933
:10420000020198BF002305F101058CBF26612361DF
:10421000CAF80070EDB2132DC0D93A4B5C69002C7E
:1042200045D0D3E9020116F0F1FB07EE904A07EE04
:10423000100AF8EE677A87EE277A049B1C6817EE5F
:10424000100A16F093F80022C4E90401304B16F06E
:104250000FFA00222F4B16F0E1F802460B46C4E994
:104260000623022400941E4808F00EF821461C483C
:1042700003F0C2FC059A284B13612849184807F03F
:10428000E1FE174809B0BDE8F04F02F0A9BE03F007
:10429000E1F858E72269236803EBC203D3E900235E
:1042A000D4E9020115F002FFC4E9020199E79FED8C
:1042B0001C7AC2E701251323CDE9013512230093AF
:1042C0001622184B0648372103F064FA2D23009379
:1042D00001953B46224619213046FCF797F9D0E775
:1042E0006C1200203002002027313B453479030056
:1042F000A67603001E002200E8100020E410002033
:104300006C13002048130020E010002090100020C3
:10431000000034400000D03F50002200FF7903002D
:1043200000000000FA710300EC1000202DE9FF41AD
:10433000264C274F01254023CDE901358023064631
:104340000522002100932046224B03F023FA204649
:1043500002F046FE40F2DC5008F008F9204602F078
:10436000C8FB4FF000080623CDE9023805222B4692
:104370003046CDE900871721FFF740FC294620464B
:1043800003F03AFC4FF00113636130463B46CDE940
:1043900000851E222321FCF739F93B4628222A21D9
:1043A0003046CDE90055FCF731F9204602F018FE01
:1043B00040F2DC5008F0DAF8204602F09AFB204682
:1043C00004B0BDE8F04102F00BBE00BF6C1200204B
:1043D00034790300337203002DE9F043434C444D1C
:1043E000DFF8148185B000230622CDE90223CDE950
:1043F00000340522012317210746FFF7FFFB0323A3
:104400000122CDE900321121234624223846FCF74F
:10441000FDF8374802F0E4FD40F2DC5008F0A6F861
:10442000A146072008F056F938B3284602F061FB90
:1044300001261323CDE90136122300932846434673
:104440001622372103F0A6F900230622CDE9022324
:10445000CDE900343846334605221721FFF7CEFB5D
:1044600004230093384601964B462B221921FCF772
:10447000CDF8284602F0B4FDD3E7032008F02AF96E
:1044800006460028D1D11A4802F033FB012511233A
:10449000CDE90135122300931722164B144837211A
:1044A00003F078F90623CDE9014338462B460396FD
:1044B000009605221721FFF7A1FB05232B221421CB
:1044C00000933846094B0195FCF7A0F8084802F024
:1044D00087FD40F2DC5008F049F8054802F009FB7E
:1044E000034805B0BDE8F04302F07ABD347903001B
:1044F0006C120020C7710300FA7103002DE9F04F20
:10450000484F494DDFF82C9185B04FF000084FF02F
:10451000060A012305221721CDE902A8CDE900876B
:1045200004460126FFF76AFB132324221121CDE95B
:10453000003620463B46FCF769F8284602F050FD5D
:1045400040F2DC5008F012F82046FEF76FFB2046E0
:10455000D9F800B0FCF706F88BF80400284602F002
:10456000C8FA33460522CDE902A8CDE90087172114
:104570002046FFF743FBD9F800301A78A9468AB3E2
:1045800093F80480B8F1000F2CD012234FF01109DA
:104590001722CDE900393721244B0296284603F033
:1045A000F9F83146284603F027FB4FF001136B6101
:1045B0001423009301963B462B2249462046FCF7E4
:1045C00025F8194802F00CFD40F2DC5007F0CEFF50
:1045D000154802F08EFA144802F002FD404605B07C
:1045E000BDE8F08F01251323CDE9013512231622F2
:1045F000009337210E4B0C4803F0CCF829460A48AB
:1046000003F0FAFA4FF00113C9F8143015230093A0
:104610000195044B2B2211212046FBF7F7FF4FF0A9
:104620000008CEE7347903006C120020C771030044
:10463000FA710300100200202DE9F043394E3A4D83
:1046400085B04FF000084FF00609CDE90298CDE99A
:10465000008601230522172107460124FFF7CEFA21
:104660001B2324221121CDE9003438463346FBF7C1
:10467000CDFF284602F0B4FC40F2DC5007F076FF94
:10468000284602F036FA2346CDE90298CDE90086A5
:10469000052217213846FFF7B1FAFEF74DFA12232B
:1046A0008046029450B34FF01109CDE9003917222A
:1046B0001E4B3721284603F06DF82146284603F0AB
:1046C0009BFA4FF001136B6101941C232B221121E3
:1046D000009338463346FBF799FF134802F080FCFD
:1046E00040F2DC5007F042FF0F4802F002FA0E4899
:1046F00002F076FC404605B0BDE8F0831322CDE918
:10470000003237210A4B1622284603F043F821468F
:10471000284603F071FA4FF001136B6101941D23D9
:10472000D4E700BF347903006C120020C771030086
:10473000FA71030030B5114C85B000230622CDE993
:104740000223CDE900340522012317210546FFF796
:1047500055FA2C230122CDE90032112123462422CF
:104760002846FBF753FF064802F03AFC40F2DC50C3
:1047700005B0BDE8304007F0F9BE00BF3479030052
:104780006C1200202DE9F043074687B05548554E7E
:1047900002F0AFF9544B1B6893F82180534B0493FC
:1047A00045F64F13ADF8143000240DF11009012522
:1047B000E3B2984519F8041000954FF002034FF04A
:1047C0003B02304671D102F0B8FF0134062CEFD124
:1047D00000230722CDE90223454A464D414CCDE94D
:1047E00000321721012305223846FFF707FA2B680C
:1047F0009B787BB9012323773F4B236128212046F7
:1048000003F070F92121204603F06CF9292120469C
:1048100003F068F9394B236139493248394E07F0C2
:1048200011FC394B236139492E4807F00BFC384BFA
:10483000236138492B4807F005FC2B6829485B7930
:104840000121002B34D003F0D7F94FF480333249E3
:1048500026616361234807F0F5FB2B6821489B79AB
:104860002E4D012163B303F0C7F94FF480332A4979
:10487000256163611B482A4D07F0E4FB022007F025
:1048800029FF0128014623D1164803F0B5F94FF45A
:104890008033244925616361124807F0D3FB114836
:1048A00007B0BDE8F04302F09BBB02F0D3FD8CE7FC
:1048B00003F0A2F94FF48033266163611A49C9E716
:1048C00003F09AF94FF48033256163611649D1E70B
:1048D0000121044803F090F94FF4803325616361AE
:1048E0001249D9E76C1200203002002027313B45E5
:1048F00034790300100200206C000500050014004C
:10490000987703005000140005002100A5770300EC
:1049100005002E00B2770300C1770300500021008C
:1049200050002E00C7770300BE770300CA7703004C
:104930002DE9F047564EDFF85C8186B007465548B2
:1049400002F0D7F8336893F82190534B049345F65F
:104950004F13ADF8143000240DF1100A0125E3B215
:1049600099451AF8041000954FF002034FF03B02EE
:1049700040466FD102F0E1FE0134062CEFD1002356
:104980000822DFF83C81434CCDE902230522CDE922
:104990000038114601233846FFF730F93F4B1B68BA
:1049A0001B7801250295002B57D01027CDE9007701
:1049B0003B4B16220A21204602F0ECFE2722394BFF
:1049C0000097CDE901750A21204602F0E3FE02219D
:1049D000204603F011F9344B4FF00117C4E90437B6
:1049E0003368186815F0C2FC4FF0020802460B4607
:1049F000CDF80080204607F047FC2C4B236133683C
:104A0000586815F0B3FCCDF8008002460B462046EE
:104A100007F03AFC29462046257703F0EDF8244BB1
:104A2000A721C4E90437204603F05CF82149204659
:104A300007F008FB4321204603F054F81E4B236186
:104A40002521204603F04EF8124806B0BDE8F04795
:104A500002F0C6BA02F0FEFC8EE712231322CDE963
:104A600000322046154B1622372102F093FE2946CC
:104A7000204603F0C1F84FF0011363611623009341
:104A8000019543462B2211213846FBF7BFFDDBE79A
:104A9000300200206C12002027313B45100200201C
:104AA000337603005376030023001600230027000B
:104AB00061001600B895030061002700FA71030039
:104AC00034790300000000002DE9F0432DED048B44
:104AD000074687B0AE48AE4E02F00BF8AD4B1B68F0
:104AE00093F82180AC4B049345F64F13ADF8143086
:104AF00000240DF110090125E3B2984519F80410BE
:104B000000954FF002034FF03B02304640F03881F1
:104B100002F013FE0134062CEED101250923CDE964
:104B200002359E4B019300233846009305222B4605
:104B30002321974C9A4EDFF8A8829A4FFFF75EF830
:104B40001123257713220295CDE900331821964BC6
:104B5000204602F01FFE282591494046FEF786FCBC
:104B600031683846FEF73CFC71689048FEF738FC27
:104B7000013DB1688E48FEF733FC15F0FF05EBD11F
:104B800088488C4DFEF750FC08EE900A8748FEF7E7
:104B90004BFC07468648FEF747FC2E68B6F9003006
:104BA00007EE103AB7EE009A78EE897AB8EEC77A37
:104BB00008EE100A27EE277A38EE099ABDEEC77A7A
:104BC00017EE103A18B215F0BFFB00227A4B15F021
:104BD0006FFA16F0E1FB15F0D1FE00B207EE900A75
:104BE000B8EEE77ADFED757A37EE277ABDEEC77A51
:104BF00017EE103AB380B6F9023007EE903AF8EEAD
:104C0000E77A67EE897AFDEEE77A17EE903A18B206
:104C100015F09AFB0022684B15F04AFA16F0BCFB1F
:104C200015F0ACFE00B207EE900A9FED657AF8EE43
:104C3000E77A384677EE877A0221FDEEE77A17EEBB
:104C4000903AF380FEF702FC8046894618EE100A7F
:104C50000221FEF7FBFB02460B464046494615F093
:104C600027FA16F0B7FD8046894618EE900A15F02F
:104C70007DFB42464B4615F0FBFC16F0F5F942A3CE
:104C8000D3E9002315F0CAFB15F0C0FE2E680221FF
:104C9000B06018EE900AFEF7D9FB80468946384688
:104CA0000221FEF7D3FB02460B464046494615F06B
:104CB000FFF916F08FFD06460F4618EE100A15F0A4
:104CC00055FB32463B4615F0D3FC16F0CDF92EA32A
:104CD000D3E9002315F0A2FB15F098FE2E68306191
:104CE00001260096062324226021294802F0B2FB07
:104CF0002B682748B3F90620B3F904100096042363
:104D000002F01BFD2F4B2361E921214802F0EAFE4E
:104D10002D491F4807F096F92C4B23612B689868A2
:104D200015F024FB009602460B46194807F0ACFA32
:104D3000274B2361A721164802F0D4FE254B23619F
:104D4000E921134802F0CEFE2349114807F07AF911
:104D50002B68186915F00AFB009602460B460C48B2
:104D600007F092FA1D4B2361A721094802F0BAFE11
:104D7000074807B0BDEC048BBDE8F04302F030B942
:104D800002F068FBC6E600BFF8C1631ADCA54C4020
:104D90006C1200203002002027313B45347903009B
:104DA0001411002008130020737603001C13002048
:104DB00030130020140200200000E03F0000F44205
:104DC0000000484204002400037A03001600240077
:104DD0003700240004002E00067A030037002E005E
:104DE000B01B002038B5394B394C1B68197A5A7AF8
:104DF000914210D1D97971B1364D2B780BBB07F0A8
:104E0000A3FB354B1B6803F5922303F57873984297
:104E10001DD901231AE0197A8A4201D1D979B1B199
:104E2000197A8A4213D0197A5972DB792268CBB188
:104E300092F82130042B94BF0133002382F82130F3
:104E400005E02368062283F8212000232B702368C5
:104E500093F82130072B33D8DFE803F0060B101549
:104E60001A1F242C0723E9E71C48BDE83840FFF748
:104E700089BC1A48BDE83840FFF748B81748BDE874
:104E80003840FFF73BB91548BDE83840FEF708BF8A
:104E90001248BDE83840FFF717BE1048BDE838405B
:104EA000FFF746BD0D48FBF7E1FB2368082283F8B6
:104EB000212038BD0948FBF7E7FB23680022F6E70D
:104EC0000120BDE8384007F053BB00BF10020020AE
:104ED000300200208C1000200413002068130020F2
:104EE000F8B51648154E164F164D00F08BFC1649B6
:104EF000124800F0E6FC322432465021384604F0D5
:104F0000E0FD2B6840B9D870013C052007F02EFB6E
:104F100014F0FF04F0D1F8BD0122DA704FF4FA3139
:104F2000074804F0DDFD7821054804F0DBFD03218E
:104F30000348BDE8F84004F0D7BD00BF6415002069
:104F40001802002010020020801A06001FB5FFF78B
:104F5000C7FF0F4B1B68DB78BBB1FDF7CBFD0D4BDB
:104F60001A681378118919441433DBB2118302A82B
:104F70000093A8220123C02107F00AF8064B039AE8
:104F80005A60002005B05DF804FB4FF0FF30F9E7F0
:104F9000100200200C020020FC1200202DE9F0433A
:104FA0003B4F3C4E85B000254FF0060901230522FA
:104FB0001721CDE90295CDE9005780460124FEF77F
:104FC0001DFE252324221121CDE9003440463B4615
:104FD000FBF71CFB304602F003F840F2DC5007F010
:104FE000C5FA304601F085FD2346052217214046CB
:104FF000CDE90295CDE90057FEF700FEFFF7A6FFC9
:105000001223029448BB11251722CDE90035372120
:10501000214B304602F0BEFB2146304602F0ECFD4B
:105020004FF0011373612723009301943B462B2219
:1050300029464046FBF7EAFA164801F0D1FF40F254
:10504000DC5007F093FA134801F053FD114801F0CA
:10505000C7FF204605B0BDE8F0831322CDE900323A
:1050600037210E4B1622304602F094FB2146304683
:1050700002F0C2FD4FF001137361282301940093E5
:105080002B223B4611214046FBF7C0FA2C46D3E7C2
:10509000347903006C120020C7710300FA71030019
:1050A00073B54FF4FA7007F061FA0221052007F09A
:1050B000A5FA01210E2007F0A1FA0221072007F02E
:1050C0009DFA01210E2007F0D5FA4FF4FA7007F08F
:1050D0004DFA424D0124009401233D22022128462D
:1050E00001F014FD0028F6D03D4D3C482B68DC71E2
:1050F00001F0FFFC394801F073FF3A48FFF716F959
:105100003848FFF769F93748FFF748FF0446354844
:10511000FFF7F4F906463348FFF78EFA002E5AD00F
:10512000002808BF00242B682E489C70FFF702FB64
:105130002C48FBF753FA4FF4FA7007F017FA0023E4
:10514000142229492948FBF7F4F90123642228494C
:105150002648FBF7EEF902234FF4FA62254923486B
:10516000FBF7E7F90323244A24492048FBF7E1F938
:105170000123642222491D48FBF7DBF90123322277
:1051800020491A48FBF7D5F9032341F288321E491A
:105190001648FBF7CEF903234EF660221B4913484D
:1051A000FBF7C7F9032341F2883219490F48FBF78F
:1051B000C0F90323104A17490C48FBF7BAF907480E
:1051C00001F097FC054801F00BFF07F0BDF9124B09
:1051D000186002B070BD3446A5E700BF6C12002015
:1051E00010020020681300201D5201004814002006
:1051F0002D390100E501010080EE3600C1020100F9
:10520000E54D01009902010005030100C101010003
:105210007103010019020100041300202DE9F04F71
:10522000D54B8BB01A780293002A00F00781002535
:10523000D24C2F463B1D5B000193FBB20093D04B39
:10524000019A1B68DFF84C8313444FF0970AB3F8B8
:1052500002B04FEA1B230393D8F8003050200133EB
:10526000C8F80030002607F083F94FF00109C54B5C
:1052700008938DF8246008AB8DF8259093E806001C
:10528000204600F0EDF93146092007F0F3F914202B
:1052900007F06EF9AA21204600F09CF9079014202F
:1052A00007F066F90099204600F094F90690142062
:1052B00007F05EF90399204600F08CF90490142061
:1052C00007F056F95FFA8BF1204600F083F905905C
:1052D000142007F04DF94946092007F0CBF9204684
:1052E00000F0B6F9502007F043F9069A079B192AF7
:1052F00003D1A3F118014E424E41049B1A2B03D156
:10530000059B1B2B00D116B9BAF1010AA4D14FF0AD
:105310009708502007F02CF99A4B08930026012398
:105320008DF825308DF8246008AB93E80600204600
:1053300000F096F93146092007F09CF9142007F097
:1053400017F90F21204600F045F98246142007F096
:105350000FF90099204600F03DF98346142007F02C
:1053600007F93146204600F035F98146142007F050
:10537000FFF83146204600F02DF90390142007F085
:10538000F7F8BBF1190F039B03D1AAF1180256429B
:105390005641B9F11A0F40F0ED801B2B40F0EA8026
:1053A00086F00106502007F0E3F81821204600F0AF
:1053B00011F90390142007F0DBF81921204600F0C2
:1053C00009F98346142007F0D3F81A21204600F08B
:1053D00001F98246142007F0CBF81B21204600F08B
:1053E000F9F88146142007F0C3F80121092007F0DD
:1053F00041F9204600F02CF9502007F0B9F8039B42
:10540000F02B05D1009B5B4502D1012E40F0C480FA
:10541000B8F101087FF47DAF594B019A1B68134422
:105420005B88434500F0BD800135952D7FF705AFC2
:105430000137072F7FF4FEAE534B1D60534F3B786F
:10544000002B00F09180029B1B78002B40F08C8099
:10545000022007F03FF9002840F08480474D4FF0CC
:105460009608502007F084F8464B08930024012347
:105470008DF825308DF824400AAB13E90600284644
:1054800000F0EEF82146092007F0F4F8142007F0A8
:105490006FF80F21284600F09DF88246142007F08F
:1054A00067F80B21284600F095F88346142007F092
:1054B0005FF82146284600F08DF88146142007F059
:1054C00057F82146284600F085F80646142007F0D4
:1054D0004FF8BBF1190F03D1AAF118035C425C41EC
:1054E000B9F11A0F5FD11B2E5DD184F00104502059
:1054F00007F03EF81821284600F06CF88346142087
:1055000007F036F81921284600F064F88246142086
:1055100007F02EF81A21284600F05CF88146142086
:1055200007F026F81B21284600F054F80646142000
:1055300007F01EF80121092007F09CF8284600F02A
:1055400087F8502007F014F8BBF1F00F2DD1BAF115
:105550000B0F2AD1012C28D046EA092080B20C4B2F
:10556000000A187000233B70029A002313700BB0DE
:10557000BDE8F08F012615E72C0200204815002019
:105580000C02002080841E0004020020441400202D
:10559000080200201412002049EA0A281FFA88F89D
:1055A0003AE7002544E70124A1E7B8F101087FF4B8
:1055B00058AF4FF45F40D2E710B504465C3007F0B7
:1055C0002FFE04F1300007F02BFE201D07F028FE0F
:1055D000204610BD10B586B0C0688DF80F10036866
:1055E00001220092DC680DF10F010DF11703A047B5
:1055F0009DF8170006B010BDF8B5427A036804465E
:105600000E46CFB29B680D0A62B9394698472368A7
:1056100060F307069B6829462046984760F30F26EB
:10562000B0B2F8BD29469847236860F30F269B68FF
:1056300039462046984760F30706F1E713B5C0687E
:1056400003680092DC680B46A04702B010BD7047AB
:105650007047C06810B103685B68184770477047AF
:1056600073B543686D469942044685E806000E46C8
:1056700004D1BDF8042003899A420DD09DF804207E
:10568000E068082107F021FFE068314607F03AFFA3
:105690000098AB886060238102B070BD73B504468A
:1056A00054200CF069F84FF0FF3694F9183094F953
:1056B000102094F914100096054607F0C1FEE5602D
:1056C00002B070BD10B51C2104460CF07BF82046DA
:1056D00010BD000038B505F0E6F80C288ABF154B60
:1056E0004FF0FF3593F9C05005F0DDF80B288ABF65
:1056F000104B4FF0FF3493F9B04005F0D4F80D286B
:1057000088BF0C4B0C480D4A88BF93F9D03002601B
:105710004FF0000298BF4FF0FF3342600272012247
:105720004272C0E904548361054A0649BDE8384025
:105730000BF013BE3802002048150020147A030035
:10574000000200205F560100490000230162C0F8FA
:1057500030327047036801211B6B184710B403688F
:105760009C6B0123A4465DF8044B6047D0F83032AF
:10577000B3F5807F1FBF5A1CC0F83022C01880F8D4
:10578000301114BF012000207047D0F82C01704761
:105790007047C0F834127047C0F838127047D0F81C
:1057A0002C312BB1D0F82831184490F824007047E0
:1057B0004FF0FF3070470346D0F82C01A8B1D3F862
:1057C0002C2182B1D3F828211A4492F82400D3F86E
:1057D00028210132D2B2C3F82821D3F82C21013A72
:1057E000C3F82C2170474FF0FF30704710B5044BC1
:1057F0000360044600F50F700EF0BAFD204610BDA0
:105800005C7A030038B5044680200BF0B5FF94F9AC
:105810001C2094F91810054607F096FC656138BD08
:105820007FB5044648200E460BF0A6FF94F91C20D5
:1058300094F91810054607F0C1FC7100284625614F
:1058400007F0D8FC094B0393094B019369460023E9
:1058500004F50F70029300940EF004FD039B13B146
:105860009B686846984704B070BD00BF487A030043
:105870007F59010038B5D0F8303214461A44B2F5D9
:10588000807F88BFC3F58074054600F59870224676
:10589000184418F007F9D5F830322344C5F83032EF
:1058A000204638BD10B50446406910B10368DB6876
:1058B0009847206920B14821BDE810400BF082BF15
:1058C00010BD38B5044640690D4608B107F046FBE7
:1058D000206920B12946BDE8384007F089BC38BDB1
:1058E00007B581F001010091D0F83032016A00F56E
:1058F0009872406907F060FB002814BF0220002066
:1059000003B05DF804FB70B5C2B083F001030093EF
:1059100002AE04461546134649003246406907F078
:105920006CFBC8B9A84218D0D4F82C31B3F5807FED
:1059300010D0D4F82431325C234483F82420D4F8E6
:1059400024310133DBB2C4F82431D4F82C310133D3
:10595000C4F82C310130E5E70025284642B070BD7F
:1059600010B4D0E9013401686210E40701EB0200D1
:1059700048BF8A585DF8044B48BFD358184730B524
:10598000044685B00025206907F03BFC012829D09A
:10599000F9DB0328F7DCC4F82451C4F82851C4F813
:1059A0002C5110226946206907F02DFC002282420A
:1059B0002ADAD4F82C31B3F5807F11D0D4F8243111
:1059C0001DF80210234483F82410D4F82431013345
:1059D000DBB2C4F82431D4F82C310133C4F82C31B3
:1059E0000132E4E7D4F8383203B19847D4F83022D2
:1059F00032B104F59871206907F007FCC4F8305201
:105A0000206907F00AFCBEE71028CAD8D4F82C3168
:105A1000002BF5DDD4F83432002BF1D0D4F82C0172
:105A20009847EDE773B54FF47A730025C0E9015349
:105A3000184B03600446C0E906124FF480722946F1
:105A4000243018F02DF9144BC4F82451C4F83C321A
:105A50002946C4F82851C4F83052C4F82C51C4F86F
:105A60003452C4F83852C4F84C5204F51F700CF08C
:105A7000B3F804F50F7604F524700CF04BF83046BB
:105A800000952B464FF4805218210EF0DFFB204684
:105A900002B070BD5C7A0300849F030010B504F06F
:105AA00002FF12288ABF1B4B4FF0FF3493F92041AD
:105AB00004F0F9FE132888BF164B17488CBF93F9E2
:105AC00030214FF0FF322146FFF7ACFF134A144953
:105AD00011480BF042FC04F0E6FE1E288ABF0D4B75
