:020000021000EC
:1000000000000420C14E0200F94E02004D0C020017
:10001000FD4E0200590C02005F0C020000000000BF
:10002000000000000000000000000000ED240200BD
:10003000054F020000000000852502009525020002
:100040009D910200310002000B4F02000B4F020095
:100050000B4F02000B4F02000B4F02000B4F020030
:100060000B4F02000B4F02000B4F02000B4F020020
:100070000B4F0200319302000B4F020049000200B7
:100080000B4F02000B4F02000B4F02000B4F020000
:100090000B4F02000B4F02000B4F02000B4F0200F0
:1000A0000B4F02000B4F02000B4F02000B4F0200E0
:1000B0000B4F02001DAB010000000000000000001B
:1000C0000B4F02000B4F02000B4F02000B4F0200C0
:1000D0000B4F02000B4F02000B4F02000B4F0200B0
:1000E0000B4F02000B4F02000B4F020000000000FC
:1000F000000000000B4F0200000000000B4F020048
:1001000010B5054C237833B9044B13B10448AFF351
:1001100000800123237010BD70100020000000003B
:10012000F4A2030008B5034B1BB103490348AFF326
:10013000008008BD0000000074100020F4A203003D
:10014000154B002B08BF134B9D46A3F5803A0021A9
:100150008B460F461348144A121A1CF0E9FF0F4B46
:10016000002B00D098470E4B002B00D09847002062
:10017000002104000D000D48002802D00C4811F0A9
:1001800051FB1CF0E3FA2000290012F007F811F0EF
:1001900046FB00BF00000800000004200000000033
:1001A000F92002007010002088CE002025180200DF
:1001B0000000000070470020704770477047000043
:1001C000014B01221A7070474C140020D0E9003016
:1001D0001847000008B50CF017FC044B1860044BDE
:1001E0001A68D37983F00103D37108BD041300208A
:1001F0001002002008B50446204609F0B9FFFBE7CD
:100200000B6803604B6843608B6883607047000035
:10021000094B1B681A785AB15A784AB1DA783AB160
:100220001A792AB1012205499A7005480CF03CB9A7
:1002300000229A700349F8E71002002063100300BF
:10024000FC3300206F10030008B5084908480CF083
:100250003FF9BFF34F8F0749074BCA6802F4E062CA
:100260001343CB60BFF34F8F00BFFDE78D6C0300DE
:10027000FC33002000ED00E00400FA05014805F021
:1002800076BF00BF7C11002038B5054CA4F15405A1
:1002900020460C3C0CF05AFAAC42F9D138BD00BFF4
:1002A0006012002010B5044600681CF0FFFA2046DA
:1002B00010BD10B5044600681CF0F8FA204610BDC9
:1002C00038B50A480A4C0AF01EFB054630B9094900
:1002D00009480CF0E9F823681D7138BD0749064844
:1002E0000CF0E2F8236801221A71F6E7782B00205F
:1002F0001002002070150300FC330020811503005C
:1003000010B508F05FF90128044619D1144808F027
:1003100031FCA8B1134B14491B6814485C700CF0F5
:10032000C3F808F04FF9022805D008F04BF901286E
:1003300001D008F047F90A48BDE8104008F01ABC9F
:1003400008F040F9022804D1064B1B6800225A70BD
:10035000E7E7034808F00EFC0028F5D010BD00BF09
:10036000401400201002002081100300FC33002004
:1003700038B51A4C1A48256806F0AEFA28601848B5
:10038000256806F0CBFB6860154806F0D7FA9FEDAC
:10039000157A2368144A07EE900AC7EE877AC3EDF0
:1003A000027AD3ED007AF5EEC07AF1EE10FA0FDDA5
:1003B000D3ED017AF5EEC07AF1EE10FA08DD13689C
:1003C0000A4901221A700A48BDE838400CF06CB89E
:1003D0001368084900221A70F5E700BF30020020B8
:1003E000241100200000C84210020020A40F0300C6
:1003F000FC330020B20F030038B550210A480B4CE3
:1004000009F06CFD054630B909490A480CF04CF872
:100410002368DD7038BD084906480CF045F82368AC
:100420000122DA70F6E700BF180200201002002057
:10043000BA130300FC330020DF130300F0B590F87B
:10044000B46000234FF0140CDCB2A6420BD90CFBB5
:1004500003F41D4607598F4203D104446468944253
:1004600003D00133F0E74FF0FF352846F0BD0029F7
:1004700010B5044615DB90F8B430994211DA142215
:1004800002FB01F05B1A013B811821445A432044CE
:100490001CF0EAFD94F8B430013B84F8B43001203C
:1004A00010BD0020FCE72DE9F84306460CF0ACFA3D
:1004B0000024142796F8B430A3422DD907FB046317
:1004C000D3E90212851A8D4218D304EB840006EB9F
:1004D00080050A44D5F804901D6956F82080DA603A
:1004E0007DB90125B9F1000F14DB4846C04796F8E5
:1004F000B5308BB90CF088FA002DDBD00134E4B2B2
:10050000D8E7013D1D61002DEBD121463046FFF7B4
:10051000AEFFE7E7C047EAE7BDE8F8832DE9F84317
:10052000089F16463A46054689469846FFF786FFD5
:10053000041E2FDA95F8B4409DF824309C4228BF61
:100540001C4695F8B430082B2AD85EB3A3420AD9CA
:10055000142204FB0220A0F114011B1B5A4329445E
:1005600028441CF081FD04EB84039B00EA1845F845
:100570000390142303FB0454A66057600CF044FA64
:10058000C4E9030895F8B430013385F8B43001208C
:10059000BDE8F88321462846FFF769FFE4B2D0E7BB
:1005A0000020F5E73046F3E713B59DF810400194BD
:1005B0004FF0FF340094FFF7B1FF02B010BD07B554
:1005C00000930023FFF7F0FF03B05DF804FB000089
:1005D0007FB50023144E8DF807200D468DF80F309F
:1005E000322401230DF107022946304609F0FFFCB1
:1005F00005200CF01DFA01230DF10F0229463046AB
:1006000009F092FC9DF80F209DF807309A4209D01E
:100610000520013C0CF00CFA14F0FF04E1D1204657
:1006200004B070BD0120FBE7180200207FB5002355
:10063000144EADF806200D46ADF80E3032240223DC
:100640000DF106022946304609F0D1FC05200CF0D8
:10065000EFF902230DF10E022946304609F064FC41
:10066000BDF80E20BDF806309A4209D00520013CA5
:100670000CF0DEF914F0FF04E1D1204604B070BDA7
:100680000120FBE71802002008B50548054A1A2397
:1006900009F0ADFC0520BDE808400CF0C9B900BF69
:1006A00018020020BA12002030B5174D85B00A2478
:1006B00028460AF028F960B90A20013C0CF0B8F984
:1006C00014F0FF04F4D105200CF0B0F9204605B079
:1006D00030BD0E4C204609F007FD0D4B03930D4B2A
:1006E0006946CDE9003404F5A8700023029314F0A4
:1006F00019F8039B13B19B6868469847064B074A55
:100700001B6801241A60DEE7782B00207C1B002088
:10071000780E0300F501010014020020E0FFEDFF58
:1007200038B50C4D0C4C0D4928460BF0BDFE20464B
:1007300005F0F6FC20460A4905F080FD204641F20E
:100740008831084A05F07CFD28460749BDE8384055
:100750000BF0BEBEFC3300207C110020C4740300EB
:10076000D501010049020100DD740300F0B587B036
:100770001E469DF834309DF83070134C09B215B206
:1007800003B30DF11603039305AB02930DF11203AE
:10079000019304AB0A46009356F827102B462046D7
:1007A00007F0EAFCBDF814300222C3F1800393FB8A
:1007B000F2F3238256F82710034865820BF060FE9F
:1007C00007B0F0BD2182F5E76C12002008B5AE211C
:1007D000034806F057FB034B00221A7008BD00BF08
:1007E0006C1200200814002008B5AF21034806F061
:1007F00049FB034B01221A7008BD00BF6C12002098
:100800000814002010B50A4904460BF04DFE0949B2
:1008100020460BF049FE084920460BF045FE2046D5
:100820000BF03CFE05490648BDE810400BF03CBE0D
:10083000D80F0300E80F030000100300121003009C
:10084000FC3300202DE9F74F0446DB49DFF86C84C8
:10085000DFF86CA4D94DDA4FDFF86894DFF868B49C
:10086000D84E0BF021FED84920460BF01DFED7498B
:1008700020460BF019FED64920460BF015FED5494F
:1008800020460BF011FED44920460BF00DFED34953
:1008900020460BF009FED24920460BF005FE4146EA
:1008A00020460BF001FECF4920460BF0FDFDCE495E
:1008B00020460BF0F9FDCD4920460BF0F5FD5146E1
:1008C00020460BF0F1FDCA4920460BF0EDFD29460C
:1008D00020460BF0E9FDC74920460BF0E5FD3946FF
:1008E00020460BF0E1FDC44920460BF0DDFDC34975
:1008F00020460BF0D9FD294620460BF0D5FDC04916
:1009000020460BF0D1FD494620460BF0CDFDBD4BF6
:100910000093194620460BF0C7FD294620460BF0F0
:10092000C3FDB94920460BF0BFFD414620460BF000
:10093000BBFDB64920460BF0B7FDB54920460BF08C
:10094000B3FDB44920460BF0AFFD594620460BF0ED
:10095000ABFD294620460BF0A7FDAF4920460BF022
:10096000A3FD414620460BF09FFDAC4920460BF00D
:100970009BFDAB4920460BF097FDAA4920460BF0A2
:1009800093FD314620460BF08FFDA74920460BF022
:100990008BFD294620460BF087FDA44920460BF02D
:1009A00083FD594620460BF07FFD009B20461946EB
:1009B0000BF07AFD514620460BF076FD2946204685
:1009C0000BF072FD9A4920460BF06EFD4946204619
:1009D0000BF06AFD9749DFF8F49220460BF064FDB6
:1009E000954920460BF060FD944920460BF05CFDD4
:1009F000494620460BF058FD914920460BF054FD26
:100A0000314620460BF050FD8E4920460BF04CFD40
:100A1000294620460BF048FD8B4920460BF044FD4B
:100A2000594620460BF040FD8849DFF8A4B2204625
:100A30000BF03AFD864920460BF036FD85492046ED
:100A40000BF032FD294620460BF02EFD8249204650
:100A50000BF02AFD814920460BF026FD80492046F7
:100A60000BF022FD7F4920460BF01EFD2946204653
:100A70000BF01AFD7C4920460BF016FD314620464E
:100A80000BF012FD794920460BF00EFD4146204641
:100A90000BF00AFD764920460BF006FD294620465C
:100AA0000BF002FD734920460BF0FEFC3146204658
:100AB0000BF0FAFC514620460BF0F6FC6E49DFF8CD
:100AC00014A220460BF0F0FC6C4920460BF0ECFC25
:100AD000294620460BF0E8FC694920460BF0E4FC6F
:100AE000684920460BF0E0FC674920460BF0DCFC2F
:100AF000294620460BF0D8FC644920460BF0D4FC74
:100B0000634920460BF0D0FC294620460BF0CCFC74
:100B1000604920460BF0C8FC394620460BF0C4FC67
:100B20005D4920460BF0C0FC5C4920460BF0BCFC44
:100B30005B4920460BF0B8FC294620460BF0B4FC7C
:100B4000584920460BF0B0FC314620460BF0ACFC77
:100B5000294620460BF0A8FC534920460BF0A4FC84
:100B6000394620460BF0A0FC514620460BF09CFC79
:100B7000294620460BF098FC4C4920460BF094FC8B
:100B8000314620460BF090FC294620460BF08CFCA9
:100B9000474920460BF088FC394620460BF084FC80
:100BA000444920460BF080FC434A019211462046FE
:100BB0000BF07AFC90E000BF881503008416030058
:100BC00093160300A217030098150300A81503004D
:100BD000B9150300C0150300E9150300FC15030057
:100BE0000416030016160300221603005516030010
:100BF0006916030086160300A2160300C51603003B
:100C0000EB1603000E170300231703003117030030
:100C100044170300521703006D1703007A170300EF
:100C20008E17030099170300B6170300CB170300B4
:100C3000D2170300DC170300ED170300F8170300B9
:100C40001218030027180300371803004218030086
:100C500054180300671803007B180300881803006A
:100C600096180300B0180300BF180300C81803004B
:100C7000DF180300F0180300FB180300121903002B
:100C800024190300351903005019030060190300EB
:100C90006B1903007D1903009A190300B7190300AB
:100CA000DC190300EB1903000B1A0300341A0300CC
:100CB000461A03005F1A0300871A03000B1603008D
:100CC00040190300F5160300601703000518030020
:100CD000CB1A03001B1A0300DB4B00931946204676
:100CE0000BF0E2FB594620460BF0DEFB294620467E
:100CF0000BF0DAFBD54920460BF0D6FBD449204651
:100D00000BF0D2FBD34920460BF0CEFB31462046F8
:100D10000BF0CAFB294620460BF0C6FBCE49204605
:100D20000BF0C2FB394620460BF0BEFBCB492046F8
:100D30000BF0BAFB019A204611460BF0B5FB009B65
:100D4000204619460BF0B0FB594620460BF0ACFB91
:100D5000294620460BF0A8FBC149DFF8ECB320463A
:100D60000BF0A2FB394620460BF09EFB5146204675
:100D70000BF09AFB294620460BF096FBB949DFF8A9
:100D8000CCA3B94F20460BF08FFBB84B009319460C
:100D900020460BF089FB594620460BF085FBB449F1
:100DA00020460BF081FB514620460BF07DFB394677
:100DB00020460BF079FB294620460BF075FBAD4928
:100DC00020460BF071FB009B204619460BF06CFB94
:100DD000594620460BF068FBA749DFF874B320465C
:100DE0000BF062FB514620460BF05EFB3946204675
:100DF0000BF05AFB294620460BF056FB9F49A04FAB
:100E0000DFF850A320460BF04FFB9E4920460BF025
:100E10004BFB9D4920460BF047FB9C4920460BF0BD
:100E200043FB494620460BF03FFB994920460BF017
:100E30003BFB294620460BF037FB964920460BF03A
:100E400033FB954920460BF02FFB314620460BF033
:100E50002BFB9249924E20460BF026FB4146204642
:100E60000BF022FB8F49DFF8F08220460BF01CFBD1
:100E70008D4920460BF018FB294620460BF014FB49
:100E80008A4920460BF010FB894920460BF00CFBE9
:100E9000884920460BF008FB294620460BF004FB4E
:100EA000854920460BF000FB844920460BF0FCFAF4
:100EB000834920460BF0F8FA294620460BF0F4FA55
:100EC000804920460BF0F0FA7F4920460BF0ECFAFF
:100ED000294620460BF0E8FA7C4920460BF0E4FA5C
:100EE0007B4920460BF0E0FA7A4920460BF0DCFA09
:100EF000794920460BF0D8FA784920460BF0D4FA0D
:100F0000294620460BF0D0FA754920460BF0CCFA62
:100F1000744920460BF0C8FA734920460BF0C4FA16
:100F2000294620460BF0C0FA704920460BF0BCFA67
:100F30006F4920460BF0B8FA6E4920460BF0B4FA20
:100F4000294620460BF0B0FA6B4920460BF0ACFA6C
:100F50006A4920460BF0A8FA694920460BF0A4FA2A
:100F6000684920460BF0A0FA294620460BF09CFA6F
:100F7000654920460BF098FA644920460BF094FA34
:100F8000634920460BF090FA624920460BF08CFA38
:100F9000294620460BF088FA5F4920460BF084FA78
:100FA000314620460BF080FA294620460BF07CFAA9
:100FB0005A4920460BF078FA594920460BF074FA4A
:100FC000294620460BF070FA564920460BF06CFA81
:100FD000554920460BF068FA294620460BF064FA82
:100FE000524920460BF060FA314620460BF05CFA7D
:100FF000294620460BF058FA4D4920460BF054FA8A
:101000004C4920460BF050FA294620460BF04CFA8A
:10101000494920460BF048FA314620460BF044FA85
:10102000294620460BF040FA444920460BF03CFA92
:10103000434920460BF038FA424920460BF034FA77
:10104000314620468AE000BFAC1A0300DA1A0300DA
:10105000F71A03000A1B03001C1B0300361B0300C6
:101060005E1B03006F1B0300C41B03007C1B0300FB
:10107000971B0300DB1B0300E61B0300FD1B0300A3
:10108000DD2B03000E1C0300231C0300351C030092
:10109000501C0300651C0300F61C0300781C0300B1
:1010A000271F0300931C0300A31C0300B81C0300AC
:1010B000CC1C030050190300E71C0300FB1C0300B9
:1010C000111D03002A1D0300391D03004B1D0300E1
:1010D0006B1D03007C1D03009E1D0300A81D030063
:1010E000B51D0300C11D0300E91D0300FE1D030023
:1010F0000B1E0300331E0300471E03005D1E03008A
:101100008B1E0300A01E0300C51E0300DE1E03008D
:10111000F11E0300061F03001C1F0300341F030001
:101120003F1F03004C1F0300581F0300661F0300EE
:10113000721F03007F1F03008C1F0300971F030013
:101140009F1F0300A81F03008A1B0300B01B03009E
:1011500093380300F93903006F2B03000BF0A4F957
:10116000294620460BF0A0F9D449D54E20460BF075
:101170009BF9D44920460BF097F9294620460BF0FD
:1011800093F9D14920460BF08FF9D04920460BF056
:101190008BF9CF4920460BF087F9CE4920460BF05A
:1011A00083F9CD4920460BF07FF9494620460BF0E4
:1011B0007BF9CA49DFF84C9420460BF075F92946B3
:1011C00020460BF071F9C64920460BF06DF9C54970
:1011D00020460BF069F9C44920460BF065F9C34974
:1011E00020460BF061F9C24920460BF05DF9C14978
:1011F00020460BF059F9C04920460BF055F9BF497C
:1012000020460BF051F9BE4920460BF04DF9BD497F
:1012100020460BF049F9BC4920460BF045F9BB4983
:1012200020460BF041F9BA4920460BF03DF9B94987
:1012300020460BF039F9B84920460BF035F9B7498B
:1012400020460BF031F9B64920460BF02DF9B5498F
:1012500020460BF029F9B44920460BF025F9B34993
:1012600020460BF021F9B24920460BF01DF9B14997
:1012700020460BF019F9B04920460BF015F9AF499B
:1012800020460BF011F9AE4920460BF00DF9AD499F
:1012900020460BF009F9294620460BF005F9AA492A
:1012A00020460BF001F9A94920460BF0FDF8A849AA
:1012B00020460BF0F9F8A74920460BF0F5F8A649AF
:1012C00020460BF0F1F8A54920460BF0EDF8A449B3
:1012D00020460BF0E9F8A34920460BF0E5F8494613
:1012E00020460BF0E1F8A04920460BF0DDF89F49BD
:1012F00020460BF0D9F89E4920460BF0D5F89D49C1
:1013000020460BF0D1F89C4920460BF0CDF89B49C4
:1013100020460BF0C9F89A4920460BF0C5F89949C8
:1013200020460BF0C1F8984920460BF0BDF89749CC
:1013300020460BF0B9F8964920460BF0B5F89549D0
:1013400020460BF0B1F8944920460BF0ADF89349D4
:1013500020460BF0A9F8924920460BF0A5F831463B
:1013600020460BF0A1F88F4920460BF09DF88E49DE
:1013700020460BF099F88D4920460BF095F88C49E2
:1013800020460BF091F88B4920460BF08DF829464A
:1013900020460BF089F8414620460BF085F8294697
:1013A00020460BF081F8294620460BF07DF82946AF
:1013B00020460BF079F8294620460BF075F87E4957
:1013C00020460BF071F8394620460BF06DF829469F
:1013D00020460BF069F8794920460BF065F8784B08
:1013E0000093194620460BF05FF8764920460BF033
:1013F0005BF8294620460BF057F8734920460BF05E
:1014000053F8724920460BF04FF8714920460BF013
:101410004BF8704920460BF047F8464920460BF040
:1014200043F8494620460BF03FF8314620460BF082
:101430003BF8294620460BF037F86749674EDFF83E
:10144000D49020460BF030F8654920460BF02CF87C
:10145000644920460BF028F8634920460BF024F835
:10146000624920460BF020F8314620460BF01CF86C
:101470005F4920460BF018F8314620460BF014F86F
:101480005C4920460BF010F8314620460BF00CF872
:10149000594920460BF008F8314620460BF004F875
:1014A000564920460BF000F8314620460AF0FCFF72
:1014B000534920460AF0F8FFA6E000BFB21F030020
:1014C000FF290300BD1F0300CB1F0300E11F030022
:1014D000EA1F0300FD1F0300152003003220030054
:1014E000462003004F2003006F200300A2200300CA
:1014F000AB200300BD200300D3200300F520030030
:10150000232103005A210300692103007C210300E9
:101510000222030024220300482203006C2203005D
:1015200097220300B3220300CD220300EE22030022
:101530001B230300D7200300F92003004F230300DF
:1015400084230300A2230300DF23030015240300E8
:101550005224030090240300D52403001325030024
:101560005825030096250300192603005E26030074
:101570009E260300E5260300252703006C270300B1
:10158000AC270300F3270300332803007A28030065
:10159000BA28030001290300412903008829030018
:1015A000C0290300392A03007A2A0300AA2A03006B
:1015B000D42A03001E2B0300B02B0300F12B0300E1
:1015C000072C03001F2C0300802C03009B2C03001E
:1015D000DB2C0300F32C0300112D0300CF2D03009F
:1015E000682D03007E2D0300932D0300A02D030022
:1015F0000A2E03003E2E0300722E0300A62E0300C7
:10160000DA2E0300DB250300314620460AF04CFFAA
:10161000D34920460AF048FF314620460AF044FFED
:10162000D04920460AF040FF314620460AF03CFFF0
:10163000CD4ECE4920460AF037FFCD4920460AF06C
:1016400033FF314620460AF02FFFCA4920460AF0F0
:101650002BFF314620460AF027FF294620460AF094
:1016600023FFC549C54E20460AF01EFFC449204647
:101670000AF01AFFC34920460AF016FFC249204665
:101680000AF012FFC14920460AF00EFFC049204669
:101690000AF00AFFBF4920460AF006FFBE4920466D
:1016A0000AF002FFBD4920460AF0FEFEBC49204672
:1016B0000AF0FAFEBB4920460AF0F6FEBA49204677
:1016C0000AF0F2FEB94920460AF0EEFEB84920467B
:1016D0000AF0EAFEB74920460AF0E6FEB64920467F
:1016E0000AF0E2FEB54920460AF0DEFEB449204683
:1016F0000AF0DAFEB34920460AF0D6FEB249204687
:101700000AF0D2FEB14920460AF0CEFE41462046FC
:101710000AF0CAFEAE49DFF8948320460AF0C4FE00
:10172000294620460AF0C0FEAA4920460AF0BCFE1F
:10173000A94920460AF0B8FEA84920460AF0B4FE9E
:10174000A74920460AF0B0FEA64920460AF0ACFEA2
:10175000A54920460AF0A8FEA44920460AF0A4FEA6
:10176000A34920460AF0A0FEA24920460AF09CFEAA
:10177000A14920460AF098FE294620460AF094FE28
:101780009E4920460AF090FE9D4920460AF08CFEB4
:101790009C4920460AF088FE9B4920460AF084FEB8
:1017A0009A4920460AF080FE994920460AF07CFEBC
:1017B000314620460AF078FE294620460AF074FE9B
:1017C000594620460AF070FE294620460AF06CFE73
:1017D000904920460AF068FE8F4920460AF064FED0
:1017E0008E4920460AF060FE8D4920460AF05CFED4
:1017F0008C4920460AF058FE294620460AF054FE3D
:10180000894920460AF050FE884920460AF04CFEDD
:10181000514620460AF048FE494620460AF044FE5A
:10182000834920460AF040FE414620460AF03CFE2D
:10183000804920460AF038FE7F4920460AF034FEEF
:101840007E4920460AF030FE7D4920460AF02CFEF3
:101850007C4920460AF028FE7B4920460AF024FEF7
:101860007A4920460AF020FE794920460AF01CFEFB
:10187000784920460AF018FE774920460AF014FEFF
:10188000764920460AF010FE754920460AF00CFE03
:10189000744920460AF008FE734920460AF004FE07
:1018A000724920460AF000FE714920460AF0FCFD0C
:1018B000704920460AF0F8FD6F4920460AF0F4FD11
:1018C0006E4920460AF0F0FD6D4920460AF0ECFD15
:1018D0006C4920460AF0E8FD6B4920460AF0E4FD19
:1018E000294620460AF0E0FD684920460AF0DCFD62
:1018F000674920460AF0D8FD294620460AF0D4FD63
:10190000294620460AF0D0FD294620460AF0CCFDA3
:10191000604920460AF0C8FD394620460AF0C4FD59
:101920005D4920460AF0C0FD5C4920460AF0BCFD36
:101930005B4920460AF0B8FD009B204619460AF094
:10194000B3FD584920460AF0AFFD594620460AF03B
:10195000ABFD294620460AF0A7FD5349A8E000BF89
:101960000E2F0300422F03005E300300722F03008E
:10197000812F0300723003007930030084380300A4
:1019800006310300233103004531030067310300B2
:101990007B3103008B310300B0310300F4310300CD
:1019A0004232030090320300DE3203002C33030086
:1019B0007A330300C83303000E34030015340300E8
:1019C000253403004E3403007C340300BE3403008E
:1019D000ED3403002D3503005A3503009A3503001A
:1019E000C93503000D3603003D360300833603007E
:1019F000B1360300F33603002137030063370300D9
:101A00008337030000380300223803005B380300EB
:101A100067380300A1380300D6380300EF3803000D
:101A200008390300733903007D390300D8390300F6
:101A3000253A0300523A03006E3A0300D122030014
:101A4000843A0300B03A0300E63A0300943B0300F3
:101A5000C53B0300553C0300E53C0300733D030018
:101A6000013E0300913E0300213F0300823F03003B
:101A7000DF3F0300374003008F400300EF400300C7
:101A80003141030067410300164203009041030007
:101A9000CA410300254203005C4203006542030083
:101AA000D0420300F04203004B4303006C220300CA
:101AB000DFF894B420460AF0F7FCD74920460AF034
:101AC000F3FCD64920460AF0EFFCD54920460AF03F
:101AD000EBFCD44920460AF0E7FC294620460AF0F0
:101AE000E3FCD14920460AF0DFFCD04920460AF049
:101AF000DBFCCF4920460AF0D7FCCE4920460AF04D
:101B0000D3FC514620460AF0CFFC494620460AF055
:101B1000CBFC414620460AF0C7FCC749DFF82C84BD
:101B2000DFF82C94DFF82CA420460AF0BDFCC34952
:101B300020460AF0B9FCC24920460AF0B5FC3146FD
:101B400020460AF0B1FC294620460AF0ADFC2946A1
:101B500020460AF0A9FC294620460AF0A5FC2946A1
:101B600020460AF0A1FCB749B74E20460AF09CFC7B
:101B7000394620460AF098FC294620460AF094FC93
:101B8000294620460AF090FCB049B14DB14F20469D
:101B90000AF08AFCB04920460AF086FCAF4920468C
:101BA0000AF082FCAE4920460AF07EFCAD49204690
:101BB0000AF07AFCAC4920460AF076FCAB49204694
:101BC0000AF072FC414620460AF06EFCA849204605
:101BD0000AF06AFCA74920460AF066FCA64920469E
:101BE0000AF062FCA54920460AF05EFCA4492046A2
:101BF0000AF05AFCA34920460AF056FC2946204622
:101C00000AF052FCA04920460AF04EFC9F492046AB
:101C10000AF04AFC9E4920460AF046FC9D492046AF
:101C20000AF042FC414620460AF03EFC9A49204612
:101C30000AF03AFC394620460AF036FC974920461D
:101C40000AF032FC964920460AF02EFC95492046BF
:101C50000AF02AFC314620460AF026FC3946204686
:101C60000AF022FC904920460AF01EFC8F492046CB
:101C70000AF01AFC314620460AF016FC3946204686
:101C80000AF012FC8A4920460AF00EFC89492046D7
:101C90000AF00AFC314620460AF006FC3946204686
:101CA0000AF002FC844920460AF0FEFB83492046E4
:101CB0000AF0FAFB314620460AF0F6FB3946204688
:101CC0000AF0F2FB7E497F4F20460AF0EDFB7E4989
:101CD00020460AF0E9FB314620460AF0E5FB7B4945
:101CE0007B4E20460AF0E0FB294620460AF0DCFB4A
:101CF000784920460AF0D8FB774920460AF0D4FB01
:101D0000764920460AF0D0FB414620460AF0CCFB3B
:101D10007349DFF8448220460AF0C6FB2946204674
:101D20000AF0C2FB294620460AF0BEFB6D49204658
:101D30000AF0BAFB294620460AF0B6FB6A4920465B
:101D40000AF0B2FB694920460AF0AEFB684920461A
:101D50000AF0AAFB674920460AF0A6FB664920461E
:101D60000AF0A2FB294620460AF09EFB6349204662
:101D70000AF09AFB624920460AF096FB6149204628
:101D80000AF092FB604920460AF08EFB5F4920462C
:101D90000AF08AFB294620460AF086FB5C49204669
:101DA0000AF082FB5B4920460AF07EFB5A49204636
:101DB0000AF07AFB594920460AF076FB584920463A
:101DC0000AF072FB574920460AF06EFB564920463E
:101DD0000AF06AFB554920460AF066FB5449204642
:101DE0000AF062FB534920460AF05EFB5249204646
:101DF0000AF05AFB514920460AF056FB504920464A
:101E00000AF052FB4F4920460AF04EFB2946204675
:101E10000AF04AFBA2E000BFA7430300C743030048
:101E20000B44030051440300BF4403002845030052
:101E3000434503007D45030097220300B3220300BE
:101E4000CD2203009D45030032480300CF45030027
:101E50005F4B0300A56A0300DD450300E74503006F
:101E6000EF450300FD450300184603002D4603001F
:101E70005A46030066460300C64603006C4A030048
:101E8000FD4603001B47030036470300404703009D
:101E90005A4703007747030086470300B047030013
:101EA000B5470300F947030038480300834803009F
:101EB000C14803000B49030049490300A14903003D
:101EC000E14903009C510300314A0300714A0300B9
:101ED000DC500300774A03007E4A0300944A030063
:101EE000A84A0300B94A0300C14A0300F04A0300AC
:101EF000154B03002D4B0300434B0300664B0300BF
:101F0000884B0300C14B0300EC4B0300134C030050
:101F10003F4C0300604C0300904C0300A74C0300AF
:101F2000BF4C0300DC4C0300F44C03000B4D0300DA
:101F3000284D03005E4D0300944D0300C94D03007E
:101F4000FE4D0300344E0300F85B030042460300DD
:101F50004F5203009E5D030035540300D9492046CB
:101F60000AF0A2FAD84920460AF09EFA29462046ED
:101F70000AF09AFA294620460AF096FA294620469F
:101F80000AF092FAD14920460AF08EFAD04920464A
:101F90000AF08AFACF4920460AF086FACE4920464E
:101FA0000AF082FACD4920460AF07EFACC49204652
:101FB0000AF07AFACB4B0193194620460AF074FADC
:101FC000C94A0092114620460AF06EFAC7492046D7
:101FD0000AF06AFAC64920460AF066FAC549204660
:101FE0000AF062FAC44920460AF05EFAC349204664
:101FF0000AF05AFAC24920460AF056FAC149204668
:102000000AF052FA314620460AF04EFABE492046FE
:102010000AF04AFABD4920460AF046FABC49204671
:102020000AF042FABB4920460AF03EFABA49204675
:102030000AF03AFAB94920460AF036FAB849204679
:102040000AF032FA394620460AF02EFA3146204686
:102050000AF02AFAB34920460AF026FAB249204685
:102060000AF022FAB14920460AF01EFAB049204689
:102070000AF01AFA494620460AF016FAAD492046F7
:102080000AF012FAAC4920460AF00EFAAB49204693
:102090000AF00AFAAA4920460AF006FAA949204697
:1020A0000AF002FAA84920460AF0FEF9394620460D
:1020B0000AF0FAF9314620460AF0F6F9A34920461B
:1020C0000AF0F2F9A24920460AF0EEF9A1492046A9
:1020D0000AF0EAF9A04920460AF0E6F9414620460E
:1020E0000AF0E2F9414620460AF0DEF99B49DFF8A2
:1020F000F08220460AF0D8F9994920460AF0D4F92E
:10210000984920460AF0D0F9314620460AF0CCF929
:10211000954920460AF0C8F9944920460AF0C4F9C6
:10212000394620460AF0C0F9314620460AF0BCF98B
:102130008F4920460AF0B8F98E4920460AF0B4F9D2
:10214000394620460AF0B0F9314620460AF0ACF98B
:10215000894920460AF0A8F9884920460AF0A4F9DE
:10216000394620460AF0A0F9314620460AF09CF98B
:10217000834920460AF098F9824920460AF094F9EA
:10218000814920460AF090F9804920460AF08CF9EE
:102190007F4920460AF088F97E4920460AF084F9F2
:1021A0007D4920460AF080F97C4920460AF07CF9F6
:1021B0007B4920460AF078F97A4920460AF074F9FA
:1021C000394620460AF070F9314620460AF06CF98B
:1021D000754920460AF068F9414620460AF064F93C
:1021E000724920460AF060F9394620460AF05CF947
:1021F000314620460AF058F96D4920460AF054F954
:10220000414620460AF050F96A4920460AF04CF946
:10221000394620460AF048F9314620460AF044F98A
:10222000654920460AF040F9414620460AF03CF94B
:10223000624920460AF038F9394620460AF034F956
:10224000314620460AF030F95D4920460AF02CF963
:10225000414620460AF028F95A4920460AF024F956
:10226000394620460AF020F9314620460AF01CF98A
:10227000554920460AF018F9414620460AF014F95B
:102280005249DFF8608120460AF00EF939462046AF
:102290000AF00AF9314620460AF006F94C49204670
:1022A0000AF002F94B4920460AF0FEF84A49204656
:1022B0000AF0FAF8494620460AF0F6F8474920465F
:1022C00092E000BF6A4E03009F4E0300E64E0300FB
:1022D0001E4F0300434F0300734F0300AC4F030036
:1022E000085003002E500300395003004F500300E4
:1022F000655003007C50030090500300A55003007C
:10230000BA500300D0500300E1500300FB5003001B
:10231000155103003051030049510300625103007D
:102320007B510300A2510300BB510300EB5103009A
:10233000DB5B03005B520300665203007352030031
:10234000DB520300F552030056530300735303009E
:102350008F530300C95303001E5403004B54030062
:10236000B3540300C9540300095503002555030065
:102370007A55030096550300EB55030007560300FA
:102380005C56030078560300B35603000957030058
:10239000625703007A57030092570300AA570300BD
:1023A0000558030066580300A058030013590300A2
:1023B0006C59030088590300E1590300FD590300DB
:1023C000565A0300725A0300CB5A0300E75A03001F
:1023D000405B0300595B03008B5B0300EA5B030077
:1023E000BC580300025D03000AF05EF8594620461F
:1023F0000AF05AF8D84920460AF056F839462046DD
:102400000AF052F8314620460AF04EF8D3492046E9
:102410000AF04AF8D24920460AF046F8D149204647
:102420000AF042F8D04920460AF03EF841462046DC
:102430000AF03AF8414620460AF036F8CB49DFF870
:10244000308420460AF030F8C94920460AF02CF8BA
:10245000394620460AF028F8C64920460AF024F8F2
:10246000514620460AF020F8C34920460AF01CF8DD
:10247000C24920460AF018F8C14920460AF014F86B
:10248000294620460AF010F8414620460AF00CF88A
:10249000294620460AF008F8BA4920460AF004F80E
:1024A000B94920460AF000F8B849204609F0FCFF77
:1024B000B749204609F0F8FFB649204609F0F4FF75
:1024C000019B2046194609F0EFFF009A204611466D
:1024D00009F0EAFFB049204609F0E6FFAF4920467F
:1024E00009F0E2FFAE49204609F0DEFFAD49204683
:1024F00009F0DAFFAC49204609F0D6FFAB49204687
:1025000009F0D2FFAA49204609F0CEFFA94920468A
:1025100009F0CAFF3146204609F0C6FFA649204609
:1025200009F0C2FFA549204609F0BEFFA449204694
:1025300009F0BAFFA349204609F0B6FFA249204698
:1025400009F0B2FFA149204609F0AEFFA04920469C
:1025500009F0AAFF9F49204609F0A6FF3946204608
:1025600009F0A2FF3146204609F09EFF9A49204615
:1025700009F09AFF9949204609F096FF98492046AC
:1025800009F092FF9749204609F08EFF4946204600
:1025900009F08AFF9449204609F086FF93492046B6
:1025A00009F082FF9249204609F07EFF91492046BA
:1025B00009F07AFF3946204609F076FF3146204679
:1025C00009F072FF8C49204609F06EFF8B492046C6
:1025D00009F06AFF8A49204609F066FF89492046CA
:1025E00009F062FF4946204609F05EFF8649204611
:1025F00009F05AFF8549204609F056FF84492046D4
:1026000009F052FF3946204609F04EFF3146204678
:1026100009F04AFF7F49204609F046FF7E492046DF
:1026200009F042FF7D49204609F03EFF7C492046E3
:1026300009F03AFF4946204609F036FF794920461D
:1026400009F032FF5946204609F02EFF7649DFF89F
:1026500024B2204609F028FF3946204609F024FF1D
:102660003146204609F020FF7049204609F01CFF42
:102670006F49204609F018FF6E49204609F014FF03
:102680006D4A01921146204609F00EFF4946204648
:1026900009F00AFF6949204609F006FF684B0093DC
:1026A0001946204609F000FF5946204609F0FCFE75
:1026B0006449204609F0F8FE3946204609F0F4FE48
:1026C0003146204609F0F0FE5F49204609F0ECFE55
:1026D0005E49204609F0E8FE5D49204609F0E4FE27
:1026E000019A2046114609F0DFFE4946204609F0CE
:1026F000DBFE5849204609F0D7FE009B20461946CC
:1027000009F0D2FE5946204609F0CEFE5249204635
:1027100009F0CAFE3946204609F0C6FE3146204679
:1027200009F0C2FE4D49204609F0BEFE4C49204644
:1027300009F0BAFE4B49204609F0B6FE4A49204648
:1027400009F0B2FE4946204609F0AEFE4749204650
:1027500009F0AAFE90E000BF065C0300605C030085
:10276000795C0300AC5C0300F75C03000C5D0300C4
:102770006E5D0300955D0300AF5D0300C55D030062
:10278000F45D0300465E03006B5E03009B5E030086
:10279000D45E0300305F0300565F03006D5F0300EB
:1027A000855F03007C50030090500300A550030098
:1027B000BA500300D0500300E1500300FB50030067
:1027C000155103009B5F0300305103004951030082
:1027D000625103007B510300B55F0300CE5F03002D
:1027E00004600300516003005D6003006960030042
:1027F00075600300E7600300F860030011610300E7
:1028000048610300936103009F610300AB61030013
:10281000B7610300236203003C620300716203009E
:10282000C0620300CD620300DB6203003563030076
:102830004E63030086630300D4630300E563030073
:10284000F063030063640300A5640300BE64030037
:10285000F7640300476503005265030091650300B8
:10286000AA650300DD6503002D66030039660300D9
:102870003E5E0300FC6303007549204609F014FE28
:102880007449204609F010FE7349204609F00CFEF9
:102890003946204609F008FE3146204609F004FE7C
:1028A0006E496F4E204609F0FFFD6E49204609F043
:1028B000FBFD6D49204609F0F7FD6C49204609F003
:1028C000F3FD6B49204609F0EFFD6A49204609F007
:1028D000EBFD6949204609F0E7FD4946204609F02D
:1028E000E3FD6649204609F0DFFD6549204609F011
:1028F000DBFD6449204609F0D7FD3946204609F042
:10290000D3FD6149204609F0CFFD5146204609F02C
:10291000CBFD5E49204609F0C7FD5D49204609F020
:10292000C3FD5C49204609F0BFFD2946204609F059
:10293000BBFD2946204609F0B7FD4146204609F077
:10294000B3FD2946204609F0AFFD5349204609F062
:10295000ABFD5249204609F0A7FD5149204609F038
:10296000A3FD5049204609F09FFD3146204609F05D
:102970009BFD4D49204609F097FD4C49204609F042
:1029800093FD2946204609F08FFD4949204609F06C
:102990008BFD3146204609F087FD4649204609F067
:1029A00083FD4549204609F07FFD2946204609F070
:1029B0007BFD4249204609F077FD3146204609F06B
:1029C00073FD3F49204609F06FFD3E49204609F05E
:1029D0006BFD2946204609F067FD4146204609F077
:1029E00063FD2946204609F05FFD4146204609F077
:1029F0005BFD2946204609F057FD3349204609F082
:102A000053FD3249204609F04FFD3149204609F077
:102A10004BFD3049204609F047FD2F49204609F07B
:102A200043FD2E49204609F03FFD2D49204609F07F
:102A30003BFD2946204609F037FD2A49204609F08A
:102A400033FD2949204603B0BDE8F04F09F02CBD05
:102A50004666030054660300BA660300C7660300B7
:102A600008690300E0660300176703004E67030070
:102A7000766703009E670300AD670300B967030034
:102A8000C7670300D5670300955D0300AF5D0300D2
:102A90002C6803005B6803008C680300BC680300BB
:102AA000EA680300F16803000E6903003E69030051
:102AB0009A690300B5690300EA690300486A0300E4
:102AC000646A0300AA6A0300E76A0300316B03002B
:102AD000606B03006A6B03009C6B0300B76B030021
:102AE000D16B0300D96B0300E16B0300392884BF6D
:102AF0000738C0B2392984BF0739C9B201F00F01C4
:102B000000F00F0041EA0010704700002DE9F0418D
:102B10000C461849184DDFF86480064609F05CFE43
:102B200000272146284609F027FF0378262B1DD0D1
:102B30002146284609F020FF0378202B16D05FB1EC
:102B40002146284609F018FF0178304609F0E6FED4
:102B50003146404609F0B2FC2146284609F00CFFF8
:102B600003783D2B08BF01270134DAE73046BDE882
:102B7000F08100BFF091030008150020FC33002015
:102B80002DE9F04786B0BD49684609F025FEBC49ED
:102B900003A809F021FE03A9BA4809F00AFF044678
:102BA00003A809F0D3FD002C80F2CA820024B649A4
:102BB00003A809F011FE03A9B24809F0FAFE054680
:102BC00003A809F0C3FD002D47DB294603A8FFF742
:102BD0009DFF03A9684609F078FE03A809F0B6FD39
:102BE0000021684609F0C8FE01210578684609F011
:102BF000C3FE01782846A54DFFF778FF2B685B7868
:102C000083422AD00021684609F0B6FE01210478EB
:102C1000684609F0B1FE01782B682046FFF766FF91
:102C20009B4958709B4809F022FC2B6899485978B9
:102C30000A2209F0BBFC2B6897485A780121FDF75E
:102C4000C7FC0446052009F0F3FE002C40F0B182D9
:102C50009249904809F028FC0124914903A809F001
:102C6000BBFD03A9874809F0A4FE054603A809F0A7
:102C70006DFD002D47DB294603A8FFF747FF03A999
:102C8000684609F022FE03A809F060FD00216846AD
:102C900009F072FE01210578684609F06DFE0178A1
:102CA00028467A4DFFF722FF2B689B7883422AD073
:102CB0000021684609F060FE01210478684609F0A9
:102CC0005BFE01782B682046FFF710FF754998706E
:102CD000704809F0CCFB2B686E4899780A2209F0FD
:102CE00065FC2B686C489A780221FDF771FC04465C
:102CF000052009F09DFE002C40F060826A4965487D
:102D000009F0D2FB0124694903A809F065FD03A974
:102D10005C4809F04EFE054603A809F017FD002D9A
:102D200047DB294603A8FFF7F1FE03A9684609F02F
:102D3000CCFD03A809F00AFD0021684609F01CFE3D
:102D400001210578684609F017FE017828464F4DA5
:102D5000FFF7CCFE2B68DB7883422AD0002168463F
:102D600009F00AFE01210478684609F005FE0178A1
:102D70002B682046FFF7BAFE4D49D870454809F048
:102D800076FB2B684348D9780A2209F00FFC2B68A0
:102D90004148DA780321FDF71BFC0446052009F0C1
:102DA00047FE002C40F00F8242493A4809F07CFB74
:102DB0000124414903A809F00FFD03A9314809F096
:102DC000F8FD054603A809F0C1FC002D47DB2946A4
:102DD00003A8FFF79BFE03A9684609F076FD03A848
:102DE00009F0B4FC0021684609F0C6FD0121057810
:102DF000684609F0C1FD01782846244DFFF776FEAC
:102E00002B681B7983422AD00021684609F0B4FD63
:102E100001210478684609F0AFFD01782B6820464F
:102E2000FFF764FE254918711A4809F020FB2B684A
:102E3000184819790A2209F0B9FB2B6816481A7943
:102E40000421FDF7C5FB0446052009F0F1FD002C27
:102E500040F0BE811A490F4809F026FB01241949A8
:102E600003A809F0B9FC03A9064809F0A2FD05462C
:102E700003A809F06BFC002D6EDB25E0F091030048
:102E80008D10030008150020D51003000C0200204F
:102E9000EB100300FC330020681300200411030032
:102EA0002C110300421103005B1103008311030086
:102EB00099110300B2110300DA110300F0110300AD
:102EC0000912030031120300294603A8FFF71EFE72
:102ED00003A9684609F0F9FC03A809F037FC0021B2
:102EE000684609F049FD01210578684609F044FD6E
:102EF00001782846B94DFFF7F9FD2B685B798342CD
:102F00002AD00021684609F037FD0121047868467F
:102F100009F032FD01782B682046FFF7E7FDB04944
:102F20005871B04809F0A3FA2B68AE4859790A22C3
:102F300009F03CFB2B68AC485A790521FDF748FBAA
:102F40000446052009F074FD002C40F07581A74966
:102F5000A44809F0A9FA0124A54903A809F03CFCFA
:102F600003A9A44809F025FD054603A809F0EEFBD6
:102F7000002D47DB294603A8FFF7C8FD03A96846D3
:102F800009F0A3FC03A809F0E1FB0021684609F061
:102F9000F3FC01210578684609F0EEFC017828462B
:102FA0008E4DFFF7A3FD2B689B7983422AD0002129
:102FB000684609F0E1FC01210478684609F0DCFC70
:102FC00001782B682046FFF791FD8B499871854861
:102FD00009F04DFA2B68834899790A2209F0E6FA3C
:102FE0002B6881489A790621FDF7F2FA04460520FC
:102FF00009F01EFD002C40F024818049794809F039
:1030000053FA01247E4903A809F0E6FB03A9794895
:1030100009F0CFFC054603A809F098FB002D33DB2F
:10302000294603A8FFF772FD03A9684609F04DFC85
:103030006A4D03A809F08AFB684609F0BDFC2B68BD
:103040001B89984220D0684609F0B6FC2B686D4970
:103050001881644809F00BFA2B68624819890A2222
:1030600009F08BFA2B6860481A890821FDF7DEFA0F
:103070000446052009F0DCFC002C40F0E7806249A2
:10308000584809F011FA01240025DFF8A891DFF86B
:1030900064A1DFF848812F460C2606FB05963146D1
:1030A000504609F086FC011EC0F2DB8003A8FFF742
:1030B0002DFD03A9684609F008FC03A809F046FBAA
:1030C000684609F079FC2F1DD8F800307F003B449A
:1030D0009B88984232D0684609F06EFCD8F80030E0
:1030E0004A493B4498803F4809F0C1F931463D4880
:1030F00009F0C1F946493B4809F0B9F9D8F8003060
:1031000038483B440A22998809F037FAD8F8003049
:1031100035481F44691DBA884900FDF787FA0746FC
:10312000052009F085FC31462E48002F40F09380A1
:1031300009F0A1F937492B4809F0B6F9012790E0C9
:10314000214603A8FFF7E2FC03A9684609F0BDFB8E
:10315000224C03A809F0FAFA684609F02DFC23680E
:103160001B7898423FF422AD684609F025FC23689D
:10317000294918701B4809F07AF923681948197809
:103180000A2209F013FA236817481A780021FDF77C
:103190001FFA0446052009F04BFC2CB91F491148C1
:1031A00009F082F9012402E51D490E4809F07CF975
:1031B000FDE41C490B4809F077F94EE51A49094826
:1031C00009F072F99FE51949064809F06DF9F0E533
:1031D0001749044809F068F941E600BF0C020020D5
:1031E00047120300FC330020681300206012030024
:1031F00088120300081500209E120300B712030076
:10320000DF120300E9120300FD1203002B13030079
:10321000A31003000A11030096100300A910030075
:10322000BC100300151103006C110300C31103004F
:103230001A120300181200201549164809F034F933
:103240008AE61549134809F02FF9DBE613491148BE
:1032500009F02AF918E709F00EF911490D4809F0AB
:1032600023F90135072D7FF417AF44EA47040D49D0
:10327000084809F0FCF80A222146064809F07DF9C1
:10328000684609F063FA204606B0BDE8F08700BF43
:1032900071120300FC330020C81203001113030055
:1032A0001B110300301303002DE9F8432C4E2D4968
:1032B0002D4F044609F0DBF833680A2219782046BE
:1032C00009F072F92949204609F0D1F82849204629
:1032D00009F0CDF833680A221989204609F04BF924
:1032E0002249204609F0C3F82249204609F0BFF8D8
:1032F000002533682B4410225978204609F054F9F0
:10330000052D03D03946204609F0B1F80135062DC8
:10331000EFD11649184FDFF86480DFF8509020464F
:1033200009F0A5F800250C2101FB0571204609F0E4
:10333000A2F84146204609F09AF8336803EB4503AA
:103340000A229989204609F016F9062D03D049462C
:10335000204609F08CF80135072DE4D1BDE8F8834B
:103360000C0200204D13030089310300823A030050
:10337000521303005A1303001812002050130300C5
:103380004A6842608A688260CA68C260034A026012
:103390000A7C02744A8A4282704700BF8881030017
:1033A00013B502AA0024214642F8044D04230E4816
:1033B00006F0BAFD019959B90C48FDF765F90520E9
:1033C00009F036FB0A490B4809F06EF802B010BD4F
:1033D00021461A23084A044806F0A6FD052009F0F4
:1033E00027FB0649EFE700BF180200206813002002
:1033F000EC130300FC330020BA1200200514030074
:103400002DE9F3470121092009F058FB012109208A
:1034100009F090FB0121082009F050FB0121082050
:1034200009F088FB01210A2009F048FB01210A204C
:1034300009F080FBC82009F0F9FA0A2005F0BCF871
:10344000414B424D1868424B0093424B424E5B68E1
:1034500001936946013005F047F901210A2009F07E
:1034600069FB3E493C4809F01FF8002405F0B4F818
:1034700060B929463046013409F016F80A20E4B252
:1034800009F0D4FA0A2CF1D1002708E005F0A4F8DD
:103490000328F7D13249304809F006F80127314EA8
:1034A0002D4D0A2405F08EF8022833D131462846E6
:1034B00008F0FAFF013C0A2009F0B8FA14F0FF0402
:1034C000F0D1DFF8B880DFF8B8A0DFF88C900A26DA
:1034D000404605F037FB404605F04CFB0546F8B981
:1034E0005146484608F0E0FF013E0A2009F09EFAE6
:1034F00016F0FF06ECD11C4EF4B1EFB1E5B11B495B
:10350000154808F0D1FF336801225A70284602B0EE
:10351000BDE8F0871649104808F0C6FF0124D0E73F
:1035200014490D4808F0A3FF684605F0F3F8694612
:10353000094808F0D7FFDEE70F49074808F0B4FF55
:10354000336800255D70E1E70C020020D10E030016
:103550005C860300FC120020FC330020BD0E03003B
:10356000EF0E0300120F0300100200206D0F030086
:10357000320F03005E0F0300840F0300401400208D
:103580004B0F03002DE9F0411C4FDFF888801C4DE4
:103590000A243A467621404603F09AF9064670B965
:1035A0001849194808F080FF2B6864201E70013C00
:1035B00009F03CFA14F0FF04EBD1BDE8F0811349A7
:1035C0001148134C08F070FF2B681248256801223F
:1035D0001A7003F081F928600E48256803F09EFAFE
:1035E00068600C4803F0AAF99FED0B7A236807EE98
:1035F000900AC7EE877AC3ED027ADEE73015002025
:1036000010020020A5750300FC330020C4750300E0
:1036100030020020241100200000C8420148FCF7BD
:1036200042BF00BF5014002070B58C000026054634
:103630000161C660204619F031F900232860AE60B0
:103640006B600444A04202D040F8043BFAE72846ED
:1036500070BD06EE901A10B5D0E9031483680268B5
:10366000A14202EB830223BFD2ED007A90ED017AF2
:1036700037EE677A01312CBF80ED017AC160C2ED6F
:10368000006AD0ED017A013377EEA67A9C4298BFAA
:103690000023C0ED017A836010BD0000000000002F
:1036A0002DE9F04F2DED028B934F944C83B02825DC
:1036B0003E460DF09BFD0DF099FDD7F84021D7F85F
:1036C00044319A4240F0F28097F84831002B40F0A4
:1036D000ED800DF0A1FDDFF844820DF09DFD216825
:1036E0004046FFF7B6FF61688548FFF7B2FF013D2E
:1036F000A1688448FFF7ADFF15F0FF05D9D1D8F8D0
:103700000C30002B00F0E98007EE903AD8ED016A0A
:10371000F8EE677A86EEA77A794AD368002B00F034
:10372000DF8007EE903AD2ED016AF8EE677A86EE16
:10373000A78A744AD368002B00F0D58007EE903A30
:10374000D2ED016AF8EE677AC6EEA78ADFF8D0A15B
:10375000DAF8008017EE100A17F068F80646B8F994
:1037600000000F4617F050F8002204460D46664B45
:103770003046394616F0FCFE02460B4620462946E6
:1037800017F0ACF817F05AFB00B217F03DF8002222
:103790005E4B16F0EDFE18F05FF817F04FFB00B22D
:1037A00017F032F800225A4B16F0E2FE17F046FBF3
:1037B000A8F8040018EE900A17F038F80446B8F993
:1037C00002000D4617F020F80022CDE900014E4B13
:1037D0002046294616F0CCFE02460B46DDE90001E4
:1037E00017F07CF817F02AFB00B217F00DF8002252
:1037F000464B16F0BDFE18F02FF817F01FFB00B275
:1038000017F002F80022434B16F0B2FE17F016FB39
:10381000A8F8060018EE100A17F008F802460B4642
:1038200017F05CF82246804689462B4620462946FA
:1038300017F054F842464B4616F09AFE18F08CF8F2
:1038400002460B463046394617F072F917F06CFE07
:1038500027A3D3E9002317F041F817F037FBDAF874
:1038600000B03246CBF808003B463046394617F0E8
:1038700035F842464B4616F07BFE18F06DF80246CE
:103880000B462046294617F053F917F04DFE18A3B2
:10389000D3E9002317F022F817F018FBDAF80040FC
:1038A000206103B0BDEC028BBDE8F08F0DF0B4FCDD
:1038B000D6F8443103F1010C06EB03130FCBBCF136
:1038C000140F84E80F004FF00003C6F844C186F8D7
:1038D000483108BFC6F84431FDE69FED0F7A1BE77B
:1038E0009FED0D8A25E7DFED0C8A2FE7AFF300800F
:1038F000F8C1631ADCA54C407C1B00201411002089
:103900001C130020301300200000F03F0000E03FB7
:103910000000604000804B400000000008130020C1
:10392000140200202DE9F743644A65491368654F86
:10393000654D664E01330446136008F098FD022081
:1039400009F028F90A220146204608F014FE6049D1
:10395000204608F08CFD5F49204608F088FD0A22C9
:103960003978204608F020FE5B49204608F07FFDAC
:103970000A222968204608F0FEFD5849204608F032
:1039800076FD3368186816F051FF4FF00A080246BA
:103990000B46CDF80080204608F0D6FE5049204660
:1039A00008F065FD3368586816F040FFCDF80080D8
:1039B00002460B46204608F0C7FE4A4B1B78042BF4
:1039C000B946A84602D04848FFF76AFE474F484923
:1039D000204608F04CFD3B68986816F027FF0A2542
:1039E00002460B460095204608F0AEFE38492046B8
:1039F00008F03DFD3F49204608F039FD3B68D86896
:103A000016F014FF009502460B46204608F09CFE77
:103A10003949204608F02BFD3368986816F006FFF8
:103A200000950B460246204608F08EFE2449334896
:103A300008F01DFD022009F0ADF82A4601462F4886
:103A400008F099FD22492D4808F011FD21492B4825
:103A500008F00DFD2A4699F80010284808F0A4FD4A
:103A60001D49264808F003FD2A46D8F800102348CF
:103A700008F081FD1649214808F0F9FC20491F484B
:103A800008F0F5FC3368186816F0D0FE0095024681
:103A90000B461A4808F058FE1149184808F0E7FC90
:103AA0003368586816F0C2FE009502460B4613486C
:103AB00008F04AFE03B0BDE8F08300BF10120020FA
:103AC00064130300080200200402002030020020DA
:103AD000823A0300741303007E1303009013030063
:103AE00097130300B812002068130020140200206E
:103AF0009E130300A8130300B1130300FC3300203E
:103B00009113030070B58AB06749684605F052F812
:103B10009DF81030072B43D9002420460AB070BD11
:103B20000124684604F044FE002800F0BB8068468B
:103B300004F0CEFE0028F4D0684604F0DAFEB36844
:103B4000B3F5967FC5B203D22946304608F0E6FEAB
:103B50000A2D40F0A380002CE2D0694605A8FFF7AB
:103B60000FFC05A8FCF74EFE504905A808F034FEEE
:103B700005A94F4808F01DFF044605A808F0E6FD1A
:103B8000002C10DB4B494C4808F08EFC694605A818
:103B9000FFF7F6FB05A8FFF787FB0024254634E076
:103BA0000124434EBDE7454905A808F015FE05A9C7
:103BB0003F4808F0FEFE044605A808F0C7FD002CAB
:103BC0000BDB3F493C4808F06FFC694605A8FFF74E
:103BD000D7FB05A8FFF7A6FEDFE73A4905A808F0DE
:103BE000FBFD05A9324808F0E4FE044605A808F0EC
:103BF000ADFD002C32DB34492F4808F055FC334929
:103C0000684608F034FC00240125012008F00EFF6E
:103C1000684604F08FFE2E49254808F05EFE2D49C7
:103C2000254808F041FC022008F000FF002D3FF479
:103C300074AF2949204808F037FC00210E2008F015
:103C400079FF4FF4FA7008F0F3FE01210E2008F01E
:103C500071FF012008F0EAFEFCF7F6FA1F4916484A
:103C600008F022FCFEF78CFF1D490446124808F0BC
:103C70001BFC1C49104808F0FAFB2A4621460E4856
:103C800008F07BFC694605A8FFF77AFB05A804F05D
:103C90000105C4F34004FCF7D5FDB6E70D2D18BFB0
:103CA00000243EE7044679E7401400202314030073
:103CB0000815002032140300FC33002045140300D3
:103CC000541403006D140300771403008E140300D2
:103CD000F0910300E614030005150300911403009E
:103CE000A2140300CA14030008B5FFF70BFF024B30
:103CF00000B91878187008BD2C020020F0B57F4973
:103D00007F48804E85B008F067FD7F4A7F497C4838
:103D10000DF083FD7E497F4808F05EFD7E497F48B7
:103D200008F05AFD7E497F4808F056FD7E497F48DD
:103D300008F052FD7E497F4808F04EFD7E497F48DD
:103D400008F04AFD7E497F4808F046FD6E4A7E49EC
:103D500000200DF062FD7D4B7D48002200270024ED
:103D60000025C3E904451A605A609A60C3E9064514
:103D700083F82070774B4FF47D421A8044F61F522F
:103D80005A804FF61A429A80DA229A7140F6B83277
:103D90001A815A8119229A812A22DA8140F2D67236
:103DA0001A820A225A829A824FF4C872DA82062252
:103DB0001A83694A012382F8B53082F8B4700193FE
:103DC0004FF4FA4300932E224FF0FF332F2102F0DD
:103DD0001DF94D4A61495E480DF01FFD1423A020D6
:103DE000C6E9057318F05AFDC6E90245306037612F
:103DF00000F1A003E0E802459842FBD1424A58494D
:103E000040480DF00AFD574B002403F150021C708E
:103E10005C70DC60C3E9014410339342F7D152482F
:103E2000524B036001250523374A514980F87950E8
:103E300080F889302323C0F88C3080F8905080F8C7
:103E400091500DF0EAFC4B4802F057FA2E4A4A49CD
:103E500048480DF0E2FC14230093A8222B46C02111
:103E6000464808F0B3FA0A230093A8222B46C02143
:103E70004348444D08F0AAFA434B444A1A60502282
:103E80005C601A81424B4348CDE901330E23009315
:103E90004022414B802102F0E7FE1B4A3F493D484A
:103EA0000DF0BBFC28464FF47A73AB603C4B6C6062
:103EB00040F8143B08F082FA08232821394885F895
:103EC0002030FFF7B1FB104A374936480DF0A5FC0A
:103ED00028213648FFF7A8FB0B4A334933480DF039
:103EE0009CFC28213248FFF79FFB074A2E493048A7
:103EF00005B0BDE8F0400DF090BC00BFF0910300AC
:103F00000815002048130020000200204DC70100C2
:103F1000840E0300181200208C0E030024120020CF
:103F2000930E0300301200209A0E03003C12002072
:103F3000A30E030048120020AD0E0300541200200F
:103F4000B50E030060120020890201001814002041
:103F50006C130020BA12002050140020AD5901004B
:103F6000B3020100801100207C110020F4760300D0
:103F7000BD010100241100200D630100FC1200208E
:103F80000C140020F010002040140020E4810300F5
:103F9000801A06006C12002030150020C96C010048
:103FA0000482030008130020A50201001C13002056
:103FB000301300202DE9F34715462E4A136880463A
:103FC000013350200F461360002408F031FD012614
:103FD000294B00938DF8044002AB8DF8056013E97E
:103FE00006002648EDB201F035FD2146284608F0CE
:103FF000A1FD142008F01CFDAA21204801F0E4FCDA
:104000008146142008F014FD41461C4801F0DCFCF8
:104010008246142008F00CFD390A184801F0D4FC3F
:104020008046142008F004FDF9B2144801F0CCFCDD
:104030000746142008F0FCFC3146284608F07AFDBB
:104040000E4801F0FFFC502008F0F2FCBAF1190F05
:104050000CD1A9F1180358425841B8F11A0F07D1F1
:104060001B2F18BF002002B0BDE8F0872046F4E700
:104070000020F8E71412002080841E001415002090
:10408000F8B504460E46174697253A46314620466F
:10409000FFF790FF18B9013DF7D104F1FA00F8BD20
:1040A0002DE9F74F8046502015460F4608F0C0FC1A
:1040B000414B0093002401238DF805308DF8044016
:1040C00002AB13E906003D48EDB201F0C3FC214606
:1040D000284608F02FFD142008F0AAFC0F213748CD
:1040E00001F072FC8246142008F0A2FC41463348DD
:1040F00001F06AFC8346142008F09AFC21462F4800
:1041000001F062FC8146142008F092FC21462B4805
:1041100001F05AFC0646142008F08AFCBBF1190F86
:1041200003D1AAF118035C425C41B9F11A0F3CD1EA
:104130001B2E3AD184F00104502008F079FC18219C
:104140001E4801F041FC8346142008F071FC19213F
:104150001A4801F039FC8246142008F069FC1A2143
:10416000164801F031FC8146142008F061FC1B2147
:10417000124801F029FC0646142008F059FC0121E0
:10418000284608F0D7FC0D4801F05CFC502008F0F0
:104190004FFCBBF1F00F03D1C24501D1012C06D178
:1041A0000020388003B0BDE8F08F0124C4E746EA60
:1041B00009263E800120F5E780841E0014150020AA
:1041C000F8B504460E46174697253A46314620462E
:1041D000FFF766FF18B9013DF7D104F5AF70F8BDE0
:1041E0002DE9F74302AF002427F8024DDFF8509085
:1041F0002546261D5FFA84F87600D9F8003033444E
:10420000092299884046FFF73BFF80B109223946D1
:104210004046FFF7D5FF50B1D9F8003033449A88B3
:10422000BDF806309A4209D00135952DE5DD0134FF
:10423000072CDED1284603B0BDE8F0830025F6E761
:104240000C02002073B51E4C237883B11D491E4813
:104250001E4D08F029F9FFF7C3FF1D4928601A48D1
:1042600008F005F90A222968174808F086F9194E5E
:10427000327802B32378F3B90220ADF8063008F0A3
:1042800089FCB0B9962509220DF106010B20FFF734
:1042900007FF28B9013DF6D14FF45F43ADF8063072
:1042A000BDF806100C4B0848090A0A22197008F0DC
:1042B0007DF9002333700023237002B070BD00BF6E
:1042C0002C0200204F150300FC33002004020020C4
:1042D000621503004C140020080200202DE9F04F65
:1042E00085B09A469DF8383002939DF8403003938C
:1042F0000125102390460022CDE900350646802393
:104300001E48DDF83C909DF844B01C4C0F46114609
:1043100003F0EFF92F230093019580231122002150
:10432000164803F0E6F9BBF1000F0DD02823112247
:1043300040212046009503F026F80095802337227F
:104340000021204602F0F8FF51460C4803F04EFED3
:10435000029B7BB14FF48033636101230F93039B76
:104360000E9342464B463946304605B0BDE8F04F05
:10437000FCF7FCB94FF00113EEE700BF6C12002010
:104380002DE9F0438046A1B08548854D02F0ABFD94
:10439000844B1F78844B1D9345F64F13ADF878304E
:1043A00000241DAEE3B29F424FF00103315D009344
:1043B0004FF03B024FF00203284640F0D08003F05C
:1043C000B6FB0134062CEDD1DFF81892744C0023B3
:1043D0000A27CDE90273CDE9003905220123162110
:1043E0004046FFF77BFF714B1B685B78002B00F0AA
:1043F000B9806F4B6F4D23616F49204608F040F83C
:104400006E4B23612B683A461978204608F0CCF8A9
:104410006B4B23616B49204608F032F86A4B2361ED
:104420006A49304608F0D8F92B6819783A461431B1
:104430001AA808F001FA1AA9304608F07CFA0146D9
:1044400005A808F038FA1AA808F080F9304608F0F4
:104450007DF905A9204608F00EF85D4B23615D4902
:10446000204608F00DF85C4B23612B681022597828
:104470000BA808F0D0F90BA90EA808F01CFA5749B0
:104480000EA808F064FA2B6810229978074611A844
:1044900008F0C1F911A9384608F04DFA4F4908F063
:1044A00056FA2B681022D978074614A808F0B3F9F9
:1044B00014A9384608F03FFA484908F048FA2B6832
:1044C00010221979074617A808F0A5F917A9384648
:1044D00008F031FA414908F03AFA2B68102259796C
:1044E00007461AA808F097F91AA9384608F023FADF
:1044F0003A4908F02CFA2B68102299790746304681
:1045000008F089F93146384608F015FA014608A83E
:1045100008F0D1F9304608F019F91AA808F016F990
:1045200017A808F013F914A808F010F911A808F05A
:104530000DF90EA808F00AF90BA808F007F908A968
:10454000204607F098FF08A808F000F905A808F031
:10455000FDF8134802F03EFF21B0BDE8F08303F000
:1045600073F92EE701251323CDE9013512230093BA
:1045700016221B4B2046372103F006FB2946204616
:1045800003F034FD4FF0011363611A23009301958A
:104590004B462B2211214046FCF7E8F8D9E700BF33
:1045A0006C120020B812002027313B451002002079
:1045B000050014000C020020DA720300320014001F
:1045C00005001E00E372030032001E005375030055
:1045D00005002700EC72030005003000893103005C
:1045E000CD6C0300047403002DE9F043054687B049
:1045F0005D485D4F02F077FC5C4B93F800805C4BAC
:10460000049345F64F13ADF8143000240DF1100952
:104610000126E3B2984519F8041000964FF0020302
:104620004FF03B02384640F0868003F080FA0134B8
:10463000062CEED100230B22CDE902234D4A284659
:10464000CDE90032192101230522FFF747FE03209F
:1046500008F0A0FA002871D1072008F09BFA002882
:104660006CD1414C444B454D23614549204607F0F0
:1046700007FF444B23612B680A229989204607F0E3
:104680007AFF414B23614149204607F0F9FE404B38
:1046900023612B680A22D989204607F06CFF3D4B25
:1046A00023613D49204607F0EBFE3C4B23612B681C
:1046B0000A22198B204607F05EFF394B23613949E6
:1046C000204607F0DDFE384B23612B680A22D98A89
:1046D000204607F050FF354B23613549204607F04F
:1046E000CFFE344B23612B680A22998A204607F0BB
:1046F00042FF314B23613149204607F0C1FE304B68
:1047000023612B680A22598A204607F034FF2D4B7B
:1047100023612D49204607F0B3FE2C4B23612B6803
:104720000A22198A204607F026FF0F4807B0BDE885
:10473000F04302F04FBE03F087F878E7012413231B
:10474000CDE90134122300931622214B064837216C
:1047500003F01AFA042300930194064B2B2219212B
:104760002846FCF703F8E0E76C120020B81200209E
:1047700027313B4504740300030013000C020020A2
:104780003D7303002D001300400013004573030028
:104790006C00130003001D006B7303002D001D004F
:1047A00040001D006473030066001D000300270025
:1047B0005C7303002D0027004000270055730300A1
:1047C0006C002700030031004D7303002D00310001
:1047D000CD6C03002DE9F04F064689B07748774F3E
:1047E00002F081FB764B93F80080764B069345F6FA
:1047F0004F13ADF81C3000240DF118090125E3B268
:10480000984519F8041000954FF002034FF03B0251
:10481000384640F0A98003F08AF90134062CEED125
:10482000694F00252B240123052219213046CDE9AB
:104830000245CDE90057FFF751FD022008F0AAF923
:10484000012840F0A4805D4E029017231522CDE987
:10485000003203215D4BDFF8ACB1DFF8AC911422DC
:10486000304603F091F90221304603F0BFFB584B6C
:104870003361584C08F0C8F82368CBF80000C01A20
:10488000132836D908F0C0F820605348534C01F083
:10489000A1FB534B80461860D9F80000514BA8EBA0
:1048A000000043F8250015F09FFFD4E9053A534571
:1048B000CDE904015BD201336361276923689DED73
:1048C000047B03EBC70383ED007B53EC172BD4E988
:1048D000020115F04DFE0137BA45C4E9020198BF47
:1048E000002305F101058CBF27612361C9F8008011
:1048F000EDB2132DBDD9394B5C69002C44D0D3E9FE
:10490000020116F0E3FA07EE904A07EE100AF8EEFD
:10491000677A87EE277A344B1C6817EE100A15F079
:1049200085FF0022C4E90401304B16F001F9002292
:104930002F4B15F0D3FF0B460246C4E90623022491
:1049400000941E4807F000FF21461C4803F04EFB70
:10495000284B33612849194807F092FD174809B0E0
:10496000BDE8F04F02F036BD02F06EFF55E7226958
:10497000236803EBC203D3E90023D4E9020115F055
:10498000F5FDC4E9020198E79FED1C7AC3E7012514
:104990001323CDE90135122300931622184B074843
:1049A000372103F0F1F82D23009301953B46224671
:1049B00019213046FBF7DAFED0E700BF6C12002069
:1049C000B812002027313B450474030079710300BD
:1049D0001E002200E81000206C1300204813002065
:1049E000E010002090100020300200200000344031
:1049F0000000D03F500022009B7503000000000023
:104A0000CD6C0300E4100020EC1000202DE9FF41E4
:104A10002A4C2B4F01254023CDE901358023064642
:104A20000522002100932046264B03F0ADF82046D6
:104A300002F0D0FC40F2DC5007F0F8FF204602F014
:104A400052FA4FF000080623CDE9023805222B4622
:104A50003046CDE900871721FFF740FC2946204664
:104A600003F0C4FA4FF001136361CDE900853B46C2
:104A700030461E222321FBF779FE3B462822CDE952
:104A800000552A213046104DFBF770FE204602F0FB
:104A9000A1FC0E49284607F007FD0D49284607F0FE
:104AA00003FD40F2DC5007F0C1FF204602F01BFA84
:104AB000204604B0BDE8F04102F08CBC6C1200202E
:104AC00004740300066D0300FC33002088750300A6
:104AD000937503002DE9F043484EDFF83881DFF885
:104AE0002C91474C85B000230622CDE90223CDE965
:104AF00000360522012317210746FFF7EFFB0323AA
:104B00000122CDE900321121334624223846FBF739
:104B10002DFE3B4802F05EFC40F2DC5007F086FFC1
:104B2000072008F037F858B34146484607F0BCFC68
:104B3000204602F0D8F901251323CDE901351223CF
:104B4000009320462F4B1622372103F01DF8002337
:104B50000622CDE90223CDE9003638462B46052250
:104B60001721FFF7BBFB0423009338460195234B25
:104B70002B221921FBF7FAFD204602F02BFCCFE790
:104B8000032008F007F805460028CDD11E491F482C
:104B900007F08AFC1A4802F0A6F901241123CDE996
:104BA0000134122300931722194B1548372102F0C4
:104BB000EBFF0623CDE901633846234603950095B4
:104BC00005221721FFF78AFB05232B2214210093CE
:104BD00038460A4B0194FBF7C9FD094802F0FAFB7D
:104BE00040F2DC5007F022FF054802F07CF904484F
:104BF00005B0BDE8F04302F0EDBB00BF0474030054
:104C00006C120020CD6C030072750300FC33002091
:104C10009A6C03005E7503002DE9F04F4D4F4E4D29
:104C2000DFF84C9185B04FF000084FF0060A0123E1
:104C300005221721CDE902A8CDE900870446012607
:104C4000FFF74CFB132324221121CDE90036204627
:104C50003B46FBF78BFD284602F0BCFB40F2DC50E4
:104C600007F0E4FE2046FEF78DFC2046D9F800B0A0
:104C7000FBF71AFD8BF80400284602F034F933469E
:104C80000522CDE902A8CDE9008717212046FFF7CC
:104C900025FBD9F800301A78A946002A35D093F8B8
:104CA0000480B8F1000F30D02C492D4807F0FCFBF0
:104CB0004FF0110912231722CDE900393721294B72
:104CC0000296284602F060FF3146284603F08EF92E
:104CD0004FF001136B611423009301963B462B2286
:104CE00049462046FBF742FD1B4802F073FB40F2A9
:104CF000DC5007F09BFE184802F0F5F8164802F069
:104D000069FB404605B0BDE8F08F1749144807F02D
:104D1000CBFB01251323CDE9013512231622009385
:104D20003721124B0C4802F02FFF29460A4803F0A6
:104D30005DF94FF00113C9F8143015230093019564
:104D4000044B2B2211212046FBF710FD4FF00008E9
:104D5000CAE700BF047403006C120020F174030062
:104D6000FC3300209A6C030004750300CD6C030033
:104D7000100200202DE9F0433E4E3F4D85B04FF02C
:104D800000084FF00609CDE90298CDE9008601231D
:104D90000522172107460124FFF7A0FA1B2324222E
:104DA0001121CDE9003438463346FBF7DFFC2846B5
:104DB00002F010FB40F2DC5007F038FE284602F00B
:104DC00092F8CDE90298CDE9008623460522172105
:104DD0003846FFF783FAFEF713FB804680B3274976
:104DE000274807F061FB4FF011091223CDE9003984
:104DF0001722244B02943721284602F0C5FE214693
:104E0000284603F0F3F84FF001136B6101941C2363
:104E10002B221121009338463346FBF7A7FC164896
:104E200002F0D8FA40F2DC5007F000FE124802F01F
:104E30005AF8114802F0CEFA404605B0BDE8F083BA
:104E400011490F4807F030FB12231322CDE900323D
:104E500037210E4B02941622284602F095FE214679
:104E6000284603F0C3F84FF001136B6101941D2332
:104E7000CEE700BF047403006C1200202575030008
:104E8000FC3300209A6C03003D750300CD6C0300D9
:104E900030B5114C85B000230622CDE90223CDE9BF
:104EA00000340522012317210546FFF717FA2C23AA
:104EB0000122CDE900321121234624222846FBF7A6
:104EC00055FC064802F086FA40F2DC5005B0BDE819
:104ED000304007F0ABBD00BF047403006C1200202B
:104EE0002DE9F043074687B05548554E01F0FBFFCA
:104EF000544B93F80080544B049345F64F13ADF890
:104F0000143000240DF110090125E3B2984519F879
:104F1000041000954FF002034FF03B02304671D170
:104F200002F005FE0134062CEFD100230722CDE963
:104F30000223464A464D424CCDE900321721012357
:104F400005223846FFF7CAF92B689B787BB9012305
:104F50002377404B23612821204602F0BDFF212109
:104F6000204602F0B9FF2921204602F0B5FF3A4B56
:104F700023613A4932483A4E07F082FA394B2361AD
:104F800039492F4807F07CFA384B236138492C48BF
:104F900007F076FA2B682A485B790121002B34D080
:104FA00003F024F84FF480333249266163612448CA
:104FB00007F066FA2B6822489B792F4D012163B3D5
:104FC00003F014F84FF480332A49256163611C48CB
:104FD0002A4D07F055FA022007F0DCFD01280146B2
:104FE00023D1174803F002F84FF480332449256198
:104FF0006361134807F044FA114807B0BDE8F04375
:1050000002F0E8B902F020FC8CE702F0EFFF4FF469
:105010008033266163611B49C9E702F0E7FF4FF463
:105020008033256163611749D1E70121044802F00B
:10503000DDFF4FF48033256163611349D9E700BF79
:105040006C120020B812002027313B450474030085
:10505000100200206C000500050014006B720300B4
:1050600050001400050021007872030005002E0096
:1050700085720300947203005000210050002E003E
:105080009A720300917203009D7203002DE9F043B0
:10509000064687B05448544F01F025FF534B93F810
:1050A0000080534B049345F64F13ADF814300024A1
:1050B0000DF110090125E3B2984519F80410009587
:1050C0004FF002034FF03B0238466FD102F02FFD44
:1050D0000134062CEFD100230822464F424CCDE983
:1050E00002230522CDE90037114601233046FFF7A0
:1050F000F5F8414B1B681B7801250295002B58D011
:105100001026CDE900663D4BDFF8108116220A21FA
:10511000204602F039FD2722394B0096CDE9016582
:105120000A21204602F030FD0221204602F05EFFF7
:10513000344B4FF00116C4E90436D8F80030186833
:1051400015F074FB022702460B460097204607F035
:10515000FBFA2D4B2361D8F80030586815F066FB38
:10516000009702460B46204607F0EEFA29462046F5
:10517000257702F03BFF254BA721C4E904362046E2
:1051800002F0AAFE2249204607F07AF94321204680
:1051900002F0A2FE1F4B23612521204602F09CFE57
:1051A000114807B0BDE8F04302F014B902F04CFB1F
:1051B0008EE712231322CDE900322046164B162229
:1051C000372102F0E1FC2946204602F00FFF4FF0A4
:1051D000011363611623009301953B462B22112195
:1051E0003046FBF7C3FADBE76C120020B812002050
:1051F00027313B45047403001002002006710300B0
:10520000267103002300160023002700610016000A
:10521000F091030061002700CD6C030030020020F4
:105220002DE9F043074687B04D484D4D01F05BFE38
:105230004C4B93F800804C4B049345F64F13ADF85C
:10524000143000260DF110090124F3B2984519F825
:10525000061000944FF002034FF03B0228467BD12A
:1052600002F065FC0136062EEFD101250923CDE9B8
:1052700002353E4B01930023394C009338462B46B0
:1052800005222321FFF72AF8112325771322CDE9E0
:1052900000331821364B0295204602F075FC384643
:1052A000FEF7FEF93346334E009520462422602156
:1052B00002F0CAFA3368B3F90620B3F90410009576
:1052C000322AA8BF32227A29A8BF7A21162AB8BF6B
:1052D00016224529B8BF45212046042302F027FCA9
:1052E000254B2361E921204602F0F6FD23492046A3
:1052F00007F0C6F8224B23613368986815F096FAD8
:10530000009502460B46204607F01EFA1D4B23610E
:10531000A721204602F0E0FD1B4B2361E921204636
:1053200002F0DAFD1949204607F0AAF83368186937
:1053300015F07CFA009502460B46204607F004FA69
:10534000134B2361A721204602F0C6FD204607B07B
:10535000BDE8F04302F03EB802F076FA82E700BF03
:105360006C120020B812002027313B450474030062
:105370004671030014020020040024009F750300FE
:10538000160024003700240004002E00A27503003C
:1053900037002E0038B5364B364C1A68364BD0796C
:1053A0001978884211D13548007870B1344D2B7886
:1053B00003BB07F029FB334B1B6803F5922303F56E
:1053C000787398421AD9012317E0D079814202D12B
:1053D0002A48007890B1D07981420FD0D2791A70E2
:1053E000264B1B789BB12378042B94BF01330023F9
:1053F000237003E00623237000232B702378072BF0
:1054000030D8DFE803F0060B10151A1F242A0723F3
:10541000EEE71D48BDE83840FFF762BD1A48BDE819
:105420003840FFF7E1B81848BDE83840FFF7D2B977
:105430001548BDE83840FEF7A3BF1348BDE8384023
:10544000FFF7EEBE1048BDE83840FFF71FBE0E481C
:10545000FBF7BCF90823237038BD0B48FBF7C4F9F0
:105460000023F8E70120BDE8384007F0E1BA00BFAB
:1054700010020020B8120020091400200814002097
:105480008C10002004130020681300202DE9F04147
:105490002148214FDFF89880204D00F0ADFB2049D6
:1054A0001D4800F008FC32243A465021404604F0E2
:1054B00026FD064670B91B491B4806F0F5FF2B6810
:1054C0000520DE70013C07F0B1FA14F0FF04EBD1C7
:1054D000BDE8F0811549144806F0E6FF2B68144832
:1054E0000122DA704FF4FA3104F018FD80211048DF
:1054F00004F016FD03210E4804F014FD0D490A487E
:1055000006F0B5FF0A4804F0E7FC0A220146BDE8B0
:10551000F041054807F054B8301500201002002073
:10552000801A06001F100300FC3300204010030007
:10553000180200204F1003002DE9FF415049514847
:1055400006F0B2FFFFF7A2FF4F4B1B68DB78002B82
:1055500000F08C804D4C4E4E4A4FDFF84C81FDF7E9
:105560001FFF22681378118919441433DBB251816B
:1055700002A8A8220093C021012306F027FF039B65
:1055800044494048736006F08FFF43493D4806F0A8
:105590008BFF42493B4806F073FF2368394819786E
:1055A0000A2207F003F83E49364806F060FF00255E
:1055B00073190A221979384606F0F6FF032D03D035
:1055C0004146384606F053FF0135042DF0D13549E8
:1055D0002C482C4E344F06F07BFF3449294806F006
:1055E0004FFF002523682B4410225978304606F0DF
:1055F000DBFF052D03D03946304606F041FF01356B
:10560000062DEFD127491F48DFF8B4801D4E284FE3
:1056100006F05EFF27491B4806F032FF2368194851
:1056200019890A2206F0A9FF2349164806F028FF27
:105630002368144859890A2206F09FFF00250C218F
:1056400001FB0581304606F016FF3946304606F06C
:1056500017FF236803EB45030A2299893046013579
:1056600006F08BFF072DEAD1002005E0134905481D
:1056700006F01AFF4FF0FF3004B0BDE8F08100BF24
:10568000E96B0300FC330020100200200C02002014
:10569000FC120020086C0300186C0300286C030047
:1056A000336C0300F0910300893103003E6C03006A
:1056B000A31003004C6C0300586C0300656C0300DE
:1056C000181200202DE9F0433B4F3C4E85B00025D9
:1056D0004FF00609012305221721CDE90295CDE9F6
:1056E000005780460124FEF7F9FD252324221121CD
:1056F000CDE9003440463B46FBF738F8304601F030
:1057000069FE40F2DC5007F091F9304601F0EBFB06
:105710002346052217214046CDE90295CDE90057E1
:10572000FEF7DCFDFFF708FF1223029448BB1125AA
:105730001722CDE900353721214B304602F024FAFB
:105740002146304602F052FC4FF0011373612723CB
:10575000009301943B462B2229464046FBF706F86E
:10576000164801F037FE40F2DC5007F05FF91348AD
:1057700001F0B9FB114801F02DFE204605B0BDE84F
:10578000F0831322CDE9003237210E4B162230462A
:1057900002F0FAF92146304602F028FC4FF00113DE
:1057A00073612823019400932B223B46112140462C
:1057B000FAF7DCFF2C46D3E7047403006C120020D8
:1057C0009A6C0300CD6C030073B54FF4E1315E4871
:1057D0005E4E5F4D06F072FC5E495D4806F064FE69
:1057E0004FF4FA7007F022F90221052007F066F95C
:1057F00001210E2007F062F90221072007F05EF96F
:1058000001210E2007F096F95349514806F04CFE4D
:105810004FF4FA7007F00AF90124009423463D2260
:1058200002214E4801F06CFB20B93146284606F0B3
:105830003BFEF1E74A4B4B4945481C7006F034FEED
:105840004FF47A7007F0F2F8444801F04CFB4348FB
:1058500001F0C0FD4448FFF7D9F84348FFF73AF993
:105860004148FFF72FFF04463F48FFF7D5F90546AB
:105870003D48FFF77FFA002D63D0002808BF0024C1
:105880003A4B39481B689C70FFF702FB3648FAF721
:1058900047FF37492E4806F007FE4FF4FA7007F02D
:1058A000C5F800230A2233493348FAF788FE01235A
:1058B000142232493048FAF782FE02234FF4FA628A
:1058C0002F492D48FAF77BFE03232E4A2E492A48FA
:1058D000FAF775FE012332222C492748FAF76FFEAA
:1058E000012332222A492448FAF769FE032341F2B0
:1058F000883228492048FAF762FE03234EF66022D8
:1059000025491D48FAF75BFE03231E4A23491A481E
:10591000FAF755FE03231B4A21491748FAF74FFEB1
:105920000E4801F0E0FA0D4801F054FD07F06CF864
:105930001C4B1D491860064802B0BDE8704006F0D7
:10594000B3BD2C469CE700BFC4320020F2750300B3
:10595000FC330020D0750300DE7503006C120020BC
:10596000081400200C7603006813002010020020A9
:105970001B7603004542010050140020E93C010061
:10598000C101010080EE36000103010095530100C2
:105990007D0201007103010011020100F903010001
:1059A000C1020100041300203476030010B5044640
:1059B0005C3007F095FE04F1300007F091FE201DE9
:1059C00007F08EFE204610BD10B586B0C0688DF879
:1059D0000F10036801220092DC680DF10F010DF138
:1059E0001703A0479DF8170006B010BDF8B5427A1E
:1059F000036804460E46CFB29B680D0A62B9394669
:105A00009847236860F307069B6829462046984715
:105A100060F30F26B0B2F8BD29469847236860F3BB
:105A20000F269B6839462046984760F30706F1E742
:105A300013B5C06803680092DC680B46A04702B04B
:105A400010BD70477047C06810B103685B681847A5
:105A50007047704773B543686D469942044685E8C0
:105A600006000E4604D1BDF8042003899A420DD0E9
:105A70009DF80420E068082107F087FFE0683146C0
:105A800007F0A0FF0098AB886060238102B070BD72
:105A900073B5044654200CF0CFF84FF0FF3694F95C
:105AA000183094F9102094F914100096054607F068
:105AB00027FFE56002B070BD10B51C2104460CF054
:105AC000E1F8204610BD000038B505F00AF90C28B1
:105AD0008ABF154B4FF0FF3593F9C05005F001F91F
